{
	"compilerInput": "{\"language\":\"Solidity\",\"sources\":{\"R5.sol\":{\"content\":\"// SPDX-License-Identifier: MIT\\r\\npragma solidity >=0.7.6 <0.9;\\r\\n\\r\\nimport \\\"@openzeppelin/contracts/token/ERC20/IERC20.sol\\\";\\r\\nimport \\\"@openzeppelin/contracts/token/ERC20/ERC20.sol\\\";\\r\\nimport \\\"@openzeppelin/contracts/token/ERC20/extensions/ERC20Burnable.sol\\\";\\r\\nimport \\\"@openzeppelin/contracts/token/ERC20/extensions/ERC20Permit.sol\\\";\\r\\nimport \\\"@openzeppelin/contracts/access/Ownable.sol\\\";\\r\\nimport \\\"@openzeppelin/contracts/security/ReentrancyGuard.sol\\\";\\r\\n\\r\\n/// @title Wrapped R5\\r\\n/// @notice ERC20 wrapper for R5 coin with a fixed cap, burn, and EIP‑2612 permit\\r\\ncontract WrappedR5 is\\r\\n    ERC20,\\r\\n    ERC20Burnable,\\r\\n    ERC20Permit,\\r\\n    Ownable,\\r\\n    ReentrancyGuard\\r\\n{\\r\\n    /// @notice Maximum total supply: 66,337,700 WR5 (18 decimals)\\r\\n    uint256 public constant CAP = 66_337_700 * 10 ** 18;\\r\\n\\r\\n    /// @dev Emitted when new tokens are minted\\r\\n    event TokensMinted(address indexed to, uint256 amount);\\r\\n\\r\\n    /// @dev Emitted when tokens are burned\\r\\n    event TokensBurned(address indexed from, uint256 amount);\\r\\n\\r\\n    /// @dev Emitted when tokens are rescued from the contract\\r\\n    event TokensRecovered(\\r\\n        address indexed token,\\r\\n        address indexed to,\\r\\n        uint256 amount\\r\\n    );\\r\\n\\r\\n    /// @dev Emitted when ownership transfer is initiated\\r\\n    event OwnershipTransferStarted(\\r\\n        address indexed previousOwner,\\r\\n        address indexed newOwner\\r\\n    );\\r\\n\\r\\n    /// @dev The address pending ownership transfer\\r\\n    address private _pendingOwner;\\r\\n\\r\\n    constructor()\\r\\n        ERC20(\\\"Wrapped R5\\\", \\\"WR5\\\")\\r\\n        ERC20Permit(\\\"Wrapped R5\\\")\\r\\n        Ownable(msg.sender)\\r\\n    {\\r\\n        // owner initialized to deployer\\r\\n    }\\r\\n\\r\\n    /// @notice View the address pending to become owner\\r\\n    function pendingOwner() public view returns (address) {\\r\\n        return _pendingOwner;\\r\\n    }\\r\\n\\r\\n    /// @notice Initiate ownership transfer to a new account (`newOwner` cannot accept until this is called)\\r\\n    /// @param newOwner The address to transfer ownership to\\r\\n    function initiateOwnershipTransfer(address newOwner) external onlyOwner {\\r\\n        require(newOwner != address(0), \\\"WrappedR5: new owner is zero address\\\");\\r\\n        _pendingOwner = newOwner;\\r\\n        emit OwnershipTransferStarted(owner(), newOwner);\\r\\n    }\\r\\n\\r\\n    /// @notice Accept ownership transfer (must be called by pending owner)\\r\\n    function acceptOwnership() external {\\r\\n        address sender = _msgSender();\\r\\n        require(sender == _pendingOwner, \\\"WrappedR5: caller is not the pending owner\\\");\\r\\n        _pendingOwner = address(0);\\r\\n        _transferOwnership(sender);\\r\\n    }\\r\\n\\r\\n    /// @notice Mint up to the cap; only the owner can call\\r\\n    /// @param to   Recipient of the minted tokens\\r\\n    /// @param amount  Amount to mint (in wei)\\r\\n    function mint(address to, uint256 amount) external onlyOwner nonReentrant {\\r\\n        require(totalSupply() + amount <= CAP, \\\"WrappedR5: cap exceeded\\\");\\r\\n        _mint(to, amount);\\r\\n        emit TokensMinted(to, amount);\\r\\n    }\\r\\n\\r\\n    /// @notice Burn your own tokens; emits a custom event\\r\\n    function burn(uint256 amount) public override {\\r\\n        super.burn(amount);\\r\\n        emit TokensBurned(_msgSender(), amount);\\r\\n    }\\r\\n\\r\\n    /// @notice Burn from someone else’s allowance; emits a custom event\\r\\n    function burnFrom(address account, uint256 amount) public override {\\r\\n        super.burnFrom(account, amount);\\r\\n        emit TokensBurned(account, amount);\\r\\n    }\\r\\n\\r\\n    /// @notice Rescue any ERC20 tokens sent here by mistake\\r\\n    /// @param token  The ERC20 contract to pull tokens from\\r\\n    /// @param to     Recipient of the rescued tokens\\r\\n    /// @param amount Amount to recover\\r\\n    function emergencyRecoverERC20(\\r\\n        IERC20 token,\\r\\n        address to,\\r\\n        uint256 amount\\r\\n    ) external onlyOwner {\\r\\n        token.transfer(to, amount);\\r\\n        emit TokensRecovered(address(token), to, amount);\\r\\n    }\\r\\n}\\r\\n\"},\"@openzeppelin/contracts/security/ReentrancyGuard.sol\":{\"content\":\"// SPDX-License-Identifier: MIT\\n// OpenZeppelin Contracts (last updated v4.9.0) (security/ReentrancyGuard.sol)\\n\\npragma solidity ^0.8.0;\\n\\n/**\\n * @dev Contract module that helps prevent reentrant calls to a function.\\n *\\n * Inheriting from `ReentrancyGuard` will make the {nonReentrant} modifier\\n * available, which can be applied to functions to make sure there are no nested\\n * (reentrant) calls to them.\\n *\\n * Note that because there is a single `nonReentrant` guard, functions marked as\\n * `nonReentrant` may not call one another. This can be worked around by making\\n * those functions `private`, and then adding `external` `nonReentrant` entry\\n * points to them.\\n *\\n * TIP: If you would like to learn more about reentrancy and alternative ways\\n * to protect against it, check out our blog post\\n * https://blog.openzeppelin.com/reentrancy-after-istanbul/[Reentrancy After Istanbul].\\n */\\nabstract contract ReentrancyGuard {\\n    // Booleans are more expensive than uint256 or any type that takes up a full\\n    // word because each write operation emits an extra SLOAD to first read the\\n    // slot's contents, replace the bits taken up by the boolean, and then write\\n    // back. This is the compiler's defense against contract upgrades and\\n    // pointer aliasing, and it cannot be disabled.\\n\\n    // The values being non-zero value makes deployment a bit more expensive,\\n    // but in exchange the refund on every call to nonReentrant will be lower in\\n    // amount. Since refunds are capped to a percentage of the total\\n    // transaction's gas, it is best to keep them low in cases like this one, to\\n    // increase the likelihood of the full refund coming into effect.\\n    uint256 private constant _NOT_ENTERED = 1;\\n    uint256 private constant _ENTERED = 2;\\n\\n    uint256 private _status;\\n\\n    constructor() {\\n        _status = _NOT_ENTERED;\\n    }\\n\\n    /**\\n     * @dev Prevents a contract from calling itself, directly or indirectly.\\n     * Calling a `nonReentrant` function from another `nonReentrant`\\n     * function is not supported. It is possible to prevent this from happening\\n     * by making the `nonReentrant` function external, and making it call a\\n     * `private` function that does the actual work.\\n     */\\n    modifier nonReentrant() {\\n        _nonReentrantBefore();\\n        _;\\n        _nonReentrantAfter();\\n    }\\n\\n    function _nonReentrantBefore() private {\\n        // On the first call to nonReentrant, _status will be _NOT_ENTERED\\n        require(_status != _ENTERED, \\\"ReentrancyGuard: reentrant call\\\");\\n\\n        // Any calls to nonReentrant after this point will fail\\n        _status = _ENTERED;\\n    }\\n\\n    function _nonReentrantAfter() private {\\n        // By storing the original value once again, a refund is triggered (see\\n        // https://eips.ethereum.org/EIPS/eip-2200)\\n        _status = _NOT_ENTERED;\\n    }\\n\\n    /**\\n     * @dev Returns true if the reentrancy guard is currently set to \\\"entered\\\", which indicates there is a\\n     * `nonReentrant` function in the call stack.\\n     */\\n    function _reentrancyGuardEntered() internal view returns (bool) {\\n        return _status == _ENTERED;\\n    }\\n}\\n\"},\"@openzeppelin/contracts/access/Ownable.sol\":{\"content\":\"// SPDX-License-Identifier: MIT\\n// OpenZeppelin Contracts (last updated v5.0.0) (access/Ownable.sol)\\n\\npragma solidity ^0.8.20;\\n\\nimport {Context} from \\\"../utils/Context.sol\\\";\\n\\n/**\\n * @dev Contract module which provides a basic access control mechanism, where\\n * there is an account (an owner) that can be granted exclusive access to\\n * specific functions.\\n *\\n * The initial owner is set to the address provided by the deployer. This can\\n * later be changed with {transferOwnership}.\\n *\\n * This module is used through inheritance. It will make available the modifier\\n * `onlyOwner`, which can be applied to your functions to restrict their use to\\n * the owner.\\n */\\nabstract contract Ownable is Context {\\n    address private _owner;\\n\\n    /**\\n     * @dev The caller account is not authorized to perform an operation.\\n     */\\n    error OwnableUnauthorizedAccount(address account);\\n\\n    /**\\n     * @dev The owner is not a valid owner account. (eg. `address(0)`)\\n     */\\n    error OwnableInvalidOwner(address owner);\\n\\n    event OwnershipTransferred(address indexed previousOwner, address indexed newOwner);\\n\\n    /**\\n     * @dev Initializes the contract setting the address provided by the deployer as the initial owner.\\n     */\\n    constructor(address initialOwner) {\\n        if (initialOwner == address(0)) {\\n            revert OwnableInvalidOwner(address(0));\\n        }\\n        _transferOwnership(initialOwner);\\n    }\\n\\n    /**\\n     * @dev Throws if called by any account other than the owner.\\n     */\\n    modifier onlyOwner() {\\n        _checkOwner();\\n        _;\\n    }\\n\\n    /**\\n     * @dev Returns the address of the current owner.\\n     */\\n    function owner() public view virtual returns (address) {\\n        return _owner;\\n    }\\n\\n    /**\\n     * @dev Throws if the sender is not the owner.\\n     */\\n    function _checkOwner() internal view virtual {\\n        if (owner() != _msgSender()) {\\n            revert OwnableUnauthorizedAccount(_msgSender());\\n        }\\n    }\\n\\n    /**\\n     * @dev Leaves the contract without owner. It will not be possible to call\\n     * `onlyOwner` functions. Can only be called by the current owner.\\n     *\\n     * NOTE: Renouncing ownership will leave the contract without an owner,\\n     * thereby disabling any functionality that is only available to the owner.\\n     */\\n    function renounceOwnership() public virtual onlyOwner {\\n        _transferOwnership(address(0));\\n    }\\n\\n    /**\\n     * @dev Transfers ownership of the contract to a new account (`newOwner`).\\n     * Can only be called by the current owner.\\n     */\\n    function transferOwnership(address newOwner) public virtual onlyOwner {\\n        if (newOwner == address(0)) {\\n            revert OwnableInvalidOwner(address(0));\\n        }\\n        _transferOwnership(newOwner);\\n    }\\n\\n    /**\\n     * @dev Transfers ownership of the contract to a new account (`newOwner`).\\n     * Internal function without access restriction.\\n     */\\n    function _transferOwnership(address newOwner) internal virtual {\\n        address oldOwner = _owner;\\n        _owner = newOwner;\\n        emit OwnershipTransferred(oldOwner, newOwner);\\n    }\\n}\\n\"},\"@openzeppelin/contracts/token/ERC20/extensions/ERC20Permit.sol\":{\"content\":\"// SPDX-License-Identifier: MIT\\n// OpenZeppelin Contracts (last updated v5.1.0) (token/ERC20/extensions/ERC20Permit.sol)\\n\\npragma solidity ^0.8.20;\\n\\nimport {IERC20Permit} from \\\"./IERC20Permit.sol\\\";\\nimport {ERC20} from \\\"../ERC20.sol\\\";\\nimport {ECDSA} from \\\"../../../utils/cryptography/ECDSA.sol\\\";\\nimport {EIP712} from \\\"../../../utils/cryptography/EIP712.sol\\\";\\nimport {Nonces} from \\\"../../../utils/Nonces.sol\\\";\\n\\n/**\\n * @dev Implementation of the ERC-20 Permit extension allowing approvals to be made via signatures, as defined in\\n * https://eips.ethereum.org/EIPS/eip-2612[ERC-2612].\\n *\\n * Adds the {permit} method, which can be used to change an account's ERC-20 allowance (see {IERC20-allowance}) by\\n * presenting a message signed by the account. By not relying on `{IERC20-approve}`, the token holder account doesn't\\n * need to send a transaction, and thus is not required to hold Ether at all.\\n */\\nabstract contract ERC20Permit is ERC20, IERC20Permit, EIP712, Nonces {\\n    bytes32 private constant PERMIT_TYPEHASH =\\n        keccak256(\\\"Permit(address owner,address spender,uint256 value,uint256 nonce,uint256 deadline)\\\");\\n\\n    /**\\n     * @dev Permit deadline has expired.\\n     */\\n    error ERC2612ExpiredSignature(uint256 deadline);\\n\\n    /**\\n     * @dev Mismatched signature.\\n     */\\n    error ERC2612InvalidSigner(address signer, address owner);\\n\\n    /**\\n     * @dev Initializes the {EIP712} domain separator using the `name` parameter, and setting `version` to `\\\"1\\\"`.\\n     *\\n     * It's a good idea to use the same `name` that is defined as the ERC-20 token name.\\n     */\\n    constructor(string memory name) EIP712(name, \\\"1\\\") {}\\n\\n    /**\\n     * @inheritdoc IERC20Permit\\n     */\\n    function permit(\\n        address owner,\\n        address spender,\\n        uint256 value,\\n        uint256 deadline,\\n        uint8 v,\\n        bytes32 r,\\n        bytes32 s\\n    ) public virtual {\\n        if (block.timestamp > deadline) {\\n            revert ERC2612ExpiredSignature(deadline);\\n        }\\n\\n        bytes32 structHash = keccak256(abi.encode(PERMIT_TYPEHASH, owner, spender, value, _useNonce(owner), deadline));\\n\\n        bytes32 hash = _hashTypedDataV4(structHash);\\n\\n        address signer = ECDSA.recover(hash, v, r, s);\\n        if (signer != owner) {\\n            revert ERC2612InvalidSigner(signer, owner);\\n        }\\n\\n        _approve(owner, spender, value);\\n    }\\n\\n    /**\\n     * @inheritdoc IERC20Permit\\n     */\\n    function nonces(address owner) public view virtual override(IERC20Permit, Nonces) returns (uint256) {\\n        return super.nonces(owner);\\n    }\\n\\n    /**\\n     * @inheritdoc IERC20Permit\\n     */\\n    // solhint-disable-next-line func-name-mixedcase\\n    function DOMAIN_SEPARATOR() external view virtual returns (bytes32) {\\n        return _domainSeparatorV4();\\n    }\\n}\\n\"},\"@openzeppelin/contracts/token/ERC20/extensions/ERC20Burnable.sol\":{\"content\":\"// SPDX-License-Identifier: MIT\\n// OpenZeppelin Contracts (last updated v5.0.0) (token/ERC20/extensions/ERC20Burnable.sol)\\n\\npragma solidity ^0.8.20;\\n\\nimport {ERC20} from \\\"../ERC20.sol\\\";\\nimport {Context} from \\\"../../../utils/Context.sol\\\";\\n\\n/**\\n * @dev Extension of {ERC20} that allows token holders to destroy both their own\\n * tokens and those that they have an allowance for, in a way that can be\\n * recognized off-chain (via event analysis).\\n */\\nabstract contract ERC20Burnable is Context, ERC20 {\\n    /**\\n     * @dev Destroys a `value` amount of tokens from the caller.\\n     *\\n     * See {ERC20-_burn}.\\n     */\\n    function burn(uint256 value) public virtual {\\n        _burn(_msgSender(), value);\\n    }\\n\\n    /**\\n     * @dev Destroys a `value` amount of tokens from `account`, deducting from\\n     * the caller's allowance.\\n     *\\n     * See {ERC20-_burn} and {ERC20-allowance}.\\n     *\\n     * Requirements:\\n     *\\n     * - the caller must have allowance for ``accounts``'s tokens of at least\\n     * `value`.\\n     */\\n    function burnFrom(address account, uint256 value) public virtual {\\n        _spendAllowance(account, _msgSender(), value);\\n        _burn(account, value);\\n    }\\n}\\n\"},\"@openzeppelin/contracts/token/ERC20/ERC20.sol\":{\"content\":\"// SPDX-License-Identifier: MIT\\n// OpenZeppelin Contracts (last updated v5.3.0) (token/ERC20/ERC20.sol)\\n\\npragma solidity ^0.8.20;\\n\\nimport {IERC20} from \\\"./IERC20.sol\\\";\\nimport {IERC20Metadata} from \\\"./extensions/IERC20Metadata.sol\\\";\\nimport {Context} from \\\"../../utils/Context.sol\\\";\\nimport {IERC20Errors} from \\\"../../interfaces/draft-IERC6093.sol\\\";\\n\\n/**\\n * @dev Implementation of the {IERC20} interface.\\n *\\n * This implementation is agnostic to the way tokens are created. This means\\n * that a supply mechanism has to be added in a derived contract using {_mint}.\\n *\\n * TIP: For a detailed writeup see our guide\\n * https://forum.openzeppelin.com/t/how-to-implement-erc20-supply-mechanisms/226[How\\n * to implement supply mechanisms].\\n *\\n * The default value of {decimals} is 18. To change this, you should override\\n * this function so it returns a different value.\\n *\\n * We have followed general OpenZeppelin Contracts guidelines: functions revert\\n * instead returning `false` on failure. This behavior is nonetheless\\n * conventional and does not conflict with the expectations of ERC-20\\n * applications.\\n */\\nabstract contract ERC20 is Context, IERC20, IERC20Metadata, IERC20Errors {\\n    mapping(address account => uint256) private _balances;\\n\\n    mapping(address account => mapping(address spender => uint256)) private _allowances;\\n\\n    uint256 private _totalSupply;\\n\\n    string private _name;\\n    string private _symbol;\\n\\n    /**\\n     * @dev Sets the values for {name} and {symbol}.\\n     *\\n     * Both values are immutable: they can only be set once during construction.\\n     */\\n    constructor(string memory name_, string memory symbol_) {\\n        _name = name_;\\n        _symbol = symbol_;\\n    }\\n\\n    /**\\n     * @dev Returns the name of the token.\\n     */\\n    function name() public view virtual returns (string memory) {\\n        return _name;\\n    }\\n\\n    /**\\n     * @dev Returns the symbol of the token, usually a shorter version of the\\n     * name.\\n     */\\n    function symbol() public view virtual returns (string memory) {\\n        return _symbol;\\n    }\\n\\n    /**\\n     * @dev Returns the number of decimals used to get its user representation.\\n     * For example, if `decimals` equals `2`, a balance of `505` tokens should\\n     * be displayed to a user as `5.05` (`505 / 10 ** 2`).\\n     *\\n     * Tokens usually opt for a value of 18, imitating the relationship between\\n     * Ether and Wei. This is the default value returned by this function, unless\\n     * it's overridden.\\n     *\\n     * NOTE: This information is only used for _display_ purposes: it in\\n     * no way affects any of the arithmetic of the contract, including\\n     * {IERC20-balanceOf} and {IERC20-transfer}.\\n     */\\n    function decimals() public view virtual returns (uint8) {\\n        return 18;\\n    }\\n\\n    /**\\n     * @dev See {IERC20-totalSupply}.\\n     */\\n    function totalSupply() public view virtual returns (uint256) {\\n        return _totalSupply;\\n    }\\n\\n    /**\\n     * @dev See {IERC20-balanceOf}.\\n     */\\n    function balanceOf(address account) public view virtual returns (uint256) {\\n        return _balances[account];\\n    }\\n\\n    /**\\n     * @dev See {IERC20-transfer}.\\n     *\\n     * Requirements:\\n     *\\n     * - `to` cannot be the zero address.\\n     * - the caller must have a balance of at least `value`.\\n     */\\n    function transfer(address to, uint256 value) public virtual returns (bool) {\\n        address owner = _msgSender();\\n        _transfer(owner, to, value);\\n        return true;\\n    }\\n\\n    /**\\n     * @dev See {IERC20-allowance}.\\n     */\\n    function allowance(address owner, address spender) public view virtual returns (uint256) {\\n        return _allowances[owner][spender];\\n    }\\n\\n    /**\\n     * @dev See {IERC20-approve}.\\n     *\\n     * NOTE: If `value` is the maximum `uint256`, the allowance is not updated on\\n     * `transferFrom`. This is semantically equivalent to an infinite approval.\\n     *\\n     * Requirements:\\n     *\\n     * - `spender` cannot be the zero address.\\n     */\\n    function approve(address spender, uint256 value) public virtual returns (bool) {\\n        address owner = _msgSender();\\n        _approve(owner, spender, value);\\n        return true;\\n    }\\n\\n    /**\\n     * @dev See {IERC20-transferFrom}.\\n     *\\n     * Skips emitting an {Approval} event indicating an allowance update. This is not\\n     * required by the ERC. See {xref-ERC20-_approve-address-address-uint256-bool-}[_approve].\\n     *\\n     * NOTE: Does not update the allowance if the current allowance\\n     * is the maximum `uint256`.\\n     *\\n     * Requirements:\\n     *\\n     * - `from` and `to` cannot be the zero address.\\n     * - `from` must have a balance of at least `value`.\\n     * - the caller must have allowance for ``from``'s tokens of at least\\n     * `value`.\\n     */\\n    function transferFrom(address from, address to, uint256 value) public virtual returns (bool) {\\n        address spender = _msgSender();\\n        _spendAllowance(from, spender, value);\\n        _transfer(from, to, value);\\n        return true;\\n    }\\n\\n    /**\\n     * @dev Moves a `value` amount of tokens from `from` to `to`.\\n     *\\n     * This internal function is equivalent to {transfer}, and can be used to\\n     * e.g. implement automatic token fees, slashing mechanisms, etc.\\n     *\\n     * Emits a {Transfer} event.\\n     *\\n     * NOTE: This function is not virtual, {_update} should be overridden instead.\\n     */\\n    function _transfer(address from, address to, uint256 value) internal {\\n        if (from == address(0)) {\\n            revert ERC20InvalidSender(address(0));\\n        }\\n        if (to == address(0)) {\\n            revert ERC20InvalidReceiver(address(0));\\n        }\\n        _update(from, to, value);\\n    }\\n\\n    /**\\n     * @dev Transfers a `value` amount of tokens from `from` to `to`, or alternatively mints (or burns) if `from`\\n     * (or `to`) is the zero address. All customizations to transfers, mints, and burns should be done by overriding\\n     * this function.\\n     *\\n     * Emits a {Transfer} event.\\n     */\\n    function _update(address from, address to, uint256 value) internal virtual {\\n        if (from == address(0)) {\\n            // Overflow check required: The rest of the code assumes that totalSupply never overflows\\n            _totalSupply += value;\\n        } else {\\n            uint256 fromBalance = _balances[from];\\n            if (fromBalance < value) {\\n                revert ERC20InsufficientBalance(from, fromBalance, value);\\n            }\\n            unchecked {\\n                // Overflow not possible: value <= fromBalance <= totalSupply.\\n                _balances[from] = fromBalance - value;\\n            }\\n        }\\n\\n        if (to == address(0)) {\\n            unchecked {\\n                // Overflow not possible: value <= totalSupply or value <= fromBalance <= totalSupply.\\n                _totalSupply -= value;\\n            }\\n        } else {\\n            unchecked {\\n                // Overflow not possible: balance + value is at most totalSupply, which we know fits into a uint256.\\n                _balances[to] += value;\\n            }\\n        }\\n\\n        emit Transfer(from, to, value);\\n    }\\n\\n    /**\\n     * @dev Creates a `value` amount of tokens and assigns them to `account`, by transferring it from address(0).\\n     * Relies on the `_update` mechanism\\n     *\\n     * Emits a {Transfer} event with `from` set to the zero address.\\n     *\\n     * NOTE: This function is not virtual, {_update} should be overridden instead.\\n     */\\n    function _mint(address account, uint256 value) internal {\\n        if (account == address(0)) {\\n            revert ERC20InvalidReceiver(address(0));\\n        }\\n        _update(address(0), account, value);\\n    }\\n\\n    /**\\n     * @dev Destroys a `value` amount of tokens from `account`, lowering the total supply.\\n     * Relies on the `_update` mechanism.\\n     *\\n     * Emits a {Transfer} event with `to` set to the zero address.\\n     *\\n     * NOTE: This function is not virtual, {_update} should be overridden instead\\n     */\\n    function _burn(address account, uint256 value) internal {\\n        if (account == address(0)) {\\n            revert ERC20InvalidSender(address(0));\\n        }\\n        _update(account, address(0), value);\\n    }\\n\\n    /**\\n     * @dev Sets `value` as the allowance of `spender` over the `owner`'s tokens.\\n     *\\n     * This internal function is equivalent to `approve`, and can be used to\\n     * e.g. set automatic allowances for certain subsystems, etc.\\n     *\\n     * Emits an {Approval} event.\\n     *\\n     * Requirements:\\n     *\\n     * - `owner` cannot be the zero address.\\n     * - `spender` cannot be the zero address.\\n     *\\n     * Overrides to this logic should be done to the variant with an additional `bool emitEvent` argument.\\n     */\\n    function _approve(address owner, address spender, uint256 value) internal {\\n        _approve(owner, spender, value, true);\\n    }\\n\\n    /**\\n     * @dev Variant of {_approve} with an optional flag to enable or disable the {Approval} event.\\n     *\\n     * By default (when calling {_approve}) the flag is set to true. On the other hand, approval changes made by\\n     * `_spendAllowance` during the `transferFrom` operation set the flag to false. This saves gas by not emitting any\\n     * `Approval` event during `transferFrom` operations.\\n     *\\n     * Anyone who wishes to continue emitting `Approval` events on the`transferFrom` operation can force the flag to\\n     * true using the following override:\\n     *\\n     * ```solidity\\n     * function _approve(address owner, address spender, uint256 value, bool) internal virtual override {\\n     *     super._approve(owner, spender, value, true);\\n     * }\\n     * ```\\n     *\\n     * Requirements are the same as {_approve}.\\n     */\\n    function _approve(address owner, address spender, uint256 value, bool emitEvent) internal virtual {\\n        if (owner == address(0)) {\\n            revert ERC20InvalidApprover(address(0));\\n        }\\n        if (spender == address(0)) {\\n            revert ERC20InvalidSpender(address(0));\\n        }\\n        _allowances[owner][spender] = value;\\n        if (emitEvent) {\\n            emit Approval(owner, spender, value);\\n        }\\n    }\\n\\n    /**\\n     * @dev Updates `owner`'s allowance for `spender` based on spent `value`.\\n     *\\n     * Does not update the allowance value in case of infinite allowance.\\n     * Revert if not enough allowance is available.\\n     *\\n     * Does not emit an {Approval} event.\\n     */\\n    function _spendAllowance(address owner, address spender, uint256 value) internal virtual {\\n        uint256 currentAllowance = allowance(owner, spender);\\n        if (currentAllowance < type(uint256).max) {\\n            if (currentAllowance < value) {\\n                revert ERC20InsufficientAllowance(spender, currentAllowance, value);\\n            }\\n            unchecked {\\n                _approve(owner, spender, currentAllowance - value, false);\\n            }\\n        }\\n    }\\n}\\n\"},\"@openzeppelin/contracts/token/ERC20/IERC20.sol\":{\"content\":\"// SPDX-License-Identifier: MIT\\n// OpenZeppelin Contracts (last updated v5.1.0) (token/ERC20/IERC20.sol)\\n\\npragma solidity ^0.8.20;\\n\\n/**\\n * @dev Interface of the ERC-20 standard as defined in the ERC.\\n */\\ninterface IERC20 {\\n    /**\\n     * @dev Emitted when `value` tokens are moved from one account (`from`) to\\n     * another (`to`).\\n     *\\n     * Note that `value` may be zero.\\n     */\\n    event Transfer(address indexed from, address indexed to, uint256 value);\\n\\n    /**\\n     * @dev Emitted when the allowance of a `spender` for an `owner` is set by\\n     * a call to {approve}. `value` is the new allowance.\\n     */\\n    event Approval(address indexed owner, address indexed spender, uint256 value);\\n\\n    /**\\n     * @dev Returns the value of tokens in existence.\\n     */\\n    function totalSupply() external view returns (uint256);\\n\\n    /**\\n     * @dev Returns the value of tokens owned by `account`.\\n     */\\n    function balanceOf(address account) external view returns (uint256);\\n\\n    /**\\n     * @dev Moves a `value` amount of tokens from the caller's account to `to`.\\n     *\\n     * Returns a boolean value indicating whether the operation succeeded.\\n     *\\n     * Emits a {Transfer} event.\\n     */\\n    function transfer(address to, uint256 value) external returns (bool);\\n\\n    /**\\n     * @dev Returns the remaining number of tokens that `spender` will be\\n     * allowed to spend on behalf of `owner` through {transferFrom}. This is\\n     * zero by default.\\n     *\\n     * This value changes when {approve} or {transferFrom} are called.\\n     */\\n    function allowance(address owner, address spender) external view returns (uint256);\\n\\n    /**\\n     * @dev Sets a `value` amount of tokens as the allowance of `spender` over the\\n     * caller's tokens.\\n     *\\n     * Returns a boolean value indicating whether the operation succeeded.\\n     *\\n     * IMPORTANT: Beware that changing an allowance with this method brings the risk\\n     * that someone may use both the old and the new allowance by unfortunate\\n     * transaction ordering. One possible solution to mitigate this race\\n     * condition is to first reduce the spender's allowance to 0 and set the\\n     * desired value afterwards:\\n     * https://github.com/ethereum/EIPs/issues/20#issuecomment-263524729\\n     *\\n     * Emits an {Approval} event.\\n     */\\n    function approve(address spender, uint256 value) external returns (bool);\\n\\n    /**\\n     * @dev Moves a `value` amount of tokens from `from` to `to` using the\\n     * allowance mechanism. `value` is then deducted from the caller's\\n     * allowance.\\n     *\\n     * Returns a boolean value indicating whether the operation succeeded.\\n     *\\n     * Emits a {Transfer} event.\\n     */\\n    function transferFrom(address from, address to, uint256 value) external returns (bool);\\n}\\n\"},\"@openzeppelin/contracts/utils/Nonces.sol\":{\"content\":\"// SPDX-License-Identifier: MIT\\n// OpenZeppelin Contracts (last updated v5.0.0) (utils/Nonces.sol)\\npragma solidity ^0.8.20;\\n\\n/**\\n * @dev Provides tracking nonces for addresses. Nonces will only increment.\\n */\\nabstract contract Nonces {\\n    /**\\n     * @dev The nonce used for an `account` is not the expected current nonce.\\n     */\\n    error InvalidAccountNonce(address account, uint256 currentNonce);\\n\\n    mapping(address account => uint256) private _nonces;\\n\\n    /**\\n     * @dev Returns the next unused nonce for an address.\\n     */\\n    function nonces(address owner) public view virtual returns (uint256) {\\n        return _nonces[owner];\\n    }\\n\\n    /**\\n     * @dev Consumes a nonce.\\n     *\\n     * Returns the current value and increments nonce.\\n     */\\n    function _useNonce(address owner) internal virtual returns (uint256) {\\n        // For each account, the nonce has an initial value of 0, can only be incremented by one, and cannot be\\n        // decremented or reset. This guarantees that the nonce never overflows.\\n        unchecked {\\n            // It is important to do x++ and not ++x here.\\n            return _nonces[owner]++;\\n        }\\n    }\\n\\n    /**\\n     * @dev Same as {_useNonce} but checking that `nonce` is the next valid for `owner`.\\n     */\\n    function _useCheckedNonce(address owner, uint256 nonce) internal virtual {\\n        uint256 current = _useNonce(owner);\\n        if (nonce != current) {\\n            revert InvalidAccountNonce(owner, current);\\n        }\\n    }\\n}\\n\"},\"@openzeppelin/contracts/utils/cryptography/EIP712.sol\":{\"content\":\"// SPDX-License-Identifier: MIT\\n// OpenZeppelin Contracts (last updated v5.3.0) (utils/cryptography/EIP712.sol)\\n\\npragma solidity ^0.8.20;\\n\\nimport {MessageHashUtils} from \\\"./MessageHashUtils.sol\\\";\\nimport {ShortStrings, ShortString} from \\\"../ShortStrings.sol\\\";\\nimport {IERC5267} from \\\"../../interfaces/IERC5267.sol\\\";\\n\\n/**\\n * @dev https://eips.ethereum.org/EIPS/eip-712[EIP-712] is a standard for hashing and signing of typed structured data.\\n *\\n * The encoding scheme specified in the EIP requires a domain separator and a hash of the typed structured data, whose\\n * encoding is very generic and therefore its implementation in Solidity is not feasible, thus this contract\\n * does not implement the encoding itself. Protocols need to implement the type-specific encoding they need in order to\\n * produce the hash of their typed data using a combination of `abi.encode` and `keccak256`.\\n *\\n * This contract implements the EIP-712 domain separator ({_domainSeparatorV4}) that is used as part of the encoding\\n * scheme, and the final step of the encoding to obtain the message digest that is then signed via ECDSA\\n * ({_hashTypedDataV4}).\\n *\\n * The implementation of the domain separator was designed to be as efficient as possible while still properly updating\\n * the chain id to protect against replay attacks on an eventual fork of the chain.\\n *\\n * NOTE: This contract implements the version of the encoding known as \\\"v4\\\", as implemented by the JSON RPC method\\n * https://docs.metamask.io/guide/signing-data.html[`eth_signTypedDataV4` in MetaMask].\\n *\\n * NOTE: In the upgradeable version of this contract, the cached values will correspond to the address, and the domain\\n * separator of the implementation contract. This will cause the {_domainSeparatorV4} function to always rebuild the\\n * separator from the immutable values, which is cheaper than accessing a cached version in cold storage.\\n *\\n * @custom:oz-upgrades-unsafe-allow state-variable-immutable\\n */\\nabstract contract EIP712 is IERC5267 {\\n    using ShortStrings for *;\\n\\n    bytes32 private constant TYPE_HASH =\\n        keccak256(\\\"EIP712Domain(string name,string version,uint256 chainId,address verifyingContract)\\\");\\n\\n    // Cache the domain separator as an immutable value, but also store the chain id that it corresponds to, in order to\\n    // invalidate the cached domain separator if the chain id changes.\\n    bytes32 private immutable _cachedDomainSeparator;\\n    uint256 private immutable _cachedChainId;\\n    address private immutable _cachedThis;\\n\\n    bytes32 private immutable _hashedName;\\n    bytes32 private immutable _hashedVersion;\\n\\n    ShortString private immutable _name;\\n    ShortString private immutable _version;\\n    // slither-disable-next-line constable-states\\n    string private _nameFallback;\\n    // slither-disable-next-line constable-states\\n    string private _versionFallback;\\n\\n    /**\\n     * @dev Initializes the domain separator and parameter caches.\\n     *\\n     * The meaning of `name` and `version` is specified in\\n     * https://eips.ethereum.org/EIPS/eip-712#definition-of-domainseparator[EIP-712]:\\n     *\\n     * - `name`: the user readable name of the signing domain, i.e. the name of the DApp or the protocol.\\n     * - `version`: the current major version of the signing domain.\\n     *\\n     * NOTE: These parameters cannot be changed except through a xref:learn::upgrading-smart-contracts.adoc[smart\\n     * contract upgrade].\\n     */\\n    constructor(string memory name, string memory version) {\\n        _name = name.toShortStringWithFallback(_nameFallback);\\n        _version = version.toShortStringWithFallback(_versionFallback);\\n        _hashedName = keccak256(bytes(name));\\n        _hashedVersion = keccak256(bytes(version));\\n\\n        _cachedChainId = block.chainid;\\n        _cachedDomainSeparator = _buildDomainSeparator();\\n        _cachedThis = address(this);\\n    }\\n\\n    /**\\n     * @dev Returns the domain separator for the current chain.\\n     */\\n    function _domainSeparatorV4() internal view returns (bytes32) {\\n        if (address(this) == _cachedThis && block.chainid == _cachedChainId) {\\n            return _cachedDomainSeparator;\\n        } else {\\n            return _buildDomainSeparator();\\n        }\\n    }\\n\\n    function _buildDomainSeparator() private view returns (bytes32) {\\n        return keccak256(abi.encode(TYPE_HASH, _hashedName, _hashedVersion, block.chainid, address(this)));\\n    }\\n\\n    /**\\n     * @dev Given an already https://eips.ethereum.org/EIPS/eip-712#definition-of-hashstruct[hashed struct], this\\n     * function returns the hash of the fully encoded EIP712 message for this domain.\\n     *\\n     * This hash can be used together with {ECDSA-recover} to obtain the signer of a message. For example:\\n     *\\n     * ```solidity\\n     * bytes32 digest = _hashTypedDataV4(keccak256(abi.encode(\\n     *     keccak256(\\\"Mail(address to,string contents)\\\"),\\n     *     mailTo,\\n     *     keccak256(bytes(mailContents))\\n     * )));\\n     * address signer = ECDSA.recover(digest, signature);\\n     * ```\\n     */\\n    function _hashTypedDataV4(bytes32 structHash) internal view virtual returns (bytes32) {\\n        return MessageHashUtils.toTypedDataHash(_domainSeparatorV4(), structHash);\\n    }\\n\\n    /**\\n     * @inheritdoc IERC5267\\n     */\\n    function eip712Domain()\\n        public\\n        view\\n        virtual\\n        returns (\\n            bytes1 fields,\\n            string memory name,\\n            string memory version,\\n            uint256 chainId,\\n            address verifyingContract,\\n            bytes32 salt,\\n            uint256[] memory extensions\\n        )\\n    {\\n        return (\\n            hex\\\"0f\\\", // 01111\\n            _EIP712Name(),\\n            _EIP712Version(),\\n            block.chainid,\\n            address(this),\\n            bytes32(0),\\n            new uint256[](0)\\n        );\\n    }\\n\\n    /**\\n     * @dev The name parameter for the EIP712 domain.\\n     *\\n     * NOTE: By default this function reads _name which is an immutable value.\\n     * It only reads from storage if necessary (in case the value is too large to fit in a ShortString).\\n     */\\n    // solhint-disable-next-line func-name-mixedcase\\n    function _EIP712Name() internal view returns (string memory) {\\n        return _name.toStringWithFallback(_nameFallback);\\n    }\\n\\n    /**\\n     * @dev The version parameter for the EIP712 domain.\\n     *\\n     * NOTE: By default this function reads _version which is an immutable value.\\n     * It only reads from storage if necessary (in case the value is too large to fit in a ShortString).\\n     */\\n    // solhint-disable-next-line func-name-mixedcase\\n    function _EIP712Version() internal view returns (string memory) {\\n        return _version.toStringWithFallback(_versionFallback);\\n    }\\n}\\n\"},\"@openzeppelin/contracts/utils/cryptography/ECDSA.sol\":{\"content\":\"// SPDX-License-Identifier: MIT\\n// OpenZeppelin Contracts (last updated v5.1.0) (utils/cryptography/ECDSA.sol)\\n\\npragma solidity ^0.8.20;\\n\\n/**\\n * @dev Elliptic Curve Digital Signature Algorithm (ECDSA) operations.\\n *\\n * These functions can be used to verify that a message was signed by the holder\\n * of the private keys of a given address.\\n */\\nlibrary ECDSA {\\n    enum RecoverError {\\n        NoError,\\n        InvalidSignature,\\n        InvalidSignatureLength,\\n        InvalidSignatureS\\n    }\\n\\n    /**\\n     * @dev The signature derives the `address(0)`.\\n     */\\n    error ECDSAInvalidSignature();\\n\\n    /**\\n     * @dev The signature has an invalid length.\\n     */\\n    error ECDSAInvalidSignatureLength(uint256 length);\\n\\n    /**\\n     * @dev The signature has an S value that is in the upper half order.\\n     */\\n    error ECDSAInvalidSignatureS(bytes32 s);\\n\\n    /**\\n     * @dev Returns the address that signed a hashed message (`hash`) with `signature` or an error. This will not\\n     * return address(0) without also returning an error description. Errors are documented using an enum (error type)\\n     * and a bytes32 providing additional information about the error.\\n     *\\n     * If no error is returned, then the address can be used for verification purposes.\\n     *\\n     * The `ecrecover` EVM precompile allows for malleable (non-unique) signatures:\\n     * this function rejects them by requiring the `s` value to be in the lower\\n     * half order, and the `v` value to be either 27 or 28.\\n     *\\n     * IMPORTANT: `hash` _must_ be the result of a hash operation for the\\n     * verification to be secure: it is possible to craft signatures that\\n     * recover to arbitrary addresses for non-hashed data. A safe way to ensure\\n     * this is by receiving a hash of the original message (which may otherwise\\n     * be too long), and then calling {MessageHashUtils-toEthSignedMessageHash} on it.\\n     *\\n     * Documentation for signature generation:\\n     * - with https://web3js.readthedocs.io/en/v1.3.4/web3-eth-accounts.html#sign[Web3.js]\\n     * - with https://docs.ethers.io/v5/api/signer/#Signer-signMessage[ethers]\\n     */\\n    function tryRecover(\\n        bytes32 hash,\\n        bytes memory signature\\n    ) internal pure returns (address recovered, RecoverError err, bytes32 errArg) {\\n        if (signature.length == 65) {\\n            bytes32 r;\\n            bytes32 s;\\n            uint8 v;\\n            // ecrecover takes the signature parameters, and the only way to get them\\n            // currently is to use assembly.\\n            assembly (\\\"memory-safe\\\") {\\n                r := mload(add(signature, 0x20))\\n                s := mload(add(signature, 0x40))\\n                v := byte(0, mload(add(signature, 0x60)))\\n            }\\n            return tryRecover(hash, v, r, s);\\n        } else {\\n            return (address(0), RecoverError.InvalidSignatureLength, bytes32(signature.length));\\n        }\\n    }\\n\\n    /**\\n     * @dev Returns the address that signed a hashed message (`hash`) with\\n     * `signature`. This address can then be used for verification purposes.\\n     *\\n     * The `ecrecover` EVM precompile allows for malleable (non-unique) signatures:\\n     * this function rejects them by requiring the `s` value to be in the lower\\n     * half order, and the `v` value to be either 27 or 28.\\n     *\\n     * IMPORTANT: `hash` _must_ be the result of a hash operation for the\\n     * verification to be secure: it is possible to craft signatures that\\n     * recover to arbitrary addresses for non-hashed data. A safe way to ensure\\n     * this is by receiving a hash of the original message (which may otherwise\\n     * be too long), and then calling {MessageHashUtils-toEthSignedMessageHash} on it.\\n     */\\n    function recover(bytes32 hash, bytes memory signature) internal pure returns (address) {\\n        (address recovered, RecoverError error, bytes32 errorArg) = tryRecover(hash, signature);\\n        _throwError(error, errorArg);\\n        return recovered;\\n    }\\n\\n    /**\\n     * @dev Overload of {ECDSA-tryRecover} that receives the `r` and `vs` short-signature fields separately.\\n     *\\n     * See https://eips.ethereum.org/EIPS/eip-2098[ERC-2098 short signatures]\\n     */\\n    function tryRecover(\\n        bytes32 hash,\\n        bytes32 r,\\n        bytes32 vs\\n    ) internal pure returns (address recovered, RecoverError err, bytes32 errArg) {\\n        unchecked {\\n            bytes32 s = vs & bytes32(0x7fffffffffffffffffffffffffffffffffffffffffffffffffffffffffffffff);\\n            // We do not check for an overflow here since the shift operation results in 0 or 1.\\n            uint8 v = uint8((uint256(vs) >> 255) + 27);\\n            return tryRecover(hash, v, r, s);\\n        }\\n    }\\n\\n    /**\\n     * @dev Overload of {ECDSA-recover} that receives the `r and `vs` short-signature fields separately.\\n     */\\n    function recover(bytes32 hash, bytes32 r, bytes32 vs) internal pure returns (address) {\\n        (address recovered, RecoverError error, bytes32 errorArg) = tryRecover(hash, r, vs);\\n        _throwError(error, errorArg);\\n        return recovered;\\n    }\\n\\n    /**\\n     * @dev Overload of {ECDSA-tryRecover} that receives the `v`,\\n     * `r` and `s` signature fields separately.\\n     */\\n    function tryRecover(\\n        bytes32 hash,\\n        uint8 v,\\n        bytes32 r,\\n        bytes32 s\\n    ) internal pure returns (address recovered, RecoverError err, bytes32 errArg) {\\n        // EIP-2 still allows signature malleability for ecrecover(). Remove this possibility and make the signature\\n        // unique. Appendix F in the Ethereum Yellow paper (https://ethereum.github.io/yellowpaper/paper.pdf), defines\\n        // the valid range for s in (301): 0 < s < secp256k1n ÷ 2 + 1, and for v in (302): v ∈ {27, 28}. Most\\n        // signatures from current libraries generate a unique signature with an s-value in the lower half order.\\n        //\\n        // If your library generates malleable signatures, such as s-values in the upper range, calculate a new s-value\\n        // with 0xFFFFFFFFFFFFFFFFFFFFFFFFFFFFFFFEBAAEDCE6AF48A03BBFD25E8CD0364141 - s1 and flip v from 27 to 28 or\\n        // vice versa. If your library also generates signatures with 0/1 for v instead 27/28, add 27 to v to accept\\n        // these malleable signatures as well.\\n        if (uint256(s) > 0x7FFFFFFFFFFFFFFFFFFFFFFFFFFFFFFF5D576E7357A4501DDFE92F46681B20A0) {\\n            return (address(0), RecoverError.InvalidSignatureS, s);\\n        }\\n\\n        // If the signature is valid (and not malleable), return the signer address\\n        address signer = ecrecover(hash, v, r, s);\\n        if (signer == address(0)) {\\n            return (address(0), RecoverError.InvalidSignature, bytes32(0));\\n        }\\n\\n        return (signer, RecoverError.NoError, bytes32(0));\\n    }\\n\\n    /**\\n     * @dev Overload of {ECDSA-recover} that receives the `v`,\\n     * `r` and `s` signature fields separately.\\n     */\\n    function recover(bytes32 hash, uint8 v, bytes32 r, bytes32 s) internal pure returns (address) {\\n        (address recovered, RecoverError error, bytes32 errorArg) = tryRecover(hash, v, r, s);\\n        _throwError(error, errorArg);\\n        return recovered;\\n    }\\n\\n    /**\\n     * @dev Optionally reverts with the corresponding custom error according to the `error` argument provided.\\n     */\\n    function _throwError(RecoverError error, bytes32 errorArg) private pure {\\n        if (error == RecoverError.NoError) {\\n            return; // no error: do nothing\\n        } else if (error == RecoverError.InvalidSignature) {\\n            revert ECDSAInvalidSignature();\\n        } else if (error == RecoverError.InvalidSignatureLength) {\\n            revert ECDSAInvalidSignatureLength(uint256(errorArg));\\n        } else if (error == RecoverError.InvalidSignatureS) {\\n            revert ECDSAInvalidSignatureS(errorArg);\\n        }\\n    }\\n}\\n\"},\"@openzeppelin/contracts/token/ERC20/extensions/IERC20Permit.sol\":{\"content\":\"// SPDX-License-Identifier: MIT\\n// OpenZeppelin Contracts (last updated v5.1.0) (token/ERC20/extensions/IERC20Permit.sol)\\n\\npragma solidity ^0.8.20;\\n\\n/**\\n * @dev Interface of the ERC-20 Permit extension allowing approvals to be made via signatures, as defined in\\n * https://eips.ethereum.org/EIPS/eip-2612[ERC-2612].\\n *\\n * Adds the {permit} method, which can be used to change an account's ERC-20 allowance (see {IERC20-allowance}) by\\n * presenting a message signed by the account. By not relying on {IERC20-approve}, the token holder account doesn't\\n * need to send a transaction, and thus is not required to hold Ether at all.\\n *\\n * ==== Security Considerations\\n *\\n * There are two important considerations concerning the use of `permit`. The first is that a valid permit signature\\n * expresses an allowance, and it should not be assumed to convey additional meaning. In particular, it should not be\\n * considered as an intention to spend the allowance in any specific way. The second is that because permits have\\n * built-in replay protection and can be submitted by anyone, they can be frontrun. A protocol that uses permits should\\n * take this into consideration and allow a `permit` call to fail. Combining these two aspects, a pattern that may be\\n * generally recommended is:\\n *\\n * ```solidity\\n * function doThingWithPermit(..., uint256 value, uint256 deadline, uint8 v, bytes32 r, bytes32 s) public {\\n *     try token.permit(msg.sender, address(this), value, deadline, v, r, s) {} catch {}\\n *     doThing(..., value);\\n * }\\n *\\n * function doThing(..., uint256 value) public {\\n *     token.safeTransferFrom(msg.sender, address(this), value);\\n *     ...\\n * }\\n * ```\\n *\\n * Observe that: 1) `msg.sender` is used as the owner, leaving no ambiguity as to the signer intent, and 2) the use of\\n * `try/catch` allows the permit to fail and makes the code tolerant to frontrunning. (See also\\n * {SafeERC20-safeTransferFrom}).\\n *\\n * Additionally, note that smart contract wallets (such as Argent or Safe) are not able to produce permit signatures, so\\n * contracts should have entry points that don't rely on permit.\\n */\\ninterface IERC20Permit {\\n    /**\\n     * @dev Sets `value` as the allowance of `spender` over ``owner``'s tokens,\\n     * given ``owner``'s signed approval.\\n     *\\n     * IMPORTANT: The same issues {IERC20-approve} has related to transaction\\n     * ordering also apply here.\\n     *\\n     * Emits an {Approval} event.\\n     *\\n     * Requirements:\\n     *\\n     * - `spender` cannot be the zero address.\\n     * - `deadline` must be a timestamp in the future.\\n     * - `v`, `r` and `s` must be a valid `secp256k1` signature from `owner`\\n     * over the EIP712-formatted function arguments.\\n     * - the signature must use ``owner``'s current nonce (see {nonces}).\\n     *\\n     * For more information on the signature format, see the\\n     * https://eips.ethereum.org/EIPS/eip-2612#specification[relevant EIP\\n     * section].\\n     *\\n     * CAUTION: See Security Considerations above.\\n     */\\n    function permit(\\n        address owner,\\n        address spender,\\n        uint256 value,\\n        uint256 deadline,\\n        uint8 v,\\n        bytes32 r,\\n        bytes32 s\\n    ) external;\\n\\n    /**\\n     * @dev Returns the current nonce for `owner`. This value must be\\n     * included whenever a signature is generated for {permit}.\\n     *\\n     * Every successful call to {permit} increases ``owner``'s nonce by one. This\\n     * prevents a signature from being used multiple times.\\n     */\\n    function nonces(address owner) external view returns (uint256);\\n\\n    /**\\n     * @dev Returns the domain separator used in the encoding of the signature for {permit}, as defined by {EIP712}.\\n     */\\n    // solhint-disable-next-line func-name-mixedcase\\n    function DOMAIN_SEPARATOR() external view returns (bytes32);\\n}\\n\"},\"@openzeppelin/contracts/utils/Context.sol\":{\"content\":\"// SPDX-License-Identifier: MIT\\n// OpenZeppelin Contracts (last updated v5.0.1) (utils/Context.sol)\\n\\npragma solidity ^0.8.20;\\n\\n/**\\n * @dev Provides information about the current execution context, including the\\n * sender of the transaction and its data. While these are generally available\\n * via msg.sender and msg.data, they should not be accessed in such a direct\\n * manner, since when dealing with meta-transactions the account sending and\\n * paying for execution may not be the actual sender (as far as an application\\n * is concerned).\\n *\\n * This contract is only required for intermediate, library-like contracts.\\n */\\nabstract contract Context {\\n    function _msgSender() internal view virtual returns (address) {\\n        return msg.sender;\\n    }\\n\\n    function _msgData() internal view virtual returns (bytes calldata) {\\n        return msg.data;\\n    }\\n\\n    function _contextSuffixLength() internal view virtual returns (uint256) {\\n        return 0;\\n    }\\n}\\n\"},\"@openzeppelin/contracts/interfaces/draft-IERC6093.sol\":{\"content\":\"// SPDX-License-Identifier: MIT\\n// OpenZeppelin Contracts (last updated v5.0.0) (interfaces/draft-IERC6093.sol)\\npragma solidity ^0.8.20;\\n\\n/**\\n * @dev Standard ERC20 Errors\\n * Interface of the https://eips.ethereum.org/EIPS/eip-6093[ERC-6093] custom errors for ERC20 tokens.\\n */\\ninterface IERC20Errors {\\n    /**\\n     * @dev Indicates an error related to the current `balance` of a `sender`. Used in transfers.\\n     * @param sender Address whose tokens are being transferred.\\n     * @param balance Current balance for the interacting account.\\n     * @param needed Minimum amount required to perform a transfer.\\n     */\\n    error ERC20InsufficientBalance(address sender, uint256 balance, uint256 needed);\\n\\n    /**\\n     * @dev Indicates a failure with the token `sender`. Used in transfers.\\n     * @param sender Address whose tokens are being transferred.\\n     */\\n    error ERC20InvalidSender(address sender);\\n\\n    /**\\n     * @dev Indicates a failure with the token `receiver`. Used in transfers.\\n     * @param receiver Address to which tokens are being transferred.\\n     */\\n    error ERC20InvalidReceiver(address receiver);\\n\\n    /**\\n     * @dev Indicates a failure with the `spender`’s `allowance`. Used in transfers.\\n     * @param spender Address that may be allowed to operate on tokens without being their owner.\\n     * @param allowance Amount of tokens a `spender` is allowed to operate with.\\n     * @param needed Minimum amount required to perform a transfer.\\n     */\\n    error ERC20InsufficientAllowance(address spender, uint256 allowance, uint256 needed);\\n\\n    /**\\n     * @dev Indicates a failure with the `approver` of a token to be approved. Used in approvals.\\n     * @param approver Address initiating an approval operation.\\n     */\\n    error ERC20InvalidApprover(address approver);\\n\\n    /**\\n     * @dev Indicates a failure with the `spender` to be approved. Used in approvals.\\n     * @param spender Address that may be allowed to operate on tokens without being their owner.\\n     */\\n    error ERC20InvalidSpender(address spender);\\n}\\n\\n/**\\n * @dev Standard ERC721 Errors\\n * Interface of the https://eips.ethereum.org/EIPS/eip-6093[ERC-6093] custom errors for ERC721 tokens.\\n */\\ninterface IERC721Errors {\\n    /**\\n     * @dev Indicates that an address can't be an owner. For example, `address(0)` is a forbidden owner in EIP-20.\\n     * Used in balance queries.\\n     * @param owner Address of the current owner of a token.\\n     */\\n    error ERC721InvalidOwner(address owner);\\n\\n    /**\\n     * @dev Indicates a `tokenId` whose `owner` is the zero address.\\n     * @param tokenId Identifier number of a token.\\n     */\\n    error ERC721NonexistentToken(uint256 tokenId);\\n\\n    /**\\n     * @dev Indicates an error related to the ownership over a particular token. Used in transfers.\\n     * @param sender Address whose tokens are being transferred.\\n     * @param tokenId Identifier number of a token.\\n     * @param owner Address of the current owner of a token.\\n     */\\n    error ERC721IncorrectOwner(address sender, uint256 tokenId, address owner);\\n\\n    /**\\n     * @dev Indicates a failure with the token `sender`. Used in transfers.\\n     * @param sender Address whose tokens are being transferred.\\n     */\\n    error ERC721InvalidSender(address sender);\\n\\n    /**\\n     * @dev Indicates a failure with the token `receiver`. Used in transfers.\\n     * @param receiver Address to which tokens are being transferred.\\n     */\\n    error ERC721InvalidReceiver(address receiver);\\n\\n    /**\\n     * @dev Indicates a failure with the `operator`’s approval. Used in transfers.\\n     * @param operator Address that may be allowed to operate on tokens without being their owner.\\n     * @param tokenId Identifier number of a token.\\n     */\\n    error ERC721InsufficientApproval(address operator, uint256 tokenId);\\n\\n    /**\\n     * @dev Indicates a failure with the `approver` of a token to be approved. Used in approvals.\\n     * @param approver Address initiating an approval operation.\\n     */\\n    error ERC721InvalidApprover(address approver);\\n\\n    /**\\n     * @dev Indicates a failure with the `operator` to be approved. Used in approvals.\\n     * @param operator Address that may be allowed to operate on tokens without being their owner.\\n     */\\n    error ERC721InvalidOperator(address operator);\\n}\\n\\n/**\\n * @dev Standard ERC1155 Errors\\n * Interface of the https://eips.ethereum.org/EIPS/eip-6093[ERC-6093] custom errors for ERC1155 tokens.\\n */\\ninterface IERC1155Errors {\\n    /**\\n     * @dev Indicates an error related to the current `balance` of a `sender`. Used in transfers.\\n     * @param sender Address whose tokens are being transferred.\\n     * @param balance Current balance for the interacting account.\\n     * @param needed Minimum amount required to perform a transfer.\\n     * @param tokenId Identifier number of a token.\\n     */\\n    error ERC1155InsufficientBalance(address sender, uint256 balance, uint256 needed, uint256 tokenId);\\n\\n    /**\\n     * @dev Indicates a failure with the token `sender`. Used in transfers.\\n     * @param sender Address whose tokens are being transferred.\\n     */\\n    error ERC1155InvalidSender(address sender);\\n\\n    /**\\n     * @dev Indicates a failure with the token `receiver`. Used in transfers.\\n     * @param receiver Address to which tokens are being transferred.\\n     */\\n    error ERC1155InvalidReceiver(address receiver);\\n\\n    /**\\n     * @dev Indicates a failure with the `operator`’s approval. Used in transfers.\\n     * @param operator Address that may be allowed to operate on tokens without being their owner.\\n     * @param owner Address of the current owner of a token.\\n     */\\n    error ERC1155MissingApprovalForAll(address operator, address owner);\\n\\n    /**\\n     * @dev Indicates a failure with the `approver` of a token to be approved. Used in approvals.\\n     * @param approver Address initiating an approval operation.\\n     */\\n    error ERC1155InvalidApprover(address approver);\\n\\n    /**\\n     * @dev Indicates a failure with the `operator` to be approved. Used in approvals.\\n     * @param operator Address that may be allowed to operate on tokens without being their owner.\\n     */\\n    error ERC1155InvalidOperator(address operator);\\n\\n    /**\\n     * @dev Indicates an array length mismatch between ids and values in a safeBatchTransferFrom operation.\\n     * Used in batch transfers.\\n     * @param idsLength Length of the array of token identifiers\\n     * @param valuesLength Length of the array of token amounts\\n     */\\n    error ERC1155InvalidArrayLength(uint256 idsLength, uint256 valuesLength);\\n}\\n\"},\"@openzeppelin/contracts/token/ERC20/extensions/IERC20Metadata.sol\":{\"content\":\"// SPDX-License-Identifier: MIT\\n// OpenZeppelin Contracts (last updated v5.1.0) (token/ERC20/extensions/IERC20Metadata.sol)\\n\\npragma solidity ^0.8.20;\\n\\nimport {IERC20} from \\\"../IERC20.sol\\\";\\n\\n/**\\n * @dev Interface for the optional metadata functions from the ERC-20 standard.\\n */\\ninterface IERC20Metadata is IERC20 {\\n    /**\\n     * @dev Returns the name of the token.\\n     */\\n    function name() external view returns (string memory);\\n\\n    /**\\n     * @dev Returns the symbol of the token.\\n     */\\n    function symbol() external view returns (string memory);\\n\\n    /**\\n     * @dev Returns the decimals places of the token.\\n     */\\n    function decimals() external view returns (uint8);\\n}\\n\"},\"@openzeppelin/contracts/interfaces/IERC5267.sol\":{\"content\":\"// SPDX-License-Identifier: MIT\\n// OpenZeppelin Contracts (last updated v5.0.0) (interfaces/IERC5267.sol)\\n\\npragma solidity ^0.8.20;\\n\\ninterface IERC5267 {\\n    /**\\n     * @dev MAY be emitted to signal that the domain could have changed.\\n     */\\n    event EIP712DomainChanged();\\n\\n    /**\\n     * @dev returns the fields and values that describe the domain separator used by this contract for EIP-712\\n     * signature.\\n     */\\n    function eip712Domain()\\n        external\\n        view\\n        returns (\\n            bytes1 fields,\\n            string memory name,\\n            string memory version,\\n            uint256 chainId,\\n            address verifyingContract,\\n            bytes32 salt,\\n            uint256[] memory extensions\\n        );\\n}\\n\"},\"@openzeppelin/contracts/utils/ShortStrings.sol\":{\"content\":\"// SPDX-License-Identifier: MIT\\n// OpenZeppelin Contracts (last updated v5.3.0) (utils/ShortStrings.sol)\\n\\npragma solidity ^0.8.20;\\n\\nimport {StorageSlot} from \\\"./StorageSlot.sol\\\";\\n\\n// | string  | 0xAAAAAAAAAAAAAAAAAAAAAAAAAAAAAAAAAAAAAAAAAAAAAAAAAAAAAAAAAAAAAA   |\\n// | length  | 0x                                                              BB |\\ntype ShortString is bytes32;\\n\\n/**\\n * @dev This library provides functions to convert short memory strings\\n * into a `ShortString` type that can be used as an immutable variable.\\n *\\n * Strings of arbitrary length can be optimized using this library if\\n * they are short enough (up to 31 bytes) by packing them with their\\n * length (1 byte) in a single EVM word (32 bytes). Additionally, a\\n * fallback mechanism can be used for every other case.\\n *\\n * Usage example:\\n *\\n * ```solidity\\n * contract Named {\\n *     using ShortStrings for *;\\n *\\n *     ShortString private immutable _name;\\n *     string private _nameFallback;\\n *\\n *     constructor(string memory contractName) {\\n *         _name = contractName.toShortStringWithFallback(_nameFallback);\\n *     }\\n *\\n *     function name() external view returns (string memory) {\\n *         return _name.toStringWithFallback(_nameFallback);\\n *     }\\n * }\\n * ```\\n */\\nlibrary ShortStrings {\\n    // Used as an identifier for strings longer than 31 bytes.\\n    bytes32 private constant FALLBACK_SENTINEL = 0x00000000000000000000000000000000000000000000000000000000000000FF;\\n\\n    error StringTooLong(string str);\\n    error InvalidShortString();\\n\\n    /**\\n     * @dev Encode a string of at most 31 chars into a `ShortString`.\\n     *\\n     * This will trigger a `StringTooLong` error is the input string is too long.\\n     */\\n    function toShortString(string memory str) internal pure returns (ShortString) {\\n        bytes memory bstr = bytes(str);\\n        if (bstr.length > 31) {\\n            revert StringTooLong(str);\\n        }\\n        return ShortString.wrap(bytes32(uint256(bytes32(bstr)) | bstr.length));\\n    }\\n\\n    /**\\n     * @dev Decode a `ShortString` back to a \\\"normal\\\" string.\\n     */\\n    function toString(ShortString sstr) internal pure returns (string memory) {\\n        uint256 len = byteLength(sstr);\\n        // using `new string(len)` would work locally but is not memory safe.\\n        string memory str = new string(32);\\n        assembly (\\\"memory-safe\\\") {\\n            mstore(str, len)\\n            mstore(add(str, 0x20), sstr)\\n        }\\n        return str;\\n    }\\n\\n    /**\\n     * @dev Return the length of a `ShortString`.\\n     */\\n    function byteLength(ShortString sstr) internal pure returns (uint256) {\\n        uint256 result = uint256(ShortString.unwrap(sstr)) & 0xFF;\\n        if (result > 31) {\\n            revert InvalidShortString();\\n        }\\n        return result;\\n    }\\n\\n    /**\\n     * @dev Encode a string into a `ShortString`, or write it to storage if it is too long.\\n     */\\n    function toShortStringWithFallback(string memory value, string storage store) internal returns (ShortString) {\\n        if (bytes(value).length < 32) {\\n            return toShortString(value);\\n        } else {\\n            StorageSlot.getStringSlot(store).value = value;\\n            return ShortString.wrap(FALLBACK_SENTINEL);\\n        }\\n    }\\n\\n    /**\\n     * @dev Decode a string that was encoded to `ShortString` or written to storage using {toShortStringWithFallback}.\\n     */\\n    function toStringWithFallback(ShortString value, string storage store) internal pure returns (string memory) {\\n        if (ShortString.unwrap(value) != FALLBACK_SENTINEL) {\\n            return toString(value);\\n        } else {\\n            return store;\\n        }\\n    }\\n\\n    /**\\n     * @dev Return the length of a string that was encoded to `ShortString` or written to storage using\\n     * {toShortStringWithFallback}.\\n     *\\n     * WARNING: This will return the \\\"byte length\\\" of the string. This may not reflect the actual length in terms of\\n     * actual characters as the UTF-8 encoding of a single character can span over multiple bytes.\\n     */\\n    function byteLengthWithFallback(ShortString value, string storage store) internal view returns (uint256) {\\n        if (ShortString.unwrap(value) != FALLBACK_SENTINEL) {\\n            return byteLength(value);\\n        } else {\\n            return bytes(store).length;\\n        }\\n    }\\n}\\n\"},\"@openzeppelin/contracts/utils/cryptography/MessageHashUtils.sol\":{\"content\":\"// SPDX-License-Identifier: MIT\\n// OpenZeppelin Contracts (last updated v5.3.0) (utils/cryptography/MessageHashUtils.sol)\\n\\npragma solidity ^0.8.20;\\n\\nimport {Strings} from \\\"../Strings.sol\\\";\\n\\n/**\\n * @dev Signature message hash utilities for producing digests to be consumed by {ECDSA} recovery or signing.\\n *\\n * The library provides methods for generating a hash of a message that conforms to the\\n * https://eips.ethereum.org/EIPS/eip-191[ERC-191] and https://eips.ethereum.org/EIPS/eip-712[EIP 712]\\n * specifications.\\n */\\nlibrary MessageHashUtils {\\n    /**\\n     * @dev Returns the keccak256 digest of an ERC-191 signed data with version\\n     * `0x45` (`personal_sign` messages).\\n     *\\n     * The digest is calculated by prefixing a bytes32 `messageHash` with\\n     * `\\\"\\\\x19Ethereum Signed Message:\\\\n32\\\"` and hashing the result. It corresponds with the\\n     * hash signed when using the https://ethereum.org/en/developers/docs/apis/json-rpc/#eth_sign[`eth_sign`] JSON-RPC method.\\n     *\\n     * NOTE: The `messageHash` parameter is intended to be the result of hashing a raw message with\\n     * keccak256, although any bytes32 value can be safely used because the final digest will\\n     * be re-hashed.\\n     *\\n     * See {ECDSA-recover}.\\n     */\\n    function toEthSignedMessageHash(bytes32 messageHash) internal pure returns (bytes32 digest) {\\n        assembly (\\\"memory-safe\\\") {\\n            mstore(0x00, \\\"\\\\x19Ethereum Signed Message:\\\\n32\\\") // 32 is the bytes-length of messageHash\\n            mstore(0x1c, messageHash) // 0x1c (28) is the length of the prefix\\n            digest := keccak256(0x00, 0x3c) // 0x3c is the length of the prefix (0x1c) + messageHash (0x20)\\n        }\\n    }\\n\\n    /**\\n     * @dev Returns the keccak256 digest of an ERC-191 signed data with version\\n     * `0x45` (`personal_sign` messages).\\n     *\\n     * The digest is calculated by prefixing an arbitrary `message` with\\n     * `\\\"\\\\x19Ethereum Signed Message:\\\\n\\\" + len(message)` and hashing the result. It corresponds with the\\n     * hash signed when using the https://ethereum.org/en/developers/docs/apis/json-rpc/#eth_sign[`eth_sign`] JSON-RPC method.\\n     *\\n     * See {ECDSA-recover}.\\n     */\\n    function toEthSignedMessageHash(bytes memory message) internal pure returns (bytes32) {\\n        return\\n            keccak256(bytes.concat(\\\"\\\\x19Ethereum Signed Message:\\\\n\\\", bytes(Strings.toString(message.length)), message));\\n    }\\n\\n    /**\\n     * @dev Returns the keccak256 digest of an ERC-191 signed data with version\\n     * `0x00` (data with intended validator).\\n     *\\n     * The digest is calculated by prefixing an arbitrary `data` with `\\\"\\\\x19\\\\x00\\\"` and the intended\\n     * `validator` address. Then hashing the result.\\n     *\\n     * See {ECDSA-recover}.\\n     */\\n    function toDataWithIntendedValidatorHash(address validator, bytes memory data) internal pure returns (bytes32) {\\n        return keccak256(abi.encodePacked(hex\\\"19_00\\\", validator, data));\\n    }\\n\\n    /**\\n     * @dev Variant of {toDataWithIntendedValidatorHash-address-bytes} optimized for cases where `data` is a bytes32.\\n     */\\n    function toDataWithIntendedValidatorHash(\\n        address validator,\\n        bytes32 messageHash\\n    ) internal pure returns (bytes32 digest) {\\n        assembly (\\\"memory-safe\\\") {\\n            mstore(0x00, hex\\\"19_00\\\")\\n            mstore(0x02, shl(96, validator))\\n            mstore(0x16, messageHash)\\n            digest := keccak256(0x00, 0x36)\\n        }\\n    }\\n\\n    /**\\n     * @dev Returns the keccak256 digest of an EIP-712 typed data (ERC-191 version `0x01`).\\n     *\\n     * The digest is calculated from a `domainSeparator` and a `structHash`, by prefixing them with\\n     * `\\\\x19\\\\x01` and hashing the result. It corresponds to the hash signed by the\\n     * https://eips.ethereum.org/EIPS/eip-712[`eth_signTypedData`] JSON-RPC method as part of EIP-712.\\n     *\\n     * See {ECDSA-recover}.\\n     */\\n    function toTypedDataHash(bytes32 domainSeparator, bytes32 structHash) internal pure returns (bytes32 digest) {\\n        assembly (\\\"memory-safe\\\") {\\n            let ptr := mload(0x40)\\n            mstore(ptr, hex\\\"19_01\\\")\\n            mstore(add(ptr, 0x02), domainSeparator)\\n            mstore(add(ptr, 0x22), structHash)\\n            digest := keccak256(ptr, 0x42)\\n        }\\n    }\\n}\\n\"},\"@openzeppelin/contracts/utils/Strings.sol\":{\"content\":\"// SPDX-License-Identifier: MIT\\n// OpenZeppelin Contracts (last updated v5.0.0) (utils/Strings.sol)\\n\\npragma solidity ^0.8.20;\\n\\nimport {Math} from \\\"./math/Math.sol\\\";\\nimport {SignedMath} from \\\"./math/SignedMath.sol\\\";\\n\\n/**\\n * @dev String operations.\\n */\\nlibrary Strings {\\n    bytes16 private constant HEX_DIGITS = \\\"0123456789abcdef\\\";\\n    uint8 private constant ADDRESS_LENGTH = 20;\\n\\n    /**\\n     * @dev The `value` string doesn't fit in the specified `length`.\\n     */\\n    error StringsInsufficientHexLength(uint256 value, uint256 length);\\n\\n    /**\\n     * @dev Converts a `uint256` to its ASCII `string` decimal representation.\\n     */\\n    function toString(uint256 value) internal pure returns (string memory) {\\n        unchecked {\\n            uint256 length = Math.log10(value) + 1;\\n            string memory buffer = new string(length);\\n            uint256 ptr;\\n            /// @solidity memory-safe-assembly\\n            assembly {\\n                ptr := add(buffer, add(32, length))\\n            }\\n            while (true) {\\n                ptr--;\\n                /// @solidity memory-safe-assembly\\n                assembly {\\n                    mstore8(ptr, byte(mod(value, 10), HEX_DIGITS))\\n                }\\n                value /= 10;\\n                if (value == 0) break;\\n            }\\n            return buffer;\\n        }\\n    }\\n\\n    /**\\n     * @dev Converts a `int256` to its ASCII `string` decimal representation.\\n     */\\n    function toStringSigned(int256 value) internal pure returns (string memory) {\\n        return string.concat(value < 0 ? \\\"-\\\" : \\\"\\\", toString(SignedMath.abs(value)));\\n    }\\n\\n    /**\\n     * @dev Converts a `uint256` to its ASCII `string` hexadecimal representation.\\n     */\\n    function toHexString(uint256 value) internal pure returns (string memory) {\\n        unchecked {\\n            return toHexString(value, Math.log256(value) + 1);\\n        }\\n    }\\n\\n    /**\\n     * @dev Converts a `uint256` to its ASCII `string` hexadecimal representation with fixed length.\\n     */\\n    function toHexString(uint256 value, uint256 length) internal pure returns (string memory) {\\n        uint256 localValue = value;\\n        bytes memory buffer = new bytes(2 * length + 2);\\n        buffer[0] = \\\"0\\\";\\n        buffer[1] = \\\"x\\\";\\n        for (uint256 i = 2 * length + 1; i > 1; --i) {\\n            buffer[i] = HEX_DIGITS[localValue & 0xf];\\n            localValue >>= 4;\\n        }\\n        if (localValue != 0) {\\n            revert StringsInsufficientHexLength(value, length);\\n        }\\n        return string(buffer);\\n    }\\n\\n    /**\\n     * @dev Converts an `address` with fixed length of 20 bytes to its not checksummed ASCII `string` hexadecimal\\n     * representation.\\n     */\\n    function toHexString(address addr) internal pure returns (string memory) {\\n        return toHexString(uint256(uint160(addr)), ADDRESS_LENGTH);\\n    }\\n\\n    /**\\n     * @dev Returns true if the two strings are equal.\\n     */\\n    function equal(string memory a, string memory b) internal pure returns (bool) {\\n        return bytes(a).length == bytes(b).length && keccak256(bytes(a)) == keccak256(bytes(b));\\n    }\\n}\\n\"},\"@openzeppelin/contracts/utils/StorageSlot.sol\":{\"content\":\"// SPDX-License-Identifier: MIT\\n// OpenZeppelin Contracts (last updated v5.1.0) (utils/StorageSlot.sol)\\n// This file was procedurally generated from scripts/generate/templates/StorageSlot.js.\\n\\npragma solidity ^0.8.20;\\n\\n/**\\n * @dev Library for reading and writing primitive types to specific storage slots.\\n *\\n * Storage slots are often used to avoid storage conflict when dealing with upgradeable contracts.\\n * This library helps with reading and writing to such slots without the need for inline assembly.\\n *\\n * The functions in this library return Slot structs that contain a `value` member that can be used to read or write.\\n *\\n * Example usage to set ERC-1967 implementation slot:\\n * ```solidity\\n * contract ERC1967 {\\n *     // Define the slot. Alternatively, use the SlotDerivation library to derive the slot.\\n *     bytes32 internal constant _IMPLEMENTATION_SLOT = 0x360894a13ba1a3210667c828492db98dca3e2076cc3735a920a3ca505d382bbc;\\n *\\n *     function _getImplementation() internal view returns (address) {\\n *         return StorageSlot.getAddressSlot(_IMPLEMENTATION_SLOT).value;\\n *     }\\n *\\n *     function _setImplementation(address newImplementation) internal {\\n *         require(newImplementation.code.length > 0);\\n *         StorageSlot.getAddressSlot(_IMPLEMENTATION_SLOT).value = newImplementation;\\n *     }\\n * }\\n * ```\\n *\\n * TIP: Consider using this library along with {SlotDerivation}.\\n */\\nlibrary StorageSlot {\\n    struct AddressSlot {\\n        address value;\\n    }\\n\\n    struct BooleanSlot {\\n        bool value;\\n    }\\n\\n    struct Bytes32Slot {\\n        bytes32 value;\\n    }\\n\\n    struct Uint256Slot {\\n        uint256 value;\\n    }\\n\\n    struct Int256Slot {\\n        int256 value;\\n    }\\n\\n    struct StringSlot {\\n        string value;\\n    }\\n\\n    struct BytesSlot {\\n        bytes value;\\n    }\\n\\n    /**\\n     * @dev Returns an `AddressSlot` with member `value` located at `slot`.\\n     */\\n    function getAddressSlot(bytes32 slot) internal pure returns (AddressSlot storage r) {\\n        assembly (\\\"memory-safe\\\") {\\n            r.slot := slot\\n        }\\n    }\\n\\n    /**\\n     * @dev Returns a `BooleanSlot` with member `value` located at `slot`.\\n     */\\n    function getBooleanSlot(bytes32 slot) internal pure returns (BooleanSlot storage r) {\\n        assembly (\\\"memory-safe\\\") {\\n            r.slot := slot\\n        }\\n    }\\n\\n    /**\\n     * @dev Returns a `Bytes32Slot` with member `value` located at `slot`.\\n     */\\n    function getBytes32Slot(bytes32 slot) internal pure returns (Bytes32Slot storage r) {\\n        assembly (\\\"memory-safe\\\") {\\n            r.slot := slot\\n        }\\n    }\\n\\n    /**\\n     * @dev Returns a `Uint256Slot` with member `value` located at `slot`.\\n     */\\n    function getUint256Slot(bytes32 slot) internal pure returns (Uint256Slot storage r) {\\n        assembly (\\\"memory-safe\\\") {\\n            r.slot := slot\\n        }\\n    }\\n\\n    /**\\n     * @dev Returns a `Int256Slot` with member `value` located at `slot`.\\n     */\\n    function getInt256Slot(bytes32 slot) internal pure returns (Int256Slot storage r) {\\n        assembly (\\\"memory-safe\\\") {\\n            r.slot := slot\\n        }\\n    }\\n\\n    /**\\n     * @dev Returns a `StringSlot` with member `value` located at `slot`.\\n     */\\n    function getStringSlot(bytes32 slot) internal pure returns (StringSlot storage r) {\\n        assembly (\\\"memory-safe\\\") {\\n            r.slot := slot\\n        }\\n    }\\n\\n    /**\\n     * @dev Returns an `StringSlot` representation of the string storage pointer `store`.\\n     */\\n    function getStringSlot(string storage store) internal pure returns (StringSlot storage r) {\\n        assembly (\\\"memory-safe\\\") {\\n            r.slot := store.slot\\n        }\\n    }\\n\\n    /**\\n     * @dev Returns a `BytesSlot` with member `value` located at `slot`.\\n     */\\n    function getBytesSlot(bytes32 slot) internal pure returns (BytesSlot storage r) {\\n        assembly (\\\"memory-safe\\\") {\\n            r.slot := slot\\n        }\\n    }\\n\\n    /**\\n     * @dev Returns an `BytesSlot` representation of the bytes storage pointer `store`.\\n     */\\n    function getBytesSlot(bytes storage store) internal pure returns (BytesSlot storage r) {\\n        assembly (\\\"memory-safe\\\") {\\n            r.slot := store.slot\\n        }\\n    }\\n}\\n\"},\"@openzeppelin/contracts/utils/math/SignedMath.sol\":{\"content\":\"// SPDX-License-Identifier: MIT\\n// OpenZeppelin Contracts (last updated v5.0.0) (utils/math/SignedMath.sol)\\n\\npragma solidity ^0.8.20;\\n\\n/**\\n * @dev Standard signed math utilities missing in the Solidity language.\\n */\\nlibrary SignedMath {\\n    /**\\n     * @dev Returns the largest of two signed numbers.\\n     */\\n    function max(int256 a, int256 b) internal pure returns (int256) {\\n        return a > b ? a : b;\\n    }\\n\\n    /**\\n     * @dev Returns the smallest of two signed numbers.\\n     */\\n    function min(int256 a, int256 b) internal pure returns (int256) {\\n        return a < b ? a : b;\\n    }\\n\\n    /**\\n     * @dev Returns the average of two signed numbers without overflow.\\n     * The result is rounded towards zero.\\n     */\\n    function average(int256 a, int256 b) internal pure returns (int256) {\\n        // Formula from the book \\\"Hacker's Delight\\\"\\n        int256 x = (a & b) + ((a ^ b) >> 1);\\n        return x + (int256(uint256(x) >> 255) & (a ^ b));\\n    }\\n\\n    /**\\n     * @dev Returns the absolute unsigned value of a signed value.\\n     */\\n    function abs(int256 n) internal pure returns (uint256) {\\n        unchecked {\\n            // must be unchecked in order to support `n = type(int256).min`\\n            return uint256(n >= 0 ? n : -n);\\n        }\\n    }\\n}\\n\"},\"@openzeppelin/contracts/utils/math/Math.sol\":{\"content\":\"// SPDX-License-Identifier: MIT\\n// OpenZeppelin Contracts (last updated v5.0.0) (utils/math/Math.sol)\\n\\npragma solidity ^0.8.20;\\n\\n/**\\n * @dev Standard math utilities missing in the Solidity language.\\n */\\nlibrary Math {\\n    /**\\n     * @dev Muldiv operation overflow.\\n     */\\n    error MathOverflowedMulDiv();\\n\\n    enum Rounding {\\n        Floor, // Toward negative infinity\\n        Ceil, // Toward positive infinity\\n        Trunc, // Toward zero\\n        Expand // Away from zero\\n    }\\n\\n    /**\\n     * @dev Returns the addition of two unsigned integers, with an overflow flag.\\n     */\\n    function tryAdd(uint256 a, uint256 b) internal pure returns (bool, uint256) {\\n        unchecked {\\n            uint256 c = a + b;\\n            if (c < a) return (false, 0);\\n            return (true, c);\\n        }\\n    }\\n\\n    /**\\n     * @dev Returns the subtraction of two unsigned integers, with an overflow flag.\\n     */\\n    function trySub(uint256 a, uint256 b) internal pure returns (bool, uint256) {\\n        unchecked {\\n            if (b > a) return (false, 0);\\n            return (true, a - b);\\n        }\\n    }\\n\\n    /**\\n     * @dev Returns the multiplication of two unsigned integers, with an overflow flag.\\n     */\\n    function tryMul(uint256 a, uint256 b) internal pure returns (bool, uint256) {\\n        unchecked {\\n            // Gas optimization: this is cheaper than requiring 'a' not being zero, but the\\n            // benefit is lost if 'b' is also tested.\\n            // See: https://github.com/OpenZeppelin/openzeppelin-contracts/pull/522\\n            if (a == 0) return (true, 0);\\n            uint256 c = a * b;\\n            if (c / a != b) return (false, 0);\\n            return (true, c);\\n        }\\n    }\\n\\n    /**\\n     * @dev Returns the division of two unsigned integers, with a division by zero flag.\\n     */\\n    function tryDiv(uint256 a, uint256 b) internal pure returns (bool, uint256) {\\n        unchecked {\\n            if (b == 0) return (false, 0);\\n            return (true, a / b);\\n        }\\n    }\\n\\n    /**\\n     * @dev Returns the remainder of dividing two unsigned integers, with a division by zero flag.\\n     */\\n    function tryMod(uint256 a, uint256 b) internal pure returns (bool, uint256) {\\n        unchecked {\\n            if (b == 0) return (false, 0);\\n            return (true, a % b);\\n        }\\n    }\\n\\n    /**\\n     * @dev Returns the largest of two numbers.\\n     */\\n    function max(uint256 a, uint256 b) internal pure returns (uint256) {\\n        return a > b ? a : b;\\n    }\\n\\n    /**\\n     * @dev Returns the smallest of two numbers.\\n     */\\n    function min(uint256 a, uint256 b) internal pure returns (uint256) {\\n        return a < b ? a : b;\\n    }\\n\\n    /**\\n     * @dev Returns the average of two numbers. The result is rounded towards\\n     * zero.\\n     */\\n    function average(uint256 a, uint256 b) internal pure returns (uint256) {\\n        // (a + b) / 2 can overflow.\\n        return (a & b) + (a ^ b) / 2;\\n    }\\n\\n    /**\\n     * @dev Returns the ceiling of the division of two numbers.\\n     *\\n     * This differs from standard division with `/` in that it rounds towards infinity instead\\n     * of rounding towards zero.\\n     */\\n    function ceilDiv(uint256 a, uint256 b) internal pure returns (uint256) {\\n        if (b == 0) {\\n            // Guarantee the same behavior as in a regular Solidity division.\\n            return a / b;\\n        }\\n\\n        // (a + b - 1) / b can overflow on addition, so we distribute.\\n        return a == 0 ? 0 : (a - 1) / b + 1;\\n    }\\n\\n    /**\\n     * @notice Calculates floor(x * y / denominator) with full precision. Throws if result overflows a uint256 or\\n     * denominator == 0.\\n     * @dev Original credit to Remco Bloemen under MIT license (https://xn--2-umb.com/21/muldiv) with further edits by\\n     * Uniswap Labs also under MIT license.\\n     */\\n    function mulDiv(uint256 x, uint256 y, uint256 denominator) internal pure returns (uint256 result) {\\n        unchecked {\\n            // 512-bit multiply [prod1 prod0] = x * y. Compute the product mod 2^256 and mod 2^256 - 1, then use\\n            // use the Chinese Remainder Theorem to reconstruct the 512 bit result. The result is stored in two 256\\n            // variables such that product = prod1 * 2^256 + prod0.\\n            uint256 prod0 = x * y; // Least significant 256 bits of the product\\n            uint256 prod1; // Most significant 256 bits of the product\\n            assembly {\\n                let mm := mulmod(x, y, not(0))\\n                prod1 := sub(sub(mm, prod0), lt(mm, prod0))\\n            }\\n\\n            // Handle non-overflow cases, 256 by 256 division.\\n            if (prod1 == 0) {\\n                // Solidity will revert if denominator == 0, unlike the div opcode on its own.\\n                // The surrounding unchecked block does not change this fact.\\n                // See https://docs.soliditylang.org/en/latest/control-structures.html#checked-or-unchecked-arithmetic.\\n                return prod0 / denominator;\\n            }\\n\\n            // Make sure the result is less than 2^256. Also prevents denominator == 0.\\n            if (denominator <= prod1) {\\n                revert MathOverflowedMulDiv();\\n            }\\n\\n            ///////////////////////////////////////////////\\n            // 512 by 256 division.\\n            ///////////////////////////////////////////////\\n\\n            // Make division exact by subtracting the remainder from [prod1 prod0].\\n            uint256 remainder;\\n            assembly {\\n                // Compute remainder using mulmod.\\n                remainder := mulmod(x, y, denominator)\\n\\n                // Subtract 256 bit number from 512 bit number.\\n                prod1 := sub(prod1, gt(remainder, prod0))\\n                prod0 := sub(prod0, remainder)\\n            }\\n\\n            // Factor powers of two out of denominator and compute largest power of two divisor of denominator.\\n            // Always >= 1. See https://cs.stackexchange.com/q/138556/92363.\\n\\n            uint256 twos = denominator & (0 - denominator);\\n            assembly {\\n                // Divide denominator by twos.\\n                denominator := div(denominator, twos)\\n\\n                // Divide [prod1 prod0] by twos.\\n                prod0 := div(prod0, twos)\\n\\n                // Flip twos such that it is 2^256 / twos. If twos is zero, then it becomes one.\\n                twos := add(div(sub(0, twos), twos), 1)\\n            }\\n\\n            // Shift in bits from prod1 into prod0.\\n            prod0 |= prod1 * twos;\\n\\n            // Invert denominator mod 2^256. Now that denominator is an odd number, it has an inverse modulo 2^256 such\\n            // that denominator * inv = 1 mod 2^256. Compute the inverse by starting with a seed that is correct for\\n            // four bits. That is, denominator * inv = 1 mod 2^4.\\n            uint256 inverse = (3 * denominator) ^ 2;\\n\\n            // Use the Newton-Raphson iteration to improve the precision. Thanks to Hensel's lifting lemma, this also\\n            // works in modular arithmetic, doubling the correct bits in each step.\\n            inverse *= 2 - denominator * inverse; // inverse mod 2^8\\n            inverse *= 2 - denominator * inverse; // inverse mod 2^16\\n            inverse *= 2 - denominator * inverse; // inverse mod 2^32\\n            inverse *= 2 - denominator * inverse; // inverse mod 2^64\\n            inverse *= 2 - denominator * inverse; // inverse mod 2^128\\n            inverse *= 2 - denominator * inverse; // inverse mod 2^256\\n\\n            // Because the division is now exact we can divide by multiplying with the modular inverse of denominator.\\n            // This will give us the correct result modulo 2^256. Since the preconditions guarantee that the outcome is\\n            // less than 2^256, this is the final result. We don't need to compute the high bits of the result and prod1\\n            // is no longer required.\\n            result = prod0 * inverse;\\n            return result;\\n        }\\n    }\\n\\n    /**\\n     * @notice Calculates x * y / denominator with full precision, following the selected rounding direction.\\n     */\\n    function mulDiv(uint256 x, uint256 y, uint256 denominator, Rounding rounding) internal pure returns (uint256) {\\n        uint256 result = mulDiv(x, y, denominator);\\n        if (unsignedRoundsUp(rounding) && mulmod(x, y, denominator) > 0) {\\n            result += 1;\\n        }\\n        return result;\\n    }\\n\\n    /**\\n     * @dev Returns the square root of a number. If the number is not a perfect square, the value is rounded\\n     * towards zero.\\n     *\\n     * Inspired by Henry S. Warren, Jr.'s \\\"Hacker's Delight\\\" (Chapter 11).\\n     */\\n    function sqrt(uint256 a) internal pure returns (uint256) {\\n        if (a == 0) {\\n            return 0;\\n        }\\n\\n        // For our first guess, we get the biggest power of 2 which is smaller than the square root of the target.\\n        //\\n        // We know that the \\\"msb\\\" (most significant bit) of our target number `a` is a power of 2 such that we have\\n        // `msb(a) <= a < 2*msb(a)`. This value can be written `msb(a)=2**k` with `k=log2(a)`.\\n        //\\n        // This can be rewritten `2**log2(a) <= a < 2**(log2(a) + 1)`\\n        // → `sqrt(2**k) <= sqrt(a) < sqrt(2**(k+1))`\\n        // → `2**(k/2) <= sqrt(a) < 2**((k+1)/2) <= 2**(k/2 + 1)`\\n        //\\n        // Consequently, `2**(log2(a) / 2)` is a good first approximation of `sqrt(a)` with at least 1 correct bit.\\n        uint256 result = 1 << (log2(a) >> 1);\\n\\n        // At this point `result` is an estimation with one bit of precision. We know the true value is a uint128,\\n        // since it is the square root of a uint256. Newton's method converges quadratically (precision doubles at\\n        // every iteration). We thus need at most 7 iteration to turn our partial result with one bit of precision\\n        // into the expected uint128 result.\\n        unchecked {\\n            result = (result + a / result) >> 1;\\n            result = (result + a / result) >> 1;\\n            result = (result + a / result) >> 1;\\n            result = (result + a / result) >> 1;\\n            result = (result + a / result) >> 1;\\n            result = (result + a / result) >> 1;\\n            result = (result + a / result) >> 1;\\n            return min(result, a / result);\\n        }\\n    }\\n\\n    /**\\n     * @notice Calculates sqrt(a), following the selected rounding direction.\\n     */\\n    function sqrt(uint256 a, Rounding rounding) internal pure returns (uint256) {\\n        unchecked {\\n            uint256 result = sqrt(a);\\n            return result + (unsignedRoundsUp(rounding) && result * result < a ? 1 : 0);\\n        }\\n    }\\n\\n    /**\\n     * @dev Return the log in base 2 of a positive value rounded towards zero.\\n     * Returns 0 if given 0.\\n     */\\n    function log2(uint256 value) internal pure returns (uint256) {\\n        uint256 result = 0;\\n        unchecked {\\n            if (value >> 128 > 0) {\\n                value >>= 128;\\n                result += 128;\\n            }\\n            if (value >> 64 > 0) {\\n                value >>= 64;\\n                result += 64;\\n            }\\n            if (value >> 32 > 0) {\\n                value >>= 32;\\n                result += 32;\\n            }\\n            if (value >> 16 > 0) {\\n                value >>= 16;\\n                result += 16;\\n            }\\n            if (value >> 8 > 0) {\\n                value >>= 8;\\n                result += 8;\\n            }\\n            if (value >> 4 > 0) {\\n                value >>= 4;\\n                result += 4;\\n            }\\n            if (value >> 2 > 0) {\\n                value >>= 2;\\n                result += 2;\\n            }\\n            if (value >> 1 > 0) {\\n                result += 1;\\n            }\\n        }\\n        return result;\\n    }\\n\\n    /**\\n     * @dev Return the log in base 2, following the selected rounding direction, of a positive value.\\n     * Returns 0 if given 0.\\n     */\\n    function log2(uint256 value, Rounding rounding) internal pure returns (uint256) {\\n        unchecked {\\n            uint256 result = log2(value);\\n            return result + (unsignedRoundsUp(rounding) && 1 << result < value ? 1 : 0);\\n        }\\n    }\\n\\n    /**\\n     * @dev Return the log in base 10 of a positive value rounded towards zero.\\n     * Returns 0 if given 0.\\n     */\\n    function log10(uint256 value) internal pure returns (uint256) {\\n        uint256 result = 0;\\n        unchecked {\\n            if (value >= 10 ** 64) {\\n                value /= 10 ** 64;\\n                result += 64;\\n            }\\n            if (value >= 10 ** 32) {\\n                value /= 10 ** 32;\\n                result += 32;\\n            }\\n            if (value >= 10 ** 16) {\\n                value /= 10 ** 16;\\n                result += 16;\\n            }\\n            if (value >= 10 ** 8) {\\n                value /= 10 ** 8;\\n                result += 8;\\n            }\\n            if (value >= 10 ** 4) {\\n                value /= 10 ** 4;\\n                result += 4;\\n            }\\n            if (value >= 10 ** 2) {\\n                value /= 10 ** 2;\\n                result += 2;\\n            }\\n            if (value >= 10 ** 1) {\\n                result += 1;\\n            }\\n        }\\n        return result;\\n    }\\n\\n    /**\\n     * @dev Return the log in base 10, following the selected rounding direction, of a positive value.\\n     * Returns 0 if given 0.\\n     */\\n    function log10(uint256 value, Rounding rounding) internal pure returns (uint256) {\\n        unchecked {\\n            uint256 result = log10(value);\\n            return result + (unsignedRoundsUp(rounding) && 10 ** result < value ? 1 : 0);\\n        }\\n    }\\n\\n    /**\\n     * @dev Return the log in base 256 of a positive value rounded towards zero.\\n     * Returns 0 if given 0.\\n     *\\n     * Adding one to the result gives the number of pairs of hex symbols needed to represent `value` as a hex string.\\n     */\\n    function log256(uint256 value) internal pure returns (uint256) {\\n        uint256 result = 0;\\n        unchecked {\\n            if (value >> 128 > 0) {\\n                value >>= 128;\\n                result += 16;\\n            }\\n            if (value >> 64 > 0) {\\n                value >>= 64;\\n                result += 8;\\n            }\\n            if (value >> 32 > 0) {\\n                value >>= 32;\\n                result += 4;\\n            }\\n            if (value >> 16 > 0) {\\n                value >>= 16;\\n                result += 2;\\n            }\\n            if (value >> 8 > 0) {\\n                result += 1;\\n            }\\n        }\\n        return result;\\n    }\\n\\n    /**\\n     * @dev Return the log in base 256, following the selected rounding direction, of a positive value.\\n     * Returns 0 if given 0.\\n     */\\n    function log256(uint256 value, Rounding rounding) internal pure returns (uint256) {\\n        unchecked {\\n            uint256 result = log256(value);\\n            return result + (unsignedRoundsUp(rounding) && 1 << (result << 3) < value ? 1 : 0);\\n        }\\n    }\\n\\n    /**\\n     * @dev Returns whether a provided rounding mode is considered rounding up for unsigned integers.\\n     */\\n    function unsignedRoundsUp(Rounding rounding) internal pure returns (bool) {\\n        return uint8(rounding) % 2 == 1;\\n    }\\n}\\n\"}},\"settings\":{\"optimizer\":{\"enabled\":false,\"runs\":200},\"outputSelection\":{\"*\":{\"\":[\"ast\"],\"*\":[\"abi\",\"metadata\",\"devdoc\",\"userdoc\",\"storageLayout\",\"evm.legacyAssembly\",\"evm.bytecode\",\"evm.deployedBytecode\",\"evm.methodIdentifiers\",\"evm.gasEstimates\",\"evm.assembly\"]}},\"remappings\":[]}}",
	"name": "WrappedR5",
	"bytecode": {
		"linkReferences": {},
		"object": "610160604052348015610010575f80fd5b50336040518060400160405280600a81526020017f5772617070656420523500000000000000000000000000000000000000000000815250806040518060400160405280600181526020017f31000000000000000000000000000000000000000000000000000000000000008152506040518060400160405280600a81526020017f57726170706564205235000000000000000000000000000000000000000000008152506040518060400160405280600381526020017f575235000000000000000000000000000000000000000000000000000000000081525081600390816100fa9190610657565b50806004908161010a9190610657565b50505061012160058361024560201b90919060201c565b610120818152505061013d60068261024560201b90919060201c565b6101408181525050818051906020012060e08181525050808051906020012061010081815250504660a0818152505061017a61029260201b60201c565b608081815250503073ffffffffffffffffffffffffffffffffffffffff1660c08173ffffffffffffffffffffffffffffffffffffffff16815250505050505f73ffffffffffffffffffffffffffffffffffffffff168173ffffffffffffffffffffffffffffffffffffffff1603610228575f6040517f1e4fbdf700000000000000000000000000000000000000000000000000000000815260040161021f9190610765565b60405180910390fd5b610237816102ec60201b60201c565b50600160098190555061090f565b5f6020835110156102665761025f836103af60201b60201c565b905061028c565b826102768361041460201b60201c565b5f0190816102849190610657565b5060ff5f1b90505b92915050565b5f7f8b73c3c69bb8fe3d512ecc4cf759cc79239f7b179b0ffacaa9a75d522b39400f60e0516101005146306040516020016102d19594939291906107a5565b60405160208183030381529060405280519060200120905090565b5f60085f9054906101000a900473ffffffffffffffffffffffffffffffffffffffff1690508160085f6101000a81548173ffffffffffffffffffffffffffffffffffffffff021916908373ffffffffffffffffffffffffffffffffffffffff1602179055508173ffffffffffffffffffffffffffffffffffffffff168173ffffffffffffffffffffffffffffffffffffffff167f8be0079c531659141344cd1fd0a4f28419497f9722a3daafe3b4186f6b6457e060405160405180910390a35050565b5f80829050601f815111156103fb57826040517f305a27a90000000000000000000000000000000000000000000000000000000081526004016103f2919061085c565b60405180910390fd5b805181610407906108a9565b5f1c175f1b915050919050565b5f819050919050565b5f81519050919050565b7f4e487b71000000000000000000000000000000000000000000000000000000005f52604160045260245ffd5b7f4e487b71000000000000000000000000000000000000000000000000000000005f52602260045260245ffd5b5f600282049050600182168061049857607f821691505b6020821081036104ab576104aa610454565b5b50919050565b5f819050815f5260205f209050919050565b5f6020601f8301049050919050565b5f82821b905092915050565b5f6008830261050d7fffffffffffffffffffffffffffffffffffffffffffffffffffffffffffffffff826104d2565b61051786836104d2565b95508019841693508086168417925050509392505050565b5f819050919050565b5f819050919050565b5f61055b6105566105518461052f565b610538565b61052f565b9050919050565b5f819050919050565b61057483610541565b61058861058082610562565b8484546104de565b825550505050565b5f90565b61059c610590565b6105a781848461056b565b505050565b5b818110156105ca576105bf5f82610594565b6001810190506105ad565b5050565b601f82111561060f576105e0816104b1565b6105e9846104c3565b810160208510156105f8578190505b61060c610604856104c3565b8301826105ac565b50505b505050565b5f82821c905092915050565b5f61062f5f1984600802610614565b1980831691505092915050565b5f6106478383610620565b9150826002028217905092915050565b6106608261041d565b67ffffffffffffffff81111561067957610678610427565b5b6106838254610481565b61068e8282856105ce565b5f60209050601f8311600181146106bf575f84156106ad578287015190505b6106b7858261063c565b86555061071e565b601f1984166106cd866104b1565b5f5b828110156106f4578489015182556001820191506020850194506020810190506106cf565b86831015610711578489015161070d601f891682610620565b8355505b6001600288020188555050505b505050505050565b5f73ffffffffffffffffffffffffffffffffffffffff82169050919050565b5f61074f82610726565b9050919050565b61075f81610745565b82525050565b5f6020820190506107785f830184610756565b92915050565b5f819050919050565b6107908161077e565b82525050565b61079f8161052f565b82525050565b5f60a0820190506107b85f830188610787565b6107c56020830187610787565b6107d26040830186610787565b6107df6060830185610796565b6107ec6080830184610756565b9695505050505050565b5f82825260208201905092915050565b8281835e5f83830152505050565b5f601f19601f8301169050919050565b5f61082e8261041d565b61083881856107f6565b9350610848818560208601610806565b61085181610814565b840191505092915050565b5f6020820190508181035f8301526108748184610824565b905092915050565b5f81519050919050565b5f819050602082019050919050565b5f6108a0825161077e565b80915050919050565b5f6108b38261087c565b826108bd84610886565b90506108c881610895565b92506020821015610908576109037fffffffffffffffffffffffffffffffffffffffffffffffffffffffffffffffff836020036008026104d2565b831692505b5050919050565b60805160a05160c05160e05161010051610120516101405161285c6109605f395f61138001525f61134501525f61187901525f61185801525f610fed01525f61104301525f61106c015261285c5ff3fe608060405234801561000f575f80fd5b5060043610610156575f3560e01c80637ecebe00116100c1578063d505accf1161007a578063d505accf146103a6578063dd62ed3e146103c2578063e30c3978146103f2578063eb8f4c4a14610410578063ec81b4831461042c578063f2fde38b1461044a57610156565b80637ecebe00146102ca57806384b0196e146102fa5780638da5cb5b1461031e57806395d89b411461033c578063a9059cbb1461035a578063c0b6f5611461038a57610156565b806340c10f191161011357806340c10f191461023257806342966c681461024e57806370a082311461026a578063715018a61461029a57806379ba5097146102a457806379cc6790146102ae57610156565b806306fdde031461015a578063095ea7b31461017857806318160ddd146101a857806323b872dd146101c6578063313ce567146101f65780633644e51514610214575b5f80fd5b610162610466565b60405161016f9190611dae565b60405180910390f35b610192600480360381019061018d9190611e5f565b6104f6565b60405161019f9190611eb7565b60405180910390f35b6101b0610518565b6040516101bd9190611edf565b60405180910390f35b6101e060048036038101906101db9190611ef8565b610521565b6040516101ed9190611eb7565b60405180910390f35b6101fe61054f565b60405161020b9190611f63565b60405180910390f35b61021c610557565b6040516102299190611f94565b60405180910390f35b61024c60048036038101906102479190611e5f565b610565565b005b61026860048036038101906102639190611fad565b610639565b005b610284600480360381019061027f9190611fd8565b61069a565b6040516102919190611edf565b60405180910390f35b6102a26106df565b005b6102ac6106f2565b005b6102c860048036038101906102c39190611e5f565b6107d8565b005b6102e460048036038101906102df9190611fd8565b610834565b6040516102f19190611edf565b60405180910390f35b610302610845565b6040516103159796959493929190612103565b60405180910390f35b6103266108ea565b6040516103339190612185565b60405180910390f35b610344610912565b6040516103519190611dae565b60405180910390f35b610374600480360381019061036f9190611e5f565b6109a2565b6040516103819190611eb7565b60405180910390f35b6103a4600480360381019061039f9190611fd8565b6109c4565b005b6103c060048036038101906103bb91906121f2565b610ade565b005b6103dc60048036038101906103d7919061228f565b610c23565b6040516103e99190611edf565b60405180910390f35b6103fa610ca5565b6040516104079190612185565b60405180910390f35b61042a60048036038101906104259190612308565b610ccd565b005b610434610dbb565b6040516104419190611edf565b60405180910390f35b610464600480360381019061045f9190611fd8565b610dca565b005b60606003805461047590612385565b80601f01602080910402602001604051908101604052809291908181526020018280546104a190612385565b80156104ec5780601f106104c3576101008083540402835291602001916104ec565b820191905f5260205f20905b8154815290600101906020018083116104cf57829003601f168201915b5050505050905090565b5f80610500610e4e565b905061050d818585610e55565b600191505092915050565b5f600254905090565b5f8061052b610e4e565b9050610538858285610e67565b610543858585610efa565b60019150509392505050565b5f6012905090565b5f610560610fea565b905090565b61056d6110a0565b610575611127565b6a36df8dec4229fb481000008161058a610518565b61059491906123e2565b11156105d5576040517f08c379a00000000000000000000000000000000000000000000000000000000081526004016105cc9061245f565b60405180910390fd5b6105df8282611176565b8173ffffffffffffffffffffffffffffffffffffffff167f3f2c9d57c068687834f0de942a9babb9e5acab57d516d3480a3c16ee165a4273826040516106259190611edf565b60405180910390a26106356111f5565b5050565b610642816111ff565b61064a610e4e565b73ffffffffffffffffffffffffffffffffffffffff167ffd38818f5291bf0bb3a2a48aadc06ba8757865d1dabd804585338aab3009dcb68260405161068f9190611edf565b60405180910390a250565b5f805f8373ffffffffffffffffffffffffffffffffffffffff1673ffffffffffffffffffffffffffffffffffffffff1681526020019081526020015f20549050919050565b6106e76110a0565b6106f05f611213565b565b5f6106fb610e4e565b9050600a5f9054906101000a900473ffffffffffffffffffffffffffffffffffffffff1673ffffffffffffffffffffffffffffffffffffffff168173ffffffffffffffffffffffffffffffffffffffff161461078c576040517f08c379a0000000000000000000000000000000000000000000000000000000008152600401610783906124ed565b60405180910390fd5b5f600a5f6101000a81548173ffffffffffffffffffffffffffffffffffffffff021916908373ffffffffffffffffffffffffffffffffffffffff1602179055506107d581611213565b50565b6107e282826112d6565b8173ffffffffffffffffffffffffffffffffffffffff167ffd38818f5291bf0bb3a2a48aadc06ba8757865d1dabd804585338aab3009dcb6826040516108289190611edf565b60405180910390a25050565b5f61083e826112f6565b9050919050565b5f6060805f805f606061085661133c565b61085e611377565b46305f801b5f67ffffffffffffffff81111561087d5761087c61250b565b5b6040519080825280602002602001820160405280156108ab5781602001602082028036833780820191505090505b507f0f00000000000000000000000000000000000000000000000000000000000000959493929190965096509650965096509650965090919293949596565b5f60085f9054906101000a900473ffffffffffffffffffffffffffffffffffffffff16905090565b60606004805461092190612385565b80601f016020809104026020016040519081016040528092919081815260200182805461094d90612385565b80156109985780601f1061096f57610100808354040283529160200191610998565b820191905f5260205f20905b81548152906001019060200180831161097b57829003601f168201915b5050505050905090565b5f806109ac610e4e565b90506109b9818585610efa565b600191505092915050565b6109cc6110a0565b5f73ffffffffffffffffffffffffffffffffffffffff168173ffffffffffffffffffffffffffffffffffffffff1603610a3a576040517f08c379a0000000000000000000000000000000000000000000000000000000008152600401610a31906125a8565b60405180910390fd5b80600a5f6101000a81548173ffffffffffffffffffffffffffffffffffffffff021916908373ffffffffffffffffffffffffffffffffffffffff1602179055508073ffffffffffffffffffffffffffffffffffffffff16610a996108ea565b73ffffffffffffffffffffffffffffffffffffffff167f38d16b8cac22d99fc7c124b9cd0de2d3fa1faef420bfe791d8c362d765e2270060405160405180910390a350565b83421115610b2357836040517f62791302000000000000000000000000000000000000000000000000000000008152600401610b1a9190611edf565b60405180910390fd5b5f7f6e71edae12b1b97f4d1f60370fef10105fa2faae0126114a169c64845d6126c9888888610b518c6113b2565b89604051602001610b67969594939291906125c6565b6040516020818303038152906040528051906020012090505f610b8982611405565b90505f610b988287878761141e565b90508973ffffffffffffffffffffffffffffffffffffffff168173ffffffffffffffffffffffffffffffffffffffff1614610c0c57808a6040517f4b800e46000000000000000000000000000000000000000000000000000000008152600401610c03929190612625565b60405180910390fd5b610c178a8a8a610e55565b50505050505050505050565b5f60015f8473ffffffffffffffffffffffffffffffffffffffff1673ffffffffffffffffffffffffffffffffffffffff1681526020019081526020015f205f8373ffffffffffffffffffffffffffffffffffffffff1673ffffffffffffffffffffffffffffffffffffffff1681526020019081526020015f2054905092915050565b5f600a5f9054906101000a900473ffffffffffffffffffffffffffffffffffffffff16905090565b610cd56110a0565b8273ffffffffffffffffffffffffffffffffffffffff1663a9059cbb83836040518363ffffffff1660e01b8152600401610d1092919061264c565b6020604051808303815f875af1158015610d2c573d5f803e3d5ffd5b505050506040513d601f19601f82011682018060405250810190610d50919061269d565b508173ffffffffffffffffffffffffffffffffffffffff168373ffffffffffffffffffffffffffffffffffffffff167f401f439d865a766757ec78675925bd67198d5e78805aa41691b34b5d6a6cbbe683604051610dae9190611edf565b60405180910390a3505050565b6a36df8dec4229fb4810000081565b610dd26110a0565b5f73ffffffffffffffffffffffffffffffffffffffff168173ffffffffffffffffffffffffffffffffffffffff1603610e42575f6040517f1e4fbdf7000000000000000000000000000000000000000000000000000000008152600401610e399190612185565b60405180910390fd5b610e4b81611213565b50565b5f33905090565b610e62838383600161144c565b505050565b5f610e728484610c23565b90507fffffffffffffffffffffffffffffffffffffffffffffffffffffffffffffffff811015610ef45781811015610ee5578281836040517ffb8f41b2000000000000000000000000000000000000000000000000000000008152600401610edc939291906126c8565b60405180910390fd5b610ef384848484035f61144c565b5b50505050565b5f73ffffffffffffffffffffffffffffffffffffffff168373ffffffffffffffffffffffffffffffffffffffff1603610f6a575f6040517f96c6fd1e000000000000000000000000000000000000000000000000000000008152600401610f619190612185565b60405180910390fd5b5f73ffffffffffffffffffffffffffffffffffffffff168273ffffffffffffffffffffffffffffffffffffffff1603610fda575f6040517fec442f05000000000000000000000000000000000000000000000000000000008152600401610fd19190612185565b60405180910390fd5b610fe583838361161b565b505050565b5f7f000000000000000000000000000000000000000000000000000000000000000073ffffffffffffffffffffffffffffffffffffffff163073ffffffffffffffffffffffffffffffffffffffff1614801561106557507f000000000000000000000000000000000000000000000000000000000000000046145b15611092577f0000000000000000000000000000000000000000000000000000000000000000905061109d565b61109a611834565b90505b90565b6110a8610e4e565b73ffffffffffffffffffffffffffffffffffffffff166110c66108ea565b73ffffffffffffffffffffffffffffffffffffffff1614611125576110e9610e4e565b6040517f118cdaa700000000000000000000000000000000000000000000000000000000815260040161111c9190612185565b60405180910390fd5b565b60026009540361116c576040517f08c379a000000000000000000000000000000000000000000000000000000000815260040161116390612747565b60405180910390fd5b6002600981905550565b5f73ffffffffffffffffffffffffffffffffffffffff168273ffffffffffffffffffffffffffffffffffffffff16036111e6575f6040517fec442f050000000000000000000000000000000000000000000000000000000081526004016111dd9190612185565b60405180910390fd5b6111f15f838361161b565b5050565b6001600981905550565b61121061120a610e4e565b826118c9565b50565b5f60085f9054906101000a900473ffffffffffffffffffffffffffffffffffffffff1690508160085f6101000a81548173ffffffffffffffffffffffffffffffffffffffff021916908373ffffffffffffffffffffffffffffffffffffffff1602179055508173ffffffffffffffffffffffffffffffffffffffff168173ffffffffffffffffffffffffffffffffffffffff167f8be0079c531659141344cd1fd0a4f28419497f9722a3daafe3b4186f6b6457e060405160405180910390a35050565b6112e8826112e2610e4e565b83610e67565b6112f282826118c9565b5050565b5f60075f8373ffffffffffffffffffffffffffffffffffffffff1673ffffffffffffffffffffffffffffffffffffffff1681526020019081526020015f20549050919050565b606061137260057f000000000000000000000000000000000000000000000000000000000000000061194890919063ffffffff16565b905090565b60606113ad60067f000000000000000000000000000000000000000000000000000000000000000061194890919063ffffffff16565b905090565b5f60075f8373ffffffffffffffffffffffffffffffffffffffff1673ffffffffffffffffffffffffffffffffffffffff1681526020019081526020015f205f815480929190600101919050559050919050565b5f611417611411610fea565b836119f5565b9050919050565b5f805f8061142e88888888611a35565b92509250925061143e8282611b1c565b829350505050949350505050565b5f73ffffffffffffffffffffffffffffffffffffffff168473ffffffffffffffffffffffffffffffffffffffff16036114bc575f6040517fe602df050000000000000000000000000000000000000000000000000000000081526004016114b39190612185565b60405180910390fd5b5f73ffffffffffffffffffffffffffffffffffffffff168373ffffffffffffffffffffffffffffffffffffffff160361152c575f6040517f94280d620000000000000000000000000000000000000000000000000000000081526004016115239190612185565b60405180910390fd5b8160015f8673ffffffffffffffffffffffffffffffffffffffff1673ffffffffffffffffffffffffffffffffffffffff1681526020019081526020015f205f8573ffffffffffffffffffffffffffffffffffffffff1673ffffffffffffffffffffffffffffffffffffffff1681526020019081526020015f20819055508015611615578273ffffffffffffffffffffffffffffffffffffffff168473ffffffffffffffffffffffffffffffffffffffff167f8c5be1e5ebec7d5bd14f71427d1e84f3dd0314c0f7b2291e5b200ac8c7c3b9258460405161160c9190611edf565b60405180910390a35b50505050565b5f73ffffffffffffffffffffffffffffffffffffffff168373ffffffffffffffffffffffffffffffffffffffff160361166b578060025f82825461165f91906123e2565b92505081905550611739565b5f805f8573ffffffffffffffffffffffffffffffffffffffff1673ffffffffffffffffffffffffffffffffffffffff1681526020019081526020015f20549050818110156116f4578381836040517fe450d38c0000000000000000000000000000000000000000000000000000000081526004016116eb939291906126c8565b60405180910390fd5b8181035f808673ffffffffffffffffffffffffffffffffffffffff1673ffffffffffffffffffffffffffffffffffffffff1681526020019081526020015f2081905550505b5f73ffffffffffffffffffffffffffffffffffffffff168273ffffffffffffffffffffffffffffffffffffffff1603611780578060025f82825403925050819055506117ca565b805f808473ffffffffffffffffffffffffffffffffffffffff1673ffffffffffffffffffffffffffffffffffffffff1681526020019081526020015f205f82825401925050819055505b8173ffffffffffffffffffffffffffffffffffffffff168373ffffffffffffffffffffffffffffffffffffffff167fddf252ad1be2c89b69c2b068fc378daa952ba7f163c4a11628f55a4df523b3ef836040516118279190611edf565b60405180910390a3505050565b5f7f8b73c3c69bb8fe3d512ecc4cf759cc79239f7b179b0ffacaa9a75d522b39400f7f00000000000000000000000000000000000000000000000000000000000000007f000000000000000000000000000000000000000000000000000000000000000046306040516020016118ae959493929190612765565b60405160208183030381529060405280519060200120905090565b5f73ffffffffffffffffffffffffffffffffffffffff168273ffffffffffffffffffffffffffffffffffffffff1603611939575f6040517f96c6fd1e0000000000000000000000000000000000000000000000000000000081526004016119309190612185565b60405180910390fd5b611944825f8361161b565b5050565b606060ff5f1b83146119645761195d83611c7e565b90506119ef565b81805461197090612385565b80601f016020809104026020016040519081016040528092919081815260200182805461199c90612385565b80156119e75780601f106119be576101008083540402835291602001916119e7565b820191905f5260205f20905b8154815290600101906020018083116119ca57829003601f168201915b505050505090505b92915050565b5f6040517f190100000000000000000000000000000000000000000000000000000000000081528360028201528260228201526042812091505092915050565b5f805f7f7fffffffffffffffffffffffffffffff5d576e7357a4501ddfe92f46681b20a0845f1c1115611a71575f600385925092509250611b12565b5f6001888888886040515f8152602001604052604051611a9494939291906127b6565b6020604051602081039080840390855afa158015611ab4573d5f803e3d5ffd5b5050506020604051035190505f73ffffffffffffffffffffffffffffffffffffffff168173ffffffffffffffffffffffffffffffffffffffff1603611b05575f60015f801b93509350935050611b12565b805f805f1b935093509350505b9450945094915050565b5f6003811115611b2f57611b2e6127f9565b5b826003811115611b4257611b416127f9565b5b0315611c7a5760016003811115611b5c57611b5b6127f9565b5b826003811115611b6f57611b6e6127f9565b5b03611ba6576040517ff645eedf00000000000000000000000000000000000000000000000000000000815260040160405180910390fd5b60026003811115611bba57611bb96127f9565b5b826003811115611bcd57611bcc6127f9565b5b03611c1157805f1c6040517ffce698f7000000000000000000000000000000000000000000000000000000008152600401611c089190611edf565b60405180910390fd5b600380811115611c2457611c236127f9565b5b826003811115611c3757611c366127f9565b5b03611c7957806040517fd78bce0c000000000000000000000000000000000000000000000000000000008152600401611c709190611f94565b60405180910390fd5b5b5050565b60605f611c8a83611cf0565b90505f602067ffffffffffffffff811115611ca857611ca761250b565b5b6040519080825280601f01601f191660200182016040528015611cda5781602001600182028036833780820191505090505b5090508181528360208201528092505050919050565b5f8060ff835f1c169050601f811115611d35576040517fb3512b0c00000000000000000000000000000000000000000000000000000000815260040160405180910390fd5b80915050919050565b5f81519050919050565b5f82825260208201905092915050565b8281835e5f83830152505050565b5f601f19601f8301169050919050565b5f611d8082611d3e565b611d8a8185611d48565b9350611d9a818560208601611d58565b611da381611d66565b840191505092915050565b5f6020820190508181035f830152611dc68184611d76565b905092915050565b5f80fd5b5f73ffffffffffffffffffffffffffffffffffffffff82169050919050565b5f611dfb82611dd2565b9050919050565b611e0b81611df1565b8114611e15575f80fd5b50565b5f81359050611e2681611e02565b92915050565b5f819050919050565b611e3e81611e2c565b8114611e48575f80fd5b50565b5f81359050611e5981611e35565b92915050565b5f8060408385031215611e7557611e74611dce565b5b5f611e8285828601611e18565b9250506020611e9385828601611e4b565b9150509250929050565b5f8115159050919050565b611eb181611e9d565b82525050565b5f602082019050611eca5f830184611ea8565b92915050565b611ed981611e2c565b82525050565b5f602082019050611ef25f830184611ed0565b92915050565b5f805f60608486031215611f0f57611f0e611dce565b5b5f611f1c86828701611e18565b9350506020611f2d86828701611e18565b9250506040611f3e86828701611e4b565b9150509250925092565b5f60ff82169050919050565b611f5d81611f48565b82525050565b5f602082019050611f765f830184611f54565b92915050565b5f819050919050565b611f8e81611f7c565b82525050565b5f602082019050611fa75f830184611f85565b92915050565b5f60208284031215611fc257611fc1611dce565b5b5f611fcf84828501611e4b565b91505092915050565b5f60208284031215611fed57611fec611dce565b5b5f611ffa84828501611e18565b91505092915050565b5f7fff0000000000000000000000000000000000000000000000000000000000000082169050919050565b61203781612003565b82525050565b61204681611df1565b82525050565b5f81519050919050565b5f82825260208201905092915050565b5f819050602082019050919050565b61207e81611e2c565b82525050565b5f61208f8383612075565b60208301905092915050565b5f602082019050919050565b5f6120b18261204c565b6120bb8185612056565b93506120c683612066565b805f5b838110156120f65781516120dd8882612084565b97506120e88361209b565b9250506001810190506120c9565b5085935050505092915050565b5f60e0820190506121165f83018a61202e565b81810360208301526121288189611d76565b9050818103604083015261213c8188611d76565b905061214b6060830187611ed0565b612158608083018661203d565b61216560a0830185611f85565b81810360c083015261217781846120a7565b905098975050505050505050565b5f6020820190506121985f83018461203d565b92915050565b6121a781611f48565b81146121b1575f80fd5b50565b5f813590506121c28161219e565b92915050565b6121d181611f7c565b81146121db575f80fd5b50565b5f813590506121ec816121c8565b92915050565b5f805f805f805f60e0888a03121561220d5761220c611dce565b5b5f61221a8a828b01611e18565b975050602061222b8a828b01611e18565b965050604061223c8a828b01611e4b565b955050606061224d8a828b01611e4b565b945050608061225e8a828b016121b4565b93505060a061226f8a828b016121de565b92505060c06122808a828b016121de565b91505092959891949750929550565b5f80604083850312156122a5576122a4611dce565b5b5f6122b285828601611e18565b92505060206122c385828601611e18565b9150509250929050565b5f6122d782611df1565b9050919050565b6122e7816122cd565b81146122f1575f80fd5b50565b5f81359050612302816122de565b92915050565b5f805f6060848603121561231f5761231e611dce565b5b5f61232c868287016122f4565b935050602061233d86828701611e18565b925050604061234e86828701611e4b565b9150509250925092565b7f4e487b71000000000000000000000000000000000000000000000000000000005f52602260045260245ffd5b5f600282049050600182168061239c57607f821691505b6020821081036123af576123ae612358565b5b50919050565b7f4e487b71000000000000000000000000000000000000000000000000000000005f52601160045260245ffd5b5f6123ec82611e2c565b91506123f783611e2c565b925082820190508082111561240f5761240e6123b5565b5b92915050565b7f5772617070656452353a206361702065786365656465640000000000000000005f82015250565b5f612449601783611d48565b915061245482612415565b602082019050919050565b5f6020820190508181035f8301526124768161243d565b9050919050565b7f5772617070656452353a2063616c6c6572206973206e6f74207468652070656e5f8201527f64696e67206f776e657200000000000000000000000000000000000000000000602082015250565b5f6124d7602a83611d48565b91506124e28261247d565b604082019050919050565b5f6020820190508181035f830152612504816124cb565b9050919050565b7f4e487b71000000000000000000000000000000000000000000000000000000005f52604160045260245ffd5b7f5772617070656452353a206e6577206f776e6572206973207a65726f206164645f8201527f7265737300000000000000000000000000000000000000000000000000000000602082015250565b5f612592602483611d48565b915061259d82612538565b604082019050919050565b5f6020820190508181035f8301526125bf81612586565b9050919050565b5f60c0820190506125d95f830189611f85565b6125e6602083018861203d565b6125f3604083018761203d565b6126006060830186611ed0565b61260d6080830185611ed0565b61261a60a0830184611ed0565b979650505050505050565b5f6040820190506126385f83018561203d565b612645602083018461203d565b9392505050565b5f60408201905061265f5f83018561203d565b61266c6020830184611ed0565b9392505050565b61267c81611e9d565b8114612686575f80fd5b50565b5f8151905061269781612673565b92915050565b5f602082840312156126b2576126b1611dce565b5b5f6126bf84828501612689565b91505092915050565b5f6060820190506126db5f83018661203d565b6126e86020830185611ed0565b6126f56040830184611ed0565b949350505050565b7f5265656e7472616e637947756172643a207265656e7472616e742063616c6c005f82015250565b5f612731601f83611d48565b915061273c826126fd565b602082019050919050565b5f6020820190508181035f83015261275e81612725565b9050919050565b5f60a0820190506127785f830188611f85565b6127856020830187611f85565b6127926040830186611f85565b61279f6060830185611ed0565b6127ac608083018461203d565b9695505050505050565b5f6080820190506127c95f830187611f85565b6127d66020830186611f54565b6127e36040830185611f85565b6127f06060830184611f85565b95945050505050565b7f4e487b71000000000000000000000000000000000000000000000000000000005f52602160045260245ffdfea264697066735822122046ec330ce2a86dce04904d74095c3d856e12831b325cd44a1b2dd954caf7f4ae64736f6c634300081a0033",
		"opcodes": "PUSH2 0x160 PUSH1 0x40 MSTORE CALLVALUE DUP1 ISZERO PUSH2 0x10 JUMPI PUSH0 DUP1 REVERT JUMPDEST POP CALLER PUSH1 0x40 MLOAD DUP1 PUSH1 0x40 ADD PUSH1 0x40 MSTORE DUP1 PUSH1 0xA DUP2 MSTORE PUSH1 0x20 ADD PUSH32 0x5772617070656420523500000000000000000000000000000000000000000000 DUP2 MSTORE POP DUP1 PUSH1 0x40 MLOAD DUP1 PUSH1 0x40 ADD PUSH1 0x40 MSTORE DUP1 PUSH1 0x1 DUP2 MSTORE PUSH1 0x20 ADD PUSH32 0x3100000000000000000000000000000000000000000000000000000000000000 DUP2 MSTORE POP PUSH1 0x40 MLOAD DUP1 PUSH1 0x40 ADD PUSH1 0x40 MSTORE DUP1 PUSH1 0xA DUP2 MSTORE PUSH1 0x20 ADD PUSH32 0x5772617070656420523500000000000000000000000000000000000000000000 DUP2 MSTORE POP PUSH1 0x40 MLOAD DUP1 PUSH1 0x40 ADD PUSH1 0x40 MSTORE DUP1 PUSH1 0x3 DUP2 MSTORE PUSH1 0x20 ADD PUSH32 0x5752350000000000000000000000000000000000000000000000000000000000 DUP2 MSTORE POP DUP2 PUSH1 0x3 SWAP1 DUP2 PUSH2 0xFA SWAP2 SWAP1 PUSH2 0x657 JUMP JUMPDEST POP DUP1 PUSH1 0x4 SWAP1 DUP2 PUSH2 0x10A SWAP2 SWAP1 PUSH2 0x657 JUMP JUMPDEST POP POP POP PUSH2 0x121 PUSH1 0x5 DUP4 PUSH2 0x245 PUSH1 0x20 SHL SWAP1 SWAP2 SWAP1 PUSH1 0x20 SHR JUMP JUMPDEST PUSH2 0x120 DUP2 DUP2 MSTORE POP POP PUSH2 0x13D PUSH1 0x6 DUP3 PUSH2 0x245 PUSH1 0x20 SHL SWAP1 SWAP2 SWAP1 PUSH1 0x20 SHR JUMP JUMPDEST PUSH2 0x140 DUP2 DUP2 MSTORE POP POP DUP2 DUP1 MLOAD SWAP1 PUSH1 0x20 ADD KECCAK256 PUSH1 0xE0 DUP2 DUP2 MSTORE POP POP DUP1 DUP1 MLOAD SWAP1 PUSH1 0x20 ADD KECCAK256 PUSH2 0x100 DUP2 DUP2 MSTORE POP POP CHAINID PUSH1 0xA0 DUP2 DUP2 MSTORE POP POP PUSH2 0x17A PUSH2 0x292 PUSH1 0x20 SHL PUSH1 0x20 SHR JUMP JUMPDEST PUSH1 0x80 DUP2 DUP2 MSTORE POP POP ADDRESS PUSH20 0xFFFFFFFFFFFFFFFFFFFFFFFFFFFFFFFFFFFFFFFF AND PUSH1 0xC0 DUP2 PUSH20 0xFFFFFFFFFFFFFFFFFFFFFFFFFFFFFFFFFFFFFFFF AND DUP2 MSTORE POP POP POP POP POP PUSH0 PUSH20 0xFFFFFFFFFFFFFFFFFFFFFFFFFFFFFFFFFFFFFFFF AND DUP2 PUSH20 0xFFFFFFFFFFFFFFFFFFFFFFFFFFFFFFFFFFFFFFFF AND SUB PUSH2 0x228 JUMPI PUSH0 PUSH1 0x40 MLOAD PUSH32 0x1E4FBDF700000000000000000000000000000000000000000000000000000000 DUP2 MSTORE PUSH1 0x4 ADD PUSH2 0x21F SWAP2 SWAP1 PUSH2 0x765 JUMP JUMPDEST PUSH1 0x40 MLOAD DUP1 SWAP2 SUB SWAP1 REVERT JUMPDEST PUSH2 0x237 DUP2 PUSH2 0x2EC PUSH1 0x20 SHL PUSH1 0x20 SHR JUMP JUMPDEST POP PUSH1 0x1 PUSH1 0x9 DUP2 SWAP1 SSTORE POP PUSH2 0x90F JUMP JUMPDEST PUSH0 PUSH1 0x20 DUP4 MLOAD LT ISZERO PUSH2 0x266 JUMPI PUSH2 0x25F DUP4 PUSH2 0x3AF PUSH1 0x20 SHL PUSH1 0x20 SHR JUMP JUMPDEST SWAP1 POP PUSH2 0x28C JUMP JUMPDEST DUP3 PUSH2 0x276 DUP4 PUSH2 0x414 PUSH1 0x20 SHL PUSH1 0x20 SHR JUMP JUMPDEST PUSH0 ADD SWAP1 DUP2 PUSH2 0x284 SWAP2 SWAP1 PUSH2 0x657 JUMP JUMPDEST POP PUSH1 0xFF PUSH0 SHL SWAP1 POP JUMPDEST SWAP3 SWAP2 POP POP JUMP JUMPDEST PUSH0 PUSH32 0x8B73C3C69BB8FE3D512ECC4CF759CC79239F7B179B0FFACAA9A75D522B39400F PUSH1 0xE0 MLOAD PUSH2 0x100 MLOAD CHAINID ADDRESS PUSH1 0x40 MLOAD PUSH1 0x20 ADD PUSH2 0x2D1 SWAP6 SWAP5 SWAP4 SWAP3 SWAP2 SWAP1 PUSH2 0x7A5 JUMP JUMPDEST PUSH1 0x40 MLOAD PUSH1 0x20 DUP2 DUP4 SUB SUB DUP2 MSTORE SWAP1 PUSH1 0x40 MSTORE DUP1 MLOAD SWAP1 PUSH1 0x20 ADD KECCAK256 SWAP1 POP SWAP1 JUMP JUMPDEST PUSH0 PUSH1 0x8 PUSH0 SWAP1 SLOAD SWAP1 PUSH2 0x100 EXP SWAP1 DIV PUSH20 0xFFFFFFFFFFFFFFFFFFFFFFFFFFFFFFFFFFFFFFFF AND SWAP1 POP DUP2 PUSH1 0x8 PUSH0 PUSH2 0x100 EXP DUP2 SLOAD DUP2 PUSH20 0xFFFFFFFFFFFFFFFFFFFFFFFFFFFFFFFFFFFFFFFF MUL NOT AND SWAP1 DUP4 PUSH20 0xFFFFFFFFFFFFFFFFFFFFFFFFFFFFFFFFFFFFFFFF AND MUL OR SWAP1 SSTORE POP DUP2 PUSH20 0xFFFFFFFFFFFFFFFFFFFFFFFFFFFFFFFFFFFFFFFF AND DUP2 PUSH20 0xFFFFFFFFFFFFFFFFFFFFFFFFFFFFFFFFFFFFFFFF AND PUSH32 0x8BE0079C531659141344CD1FD0A4F28419497F9722A3DAAFE3B4186F6B6457E0 PUSH1 0x40 MLOAD PUSH1 0x40 MLOAD DUP1 SWAP2 SUB SWAP1 LOG3 POP POP JUMP JUMPDEST PUSH0 DUP1 DUP3 SWAP1 POP PUSH1 0x1F DUP2 MLOAD GT ISZERO PUSH2 0x3FB JUMPI DUP3 PUSH1 0x40 MLOAD PUSH32 0x305A27A900000000000000000000000000000000000000000000000000000000 DUP2 MSTORE PUSH1 0x4 ADD PUSH2 0x3F2 SWAP2 SWAP1 PUSH2 0x85C JUMP JUMPDEST PUSH1 0x40 MLOAD DUP1 SWAP2 SUB SWAP1 REVERT JUMPDEST DUP1 MLOAD DUP2 PUSH2 0x407 SWAP1 PUSH2 0x8A9 JUMP JUMPDEST PUSH0 SHR OR PUSH0 SHL SWAP2 POP POP SWAP2 SWAP1 POP JUMP JUMPDEST PUSH0 DUP2 SWAP1 POP SWAP2 SWAP1 POP JUMP JUMPDEST PUSH0 DUP2 MLOAD SWAP1 POP SWAP2 SWAP1 POP JUMP JUMPDEST PUSH32 0x4E487B7100000000000000000000000000000000000000000000000000000000 PUSH0 MSTORE PUSH1 0x41 PUSH1 0x4 MSTORE PUSH1 0x24 PUSH0 REVERT JUMPDEST PUSH32 0x4E487B7100000000000000000000000000000000000000000000000000000000 PUSH0 MSTORE PUSH1 0x22 PUSH1 0x4 MSTORE PUSH1 0x24 PUSH0 REVERT JUMPDEST PUSH0 PUSH1 0x2 DUP3 DIV SWAP1 POP PUSH1 0x1 DUP3 AND DUP1 PUSH2 0x498 JUMPI PUSH1 0x7F DUP3 AND SWAP2 POP JUMPDEST PUSH1 0x20 DUP3 LT DUP2 SUB PUSH2 0x4AB JUMPI PUSH2 0x4AA PUSH2 0x454 JUMP JUMPDEST JUMPDEST POP SWAP2 SWAP1 POP JUMP JUMPDEST PUSH0 DUP2 SWAP1 POP DUP2 PUSH0 MSTORE PUSH1 0x20 PUSH0 KECCAK256 SWAP1 POP SWAP2 SWAP1 POP JUMP JUMPDEST PUSH0 PUSH1 0x20 PUSH1 0x1F DUP4 ADD DIV SWAP1 POP SWAP2 SWAP1 POP JUMP JUMPDEST PUSH0 DUP3 DUP3 SHL SWAP1 POP SWAP3 SWAP2 POP POP JUMP JUMPDEST PUSH0 PUSH1 0x8 DUP4 MUL PUSH2 0x50D PUSH32 0xFFFFFFFFFFFFFFFFFFFFFFFFFFFFFFFFFFFFFFFFFFFFFFFFFFFFFFFFFFFFFFFF DUP3 PUSH2 0x4D2 JUMP JUMPDEST PUSH2 0x517 DUP7 DUP4 PUSH2 0x4D2 JUMP JUMPDEST SWAP6 POP DUP1 NOT DUP5 AND SWAP4 POP DUP1 DUP7 AND DUP5 OR SWAP3 POP POP POP SWAP4 SWAP3 POP POP POP JUMP JUMPDEST PUSH0 DUP2 SWAP1 POP SWAP2 SWAP1 POP JUMP JUMPDEST PUSH0 DUP2 SWAP1 POP SWAP2 SWAP1 POP JUMP JUMPDEST PUSH0 PUSH2 0x55B PUSH2 0x556 PUSH2 0x551 DUP5 PUSH2 0x52F JUMP JUMPDEST PUSH2 0x538 JUMP JUMPDEST PUSH2 0x52F JUMP JUMPDEST SWAP1 POP SWAP2 SWAP1 POP JUMP JUMPDEST PUSH0 DUP2 SWAP1 POP SWAP2 SWAP1 POP JUMP JUMPDEST PUSH2 0x574 DUP4 PUSH2 0x541 JUMP JUMPDEST PUSH2 0x588 PUSH2 0x580 DUP3 PUSH2 0x562 JUMP JUMPDEST DUP5 DUP5 SLOAD PUSH2 0x4DE JUMP JUMPDEST DUP3 SSTORE POP POP POP POP JUMP JUMPDEST PUSH0 SWAP1 JUMP JUMPDEST PUSH2 0x59C PUSH2 0x590 JUMP JUMPDEST PUSH2 0x5A7 DUP2 DUP5 DUP5 PUSH2 0x56B JUMP JUMPDEST POP POP POP JUMP JUMPDEST JUMPDEST DUP2 DUP2 LT ISZERO PUSH2 0x5CA JUMPI PUSH2 0x5BF PUSH0 DUP3 PUSH2 0x594 JUMP JUMPDEST PUSH1 0x1 DUP2 ADD SWAP1 POP PUSH2 0x5AD JUMP JUMPDEST POP POP JUMP JUMPDEST PUSH1 0x1F DUP3 GT ISZERO PUSH2 0x60F JUMPI PUSH2 0x5E0 DUP2 PUSH2 0x4B1 JUMP JUMPDEST PUSH2 0x5E9 DUP5 PUSH2 0x4C3 JUMP JUMPDEST DUP2 ADD PUSH1 0x20 DUP6 LT ISZERO PUSH2 0x5F8 JUMPI DUP2 SWAP1 POP JUMPDEST PUSH2 0x60C PUSH2 0x604 DUP6 PUSH2 0x4C3 JUMP JUMPDEST DUP4 ADD DUP3 PUSH2 0x5AC JUMP JUMPDEST POP POP JUMPDEST POP POP POP JUMP JUMPDEST PUSH0 DUP3 DUP3 SHR SWAP1 POP SWAP3 SWAP2 POP POP JUMP JUMPDEST PUSH0 PUSH2 0x62F PUSH0 NOT DUP5 PUSH1 0x8 MUL PUSH2 0x614 JUMP JUMPDEST NOT DUP1 DUP4 AND SWAP2 POP POP SWAP3 SWAP2 POP POP JUMP JUMPDEST PUSH0 PUSH2 0x647 DUP4 DUP4 PUSH2 0x620 JUMP JUMPDEST SWAP2 POP DUP3 PUSH1 0x2 MUL DUP3 OR SWAP1 POP SWAP3 SWAP2 POP POP JUMP JUMPDEST PUSH2 0x660 DUP3 PUSH2 0x41D JUMP JUMPDEST PUSH8 0xFFFFFFFFFFFFFFFF DUP2 GT ISZERO PUSH2 0x679 JUMPI PUSH2 0x678 PUSH2 0x427 JUMP JUMPDEST JUMPDEST PUSH2 0x683 DUP3 SLOAD PUSH2 0x481 JUMP JUMPDEST PUSH2 0x68E DUP3 DUP3 DUP6 PUSH2 0x5CE JUMP JUMPDEST PUSH0 PUSH1 0x20 SWAP1 POP PUSH1 0x1F DUP4 GT PUSH1 0x1 DUP2 EQ PUSH2 0x6BF JUMPI PUSH0 DUP5 ISZERO PUSH2 0x6AD JUMPI DUP3 DUP8 ADD MLOAD SWAP1 POP JUMPDEST PUSH2 0x6B7 DUP6 DUP3 PUSH2 0x63C JUMP JUMPDEST DUP7 SSTORE POP PUSH2 0x71E JUMP JUMPDEST PUSH1 0x1F NOT DUP5 AND PUSH2 0x6CD DUP7 PUSH2 0x4B1 JUMP JUMPDEST PUSH0 JUMPDEST DUP3 DUP2 LT ISZERO PUSH2 0x6F4 JUMPI DUP5 DUP10 ADD MLOAD DUP3 SSTORE PUSH1 0x1 DUP3 ADD SWAP2 POP PUSH1 0x20 DUP6 ADD SWAP5 POP PUSH1 0x20 DUP2 ADD SWAP1 POP PUSH2 0x6CF JUMP JUMPDEST DUP7 DUP4 LT ISZERO PUSH2 0x711 JUMPI DUP5 DUP10 ADD MLOAD PUSH2 0x70D PUSH1 0x1F DUP10 AND DUP3 PUSH2 0x620 JUMP JUMPDEST DUP4 SSTORE POP JUMPDEST PUSH1 0x1 PUSH1 0x2 DUP9 MUL ADD DUP9 SSTORE POP POP POP JUMPDEST POP POP POP POP POP POP JUMP JUMPDEST PUSH0 PUSH20 0xFFFFFFFFFFFFFFFFFFFFFFFFFFFFFFFFFFFFFFFF DUP3 AND SWAP1 POP SWAP2 SWAP1 POP JUMP JUMPDEST PUSH0 PUSH2 0x74F DUP3 PUSH2 0x726 JUMP JUMPDEST SWAP1 POP SWAP2 SWAP1 POP JUMP JUMPDEST PUSH2 0x75F DUP2 PUSH2 0x745 JUMP JUMPDEST DUP3 MSTORE POP POP JUMP JUMPDEST PUSH0 PUSH1 0x20 DUP3 ADD SWAP1 POP PUSH2 0x778 PUSH0 DUP4 ADD DUP5 PUSH2 0x756 JUMP JUMPDEST SWAP3 SWAP2 POP POP JUMP JUMPDEST PUSH0 DUP2 SWAP1 POP SWAP2 SWAP1 POP JUMP JUMPDEST PUSH2 0x790 DUP2 PUSH2 0x77E JUMP JUMPDEST DUP3 MSTORE POP POP JUMP JUMPDEST PUSH2 0x79F DUP2 PUSH2 0x52F JUMP JUMPDEST DUP3 MSTORE POP POP JUMP JUMPDEST PUSH0 PUSH1 0xA0 DUP3 ADD SWAP1 POP PUSH2 0x7B8 PUSH0 DUP4 ADD DUP9 PUSH2 0x787 JUMP JUMPDEST PUSH2 0x7C5 PUSH1 0x20 DUP4 ADD DUP8 PUSH2 0x787 JUMP JUMPDEST PUSH2 0x7D2 PUSH1 0x40 DUP4 ADD DUP7 PUSH2 0x787 JUMP JUMPDEST PUSH2 0x7DF PUSH1 0x60 DUP4 ADD DUP6 PUSH2 0x796 JUMP JUMPDEST PUSH2 0x7EC PUSH1 0x80 DUP4 ADD DUP5 PUSH2 0x756 JUMP JUMPDEST SWAP7 SWAP6 POP POP POP POP POP POP JUMP JUMPDEST PUSH0 DUP3 DUP3 MSTORE PUSH1 0x20 DUP3 ADD SWAP1 POP SWAP3 SWAP2 POP POP JUMP JUMPDEST DUP3 DUP2 DUP4 MCOPY PUSH0 DUP4 DUP4 ADD MSTORE POP POP POP JUMP JUMPDEST PUSH0 PUSH1 0x1F NOT PUSH1 0x1F DUP4 ADD AND SWAP1 POP SWAP2 SWAP1 POP JUMP JUMPDEST PUSH0 PUSH2 0x82E DUP3 PUSH2 0x41D JUMP JUMPDEST PUSH2 0x838 DUP2 DUP6 PUSH2 0x7F6 JUMP JUMPDEST SWAP4 POP PUSH2 0x848 DUP2 DUP6 PUSH1 0x20 DUP7 ADD PUSH2 0x806 JUMP JUMPDEST PUSH2 0x851 DUP2 PUSH2 0x814 JUMP JUMPDEST DUP5 ADD SWAP2 POP POP SWAP3 SWAP2 POP POP JUMP JUMPDEST PUSH0 PUSH1 0x20 DUP3 ADD SWAP1 POP DUP2 DUP2 SUB PUSH0 DUP4 ADD MSTORE PUSH2 0x874 DUP2 DUP5 PUSH2 0x824 JUMP JUMPDEST SWAP1 POP SWAP3 SWAP2 POP POP JUMP JUMPDEST PUSH0 DUP2 MLOAD SWAP1 POP SWAP2 SWAP1 POP JUMP JUMPDEST PUSH0 DUP2 SWAP1 POP PUSH1 0x20 DUP3 ADD SWAP1 POP SWAP2 SWAP1 POP JUMP JUMPDEST PUSH0 PUSH2 0x8A0 DUP3 MLOAD PUSH2 0x77E JUMP JUMPDEST DUP1 SWAP2 POP POP SWAP2 SWAP1 POP JUMP JUMPDEST PUSH0 PUSH2 0x8B3 DUP3 PUSH2 0x87C JUMP JUMPDEST DUP3 PUSH2 0x8BD DUP5 PUSH2 0x886 JUMP JUMPDEST SWAP1 POP PUSH2 0x8C8 DUP2 PUSH2 0x895 JUMP JUMPDEST SWAP3 POP PUSH1 0x20 DUP3 LT ISZERO PUSH2 0x908 JUMPI PUSH2 0x903 PUSH32 0xFFFFFFFFFFFFFFFFFFFFFFFFFFFFFFFFFFFFFFFFFFFFFFFFFFFFFFFFFFFFFFFF DUP4 PUSH1 0x20 SUB PUSH1 0x8 MUL PUSH2 0x4D2 JUMP JUMPDEST DUP4 AND SWAP3 POP JUMPDEST POP POP SWAP2 SWAP1 POP JUMP JUMPDEST PUSH1 0x80 MLOAD PUSH1 0xA0 MLOAD PUSH1 0xC0 MLOAD PUSH1 0xE0 MLOAD PUSH2 0x100 MLOAD PUSH2 0x120 MLOAD PUSH2 0x140 MLOAD PUSH2 0x285C PUSH2 0x960 PUSH0 CODECOPY PUSH0 PUSH2 0x1380 ADD MSTORE PUSH0 PUSH2 0x1345 ADD MSTORE PUSH0 PUSH2 0x1879 ADD MSTORE PUSH0 PUSH2 0x1858 ADD MSTORE PUSH0 PUSH2 0xFED ADD MSTORE PUSH0 PUSH2 0x1043 ADD MSTORE PUSH0 PUSH2 0x106C ADD MSTORE PUSH2 0x285C PUSH0 RETURN INVALID PUSH1 0x80 PUSH1 0x40 MSTORE CALLVALUE DUP1 ISZERO PUSH2 0xF JUMPI PUSH0 DUP1 REVERT JUMPDEST POP PUSH1 0x4 CALLDATASIZE LT PUSH2 0x156 JUMPI PUSH0 CALLDATALOAD PUSH1 0xE0 SHR DUP1 PUSH4 0x7ECEBE00 GT PUSH2 0xC1 JUMPI DUP1 PUSH4 0xD505ACCF GT PUSH2 0x7A JUMPI DUP1 PUSH4 0xD505ACCF EQ PUSH2 0x3A6 JUMPI DUP1 PUSH4 0xDD62ED3E EQ PUSH2 0x3C2 JUMPI DUP1 PUSH4 0xE30C3978 EQ PUSH2 0x3F2 JUMPI DUP1 PUSH4 0xEB8F4C4A EQ PUSH2 0x410 JUMPI DUP1 PUSH4 0xEC81B483 EQ PUSH2 0x42C JUMPI DUP1 PUSH4 0xF2FDE38B EQ PUSH2 0x44A JUMPI PUSH2 0x156 JUMP JUMPDEST DUP1 PUSH4 0x7ECEBE00 EQ PUSH2 0x2CA JUMPI DUP1 PUSH4 0x84B0196E EQ PUSH2 0x2FA JUMPI DUP1 PUSH4 0x8DA5CB5B EQ PUSH2 0x31E JUMPI DUP1 PUSH4 0x95D89B41 EQ PUSH2 0x33C JUMPI DUP1 PUSH4 0xA9059CBB EQ PUSH2 0x35A JUMPI DUP1 PUSH4 0xC0B6F561 EQ PUSH2 0x38A JUMPI PUSH2 0x156 JUMP JUMPDEST DUP1 PUSH4 0x40C10F19 GT PUSH2 0x113 JUMPI DUP1 PUSH4 0x40C10F19 EQ PUSH2 0x232 JUMPI DUP1 PUSH4 0x42966C68 EQ PUSH2 0x24E JUMPI DUP1 PUSH4 0x70A08231 EQ PUSH2 0x26A JUMPI DUP1 PUSH4 0x715018A6 EQ PUSH2 0x29A JUMPI DUP1 PUSH4 0x79BA5097 EQ PUSH2 0x2A4 JUMPI DUP1 PUSH4 0x79CC6790 EQ PUSH2 0x2AE JUMPI PUSH2 0x156 JUMP JUMPDEST DUP1 PUSH4 0x6FDDE03 EQ PUSH2 0x15A JUMPI DUP1 PUSH4 0x95EA7B3 EQ PUSH2 0x178 JUMPI DUP1 PUSH4 0x18160DDD EQ PUSH2 0x1A8 JUMPI DUP1 PUSH4 0x23B872DD EQ PUSH2 0x1C6 JUMPI DUP1 PUSH4 0x313CE567 EQ PUSH2 0x1F6 JUMPI DUP1 PUSH4 0x3644E515 EQ PUSH2 0x214 JUMPI JUMPDEST PUSH0 DUP1 REVERT JUMPDEST PUSH2 0x162 PUSH2 0x466 JUMP JUMPDEST PUSH1 0x40 MLOAD PUSH2 0x16F SWAP2 SWAP1 PUSH2 0x1DAE JUMP JUMPDEST PUSH1 0x40 MLOAD DUP1 SWAP2 SUB SWAP1 RETURN JUMPDEST PUSH2 0x192 PUSH1 0x4 DUP1 CALLDATASIZE SUB DUP2 ADD SWAP1 PUSH2 0x18D SWAP2 SWAP1 PUSH2 0x1E5F JUMP JUMPDEST PUSH2 0x4F6 JUMP JUMPDEST PUSH1 0x40 MLOAD PUSH2 0x19F SWAP2 SWAP1 PUSH2 0x1EB7 JUMP JUMPDEST PUSH1 0x40 MLOAD DUP1 SWAP2 SUB SWAP1 RETURN JUMPDEST PUSH2 0x1B0 PUSH2 0x518 JUMP JUMPDEST PUSH1 0x40 MLOAD PUSH2 0x1BD SWAP2 SWAP1 PUSH2 0x1EDF JUMP JUMPDEST PUSH1 0x40 MLOAD DUP1 SWAP2 SUB SWAP1 RETURN JUMPDEST PUSH2 0x1E0 PUSH1 0x4 DUP1 CALLDATASIZE SUB DUP2 ADD SWAP1 PUSH2 0x1DB SWAP2 SWAP1 PUSH2 0x1EF8 JUMP JUMPDEST PUSH2 0x521 JUMP JUMPDEST PUSH1 0x40 MLOAD PUSH2 0x1ED SWAP2 SWAP1 PUSH2 0x1EB7 JUMP JUMPDEST PUSH1 0x40 MLOAD DUP1 SWAP2 SUB SWAP1 RETURN JUMPDEST PUSH2 0x1FE PUSH2 0x54F JUMP JUMPDEST PUSH1 0x40 MLOAD PUSH2 0x20B SWAP2 SWAP1 PUSH2 0x1F63 JUMP JUMPDEST PUSH1 0x40 MLOAD DUP1 SWAP2 SUB SWAP1 RETURN JUMPDEST PUSH2 0x21C PUSH2 0x557 JUMP JUMPDEST PUSH1 0x40 MLOAD PUSH2 0x229 SWAP2 SWAP1 PUSH2 0x1F94 JUMP JUMPDEST PUSH1 0x40 MLOAD DUP1 SWAP2 SUB SWAP1 RETURN JUMPDEST PUSH2 0x24C PUSH1 0x4 DUP1 CALLDATASIZE SUB DUP2 ADD SWAP1 PUSH2 0x247 SWAP2 SWAP1 PUSH2 0x1E5F JUMP JUMPDEST PUSH2 0x565 JUMP JUMPDEST STOP JUMPDEST PUSH2 0x268 PUSH1 0x4 DUP1 CALLDATASIZE SUB DUP2 ADD SWAP1 PUSH2 0x263 SWAP2 SWAP1 PUSH2 0x1FAD JUMP JUMPDEST PUSH2 0x639 JUMP JUMPDEST STOP JUMPDEST PUSH2 0x284 PUSH1 0x4 DUP1 CALLDATASIZE SUB DUP2 ADD SWAP1 PUSH2 0x27F SWAP2 SWAP1 PUSH2 0x1FD8 JUMP JUMPDEST PUSH2 0x69A JUMP JUMPDEST PUSH1 0x40 MLOAD PUSH2 0x291 SWAP2 SWAP1 PUSH2 0x1EDF JUMP JUMPDEST PUSH1 0x40 MLOAD DUP1 SWAP2 SUB SWAP1 RETURN JUMPDEST PUSH2 0x2A2 PUSH2 0x6DF JUMP JUMPDEST STOP JUMPDEST PUSH2 0x2AC PUSH2 0x6F2 JUMP JUMPDEST STOP JUMPDEST PUSH2 0x2C8 PUSH1 0x4 DUP1 CALLDATASIZE SUB DUP2 ADD SWAP1 PUSH2 0x2C3 SWAP2 SWAP1 PUSH2 0x1E5F JUMP JUMPDEST PUSH2 0x7D8 JUMP JUMPDEST STOP JUMPDEST PUSH2 0x2E4 PUSH1 0x4 DUP1 CALLDATASIZE SUB DUP2 ADD SWAP1 PUSH2 0x2DF SWAP2 SWAP1 PUSH2 0x1FD8 JUMP JUMPDEST PUSH2 0x834 JUMP JUMPDEST PUSH1 0x40 MLOAD PUSH2 0x2F1 SWAP2 SWAP1 PUSH2 0x1EDF JUMP JUMPDEST PUSH1 0x40 MLOAD DUP1 SWAP2 SUB SWAP1 RETURN JUMPDEST PUSH2 0x302 PUSH2 0x845 JUMP JUMPDEST PUSH1 0x40 MLOAD PUSH2 0x315 SWAP8 SWAP7 SWAP6 SWAP5 SWAP4 SWAP3 SWAP2 SWAP1 PUSH2 0x2103 JUMP JUMPDEST PUSH1 0x40 MLOAD DUP1 SWAP2 SUB SWAP1 RETURN JUMPDEST PUSH2 0x326 PUSH2 0x8EA JUMP JUMPDEST PUSH1 0x40 MLOAD PUSH2 0x333 SWAP2 SWAP1 PUSH2 0x2185 JUMP JUMPDEST PUSH1 0x40 MLOAD DUP1 SWAP2 SUB SWAP1 RETURN JUMPDEST PUSH2 0x344 PUSH2 0x912 JUMP JUMPDEST PUSH1 0x40 MLOAD PUSH2 0x351 SWAP2 SWAP1 PUSH2 0x1DAE JUMP JUMPDEST PUSH1 0x40 MLOAD DUP1 SWAP2 SUB SWAP1 RETURN JUMPDEST PUSH2 0x374 PUSH1 0x4 DUP1 CALLDATASIZE SUB DUP2 ADD SWAP1 PUSH2 0x36F SWAP2 SWAP1 PUSH2 0x1E5F JUMP JUMPDEST PUSH2 0x9A2 JUMP JUMPDEST PUSH1 0x40 MLOAD PUSH2 0x381 SWAP2 SWAP1 PUSH2 0x1EB7 JUMP JUMPDEST PUSH1 0x40 MLOAD DUP1 SWAP2 SUB SWAP1 RETURN JUMPDEST PUSH2 0x3A4 PUSH1 0x4 DUP1 CALLDATASIZE SUB DUP2 ADD SWAP1 PUSH2 0x39F SWAP2 SWAP1 PUSH2 0x1FD8 JUMP JUMPDEST PUSH2 0x9C4 JUMP JUMPDEST STOP JUMPDEST PUSH2 0x3C0 PUSH1 0x4 DUP1 CALLDATASIZE SUB DUP2 ADD SWAP1 PUSH2 0x3BB SWAP2 SWAP1 PUSH2 0x21F2 JUMP JUMPDEST PUSH2 0xADE JUMP JUMPDEST STOP JUMPDEST PUSH2 0x3DC PUSH1 0x4 DUP1 CALLDATASIZE SUB DUP2 ADD SWAP1 PUSH2 0x3D7 SWAP2 SWAP1 PUSH2 0x228F JUMP JUMPDEST PUSH2 0xC23 JUMP JUMPDEST PUSH1 0x40 MLOAD PUSH2 0x3E9 SWAP2 SWAP1 PUSH2 0x1EDF JUMP JUMPDEST PUSH1 0x40 MLOAD DUP1 SWAP2 SUB SWAP1 RETURN JUMPDEST PUSH2 0x3FA PUSH2 0xCA5 JUMP JUMPDEST PUSH1 0x40 MLOAD PUSH2 0x407 SWAP2 SWAP1 PUSH2 0x2185 JUMP JUMPDEST PUSH1 0x40 MLOAD DUP1 SWAP2 SUB SWAP1 RETURN JUMPDEST PUSH2 0x42A PUSH1 0x4 DUP1 CALLDATASIZE SUB DUP2 ADD SWAP1 PUSH2 0x425 SWAP2 SWAP1 PUSH2 0x2308 JUMP JUMPDEST PUSH2 0xCCD JUMP JUMPDEST STOP JUMPDEST PUSH2 0x434 PUSH2 0xDBB JUMP JUMPDEST PUSH1 0x40 MLOAD PUSH2 0x441 SWAP2 SWAP1 PUSH2 0x1EDF JUMP JUMPDEST PUSH1 0x40 MLOAD DUP1 SWAP2 SUB SWAP1 RETURN JUMPDEST PUSH2 0x464 PUSH1 0x4 DUP1 CALLDATASIZE SUB DUP2 ADD SWAP1 PUSH2 0x45F SWAP2 SWAP1 PUSH2 0x1FD8 JUMP JUMPDEST PUSH2 0xDCA JUMP JUMPDEST STOP JUMPDEST PUSH1 0x60 PUSH1 0x3 DUP1 SLOAD PUSH2 0x475 SWAP1 PUSH2 0x2385 JUMP JUMPDEST DUP1 PUSH1 0x1F ADD PUSH1 0x20 DUP1 SWAP2 DIV MUL PUSH1 0x20 ADD PUSH1 0x40 MLOAD SWAP1 DUP2 ADD PUSH1 0x40 MSTORE DUP1 SWAP3 SWAP2 SWAP1 DUP2 DUP2 MSTORE PUSH1 0x20 ADD DUP3 DUP1 SLOAD PUSH2 0x4A1 SWAP1 PUSH2 0x2385 JUMP JUMPDEST DUP1 ISZERO PUSH2 0x4EC JUMPI DUP1 PUSH1 0x1F LT PUSH2 0x4C3 JUMPI PUSH2 0x100 DUP1 DUP4 SLOAD DIV MUL DUP4 MSTORE SWAP2 PUSH1 0x20 ADD SWAP2 PUSH2 0x4EC JUMP JUMPDEST DUP3 ADD SWAP2 SWAP1 PUSH0 MSTORE PUSH1 0x20 PUSH0 KECCAK256 SWAP1 JUMPDEST DUP2 SLOAD DUP2 MSTORE SWAP1 PUSH1 0x1 ADD SWAP1 PUSH1 0x20 ADD DUP1 DUP4 GT PUSH2 0x4CF JUMPI DUP3 SWAP1 SUB PUSH1 0x1F AND DUP3 ADD SWAP2 JUMPDEST POP POP POP POP POP SWAP1 POP SWAP1 JUMP JUMPDEST PUSH0 DUP1 PUSH2 0x500 PUSH2 0xE4E JUMP JUMPDEST SWAP1 POP PUSH2 0x50D DUP2 DUP6 DUP6 PUSH2 0xE55 JUMP JUMPDEST PUSH1 0x1 SWAP2 POP POP SWAP3 SWAP2 POP POP JUMP JUMPDEST PUSH0 PUSH1 0x2 SLOAD SWAP1 POP SWAP1 JUMP JUMPDEST PUSH0 DUP1 PUSH2 0x52B PUSH2 0xE4E JUMP JUMPDEST SWAP1 POP PUSH2 0x538 DUP6 DUP3 DUP6 PUSH2 0xE67 JUMP JUMPDEST PUSH2 0x543 DUP6 DUP6 DUP6 PUSH2 0xEFA JUMP JUMPDEST PUSH1 0x1 SWAP2 POP POP SWAP4 SWAP3 POP POP POP JUMP JUMPDEST PUSH0 PUSH1 0x12 SWAP1 POP SWAP1 JUMP JUMPDEST PUSH0 PUSH2 0x560 PUSH2 0xFEA JUMP JUMPDEST SWAP1 POP SWAP1 JUMP JUMPDEST PUSH2 0x56D PUSH2 0x10A0 JUMP JUMPDEST PUSH2 0x575 PUSH2 0x1127 JUMP JUMPDEST PUSH11 0x36DF8DEC4229FB48100000 DUP2 PUSH2 0x58A PUSH2 0x518 JUMP JUMPDEST PUSH2 0x594 SWAP2 SWAP1 PUSH2 0x23E2 JUMP JUMPDEST GT ISZERO PUSH2 0x5D5 JUMPI PUSH1 0x40 MLOAD PUSH32 0x8C379A000000000000000000000000000000000000000000000000000000000 DUP2 MSTORE PUSH1 0x4 ADD PUSH2 0x5CC SWAP1 PUSH2 0x245F JUMP JUMPDEST PUSH1 0x40 MLOAD DUP1 SWAP2 SUB SWAP1 REVERT JUMPDEST PUSH2 0x5DF DUP3 DUP3 PUSH2 0x1176 JUMP JUMPDEST DUP2 PUSH20 0xFFFFFFFFFFFFFFFFFFFFFFFFFFFFFFFFFFFFFFFF AND PUSH32 0x3F2C9D57C068687834F0DE942A9BABB9E5ACAB57D516D3480A3C16EE165A4273 DUP3 PUSH1 0x40 MLOAD PUSH2 0x625 SWAP2 SWAP1 PUSH2 0x1EDF JUMP JUMPDEST PUSH1 0x40 MLOAD DUP1 SWAP2 SUB SWAP1 LOG2 PUSH2 0x635 PUSH2 0x11F5 JUMP JUMPDEST POP POP JUMP JUMPDEST PUSH2 0x642 DUP2 PUSH2 0x11FF JUMP JUMPDEST PUSH2 0x64A PUSH2 0xE4E JUMP JUMPDEST PUSH20 0xFFFFFFFFFFFFFFFFFFFFFFFFFFFFFFFFFFFFFFFF AND PUSH32 0xFD38818F5291BF0BB3A2A48AADC06BA8757865D1DABD804585338AAB3009DCB6 DUP3 PUSH1 0x40 MLOAD PUSH2 0x68F SWAP2 SWAP1 PUSH2 0x1EDF JUMP JUMPDEST PUSH1 0x40 MLOAD DUP1 SWAP2 SUB SWAP1 LOG2 POP JUMP JUMPDEST PUSH0 DUP1 PUSH0 DUP4 PUSH20 0xFFFFFFFFFFFFFFFFFFFFFFFFFFFFFFFFFFFFFFFF AND PUSH20 0xFFFFFFFFFFFFFFFFFFFFFFFFFFFFFFFFFFFFFFFF AND DUP2 MSTORE PUSH1 0x20 ADD SWAP1 DUP2 MSTORE PUSH1 0x20 ADD PUSH0 KECCAK256 SLOAD SWAP1 POP SWAP2 SWAP1 POP JUMP JUMPDEST PUSH2 0x6E7 PUSH2 0x10A0 JUMP JUMPDEST PUSH2 0x6F0 PUSH0 PUSH2 0x1213 JUMP JUMPDEST JUMP JUMPDEST PUSH0 PUSH2 0x6FB PUSH2 0xE4E JUMP JUMPDEST SWAP1 POP PUSH1 0xA PUSH0 SWAP1 SLOAD SWAP1 PUSH2 0x100 EXP SWAP1 DIV PUSH20 0xFFFFFFFFFFFFFFFFFFFFFFFFFFFFFFFFFFFFFFFF AND PUSH20 0xFFFFFFFFFFFFFFFFFFFFFFFFFFFFFFFFFFFFFFFF AND DUP2 PUSH20 0xFFFFFFFFFFFFFFFFFFFFFFFFFFFFFFFFFFFFFFFF AND EQ PUSH2 0x78C JUMPI PUSH1 0x40 MLOAD PUSH32 0x8C379A000000000000000000000000000000000000000000000000000000000 DUP2 MSTORE PUSH1 0x4 ADD PUSH2 0x783 SWAP1 PUSH2 0x24ED JUMP JUMPDEST PUSH1 0x40 MLOAD DUP1 SWAP2 SUB SWAP1 REVERT JUMPDEST PUSH0 PUSH1 0xA PUSH0 PUSH2 0x100 EXP DUP2 SLOAD DUP2 PUSH20 0xFFFFFFFFFFFFFFFFFFFFFFFFFFFFFFFFFFFFFFFF MUL NOT AND SWAP1 DUP4 PUSH20 0xFFFFFFFFFFFFFFFFFFFFFFFFFFFFFFFFFFFFFFFF AND MUL OR SWAP1 SSTORE POP PUSH2 0x7D5 DUP2 PUSH2 0x1213 JUMP JUMPDEST POP JUMP JUMPDEST PUSH2 0x7E2 DUP3 DUP3 PUSH2 0x12D6 JUMP JUMPDEST DUP2 PUSH20 0xFFFFFFFFFFFFFFFFFFFFFFFFFFFFFFFFFFFFFFFF AND PUSH32 0xFD38818F5291BF0BB3A2A48AADC06BA8757865D1DABD804585338AAB3009DCB6 DUP3 PUSH1 0x40 MLOAD PUSH2 0x828 SWAP2 SWAP1 PUSH2 0x1EDF JUMP JUMPDEST PUSH1 0x40 MLOAD DUP1 SWAP2 SUB SWAP1 LOG2 POP POP JUMP JUMPDEST PUSH0 PUSH2 0x83E DUP3 PUSH2 0x12F6 JUMP JUMPDEST SWAP1 POP SWAP2 SWAP1 POP JUMP JUMPDEST PUSH0 PUSH1 0x60 DUP1 PUSH0 DUP1 PUSH0 PUSH1 0x60 PUSH2 0x856 PUSH2 0x133C JUMP JUMPDEST PUSH2 0x85E PUSH2 0x1377 JUMP JUMPDEST CHAINID ADDRESS PUSH0 DUP1 SHL PUSH0 PUSH8 0xFFFFFFFFFFFFFFFF DUP2 GT ISZERO PUSH2 0x87D JUMPI PUSH2 0x87C PUSH2 0x250B JUMP JUMPDEST JUMPDEST PUSH1 0x40 MLOAD SWAP1 DUP1 DUP3 MSTORE DUP1 PUSH1 0x20 MUL PUSH1 0x20 ADD DUP3 ADD PUSH1 0x40 MSTORE DUP1 ISZERO PUSH2 0x8AB JUMPI DUP2 PUSH1 0x20 ADD PUSH1 0x20 DUP3 MUL DUP1 CALLDATASIZE DUP4 CALLDATACOPY DUP1 DUP3 ADD SWAP2 POP POP SWAP1 POP JUMPDEST POP PUSH32 0xF00000000000000000000000000000000000000000000000000000000000000 SWAP6 SWAP5 SWAP4 SWAP3 SWAP2 SWAP1 SWAP7 POP SWAP7 POP SWAP7 POP SWAP7 POP SWAP7 POP SWAP7 POP SWAP7 POP SWAP1 SWAP2 SWAP3 SWAP4 SWAP5 SWAP6 SWAP7 JUMP JUMPDEST PUSH0 PUSH1 0x8 PUSH0 SWAP1 SLOAD SWAP1 PUSH2 0x100 EXP SWAP1 DIV PUSH20 0xFFFFFFFFFFFFFFFFFFFFFFFFFFFFFFFFFFFFFFFF AND SWAP1 POP SWAP1 JUMP JUMPDEST PUSH1 0x60 PUSH1 0x4 DUP1 SLOAD PUSH2 0x921 SWAP1 PUSH2 0x2385 JUMP JUMPDEST DUP1 PUSH1 0x1F ADD PUSH1 0x20 DUP1 SWAP2 DIV MUL PUSH1 0x20 ADD PUSH1 0x40 MLOAD SWAP1 DUP2 ADD PUSH1 0x40 MSTORE DUP1 SWAP3 SWAP2 SWAP1 DUP2 DUP2 MSTORE PUSH1 0x20 ADD DUP3 DUP1 SLOAD PUSH2 0x94D SWAP1 PUSH2 0x2385 JUMP JUMPDEST DUP1 ISZERO PUSH2 0x998 JUMPI DUP1 PUSH1 0x1F LT PUSH2 0x96F JUMPI PUSH2 0x100 DUP1 DUP4 SLOAD DIV MUL DUP4 MSTORE SWAP2 PUSH1 0x20 ADD SWAP2 PUSH2 0x998 JUMP JUMPDEST DUP3 ADD SWAP2 SWAP1 PUSH0 MSTORE PUSH1 0x20 PUSH0 KECCAK256 SWAP1 JUMPDEST DUP2 SLOAD DUP2 MSTORE SWAP1 PUSH1 0x1 ADD SWAP1 PUSH1 0x20 ADD DUP1 DUP4 GT PUSH2 0x97B JUMPI DUP3 SWAP1 SUB PUSH1 0x1F AND DUP3 ADD SWAP2 JUMPDEST POP POP POP POP POP SWAP1 POP SWAP1 JUMP JUMPDEST PUSH0 DUP1 PUSH2 0x9AC PUSH2 0xE4E JUMP JUMPDEST SWAP1 POP PUSH2 0x9B9 DUP2 DUP6 DUP6 PUSH2 0xEFA JUMP JUMPDEST PUSH1 0x1 SWAP2 POP POP SWAP3 SWAP2 POP POP JUMP JUMPDEST PUSH2 0x9CC PUSH2 0x10A0 JUMP JUMPDEST PUSH0 PUSH20 0xFFFFFFFFFFFFFFFFFFFFFFFFFFFFFFFFFFFFFFFF AND DUP2 PUSH20 0xFFFFFFFFFFFFFFFFFFFFFFFFFFFFFFFFFFFFFFFF AND SUB PUSH2 0xA3A JUMPI PUSH1 0x40 MLOAD PUSH32 0x8C379A000000000000000000000000000000000000000000000000000000000 DUP2 MSTORE PUSH1 0x4 ADD PUSH2 0xA31 SWAP1 PUSH2 0x25A8 JUMP JUMPDEST PUSH1 0x40 MLOAD DUP1 SWAP2 SUB SWAP1 REVERT JUMPDEST DUP1 PUSH1 0xA PUSH0 PUSH2 0x100 EXP DUP2 SLOAD DUP2 PUSH20 0xFFFFFFFFFFFFFFFFFFFFFFFFFFFFFFFFFFFFFFFF MUL NOT AND SWAP1 DUP4 PUSH20 0xFFFFFFFFFFFFFFFFFFFFFFFFFFFFFFFFFFFFFFFF AND MUL OR SWAP1 SSTORE POP DUP1 PUSH20 0xFFFFFFFFFFFFFFFFFFFFFFFFFFFFFFFFFFFFFFFF AND PUSH2 0xA99 PUSH2 0x8EA JUMP JUMPDEST PUSH20 0xFFFFFFFFFFFFFFFFFFFFFFFFFFFFFFFFFFFFFFFF AND PUSH32 0x38D16B8CAC22D99FC7C124B9CD0DE2D3FA1FAEF420BFE791D8C362D765E22700 PUSH1 0x40 MLOAD PUSH1 0x40 MLOAD DUP1 SWAP2 SUB SWAP1 LOG3 POP JUMP JUMPDEST DUP4 TIMESTAMP GT ISZERO PUSH2 0xB23 JUMPI DUP4 PUSH1 0x40 MLOAD PUSH32 0x6279130200000000000000000000000000000000000000000000000000000000 DUP2 MSTORE PUSH1 0x4 ADD PUSH2 0xB1A SWAP2 SWAP1 PUSH2 0x1EDF JUMP JUMPDEST PUSH1 0x40 MLOAD DUP1 SWAP2 SUB SWAP1 REVERT JUMPDEST PUSH0 PUSH32 0x6E71EDAE12B1B97F4D1F60370FEF10105FA2FAAE0126114A169C64845D6126C9 DUP9 DUP9 DUP9 PUSH2 0xB51 DUP13 PUSH2 0x13B2 JUMP JUMPDEST DUP10 PUSH1 0x40 MLOAD PUSH1 0x20 ADD PUSH2 0xB67 SWAP7 SWAP6 SWAP5 SWAP4 SWAP3 SWAP2 SWAP1 PUSH2 0x25C6 JUMP JUMPDEST PUSH1 0x40 MLOAD PUSH1 0x20 DUP2 DUP4 SUB SUB DUP2 MSTORE SWAP1 PUSH1 0x40 MSTORE DUP1 MLOAD SWAP1 PUSH1 0x20 ADD KECCAK256 SWAP1 POP PUSH0 PUSH2 0xB89 DUP3 PUSH2 0x1405 JUMP JUMPDEST SWAP1 POP PUSH0 PUSH2 0xB98 DUP3 DUP8 DUP8 DUP8 PUSH2 0x141E JUMP JUMPDEST SWAP1 POP DUP10 PUSH20 0xFFFFFFFFFFFFFFFFFFFFFFFFFFFFFFFFFFFFFFFF AND DUP2 PUSH20 0xFFFFFFFFFFFFFFFFFFFFFFFFFFFFFFFFFFFFFFFF AND EQ PUSH2 0xC0C JUMPI DUP1 DUP11 PUSH1 0x40 MLOAD PUSH32 0x4B800E4600000000000000000000000000000000000000000000000000000000 DUP2 MSTORE PUSH1 0x4 ADD PUSH2 0xC03 SWAP3 SWAP2 SWAP1 PUSH2 0x2625 JUMP JUMPDEST PUSH1 0x40 MLOAD DUP1 SWAP2 SUB SWAP1 REVERT JUMPDEST PUSH2 0xC17 DUP11 DUP11 DUP11 PUSH2 0xE55 JUMP JUMPDEST POP POP POP POP POP POP POP POP POP POP JUMP JUMPDEST PUSH0 PUSH1 0x1 PUSH0 DUP5 PUSH20 0xFFFFFFFFFFFFFFFFFFFFFFFFFFFFFFFFFFFFFFFF AND PUSH20 0xFFFFFFFFFFFFFFFFFFFFFFFFFFFFFFFFFFFFFFFF AND DUP2 MSTORE PUSH1 0x20 ADD SWAP1 DUP2 MSTORE PUSH1 0x20 ADD PUSH0 KECCAK256 PUSH0 DUP4 PUSH20 0xFFFFFFFFFFFFFFFFFFFFFFFFFFFFFFFFFFFFFFFF AND PUSH20 0xFFFFFFFFFFFFFFFFFFFFFFFFFFFFFFFFFFFFFFFF AND DUP2 MSTORE PUSH1 0x20 ADD SWAP1 DUP2 MSTORE PUSH1 0x20 ADD PUSH0 KECCAK256 SLOAD SWAP1 POP SWAP3 SWAP2 POP POP JUMP JUMPDEST PUSH0 PUSH1 0xA PUSH0 SWAP1 SLOAD SWAP1 PUSH2 0x100 EXP SWAP1 DIV PUSH20 0xFFFFFFFFFFFFFFFFFFFFFFFFFFFFFFFFFFFFFFFF AND SWAP1 POP SWAP1 JUMP JUMPDEST PUSH2 0xCD5 PUSH2 0x10A0 JUMP JUMPDEST DUP3 PUSH20 0xFFFFFFFFFFFFFFFFFFFFFFFFFFFFFFFFFFFFFFFF AND PUSH4 0xA9059CBB DUP4 DUP4 PUSH1 0x40 MLOAD DUP4 PUSH4 0xFFFFFFFF AND PUSH1 0xE0 SHL DUP2 MSTORE PUSH1 0x4 ADD PUSH2 0xD10 SWAP3 SWAP2 SWAP1 PUSH2 0x264C JUMP JUMPDEST PUSH1 0x20 PUSH1 0x40 MLOAD DUP1 DUP4 SUB DUP2 PUSH0 DUP8 GAS CALL ISZERO DUP1 ISZERO PUSH2 0xD2C JUMPI RETURNDATASIZE PUSH0 DUP1 RETURNDATACOPY RETURNDATASIZE PUSH0 REVERT JUMPDEST POP POP POP POP PUSH1 0x40 MLOAD RETURNDATASIZE PUSH1 0x1F NOT PUSH1 0x1F DUP3 ADD AND DUP3 ADD DUP1 PUSH1 0x40 MSTORE POP DUP2 ADD SWAP1 PUSH2 0xD50 SWAP2 SWAP1 PUSH2 0x269D JUMP JUMPDEST POP DUP2 PUSH20 0xFFFFFFFFFFFFFFFFFFFFFFFFFFFFFFFFFFFFFFFF AND DUP4 PUSH20 0xFFFFFFFFFFFFFFFFFFFFFFFFFFFFFFFFFFFFFFFF AND PUSH32 0x401F439D865A766757EC78675925BD67198D5E78805AA41691B34B5D6A6CBBE6 DUP4 PUSH1 0x40 MLOAD PUSH2 0xDAE SWAP2 SWAP1 PUSH2 0x1EDF JUMP JUMPDEST PUSH1 0x40 MLOAD DUP1 SWAP2 SUB SWAP1 LOG3 POP POP POP JUMP JUMPDEST PUSH11 0x36DF8DEC4229FB48100000 DUP2 JUMP JUMPDEST PUSH2 0xDD2 PUSH2 0x10A0 JUMP JUMPDEST PUSH0 PUSH20 0xFFFFFFFFFFFFFFFFFFFFFFFFFFFFFFFFFFFFFFFF AND DUP2 PUSH20 0xFFFFFFFFFFFFFFFFFFFFFFFFFFFFFFFFFFFFFFFF AND SUB PUSH2 0xE42 JUMPI PUSH0 PUSH1 0x40 MLOAD PUSH32 0x1E4FBDF700000000000000000000000000000000000000000000000000000000 DUP2 MSTORE PUSH1 0x4 ADD PUSH2 0xE39 SWAP2 SWAP1 PUSH2 0x2185 JUMP JUMPDEST PUSH1 0x40 MLOAD DUP1 SWAP2 SUB SWAP1 REVERT JUMPDEST PUSH2 0xE4B DUP2 PUSH2 0x1213 JUMP JUMPDEST POP JUMP JUMPDEST PUSH0 CALLER SWAP1 POP SWAP1 JUMP JUMPDEST PUSH2 0xE62 DUP4 DUP4 DUP4 PUSH1 0x1 PUSH2 0x144C JUMP JUMPDEST POP POP POP JUMP JUMPDEST PUSH0 PUSH2 0xE72 DUP5 DUP5 PUSH2 0xC23 JUMP JUMPDEST SWAP1 POP PUSH32 0xFFFFFFFFFFFFFFFFFFFFFFFFFFFFFFFFFFFFFFFFFFFFFFFFFFFFFFFFFFFFFFFF DUP2 LT ISZERO PUSH2 0xEF4 JUMPI DUP2 DUP2 LT ISZERO PUSH2 0xEE5 JUMPI DUP3 DUP2 DUP4 PUSH1 0x40 MLOAD PUSH32 0xFB8F41B200000000000000000000000000000000000000000000000000000000 DUP2 MSTORE PUSH1 0x4 ADD PUSH2 0xEDC SWAP4 SWAP3 SWAP2 SWAP1 PUSH2 0x26C8 JUMP JUMPDEST PUSH1 0x40 MLOAD DUP1 SWAP2 SUB SWAP1 REVERT JUMPDEST PUSH2 0xEF3 DUP5 DUP5 DUP5 DUP5 SUB PUSH0 PUSH2 0x144C JUMP JUMPDEST JUMPDEST POP POP POP POP JUMP JUMPDEST PUSH0 PUSH20 0xFFFFFFFFFFFFFFFFFFFFFFFFFFFFFFFFFFFFFFFF AND DUP4 PUSH20 0xFFFFFFFFFFFFFFFFFFFFFFFFFFFFFFFFFFFFFFFF AND SUB PUSH2 0xF6A JUMPI PUSH0 PUSH1 0x40 MLOAD PUSH32 0x96C6FD1E00000000000000000000000000000000000000000000000000000000 DUP2 MSTORE PUSH1 0x4 ADD PUSH2 0xF61 SWAP2 SWAP1 PUSH2 0x2185 JUMP JUMPDEST PUSH1 0x40 MLOAD DUP1 SWAP2 SUB SWAP1 REVERT JUMPDEST PUSH0 PUSH20 0xFFFFFFFFFFFFFFFFFFFFFFFFFFFFFFFFFFFFFFFF AND DUP3 PUSH20 0xFFFFFFFFFFFFFFFFFFFFFFFFFFFFFFFFFFFFFFFF AND SUB PUSH2 0xFDA JUMPI PUSH0 PUSH1 0x40 MLOAD PUSH32 0xEC442F0500000000000000000000000000000000000000000000000000000000 DUP2 MSTORE PUSH1 0x4 ADD PUSH2 0xFD1 SWAP2 SWAP1 PUSH2 0x2185 JUMP JUMPDEST PUSH1 0x40 MLOAD DUP1 SWAP2 SUB SWAP1 REVERT JUMPDEST PUSH2 0xFE5 DUP4 DUP4 DUP4 PUSH2 0x161B JUMP JUMPDEST POP POP POP JUMP JUMPDEST PUSH0 PUSH32 0x0 PUSH20 0xFFFFFFFFFFFFFFFFFFFFFFFFFFFFFFFFFFFFFFFF AND ADDRESS PUSH20 0xFFFFFFFFFFFFFFFFFFFFFFFFFFFFFFFFFFFFFFFF AND EQ DUP1 ISZERO PUSH2 0x1065 JUMPI POP PUSH32 0x0 CHAINID EQ JUMPDEST ISZERO PUSH2 0x1092 JUMPI PUSH32 0x0 SWAP1 POP PUSH2 0x109D JUMP JUMPDEST PUSH2 0x109A PUSH2 0x1834 JUMP JUMPDEST SWAP1 POP JUMPDEST SWAP1 JUMP JUMPDEST PUSH2 0x10A8 PUSH2 0xE4E JUMP JUMPDEST PUSH20 0xFFFFFFFFFFFFFFFFFFFFFFFFFFFFFFFFFFFFFFFF AND PUSH2 0x10C6 PUSH2 0x8EA JUMP JUMPDEST PUSH20 0xFFFFFFFFFFFFFFFFFFFFFFFFFFFFFFFFFFFFFFFF AND EQ PUSH2 0x1125 JUMPI PUSH2 0x10E9 PUSH2 0xE4E JUMP JUMPDEST PUSH1 0x40 MLOAD PUSH32 0x118CDAA700000000000000000000000000000000000000000000000000000000 DUP2 MSTORE PUSH1 0x4 ADD PUSH2 0x111C SWAP2 SWAP1 PUSH2 0x2185 JUMP JUMPDEST PUSH1 0x40 MLOAD DUP1 SWAP2 SUB SWAP1 REVERT JUMPDEST JUMP JUMPDEST PUSH1 0x2 PUSH1 0x9 SLOAD SUB PUSH2 0x116C JUMPI PUSH1 0x40 MLOAD PUSH32 0x8C379A000000000000000000000000000000000000000000000000000000000 DUP2 MSTORE PUSH1 0x4 ADD PUSH2 0x1163 SWAP1 PUSH2 0x2747 JUMP JUMPDEST PUSH1 0x40 MLOAD DUP1 SWAP2 SUB SWAP1 REVERT JUMPDEST PUSH1 0x2 PUSH1 0x9 DUP2 SWAP1 SSTORE POP JUMP JUMPDEST PUSH0 PUSH20 0xFFFFFFFFFFFFFFFFFFFFFFFFFFFFFFFFFFFFFFFF AND DUP3 PUSH20 0xFFFFFFFFFFFFFFFFFFFFFFFFFFFFFFFFFFFFFFFF AND SUB PUSH2 0x11E6 JUMPI PUSH0 PUSH1 0x40 MLOAD PUSH32 0xEC442F0500000000000000000000000000000000000000000000000000000000 DUP2 MSTORE PUSH1 0x4 ADD PUSH2 0x11DD SWAP2 SWAP1 PUSH2 0x2185 JUMP JUMPDEST PUSH1 0x40 MLOAD DUP1 SWAP2 SUB SWAP1 REVERT JUMPDEST PUSH2 0x11F1 PUSH0 DUP4 DUP4 PUSH2 0x161B JUMP JUMPDEST POP POP JUMP JUMPDEST PUSH1 0x1 PUSH1 0x9 DUP2 SWAP1 SSTORE POP JUMP JUMPDEST PUSH2 0x1210 PUSH2 0x120A PUSH2 0xE4E JUMP JUMPDEST DUP3 PUSH2 0x18C9 JUMP JUMPDEST POP JUMP JUMPDEST PUSH0 PUSH1 0x8 PUSH0 SWAP1 SLOAD SWAP1 PUSH2 0x100 EXP SWAP1 DIV PUSH20 0xFFFFFFFFFFFFFFFFFFFFFFFFFFFFFFFFFFFFFFFF AND SWAP1 POP DUP2 PUSH1 0x8 PUSH0 PUSH2 0x100 EXP DUP2 SLOAD DUP2 PUSH20 0xFFFFFFFFFFFFFFFFFFFFFFFFFFFFFFFFFFFFFFFF MUL NOT AND SWAP1 DUP4 PUSH20 0xFFFFFFFFFFFFFFFFFFFFFFFFFFFFFFFFFFFFFFFF AND MUL OR SWAP1 SSTORE POP DUP2 PUSH20 0xFFFFFFFFFFFFFFFFFFFFFFFFFFFFFFFFFFFFFFFF AND DUP2 PUSH20 0xFFFFFFFFFFFFFFFFFFFFFFFFFFFFFFFFFFFFFFFF AND PUSH32 0x8BE0079C531659141344CD1FD0A4F28419497F9722A3DAAFE3B4186F6B6457E0 PUSH1 0x40 MLOAD PUSH1 0x40 MLOAD DUP1 SWAP2 SUB SWAP1 LOG3 POP POP JUMP JUMPDEST PUSH2 0x12E8 DUP3 PUSH2 0x12E2 PUSH2 0xE4E JUMP JUMPDEST DUP4 PUSH2 0xE67 JUMP JUMPDEST PUSH2 0x12F2 DUP3 DUP3 PUSH2 0x18C9 JUMP JUMPDEST POP POP JUMP JUMPDEST PUSH0 PUSH1 0x7 PUSH0 DUP4 PUSH20 0xFFFFFFFFFFFFFFFFFFFFFFFFFFFFFFFFFFFFFFFF AND PUSH20 0xFFFFFFFFFFFFFFFFFFFFFFFFFFFFFFFFFFFFFFFF AND DUP2 MSTORE PUSH1 0x20 ADD SWAP1 DUP2 MSTORE PUSH1 0x20 ADD PUSH0 KECCAK256 SLOAD SWAP1 POP SWAP2 SWAP1 POP JUMP JUMPDEST PUSH1 0x60 PUSH2 0x1372 PUSH1 0x5 PUSH32 0x0 PUSH2 0x1948 SWAP1 SWAP2 SWAP1 PUSH4 0xFFFFFFFF AND JUMP JUMPDEST SWAP1 POP SWAP1 JUMP JUMPDEST PUSH1 0x60 PUSH2 0x13AD PUSH1 0x6 PUSH32 0x0 PUSH2 0x1948 SWAP1 SWAP2 SWAP1 PUSH4 0xFFFFFFFF AND JUMP JUMPDEST SWAP1 POP SWAP1 JUMP JUMPDEST PUSH0 PUSH1 0x7 PUSH0 DUP4 PUSH20 0xFFFFFFFFFFFFFFFFFFFFFFFFFFFFFFFFFFFFFFFF AND PUSH20 0xFFFFFFFFFFFFFFFFFFFFFFFFFFFFFFFFFFFFFFFF AND DUP2 MSTORE PUSH1 0x20 ADD SWAP1 DUP2 MSTORE PUSH1 0x20 ADD PUSH0 KECCAK256 PUSH0 DUP2 SLOAD DUP1 SWAP3 SWAP2 SWAP1 PUSH1 0x1 ADD SWAP2 SWAP1 POP SSTORE SWAP1 POP SWAP2 SWAP1 POP JUMP JUMPDEST PUSH0 PUSH2 0x1417 PUSH2 0x1411 PUSH2 0xFEA JUMP JUMPDEST DUP4 PUSH2 0x19F5 JUMP JUMPDEST SWAP1 POP SWAP2 SWAP1 POP JUMP JUMPDEST PUSH0 DUP1 PUSH0 DUP1 PUSH2 0x142E DUP9 DUP9 DUP9 DUP9 PUSH2 0x1A35 JUMP JUMPDEST SWAP3 POP SWAP3 POP SWAP3 POP PUSH2 0x143E DUP3 DUP3 PUSH2 0x1B1C JUMP JUMPDEST DUP3 SWAP4 POP POP POP POP SWAP5 SWAP4 POP POP POP POP JUMP JUMPDEST PUSH0 PUSH20 0xFFFFFFFFFFFFFFFFFFFFFFFFFFFFFFFFFFFFFFFF AND DUP5 PUSH20 0xFFFFFFFFFFFFFFFFFFFFFFFFFFFFFFFFFFFFFFFF AND SUB PUSH2 0x14BC JUMPI PUSH0 PUSH1 0x40 MLOAD PUSH32 0xE602DF0500000000000000000000000000000000000000000000000000000000 DUP2 MSTORE PUSH1 0x4 ADD PUSH2 0x14B3 SWAP2 SWAP1 PUSH2 0x2185 JUMP JUMPDEST PUSH1 0x40 MLOAD DUP1 SWAP2 SUB SWAP1 REVERT JUMPDEST PUSH0 PUSH20 0xFFFFFFFFFFFFFFFFFFFFFFFFFFFFFFFFFFFFFFFF AND DUP4 PUSH20 0xFFFFFFFFFFFFFFFFFFFFFFFFFFFFFFFFFFFFFFFF AND SUB PUSH2 0x152C JUMPI PUSH0 PUSH1 0x40 MLOAD PUSH32 0x94280D6200000000000000000000000000000000000000000000000000000000 DUP2 MSTORE PUSH1 0x4 ADD PUSH2 0x1523 SWAP2 SWAP1 PUSH2 0x2185 JUMP JUMPDEST PUSH1 0x40 MLOAD DUP1 SWAP2 SUB SWAP1 REVERT JUMPDEST DUP2 PUSH1 0x1 PUSH0 DUP7 PUSH20 0xFFFFFFFFFFFFFFFFFFFFFFFFFFFFFFFFFFFFFFFF AND PUSH20 0xFFFFFFFFFFFFFFFFFFFFFFFFFFFFFFFFFFFFFFFF AND DUP2 MSTORE PUSH1 0x20 ADD SWAP1 DUP2 MSTORE PUSH1 0x20 ADD PUSH0 KECCAK256 PUSH0 DUP6 PUSH20 0xFFFFFFFFFFFFFFFFFFFFFFFFFFFFFFFFFFFFFFFF AND PUSH20 0xFFFFFFFFFFFFFFFFFFFFFFFFFFFFFFFFFFFFFFFF AND DUP2 MSTORE PUSH1 0x20 ADD SWAP1 DUP2 MSTORE PUSH1 0x20 ADD PUSH0 KECCAK256 DUP2 SWAP1 SSTORE POP DUP1 ISZERO PUSH2 0x1615 JUMPI DUP3 PUSH20 0xFFFFFFFFFFFFFFFFFFFFFFFFFFFFFFFFFFFFFFFF AND DUP5 PUSH20 0xFFFFFFFFFFFFFFFFFFFFFFFFFFFFFFFFFFFFFFFF AND PUSH32 0x8C5BE1E5EBEC7D5BD14F71427D1E84F3DD0314C0F7B2291E5B200AC8C7C3B925 DUP5 PUSH1 0x40 MLOAD PUSH2 0x160C SWAP2 SWAP1 PUSH2 0x1EDF JUMP JUMPDEST PUSH1 0x40 MLOAD DUP1 SWAP2 SUB SWAP1 LOG3 JUMPDEST POP POP POP POP JUMP JUMPDEST PUSH0 PUSH20 0xFFFFFFFFFFFFFFFFFFFFFFFFFFFFFFFFFFFFFFFF AND DUP4 PUSH20 0xFFFFFFFFFFFFFFFFFFFFFFFFFFFFFFFFFFFFFFFF AND SUB PUSH2 0x166B JUMPI DUP1 PUSH1 0x2 PUSH0 DUP3 DUP3 SLOAD PUSH2 0x165F SWAP2 SWAP1 PUSH2 0x23E2 JUMP JUMPDEST SWAP3 POP POP DUP2 SWAP1 SSTORE POP PUSH2 0x1739 JUMP JUMPDEST PUSH0 DUP1 PUSH0 DUP6 PUSH20 0xFFFFFFFFFFFFFFFFFFFFFFFFFFFFFFFFFFFFFFFF AND PUSH20 0xFFFFFFFFFFFFFFFFFFFFFFFFFFFFFFFFFFFFFFFF AND DUP2 MSTORE PUSH1 0x20 ADD SWAP1 DUP2 MSTORE PUSH1 0x20 ADD PUSH0 KECCAK256 SLOAD SWAP1 POP DUP2 DUP2 LT ISZERO PUSH2 0x16F4 JUMPI DUP4 DUP2 DUP4 PUSH1 0x40 MLOAD PUSH32 0xE450D38C00000000000000000000000000000000000000000000000000000000 DUP2 MSTORE PUSH1 0x4 ADD PUSH2 0x16EB SWAP4 SWAP3 SWAP2 SWAP1 PUSH2 0x26C8 JUMP JUMPDEST PUSH1 0x40 MLOAD DUP1 SWAP2 SUB SWAP1 REVERT JUMPDEST DUP2 DUP2 SUB PUSH0 DUP1 DUP7 PUSH20 0xFFFFFFFFFFFFFFFFFFFFFFFFFFFFFFFFFFFFFFFF AND PUSH20 0xFFFFFFFFFFFFFFFFFFFFFFFFFFFFFFFFFFFFFFFF AND DUP2 MSTORE PUSH1 0x20 ADD SWAP1 DUP2 MSTORE PUSH1 0x20 ADD PUSH0 KECCAK256 DUP2 SWAP1 SSTORE POP POP JUMPDEST PUSH0 PUSH20 0xFFFFFFFFFFFFFFFFFFFFFFFFFFFFFFFFFFFFFFFF AND DUP3 PUSH20 0xFFFFFFFFFFFFFFFFFFFFFFFFFFFFFFFFFFFFFFFF AND SUB PUSH2 0x1780 JUMPI DUP1 PUSH1 0x2 PUSH0 DUP3 DUP3 SLOAD SUB SWAP3 POP POP DUP2 SWAP1 SSTORE POP PUSH2 0x17CA JUMP JUMPDEST DUP1 PUSH0 DUP1 DUP5 PUSH20 0xFFFFFFFFFFFFFFFFFFFFFFFFFFFFFFFFFFFFFFFF AND PUSH20 0xFFFFFFFFFFFFFFFFFFFFFFFFFFFFFFFFFFFFFFFF AND DUP2 MSTORE PUSH1 0x20 ADD SWAP1 DUP2 MSTORE PUSH1 0x20 ADD PUSH0 KECCAK256 PUSH0 DUP3 DUP3 SLOAD ADD SWAP3 POP POP DUP2 SWAP1 SSTORE POP JUMPDEST DUP2 PUSH20 0xFFFFFFFFFFFFFFFFFFFFFFFFFFFFFFFFFFFFFFFF AND DUP4 PUSH20 0xFFFFFFFFFFFFFFFFFFFFFFFFFFFFFFFFFFFFFFFF AND PUSH32 0xDDF252AD1BE2C89B69C2B068FC378DAA952BA7F163C4A11628F55A4DF523B3EF DUP4 PUSH1 0x40 MLOAD PUSH2 0x1827 SWAP2 SWAP1 PUSH2 0x1EDF JUMP JUMPDEST PUSH1 0x40 MLOAD DUP1 SWAP2 SUB SWAP1 LOG3 POP POP POP JUMP JUMPDEST PUSH0 PUSH32 0x8B73C3C69BB8FE3D512ECC4CF759CC79239F7B179B0FFACAA9A75D522B39400F PUSH32 0x0 PUSH32 0x0 CHAINID ADDRESS PUSH1 0x40 MLOAD PUSH1 0x20 ADD PUSH2 0x18AE SWAP6 SWAP5 SWAP4 SWAP3 SWAP2 SWAP1 PUSH2 0x2765 JUMP JUMPDEST PUSH1 0x40 MLOAD PUSH1 0x20 DUP2 DUP4 SUB SUB DUP2 MSTORE SWAP1 PUSH1 0x40 MSTORE DUP1 MLOAD SWAP1 PUSH1 0x20 ADD KECCAK256 SWAP1 POP SWAP1 JUMP JUMPDEST PUSH0 PUSH20 0xFFFFFFFFFFFFFFFFFFFFFFFFFFFFFFFFFFFFFFFF AND DUP3 PUSH20 0xFFFFFFFFFFFFFFFFFFFFFFFFFFFFFFFFFFFFFFFF AND SUB PUSH2 0x1939 JUMPI PUSH0 PUSH1 0x40 MLOAD PUSH32 0x96C6FD1E00000000000000000000000000000000000000000000000000000000 DUP2 MSTORE PUSH1 0x4 ADD PUSH2 0x1930 SWAP2 SWAP1 PUSH2 0x2185 JUMP JUMPDEST PUSH1 0x40 MLOAD DUP1 SWAP2 SUB SWAP1 REVERT JUMPDEST PUSH2 0x1944 DUP3 PUSH0 DUP4 PUSH2 0x161B JUMP JUMPDEST POP POP JUMP JUMPDEST PUSH1 0x60 PUSH1 0xFF PUSH0 SHL DUP4 EQ PUSH2 0x1964 JUMPI PUSH2 0x195D DUP4 PUSH2 0x1C7E JUMP JUMPDEST SWAP1 POP PUSH2 0x19EF JUMP JUMPDEST DUP2 DUP1 SLOAD PUSH2 0x1970 SWAP1 PUSH2 0x2385 JUMP JUMPDEST DUP1 PUSH1 0x1F ADD PUSH1 0x20 DUP1 SWAP2 DIV MUL PUSH1 0x20 ADD PUSH1 0x40 MLOAD SWAP1 DUP2 ADD PUSH1 0x40 MSTORE DUP1 SWAP3 SWAP2 SWAP1 DUP2 DUP2 MSTORE PUSH1 0x20 ADD DUP3 DUP1 SLOAD PUSH2 0x199C SWAP1 PUSH2 0x2385 JUMP JUMPDEST DUP1 ISZERO PUSH2 0x19E7 JUMPI DUP1 PUSH1 0x1F LT PUSH2 0x19BE JUMPI PUSH2 0x100 DUP1 DUP4 SLOAD DIV MUL DUP4 MSTORE SWAP2 PUSH1 0x20 ADD SWAP2 PUSH2 0x19E7 JUMP JUMPDEST DUP3 ADD SWAP2 SWAP1 PUSH0 MSTORE PUSH1 0x20 PUSH0 KECCAK256 SWAP1 JUMPDEST DUP2 SLOAD DUP2 MSTORE SWAP1 PUSH1 0x1 ADD SWAP1 PUSH1 0x20 ADD DUP1 DUP4 GT PUSH2 0x19CA JUMPI DUP3 SWAP1 SUB PUSH1 0x1F AND DUP3 ADD SWAP2 JUMPDEST POP POP POP POP POP SWAP1 POP JUMPDEST SWAP3 SWAP2 POP POP JUMP JUMPDEST PUSH0 PUSH1 0x40 MLOAD PUSH32 0x1901000000000000000000000000000000000000000000000000000000000000 DUP2 MSTORE DUP4 PUSH1 0x2 DUP3 ADD MSTORE DUP3 PUSH1 0x22 DUP3 ADD MSTORE PUSH1 0x42 DUP2 KECCAK256 SWAP2 POP POP SWAP3 SWAP2 POP POP JUMP JUMPDEST PUSH0 DUP1 PUSH0 PUSH32 0x7FFFFFFFFFFFFFFFFFFFFFFFFFFFFFFF5D576E7357A4501DDFE92F46681B20A0 DUP5 PUSH0 SHR GT ISZERO PUSH2 0x1A71 JUMPI PUSH0 PUSH1 0x3 DUP6 SWAP3 POP SWAP3 POP SWAP3 POP PUSH2 0x1B12 JUMP JUMPDEST PUSH0 PUSH1 0x1 DUP9 DUP9 DUP9 DUP9 PUSH1 0x40 MLOAD PUSH0 DUP2 MSTORE PUSH1 0x20 ADD PUSH1 0x40 MSTORE PUSH1 0x40 MLOAD PUSH2 0x1A94 SWAP5 SWAP4 SWAP3 SWAP2 SWAP1 PUSH2 0x27B6 JUMP JUMPDEST PUSH1 0x20 PUSH1 0x40 MLOAD PUSH1 0x20 DUP2 SUB SWAP1 DUP1 DUP5 SUB SWAP1 DUP6 GAS STATICCALL ISZERO DUP1 ISZERO PUSH2 0x1AB4 JUMPI RETURNDATASIZE PUSH0 DUP1 RETURNDATACOPY RETURNDATASIZE PUSH0 REVERT JUMPDEST POP POP POP PUSH1 0x20 PUSH1 0x40 MLOAD SUB MLOAD SWAP1 POP PUSH0 PUSH20 0xFFFFFFFFFFFFFFFFFFFFFFFFFFFFFFFFFFFFFFFF AND DUP2 PUSH20 0xFFFFFFFFFFFFFFFFFFFFFFFFFFFFFFFFFFFFFFFF AND SUB PUSH2 0x1B05 JUMPI PUSH0 PUSH1 0x1 PUSH0 DUP1 SHL SWAP4 POP SWAP4 POP SWAP4 POP POP PUSH2 0x1B12 JUMP JUMPDEST DUP1 PUSH0 DUP1 PUSH0 SHL SWAP4 POP SWAP4 POP SWAP4 POP POP JUMPDEST SWAP5 POP SWAP5 POP SWAP5 SWAP2 POP POP JUMP JUMPDEST PUSH0 PUSH1 0x3 DUP2 GT ISZERO PUSH2 0x1B2F JUMPI PUSH2 0x1B2E PUSH2 0x27F9 JUMP JUMPDEST JUMPDEST DUP3 PUSH1 0x3 DUP2 GT ISZERO PUSH2 0x1B42 JUMPI PUSH2 0x1B41 PUSH2 0x27F9 JUMP JUMPDEST JUMPDEST SUB ISZERO PUSH2 0x1C7A JUMPI PUSH1 0x1 PUSH1 0x3 DUP2 GT ISZERO PUSH2 0x1B5C JUMPI PUSH2 0x1B5B PUSH2 0x27F9 JUMP JUMPDEST JUMPDEST DUP3 PUSH1 0x3 DUP2 GT ISZERO PUSH2 0x1B6F JUMPI PUSH2 0x1B6E PUSH2 0x27F9 JUMP JUMPDEST JUMPDEST SUB PUSH2 0x1BA6 JUMPI PUSH1 0x40 MLOAD PUSH32 0xF645EEDF00000000000000000000000000000000000000000000000000000000 DUP2 MSTORE PUSH1 0x4 ADD PUSH1 0x40 MLOAD DUP1 SWAP2 SUB SWAP1 REVERT JUMPDEST PUSH1 0x2 PUSH1 0x3 DUP2 GT ISZERO PUSH2 0x1BBA JUMPI PUSH2 0x1BB9 PUSH2 0x27F9 JUMP JUMPDEST JUMPDEST DUP3 PUSH1 0x3 DUP2 GT ISZERO PUSH2 0x1BCD JUMPI PUSH2 0x1BCC PUSH2 0x27F9 JUMP JUMPDEST JUMPDEST SUB PUSH2 0x1C11 JUMPI DUP1 PUSH0 SHR PUSH1 0x40 MLOAD PUSH32 0xFCE698F700000000000000000000000000000000000000000000000000000000 DUP2 MSTORE PUSH1 0x4 ADD PUSH2 0x1C08 SWAP2 SWAP1 PUSH2 0x1EDF JUMP JUMPDEST PUSH1 0x40 MLOAD DUP1 SWAP2 SUB SWAP1 REVERT JUMPDEST PUSH1 0x3 DUP1 DUP2 GT ISZERO PUSH2 0x1C24 JUMPI PUSH2 0x1C23 PUSH2 0x27F9 JUMP JUMPDEST JUMPDEST DUP3 PUSH1 0x3 DUP2 GT ISZERO PUSH2 0x1C37 JUMPI PUSH2 0x1C36 PUSH2 0x27F9 JUMP JUMPDEST JUMPDEST SUB PUSH2 0x1C79 JUMPI DUP1 PUSH1 0x40 MLOAD PUSH32 0xD78BCE0C00000000000000000000000000000000000000000000000000000000 DUP2 MSTORE PUSH1 0x4 ADD PUSH2 0x1C70 SWAP2 SWAP1 PUSH2 0x1F94 JUMP JUMPDEST PUSH1 0x40 MLOAD DUP1 SWAP2 SUB SWAP1 REVERT JUMPDEST JUMPDEST POP POP JUMP JUMPDEST PUSH1 0x60 PUSH0 PUSH2 0x1C8A DUP4 PUSH2 0x1CF0 JUMP JUMPDEST SWAP1 POP PUSH0 PUSH1 0x20 PUSH8 0xFFFFFFFFFFFFFFFF DUP2 GT ISZERO PUSH2 0x1CA8 JUMPI PUSH2 0x1CA7 PUSH2 0x250B JUMP JUMPDEST JUMPDEST PUSH1 0x40 MLOAD SWAP1 DUP1 DUP3 MSTORE DUP1 PUSH1 0x1F ADD PUSH1 0x1F NOT AND PUSH1 0x20 ADD DUP3 ADD PUSH1 0x40 MSTORE DUP1 ISZERO PUSH2 0x1CDA JUMPI DUP2 PUSH1 0x20 ADD PUSH1 0x1 DUP3 MUL DUP1 CALLDATASIZE DUP4 CALLDATACOPY DUP1 DUP3 ADD SWAP2 POP POP SWAP1 POP JUMPDEST POP SWAP1 POP DUP2 DUP2 MSTORE DUP4 PUSH1 0x20 DUP3 ADD MSTORE DUP1 SWAP3 POP POP POP SWAP2 SWAP1 POP JUMP JUMPDEST PUSH0 DUP1 PUSH1 0xFF DUP4 PUSH0 SHR AND SWAP1 POP PUSH1 0x1F DUP2 GT ISZERO PUSH2 0x1D35 JUMPI PUSH1 0x40 MLOAD PUSH32 0xB3512B0C00000000000000000000000000000000000000000000000000000000 DUP2 MSTORE PUSH1 0x4 ADD PUSH1 0x40 MLOAD DUP1 SWAP2 SUB SWAP1 REVERT JUMPDEST DUP1 SWAP2 POP POP SWAP2 SWAP1 POP JUMP JUMPDEST PUSH0 DUP2 MLOAD SWAP1 POP SWAP2 SWAP1 POP JUMP JUMPDEST PUSH0 DUP3 DUP3 MSTORE PUSH1 0x20 DUP3 ADD SWAP1 POP SWAP3 SWAP2 POP POP JUMP JUMPDEST DUP3 DUP2 DUP4 MCOPY PUSH0 DUP4 DUP4 ADD MSTORE POP POP POP JUMP JUMPDEST PUSH0 PUSH1 0x1F NOT PUSH1 0x1F DUP4 ADD AND SWAP1 POP SWAP2 SWAP1 POP JUMP JUMPDEST PUSH0 PUSH2 0x1D80 DUP3 PUSH2 0x1D3E JUMP JUMPDEST PUSH2 0x1D8A DUP2 DUP6 PUSH2 0x1D48 JUMP JUMPDEST SWAP4 POP PUSH2 0x1D9A DUP2 DUP6 PUSH1 0x20 DUP7 ADD PUSH2 0x1D58 JUMP JUMPDEST PUSH2 0x1DA3 DUP2 PUSH2 0x1D66 JUMP JUMPDEST DUP5 ADD SWAP2 POP POP SWAP3 SWAP2 POP POP JUMP JUMPDEST PUSH0 PUSH1 0x20 DUP3 ADD SWAP1 POP DUP2 DUP2 SUB PUSH0 DUP4 ADD MSTORE PUSH2 0x1DC6 DUP2 DUP5 PUSH2 0x1D76 JUMP JUMPDEST SWAP1 POP SWAP3 SWAP2 POP POP JUMP JUMPDEST PUSH0 DUP1 REVERT JUMPDEST PUSH0 PUSH20 0xFFFFFFFFFFFFFFFFFFFFFFFFFFFFFFFFFFFFFFFF DUP3 AND SWAP1 POP SWAP2 SWAP1 POP JUMP JUMPDEST PUSH0 PUSH2 0x1DFB DUP3 PUSH2 0x1DD2 JUMP JUMPDEST SWAP1 POP SWAP2 SWAP1 POP JUMP JUMPDEST PUSH2 0x1E0B DUP2 PUSH2 0x1DF1 JUMP JUMPDEST DUP2 EQ PUSH2 0x1E15 JUMPI PUSH0 DUP1 REVERT JUMPDEST POP JUMP JUMPDEST PUSH0 DUP2 CALLDATALOAD SWAP1 POP PUSH2 0x1E26 DUP2 PUSH2 0x1E02 JUMP JUMPDEST SWAP3 SWAP2 POP POP JUMP JUMPDEST PUSH0 DUP2 SWAP1 POP SWAP2 SWAP1 POP JUMP JUMPDEST PUSH2 0x1E3E DUP2 PUSH2 0x1E2C JUMP JUMPDEST DUP2 EQ PUSH2 0x1E48 JUMPI PUSH0 DUP1 REVERT JUMPDEST POP JUMP JUMPDEST PUSH0 DUP2 CALLDATALOAD SWAP1 POP PUSH2 0x1E59 DUP2 PUSH2 0x1E35 JUMP JUMPDEST SWAP3 SWAP2 POP POP JUMP JUMPDEST PUSH0 DUP1 PUSH1 0x40 DUP4 DUP6 SUB SLT ISZERO PUSH2 0x1E75 JUMPI PUSH2 0x1E74 PUSH2 0x1DCE JUMP JUMPDEST JUMPDEST PUSH0 PUSH2 0x1E82 DUP6 DUP3 DUP7 ADD PUSH2 0x1E18 JUMP JUMPDEST SWAP3 POP POP PUSH1 0x20 PUSH2 0x1E93 DUP6 DUP3 DUP7 ADD PUSH2 0x1E4B JUMP JUMPDEST SWAP2 POP POP SWAP3 POP SWAP3 SWAP1 POP JUMP JUMPDEST PUSH0 DUP2 ISZERO ISZERO SWAP1 POP SWAP2 SWAP1 POP JUMP JUMPDEST PUSH2 0x1EB1 DUP2 PUSH2 0x1E9D JUMP JUMPDEST DUP3 MSTORE POP POP JUMP JUMPDEST PUSH0 PUSH1 0x20 DUP3 ADD SWAP1 POP PUSH2 0x1ECA PUSH0 DUP4 ADD DUP5 PUSH2 0x1EA8 JUMP JUMPDEST SWAP3 SWAP2 POP POP JUMP JUMPDEST PUSH2 0x1ED9 DUP2 PUSH2 0x1E2C JUMP JUMPDEST DUP3 MSTORE POP POP JUMP JUMPDEST PUSH0 PUSH1 0x20 DUP3 ADD SWAP1 POP PUSH2 0x1EF2 PUSH0 DUP4 ADD DUP5 PUSH2 0x1ED0 JUMP JUMPDEST SWAP3 SWAP2 POP POP JUMP JUMPDEST PUSH0 DUP1 PUSH0 PUSH1 0x60 DUP5 DUP7 SUB SLT ISZERO PUSH2 0x1F0F JUMPI PUSH2 0x1F0E PUSH2 0x1DCE JUMP JUMPDEST JUMPDEST PUSH0 PUSH2 0x1F1C DUP7 DUP3 DUP8 ADD PUSH2 0x1E18 JUMP JUMPDEST SWAP4 POP POP PUSH1 0x20 PUSH2 0x1F2D DUP7 DUP3 DUP8 ADD PUSH2 0x1E18 JUMP JUMPDEST SWAP3 POP POP PUSH1 0x40 PUSH2 0x1F3E DUP7 DUP3 DUP8 ADD PUSH2 0x1E4B JUMP JUMPDEST SWAP2 POP POP SWAP3 POP SWAP3 POP SWAP3 JUMP JUMPDEST PUSH0 PUSH1 0xFF DUP3 AND SWAP1 POP SWAP2 SWAP1 POP JUMP JUMPDEST PUSH2 0x1F5D DUP2 PUSH2 0x1F48 JUMP JUMPDEST DUP3 MSTORE POP POP JUMP JUMPDEST PUSH0 PUSH1 0x20 DUP3 ADD SWAP1 POP PUSH2 0x1F76 PUSH0 DUP4 ADD DUP5 PUSH2 0x1F54 JUMP JUMPDEST SWAP3 SWAP2 POP POP JUMP JUMPDEST PUSH0 DUP2 SWAP1 POP SWAP2 SWAP1 POP JUMP JUMPDEST PUSH2 0x1F8E DUP2 PUSH2 0x1F7C JUMP JUMPDEST DUP3 MSTORE POP POP JUMP JUMPDEST PUSH0 PUSH1 0x20 DUP3 ADD SWAP1 POP PUSH2 0x1FA7 PUSH0 DUP4 ADD DUP5 PUSH2 0x1F85 JUMP JUMPDEST SWAP3 SWAP2 POP POP JUMP JUMPDEST PUSH0 PUSH1 0x20 DUP3 DUP5 SUB SLT ISZERO PUSH2 0x1FC2 JUMPI PUSH2 0x1FC1 PUSH2 0x1DCE JUMP JUMPDEST JUMPDEST PUSH0 PUSH2 0x1FCF DUP5 DUP3 DUP6 ADD PUSH2 0x1E4B JUMP JUMPDEST SWAP2 POP POP SWAP3 SWAP2 POP POP JUMP JUMPDEST PUSH0 PUSH1 0x20 DUP3 DUP5 SUB SLT ISZERO PUSH2 0x1FED JUMPI PUSH2 0x1FEC PUSH2 0x1DCE JUMP JUMPDEST JUMPDEST PUSH0 PUSH2 0x1FFA DUP5 DUP3 DUP6 ADD PUSH2 0x1E18 JUMP JUMPDEST SWAP2 POP POP SWAP3 SWAP2 POP POP JUMP JUMPDEST PUSH0 PUSH32 0xFF00000000000000000000000000000000000000000000000000000000000000 DUP3 AND SWAP1 POP SWAP2 SWAP1 POP JUMP JUMPDEST PUSH2 0x2037 DUP2 PUSH2 0x2003 JUMP JUMPDEST DUP3 MSTORE POP POP JUMP JUMPDEST PUSH2 0x2046 DUP2 PUSH2 0x1DF1 JUMP JUMPDEST DUP3 MSTORE POP POP JUMP JUMPDEST PUSH0 DUP2 MLOAD SWAP1 POP SWAP2 SWAP1 POP JUMP JUMPDEST PUSH0 DUP3 DUP3 MSTORE PUSH1 0x20 DUP3 ADD SWAP1 POP SWAP3 SWAP2 POP POP JUMP JUMPDEST PUSH0 DUP2 SWAP1 POP PUSH1 0x20 DUP3 ADD SWAP1 POP SWAP2 SWAP1 POP JUMP JUMPDEST PUSH2 0x207E DUP2 PUSH2 0x1E2C JUMP JUMPDEST DUP3 MSTORE POP POP JUMP JUMPDEST PUSH0 PUSH2 0x208F DUP4 DUP4 PUSH2 0x2075 JUMP JUMPDEST PUSH1 0x20 DUP4 ADD SWAP1 POP SWAP3 SWAP2 POP POP JUMP JUMPDEST PUSH0 PUSH1 0x20 DUP3 ADD SWAP1 POP SWAP2 SWAP1 POP JUMP JUMPDEST PUSH0 PUSH2 0x20B1 DUP3 PUSH2 0x204C JUMP JUMPDEST PUSH2 0x20BB DUP2 DUP6 PUSH2 0x2056 JUMP JUMPDEST SWAP4 POP PUSH2 0x20C6 DUP4 PUSH2 0x2066 JUMP JUMPDEST DUP1 PUSH0 JUMPDEST DUP4 DUP2 LT ISZERO PUSH2 0x20F6 JUMPI DUP2 MLOAD PUSH2 0x20DD DUP9 DUP3 PUSH2 0x2084 JUMP JUMPDEST SWAP8 POP PUSH2 0x20E8 DUP4 PUSH2 0x209B JUMP JUMPDEST SWAP3 POP POP PUSH1 0x1 DUP2 ADD SWAP1 POP PUSH2 0x20C9 JUMP JUMPDEST POP DUP6 SWAP4 POP POP POP POP SWAP3 SWAP2 POP POP JUMP JUMPDEST PUSH0 PUSH1 0xE0 DUP3 ADD SWAP1 POP PUSH2 0x2116 PUSH0 DUP4 ADD DUP11 PUSH2 0x202E JUMP JUMPDEST DUP2 DUP2 SUB PUSH1 0x20 DUP4 ADD MSTORE PUSH2 0x2128 DUP2 DUP10 PUSH2 0x1D76 JUMP JUMPDEST SWAP1 POP DUP2 DUP2 SUB PUSH1 0x40 DUP4 ADD MSTORE PUSH2 0x213C DUP2 DUP9 PUSH2 0x1D76 JUMP JUMPDEST SWAP1 POP PUSH2 0x214B PUSH1 0x60 DUP4 ADD DUP8 PUSH2 0x1ED0 JUMP JUMPDEST PUSH2 0x2158 PUSH1 0x80 DUP4 ADD DUP7 PUSH2 0x203D JUMP JUMPDEST PUSH2 0x2165 PUSH1 0xA0 DUP4 ADD DUP6 PUSH2 0x1F85 JUMP JUMPDEST DUP2 DUP2 SUB PUSH1 0xC0 DUP4 ADD MSTORE PUSH2 0x2177 DUP2 DUP5 PUSH2 0x20A7 JUMP JUMPDEST SWAP1 POP SWAP9 SWAP8 POP POP POP POP POP POP POP POP JUMP JUMPDEST PUSH0 PUSH1 0x20 DUP3 ADD SWAP1 POP PUSH2 0x2198 PUSH0 DUP4 ADD DUP5 PUSH2 0x203D JUMP JUMPDEST SWAP3 SWAP2 POP POP JUMP JUMPDEST PUSH2 0x21A7 DUP2 PUSH2 0x1F48 JUMP JUMPDEST DUP2 EQ PUSH2 0x21B1 JUMPI PUSH0 DUP1 REVERT JUMPDEST POP JUMP JUMPDEST PUSH0 DUP2 CALLDATALOAD SWAP1 POP PUSH2 0x21C2 DUP2 PUSH2 0x219E JUMP JUMPDEST SWAP3 SWAP2 POP POP JUMP JUMPDEST PUSH2 0x21D1 DUP2 PUSH2 0x1F7C JUMP JUMPDEST DUP2 EQ PUSH2 0x21DB JUMPI PUSH0 DUP1 REVERT JUMPDEST POP JUMP JUMPDEST PUSH0 DUP2 CALLDATALOAD SWAP1 POP PUSH2 0x21EC DUP2 PUSH2 0x21C8 JUMP JUMPDEST SWAP3 SWAP2 POP POP JUMP JUMPDEST PUSH0 DUP1 PUSH0 DUP1 PUSH0 DUP1 PUSH0 PUSH1 0xE0 DUP9 DUP11 SUB SLT ISZERO PUSH2 0x220D JUMPI PUSH2 0x220C PUSH2 0x1DCE JUMP JUMPDEST JUMPDEST PUSH0 PUSH2 0x221A DUP11 DUP3 DUP12 ADD PUSH2 0x1E18 JUMP JUMPDEST SWAP8 POP POP PUSH1 0x20 PUSH2 0x222B DUP11 DUP3 DUP12 ADD PUSH2 0x1E18 JUMP JUMPDEST SWAP7 POP POP PUSH1 0x40 PUSH2 0x223C DUP11 DUP3 DUP12 ADD PUSH2 0x1E4B JUMP JUMPDEST SWAP6 POP POP PUSH1 0x60 PUSH2 0x224D DUP11 DUP3 DUP12 ADD PUSH2 0x1E4B JUMP JUMPDEST SWAP5 POP POP PUSH1 0x80 PUSH2 0x225E DUP11 DUP3 DUP12 ADD PUSH2 0x21B4 JUMP JUMPDEST SWAP4 POP POP PUSH1 0xA0 PUSH2 0x226F DUP11 DUP3 DUP12 ADD PUSH2 0x21DE JUMP JUMPDEST SWAP3 POP POP PUSH1 0xC0 PUSH2 0x2280 DUP11 DUP3 DUP12 ADD PUSH2 0x21DE JUMP JUMPDEST SWAP2 POP POP SWAP3 SWAP6 SWAP9 SWAP2 SWAP5 SWAP8 POP SWAP3 SWAP6 POP JUMP JUMPDEST PUSH0 DUP1 PUSH1 0x40 DUP4 DUP6 SUB SLT ISZERO PUSH2 0x22A5 JUMPI PUSH2 0x22A4 PUSH2 0x1DCE JUMP JUMPDEST JUMPDEST PUSH0 PUSH2 0x22B2 DUP6 DUP3 DUP7 ADD PUSH2 0x1E18 JUMP JUMPDEST SWAP3 POP POP PUSH1 0x20 PUSH2 0x22C3 DUP6 DUP3 DUP7 ADD PUSH2 0x1E18 JUMP JUMPDEST SWAP2 POP POP SWAP3 POP SWAP3 SWAP1 POP JUMP JUMPDEST PUSH0 PUSH2 0x22D7 DUP3 PUSH2 0x1DF1 JUMP JUMPDEST SWAP1 POP SWAP2 SWAP1 POP JUMP JUMPDEST PUSH2 0x22E7 DUP2 PUSH2 0x22CD JUMP JUMPDEST DUP2 EQ PUSH2 0x22F1 JUMPI PUSH0 DUP1 REVERT JUMPDEST POP JUMP JUMPDEST PUSH0 DUP2 CALLDATALOAD SWAP1 POP PUSH2 0x2302 DUP2 PUSH2 0x22DE JUMP JUMPDEST SWAP3 SWAP2 POP POP JUMP JUMPDEST PUSH0 DUP1 PUSH0 PUSH1 0x60 DUP5 DUP7 SUB SLT ISZERO PUSH2 0x231F JUMPI PUSH2 0x231E PUSH2 0x1DCE JUMP JUMPDEST JUMPDEST PUSH0 PUSH2 0x232C DUP7 DUP3 DUP8 ADD PUSH2 0x22F4 JUMP JUMPDEST SWAP4 POP POP PUSH1 0x20 PUSH2 0x233D DUP7 DUP3 DUP8 ADD PUSH2 0x1E18 JUMP JUMPDEST SWAP3 POP POP PUSH1 0x40 PUSH2 0x234E DUP7 DUP3 DUP8 ADD PUSH2 0x1E4B JUMP JUMPDEST SWAP2 POP POP SWAP3 POP SWAP3 POP SWAP3 JUMP JUMPDEST PUSH32 0x4E487B7100000000000000000000000000000000000000000000000000000000 PUSH0 MSTORE PUSH1 0x22 PUSH1 0x4 MSTORE PUSH1 0x24 PUSH0 REVERT JUMPDEST PUSH0 PUSH1 0x2 DUP3 DIV SWAP1 POP PUSH1 0x1 DUP3 AND DUP1 PUSH2 0x239C JUMPI PUSH1 0x7F DUP3 AND SWAP2 POP JUMPDEST PUSH1 0x20 DUP3 LT DUP2 SUB PUSH2 0x23AF JUMPI PUSH2 0x23AE PUSH2 0x2358 JUMP JUMPDEST JUMPDEST POP SWAP2 SWAP1 POP JUMP JUMPDEST PUSH32 0x4E487B7100000000000000000000000000000000000000000000000000000000 PUSH0 MSTORE PUSH1 0x11 PUSH1 0x4 MSTORE PUSH1 0x24 PUSH0 REVERT JUMPDEST PUSH0 PUSH2 0x23EC DUP3 PUSH2 0x1E2C JUMP JUMPDEST SWAP2 POP PUSH2 0x23F7 DUP4 PUSH2 0x1E2C JUMP JUMPDEST SWAP3 POP DUP3 DUP3 ADD SWAP1 POP DUP1 DUP3 GT ISZERO PUSH2 0x240F JUMPI PUSH2 0x240E PUSH2 0x23B5 JUMP JUMPDEST JUMPDEST SWAP3 SWAP2 POP POP JUMP JUMPDEST PUSH32 0x5772617070656452353A20636170206578636565646564000000000000000000 PUSH0 DUP3 ADD MSTORE POP JUMP JUMPDEST PUSH0 PUSH2 0x2449 PUSH1 0x17 DUP4 PUSH2 0x1D48 JUMP JUMPDEST SWAP2 POP PUSH2 0x2454 DUP3 PUSH2 0x2415 JUMP JUMPDEST PUSH1 0x20 DUP3 ADD SWAP1 POP SWAP2 SWAP1 POP JUMP JUMPDEST PUSH0 PUSH1 0x20 DUP3 ADD SWAP1 POP DUP2 DUP2 SUB PUSH0 DUP4 ADD MSTORE PUSH2 0x2476 DUP2 PUSH2 0x243D JUMP JUMPDEST SWAP1 POP SWAP2 SWAP1 POP JUMP JUMPDEST PUSH32 0x5772617070656452353A2063616C6C6572206973206E6F74207468652070656E PUSH0 DUP3 ADD MSTORE PUSH32 0x64696E67206F776E657200000000000000000000000000000000000000000000 PUSH1 0x20 DUP3 ADD MSTORE POP JUMP JUMPDEST PUSH0 PUSH2 0x24D7 PUSH1 0x2A DUP4 PUSH2 0x1D48 JUMP JUMPDEST SWAP2 POP PUSH2 0x24E2 DUP3 PUSH2 0x247D JUMP JUMPDEST PUSH1 0x40 DUP3 ADD SWAP1 POP SWAP2 SWAP1 POP JUMP JUMPDEST PUSH0 PUSH1 0x20 DUP3 ADD SWAP1 POP DUP2 DUP2 SUB PUSH0 DUP4 ADD MSTORE PUSH2 0x2504 DUP2 PUSH2 0x24CB JUMP JUMPDEST SWAP1 POP SWAP2 SWAP1 POP JUMP JUMPDEST PUSH32 0x4E487B7100000000000000000000000000000000000000000000000000000000 PUSH0 MSTORE PUSH1 0x41 PUSH1 0x4 MSTORE PUSH1 0x24 PUSH0 REVERT JUMPDEST PUSH32 0x5772617070656452353A206E6577206F776E6572206973207A65726F20616464 PUSH0 DUP3 ADD MSTORE PUSH32 0x7265737300000000000000000000000000000000000000000000000000000000 PUSH1 0x20 DUP3 ADD MSTORE POP JUMP JUMPDEST PUSH0 PUSH2 0x2592 PUSH1 0x24 DUP4 PUSH2 0x1D48 JUMP JUMPDEST SWAP2 POP PUSH2 0x259D DUP3 PUSH2 0x2538 JUMP JUMPDEST PUSH1 0x40 DUP3 ADD SWAP1 POP SWAP2 SWAP1 POP JUMP JUMPDEST PUSH0 PUSH1 0x20 DUP3 ADD SWAP1 POP DUP2 DUP2 SUB PUSH0 DUP4 ADD MSTORE PUSH2 0x25BF DUP2 PUSH2 0x2586 JUMP JUMPDEST SWAP1 POP SWAP2 SWAP1 POP JUMP JUMPDEST PUSH0 PUSH1 0xC0 DUP3 ADD SWAP1 POP PUSH2 0x25D9 PUSH0 DUP4 ADD DUP10 PUSH2 0x1F85 JUMP JUMPDEST PUSH2 0x25E6 PUSH1 0x20 DUP4 ADD DUP9 PUSH2 0x203D JUMP JUMPDEST PUSH2 0x25F3 PUSH1 0x40 DUP4 ADD DUP8 PUSH2 0x203D JUMP JUMPDEST PUSH2 0x2600 PUSH1 0x60 DUP4 ADD DUP7 PUSH2 0x1ED0 JUMP JUMPDEST PUSH2 0x260D PUSH1 0x80 DUP4 ADD DUP6 PUSH2 0x1ED0 JUMP JUMPDEST PUSH2 0x261A PUSH1 0xA0 DUP4 ADD DUP5 PUSH2 0x1ED0 JUMP JUMPDEST SWAP8 SWAP7 POP POP POP POP POP POP POP JUMP JUMPDEST PUSH0 PUSH1 0x40 DUP3 ADD SWAP1 POP PUSH2 0x2638 PUSH0 DUP4 ADD DUP6 PUSH2 0x203D JUMP JUMPDEST PUSH2 0x2645 PUSH1 0x20 DUP4 ADD DUP5 PUSH2 0x203D JUMP JUMPDEST SWAP4 SWAP3 POP POP POP JUMP JUMPDEST PUSH0 PUSH1 0x40 DUP3 ADD SWAP1 POP PUSH2 0x265F PUSH0 DUP4 ADD DUP6 PUSH2 0x203D JUMP JUMPDEST PUSH2 0x266C PUSH1 0x20 DUP4 ADD DUP5 PUSH2 0x1ED0 JUMP JUMPDEST SWAP4 SWAP3 POP POP POP JUMP JUMPDEST PUSH2 0x267C DUP2 PUSH2 0x1E9D JUMP JUMPDEST DUP2 EQ PUSH2 0x2686 JUMPI PUSH0 DUP1 REVERT JUMPDEST POP JUMP JUMPDEST PUSH0 DUP2 MLOAD SWAP1 POP PUSH2 0x2697 DUP2 PUSH2 0x2673 JUMP JUMPDEST SWAP3 SWAP2 POP POP JUMP JUMPDEST PUSH0 PUSH1 0x20 DUP3 DUP5 SUB SLT ISZERO PUSH2 0x26B2 JUMPI PUSH2 0x26B1 PUSH2 0x1DCE JUMP JUMPDEST JUMPDEST PUSH0 PUSH2 0x26BF DUP5 DUP3 DUP6 ADD PUSH2 0x2689 JUMP JUMPDEST SWAP2 POP POP SWAP3 SWAP2 POP POP JUMP JUMPDEST PUSH0 PUSH1 0x60 DUP3 ADD SWAP1 POP PUSH2 0x26DB PUSH0 DUP4 ADD DUP7 PUSH2 0x203D JUMP JUMPDEST PUSH2 0x26E8 PUSH1 0x20 DUP4 ADD DUP6 PUSH2 0x1ED0 JUMP JUMPDEST PUSH2 0x26F5 PUSH1 0x40 DUP4 ADD DUP5 PUSH2 0x1ED0 JUMP JUMPDEST SWAP5 SWAP4 POP POP POP POP JUMP JUMPDEST PUSH32 0x5265656E7472616E637947756172643A207265656E7472616E742063616C6C00 PUSH0 DUP3 ADD MSTORE POP JUMP JUMPDEST PUSH0 PUSH2 0x2731 PUSH1 0x1F DUP4 PUSH2 0x1D48 JUMP JUMPDEST SWAP2 POP PUSH2 0x273C DUP3 PUSH2 0x26FD JUMP JUMPDEST PUSH1 0x20 DUP3 ADD SWAP1 POP SWAP2 SWAP1 POP JUMP JUMPDEST PUSH0 PUSH1 0x20 DUP3 ADD SWAP1 POP DUP2 DUP2 SUB PUSH0 DUP4 ADD MSTORE PUSH2 0x275E DUP2 PUSH2 0x2725 JUMP JUMPDEST SWAP1 POP SWAP2 SWAP1 POP JUMP JUMPDEST PUSH0 PUSH1 0xA0 DUP3 ADD SWAP1 POP PUSH2 0x2778 PUSH0 DUP4 ADD DUP9 PUSH2 0x1F85 JUMP JUMPDEST PUSH2 0x2785 PUSH1 0x20 DUP4 ADD DUP8 PUSH2 0x1F85 JUMP JUMPDEST PUSH2 0x2792 PUSH1 0x40 DUP4 ADD DUP7 PUSH2 0x1F85 JUMP JUMPDEST PUSH2 0x279F PUSH1 0x60 DUP4 ADD DUP6 PUSH2 0x1ED0 JUMP JUMPDEST PUSH2 0x27AC PUSH1 0x80 DUP4 ADD DUP5 PUSH2 0x203D JUMP JUMPDEST SWAP7 SWAP6 POP POP POP POP POP POP JUMP JUMPDEST PUSH0 PUSH1 0x80 DUP3 ADD SWAP1 POP PUSH2 0x27C9 PUSH0 DUP4 ADD DUP8 PUSH2 0x1F85 JUMP JUMPDEST PUSH2 0x27D6 PUSH1 0x20 DUP4 ADD DUP7 PUSH2 0x1F54 JUMP JUMPDEST PUSH2 0x27E3 PUSH1 0x40 DUP4 ADD DUP6 PUSH2 0x1F85 JUMP JUMPDEST PUSH2 0x27F0 PUSH1 0x60 DUP4 ADD DUP5 PUSH2 0x1F85 JUMP JUMPDEST SWAP6 SWAP5 POP POP POP POP POP JUMP JUMPDEST PUSH32 0x4E487B7100000000000000000000000000000000000000000000000000000000 PUSH0 MSTORE PUSH1 0x21 PUSH1 0x4 MSTORE PUSH1 0x24 PUSH0 REVERT INVALID LOG2 PUSH5 0x6970667358 0x22 SLT KECCAK256 CHAINID 0xEC CALLER 0xC 0xE2 0xA8 PUSH14 0xCE04904D74095C3D856E12831B32 TLOAD 0xD4 BLOBBASEFEE SHL 0x2D 0xD9 SLOAD 0xCA 0xF7 DELEGATECALL 0xAE PUSH5 0x736F6C6343 STOP ADDMOD BYTE STOP CALLER "
	},
	"abi": [
		{
			"inputs": [],
			"stateMutability": "nonpayable",
			"type": "constructor"
		},
		{
			"inputs": [],
			"name": "ECDSAInvalidSignature",
			"type": "error"
		},
		{
			"inputs": [
				{
					"internalType": "uint256",
					"name": "length",
					"type": "uint256"
				}
			],
			"name": "ECDSAInvalidSignatureLength",
			"type": "error"
		},
		{
			"inputs": [
				{
					"internalType": "bytes32",
					"name": "s",
					"type": "bytes32"
				}
			],
			"name": "ECDSAInvalidSignatureS",
			"type": "error"
		},
		{
			"inputs": [
				{
					"internalType": "address",
					"name": "spender",
					"type": "address"
				},
				{
					"internalType": "uint256",
					"name": "allowance",
					"type": "uint256"
				},
				{
					"internalType": "uint256",
					"name": "needed",
					"type": "uint256"
				}
			],
			"name": "ERC20InsufficientAllowance",
			"type": "error"
		},
		{
			"inputs": [
				{
					"internalType": "address",
					"name": "sender",
					"type": "address"
				},
				{
					"internalType": "uint256",
					"name": "balance",
					"type": "uint256"
				},
				{
					"internalType": "uint256",
					"name": "needed",
					"type": "uint256"
				}
			],
			"name": "ERC20InsufficientBalance",
			"type": "error"
		},
		{
			"inputs": [
				{
					"internalType": "address",
					"name": "approver",
					"type": "address"
				}
			],
			"name": "ERC20InvalidApprover",
			"type": "error"
		},
		{
			"inputs": [
				{
					"internalType": "address",
					"name": "receiver",
					"type": "address"
				}
			],
			"name": "ERC20InvalidReceiver",
			"type": "error"
		},
		{
			"inputs": [
				{
					"internalType": "address",
					"name": "sender",
					"type": "address"
				}
			],
			"name": "ERC20InvalidSender",
			"type": "error"
		},
		{
			"inputs": [
				{
					"internalType": "address",
					"name": "spender",
					"type": "address"
				}
			],
			"name": "ERC20InvalidSpender",
			"type": "error"
		},
		{
			"inputs": [
				{
					"internalType": "uint256",
					"name": "deadline",
					"type": "uint256"
				}
			],
			"name": "ERC2612ExpiredSignature",
			"type": "error"
		},
		{
			"inputs": [
				{
					"internalType": "address",
					"name": "signer",
					"type": "address"
				},
				{
					"internalType": "address",
					"name": "owner",
					"type": "address"
				}
			],
			"name": "ERC2612InvalidSigner",
			"type": "error"
		},
		{
			"inputs": [
				{
					"internalType": "address",
					"name": "account",
					"type": "address"
				},
				{
					"internalType": "uint256",
					"name": "currentNonce",
					"type": "uint256"
				}
			],
			"name": "InvalidAccountNonce",
			"type": "error"
		},
		{
			"inputs": [],
			"name": "InvalidShortString",
			"type": "error"
		},
		{
			"inputs": [
				{
					"internalType": "address",
					"name": "owner",
					"type": "address"
				}
			],
			"name": "OwnableInvalidOwner",
			"type": "error"
		},
		{
			"inputs": [
				{
					"internalType": "address",
					"name": "account",
					"type": "address"
				}
			],
			"name": "OwnableUnauthorizedAccount",
			"type": "error"
		},
		{
			"inputs": [
				{
					"internalType": "string",
					"name": "str",
					"type": "string"
				}
			],
			"name": "StringTooLong",
			"type": "error"
		},
		{
			"anonymous": false,
			"inputs": [
				{
					"indexed": true,
					"internalType": "address",
					"name": "owner",
					"type": "address"
				},
				{
					"indexed": true,
					"internalType": "address",
					"name": "spender",
					"type": "address"
				},
				{
					"indexed": false,
					"internalType": "uint256",
					"name": "value",
					"type": "uint256"
				}
			],
			"name": "Approval",
			"type": "event"
		},
		{
			"anonymous": false,
			"inputs": [],
			"name": "EIP712DomainChanged",
			"type": "event"
		},
		{
			"anonymous": false,
			"inputs": [
				{
					"indexed": true,
					"internalType": "address",
					"name": "previousOwner",
					"type": "address"
				},
				{
					"indexed": true,
					"internalType": "address",
					"name": "newOwner",
					"type": "address"
				}
			],
			"name": "OwnershipTransferStarted",
			"type": "event"
		},
		{
			"anonymous": false,
			"inputs": [
				{
					"indexed": true,
					"internalType": "address",
					"name": "previousOwner",
					"type": "address"
				},
				{
					"indexed": true,
					"internalType": "address",
					"name": "newOwner",
					"type": "address"
				}
			],
			"name": "OwnershipTransferred",
			"type": "event"
		},
		{
			"anonymous": false,
			"inputs": [
				{
					"indexed": true,
					"internalType": "address",
					"name": "from",
					"type": "address"
				},
				{
					"indexed": false,
					"internalType": "uint256",
					"name": "amount",
					"type": "uint256"
				}
			],
			"name": "TokensBurned",
			"type": "event"
		},
		{
			"anonymous": false,
			"inputs": [
				{
					"indexed": true,
					"internalType": "address",
					"name": "to",
					"type": "address"
				},
				{
					"indexed": false,
					"internalType": "uint256",
					"name": "amount",
					"type": "uint256"
				}
			],
			"name": "TokensMinted",
			"type": "event"
		},
		{
			"anonymous": false,
			"inputs": [
				{
					"indexed": true,
					"internalType": "address",
					"name": "token",
					"type": "address"
				},
				{
					"indexed": true,
					"internalType": "address",
					"name": "to",
					"type": "address"
				},
				{
					"indexed": false,
					"internalType": "uint256",
					"name": "amount",
					"type": "uint256"
				}
			],
			"name": "TokensRecovered",
			"type": "event"
		},
		{
			"anonymous": false,
			"inputs": [
				{
					"indexed": true,
					"internalType": "address",
					"name": "from",
					"type": "address"
				},
				{
					"indexed": true,
					"internalType": "address",
					"name": "to",
					"type": "address"
				},
				{
					"indexed": false,
					"internalType": "uint256",
					"name": "value",
					"type": "uint256"
				}
			],
			"name": "Transfer",
			"type": "event"
		},
		{
			"inputs": [],
			"name": "CAP",
			"outputs": [
				{
					"internalType": "uint256",
					"name": "",
					"type": "uint256"
				}
			],
			"stateMutability": "view",
			"type": "function"
		},
		{
			"inputs": [],
			"name": "DOMAIN_SEPARATOR",
			"outputs": [
				{
					"internalType": "bytes32",
					"name": "",
					"type": "bytes32"
				}
			],
			"stateMutability": "view",
			"type": "function"
		},
		{
			"inputs": [],
			"name": "acceptOwnership",
			"outputs": [],
			"stateMutability": "nonpayable",
			"type": "function"
		},
		{
			"inputs": [
				{
					"internalType": "address",
					"name": "owner",
					"type": "address"
				},
				{
					"internalType": "address",
					"name": "spender",
					"type": "address"
				}
			],
			"name": "allowance",
			"outputs": [
				{
					"internalType": "uint256",
					"name": "",
					"type": "uint256"
				}
			],
			"stateMutability": "view",
			"type": "function"
		},
		{
			"inputs": [
				{
					"internalType": "address",
					"name": "spender",
					"type": "address"
				},
				{
					"internalType": "uint256",
					"name": "value",
					"type": "uint256"
				}
			],
			"name": "approve",
			"outputs": [
				{
					"internalType": "bool",
					"name": "",
					"type": "bool"
				}
			],
			"stateMutability": "nonpayable",
			"type": "function"
		},
		{
			"inputs": [
				{
					"internalType": "address",
					"name": "account",
					"type": "address"
				}
			],
			"name": "balanceOf",
			"outputs": [
				{
					"internalType": "uint256",
					"name": "",
					"type": "uint256"
				}
			],
			"stateMutability": "view",
			"type": "function"
		},
		{
			"inputs": [
				{
					"internalType": "uint256",
					"name": "amount",
					"type": "uint256"
				}
			],
			"name": "burn",
			"outputs": [],
			"stateMutability": "nonpayable",
			"type": "function"
		},
		{
			"inputs": [
				{
					"internalType": "address",
					"name": "account",
					"type": "address"
				},
				{
					"internalType": "uint256",
					"name": "amount",
					"type": "uint256"
				}
			],
			"name": "burnFrom",
			"outputs": [],
			"stateMutability": "nonpayable",
			"type": "function"
		},
		{
			"inputs": [],
			"name": "decimals",
			"outputs": [
				{
					"internalType": "uint8",
					"name": "",
					"type": "uint8"
				}
			],
			"stateMutability": "view",
			"type": "function"
		},
		{
			"inputs": [],
			"name": "eip712Domain",
			"outputs": [
				{
					"internalType": "bytes1",
					"name": "fields",
					"type": "bytes1"
				},
				{
					"internalType": "string",
					"name": "name",
					"type": "string"
				},
				{
					"internalType": "string",
					"name": "version",
					"type": "string"
				},
				{
					"internalType": "uint256",
					"name": "chainId",
					"type": "uint256"
				},
				{
					"internalType": "address",
					"name": "verifyingContract",
					"type": "address"
				},
				{
					"internalType": "bytes32",
					"name": "salt",
					"type": "bytes32"
				},
				{
					"internalType": "uint256[]",
					"name": "extensions",
					"type": "uint256[]"
				}
			],
			"stateMutability": "view",
			"type": "function"
		},
		{
			"inputs": [
				{
					"internalType": "contract IERC20",
					"name": "token",
					"type": "address"
				},
				{
					"internalType": "address",
					"name": "to",
					"type": "address"
				},
				{
					"internalType": "uint256",
					"name": "amount",
					"type": "uint256"
				}
			],
			"name": "emergencyRecoverERC20",
			"outputs": [],
			"stateMutability": "nonpayable",
			"type": "function"
		},
		{
			"inputs": [
				{
					"internalType": "address",
					"name": "newOwner",
					"type": "address"
				}
			],
			"name": "initiateOwnershipTransfer",
			"outputs": [],
			"stateMutability": "nonpayable",
			"type": "function"
		},
		{
			"inputs": [
				{
					"internalType": "address",
					"name": "to",
					"type": "address"
				},
				{
					"internalType": "uint256",
					"name": "amount",
					"type": "uint256"
				}
			],
			"name": "mint",
			"outputs": [],
			"stateMutability": "nonpayable",
			"type": "function"
		},
		{
			"inputs": [],
			"name": "name",
			"outputs": [
				{
					"internalType": "string",
					"name": "",
					"type": "string"
				}
			],
			"stateMutability": "view",
			"type": "function"
		},
		{
			"inputs": [
				{
					"internalType": "address",
					"name": "owner",
					"type": "address"
				}
			],
			"name": "nonces",
			"outputs": [
				{
					"internalType": "uint256",
					"name": "",
					"type": "uint256"
				}
			],
			"stateMutability": "view",
			"type": "function"
		},
		{
			"inputs": [],
			"name": "owner",
			"outputs": [
				{
					"internalType": "address",
					"name": "",
					"type": "address"
				}
			],
			"stateMutability": "view",
			"type": "function"
		},
		{
			"inputs": [],
			"name": "pendingOwner",
			"outputs": [
				{
					"internalType": "address",
					"name": "",
					"type": "address"
				}
			],
			"stateMutability": "view",
			"type": "function"
		},
		{
			"inputs": [
				{
					"internalType": "address",
					"name": "owner",
					"type": "address"
				},
				{
					"internalType": "address",
					"name": "spender",
					"type": "address"
				},
				{
					"internalType": "uint256",
					"name": "value",
					"type": "uint256"
				},
				{
					"internalType": "uint256",
					"name": "deadline",
					"type": "uint256"
				},
				{
					"internalType": "uint8",
					"name": "v",
					"type": "uint8"
				},
				{
					"internalType": "bytes32",
					"name": "r",
					"type": "bytes32"
				},
				{
					"internalType": "bytes32",
					"name": "s",
					"type": "bytes32"
				}
			],
			"name": "permit",
			"outputs": [],
			"stateMutability": "nonpayable",
			"type": "function"
		},
		{
			"inputs": [],
			"name": "renounceOwnership",
			"outputs": [],
			"stateMutability": "nonpayable",
			"type": "function"
		},
		{
			"inputs": [],
			"name": "symbol",
			"outputs": [
				{
					"internalType": "string",
					"name": "",
					"type": "string"
				}
			],
			"stateMutability": "view",
			"type": "function"
		},
		{
			"inputs": [],
			"name": "totalSupply",
			"outputs": [
				{
					"internalType": "uint256",
					"name": "",
					"type": "uint256"
				}
			],
			"stateMutability": "view",
			"type": "function"
		},
		{
			"inputs": [
				{
					"internalType": "address",
					"name": "to",
					"type": "address"
				},
				{
					"internalType": "uint256",
					"name": "value",
					"type": "uint256"
				}
			],
			"name": "transfer",
			"outputs": [
				{
					"internalType": "bool",
					"name": "",
					"type": "bool"
				}
			],
			"stateMutability": "nonpayable",
			"type": "function"
		},
		{
			"inputs": [
				{
					"internalType": "address",
					"name": "from",
					"type": "address"
				},
				{
					"internalType": "address",
					"name": "to",
					"type": "address"
				},
				{
					"internalType": "uint256",
					"name": "value",
					"type": "uint256"
				}
			],
			"name": "transferFrom",
			"outputs": [
				{
					"internalType": "bool",
					"name": "",
					"type": "bool"
				}
			],
			"stateMutability": "nonpayable",
			"type": "function"
		},
		{
			"inputs": [
				{
					"internalType": "address",
					"name": "newOwner",
					"type": "address"
				}
			],
			"name": "transferOwnership",
			"outputs": [],
			"stateMutability": "nonpayable",
			"type": "function"
		}
	],
	"storageLayout": {
		"storage": [
			{
				"astId": 397,
				"contract": "R5.sol:WrappedR5",
				"label": "_balances",
				"offset": 0,
				"slot": "0",
				"type": "t_mapping(t_address,t_uint256)"
			},
			{
				"astId": 403,
				"contract": "R5.sol:WrappedR5",
				"label": "_allowances",
				"offset": 0,
				"slot": "1",
				"type": "t_mapping(t_address,t_mapping(t_address,t_uint256))"
			},
			{
				"astId": 405,
				"contract": "R5.sol:WrappedR5",
				"label": "_totalSupply",
				"offset": 0,
				"slot": "2",
				"type": "t_uint256"
			},
			{
				"astId": 407,
				"contract": "R5.sol:WrappedR5",
				"label": "_name",
				"offset": 0,
				"slot": "3",
				"type": "t_string_storage"
			},
			{
				"astId": 409,
				"contract": "R5.sol:WrappedR5",
				"label": "_symbol",
				"offset": 0,
				"slot": "4",
				"type": "t_string_storage"
			},
			{
				"astId": 2308,
				"contract": "R5.sol:WrappedR5",
				"label": "_nameFallback",
				"offset": 0,
				"slot": "5",
				"type": "t_string_storage"
			},
			{
				"astId": 2310,
				"contract": "R5.sol:WrappedR5",
				"label": "_versionFallback",
				"offset": 0,
				"slot": "6",
				"type": "t_string_storage"
			},
			{
				"astId": 1273,
				"contract": "R5.sol:WrappedR5",
				"label": "_nonces",
				"offset": 0,
				"slot": "7",
				"type": "t_mapping(t_address,t_uint256)"
			},
			{
				"astId": 8,
				"contract": "R5.sol:WrappedR5",
				"label": "_owner",
				"offset": 0,
				"slot": "8",
				"type": "t_address"
			},
			{
				"astId": 320,
				"contract": "R5.sol:WrappedR5",
				"label": "_status",
				"offset": 0,
				"slot": "9",
				"type": "t_uint256"
			},
			{
				"astId": 3803,
				"contract": "R5.sol:WrappedR5",
				"label": "_pendingOwner",
				"offset": 0,
				"slot": "10",
				"type": "t_address"
			}
		],
		"types": {
			"t_address": {
				"encoding": "inplace",
				"label": "address",
				"numberOfBytes": "20"
			},
			"t_mapping(t_address,t_mapping(t_address,t_uint256))": {
				"encoding": "mapping",
				"key": "t_address",
				"label": "mapping(address => mapping(address => uint256))",
				"numberOfBytes": "32",
				"value": "t_mapping(t_address,t_uint256)"
			},
			"t_mapping(t_address,t_uint256)": {
				"encoding": "mapping",
				"key": "t_address",
				"label": "mapping(address => uint256)",
				"numberOfBytes": "32",
				"value": "t_uint256"
			},
			"t_string_storage": {
				"encoding": "bytes",
				"label": "string",
				"numberOfBytes": "32"
			},
			"t_uint256": {
				"encoding": "inplace",
				"label": "uint256",
				"numberOfBytes": "32"
			}
		}
	},
	"web3Deploy": "var wrappedr5Contract = new web3.eth.Contract([{\"inputs\":[],\"stateMutability\":\"nonpayable\",\"type\":\"constructor\"},{\"inputs\":[],\"name\":\"ECDSAInvalidSignature\",\"type\":\"error\"},{\"inputs\":[{\"internalType\":\"uint256\",\"name\":\"length\",\"type\":\"uint256\"}],\"name\":\"ECDSAInvalidSignatureLength\",\"type\":\"error\"},{\"inputs\":[{\"internalType\":\"bytes32\",\"name\":\"s\",\"type\":\"bytes32\"}],\"name\":\"ECDSAInvalidSignatureS\",\"type\":\"error\"},{\"inputs\":[{\"internalType\":\"address\",\"name\":\"spender\",\"type\":\"address\"},{\"internalType\":\"uint256\",\"name\":\"allowance\",\"type\":\"uint256\"},{\"internalType\":\"uint256\",\"name\":\"needed\",\"type\":\"uint256\"}],\"name\":\"ERC20InsufficientAllowance\",\"type\":\"error\"},{\"inputs\":[{\"internalType\":\"address\",\"name\":\"sender\",\"type\":\"address\"},{\"internalType\":\"uint256\",\"name\":\"balance\",\"type\":\"uint256\"},{\"internalType\":\"uint256\",\"name\":\"needed\",\"type\":\"uint256\"}],\"name\":\"ERC20InsufficientBalance\",\"type\":\"error\"},{\"inputs\":[{\"internalType\":\"address\",\"name\":\"approver\",\"type\":\"address\"}],\"name\":\"ERC20InvalidApprover\",\"type\":\"error\"},{\"inputs\":[{\"internalType\":\"address\",\"name\":\"receiver\",\"type\":\"address\"}],\"name\":\"ERC20InvalidReceiver\",\"type\":\"error\"},{\"inputs\":[{\"internalType\":\"address\",\"name\":\"sender\",\"type\":\"address\"}],\"name\":\"ERC20InvalidSender\",\"type\":\"error\"},{\"inputs\":[{\"internalType\":\"address\",\"name\":\"spender\",\"type\":\"address\"}],\"name\":\"ERC20InvalidSpender\",\"type\":\"error\"},{\"inputs\":[{\"internalType\":\"uint256\",\"name\":\"deadline\",\"type\":\"uint256\"}],\"name\":\"ERC2612ExpiredSignature\",\"type\":\"error\"},{\"inputs\":[{\"internalType\":\"address\",\"name\":\"signer\",\"type\":\"address\"},{\"internalType\":\"address\",\"name\":\"owner\",\"type\":\"address\"}],\"name\":\"ERC2612InvalidSigner\",\"type\":\"error\"},{\"inputs\":[{\"internalType\":\"address\",\"name\":\"account\",\"type\":\"address\"},{\"internalType\":\"uint256\",\"name\":\"currentNonce\",\"type\":\"uint256\"}],\"name\":\"InvalidAccountNonce\",\"type\":\"error\"},{\"inputs\":[],\"name\":\"InvalidShortString\",\"type\":\"error\"},{\"inputs\":[{\"internalType\":\"address\",\"name\":\"owner\",\"type\":\"address\"}],\"name\":\"OwnableInvalidOwner\",\"type\":\"error\"},{\"inputs\":[{\"internalType\":\"address\",\"name\":\"account\",\"type\":\"address\"}],\"name\":\"OwnableUnauthorizedAccount\",\"type\":\"error\"},{\"inputs\":[{\"internalType\":\"string\",\"name\":\"str\",\"type\":\"string\"}],\"name\":\"StringTooLong\",\"type\":\"error\"},{\"anonymous\":false,\"inputs\":[{\"indexed\":true,\"internalType\":\"address\",\"name\":\"owner\",\"type\":\"address\"},{\"indexed\":true,\"internalType\":\"address\",\"name\":\"spender\",\"type\":\"address\"},{\"indexed\":false,\"internalType\":\"uint256\",\"name\":\"value\",\"type\":\"uint256\"}],\"name\":\"Approval\",\"type\":\"event\"},{\"anonymous\":false,\"inputs\":[],\"name\":\"EIP712DomainChanged\",\"type\":\"event\"},{\"anonymous\":false,\"inputs\":[{\"indexed\":true,\"internalType\":\"address\",\"name\":\"previousOwner\",\"type\":\"address\"},{\"indexed\":true,\"internalType\":\"address\",\"name\":\"newOwner\",\"type\":\"address\"}],\"name\":\"OwnershipTransferStarted\",\"type\":\"event\"},{\"anonymous\":false,\"inputs\":[{\"indexed\":true,\"internalType\":\"address\",\"name\":\"previousOwner\",\"type\":\"address\"},{\"indexed\":true,\"internalType\":\"address\",\"name\":\"newOwner\",\"type\":\"address\"}],\"name\":\"OwnershipTransferred\",\"type\":\"event\"},{\"anonymous\":false,\"inputs\":[{\"indexed\":true,\"internalType\":\"address\",\"name\":\"from\",\"type\":\"address\"},{\"indexed\":false,\"internalType\":\"uint256\",\"name\":\"amount\",\"type\":\"uint256\"}],\"name\":\"TokensBurned\",\"type\":\"event\"},{\"anonymous\":false,\"inputs\":[{\"indexed\":true,\"internalType\":\"address\",\"name\":\"to\",\"type\":\"address\"},{\"indexed\":false,\"internalType\":\"uint256\",\"name\":\"amount\",\"type\":\"uint256\"}],\"name\":\"TokensMinted\",\"type\":\"event\"},{\"anonymous\":false,\"inputs\":[{\"indexed\":true,\"internalType\":\"address\",\"name\":\"token\",\"type\":\"address\"},{\"indexed\":true,\"internalType\":\"address\",\"name\":\"to\",\"type\":\"address\"},{\"indexed\":false,\"internalType\":\"uint256\",\"name\":\"amount\",\"type\":\"uint256\"}],\"name\":\"TokensRecovered\",\"type\":\"event\"},{\"anonymous\":false,\"inputs\":[{\"indexed\":true,\"internalType\":\"address\",\"name\":\"from\",\"type\":\"address\"},{\"indexed\":true,\"internalType\":\"address\",\"name\":\"to\",\"type\":\"address\"},{\"indexed\":false,\"internalType\":\"uint256\",\"name\":\"value\",\"type\":\"uint256\"}],\"name\":\"Transfer\",\"type\":\"event\"},{\"inputs\":[],\"name\":\"CAP\",\"outputs\":[{\"internalType\":\"uint256\",\"name\":\"\",\"type\":\"uint256\"}],\"stateMutability\":\"view\",\"type\":\"function\"},{\"inputs\":[],\"name\":\"DOMAIN_SEPARATOR\",\"outputs\":[{\"internalType\":\"bytes32\",\"name\":\"\",\"type\":\"bytes32\"}],\"stateMutability\":\"view\",\"type\":\"function\"},{\"inputs\":[],\"name\":\"acceptOwnership\",\"outputs\":[],\"stateMutability\":\"nonpayable\",\"type\":\"function\"},{\"inputs\":[{\"internalType\":\"address\",\"name\":\"owner\",\"type\":\"address\"},{\"internalType\":\"address\",\"name\":\"spender\",\"type\":\"address\"}],\"name\":\"allowance\",\"outputs\":[{\"internalType\":\"uint256\",\"name\":\"\",\"type\":\"uint256\"}],\"stateMutability\":\"view\",\"type\":\"function\"},{\"inputs\":[{\"internalType\":\"address\",\"name\":\"spender\",\"type\":\"address\"},{\"internalType\":\"uint256\",\"name\":\"value\",\"type\":\"uint256\"}],\"name\":\"approve\",\"outputs\":[{\"internalType\":\"bool\",\"name\":\"\",\"type\":\"bool\"}],\"stateMutability\":\"nonpayable\",\"type\":\"function\"},{\"inputs\":[{\"internalType\":\"address\",\"name\":\"account\",\"type\":\"address\"}],\"name\":\"balanceOf\",\"outputs\":[{\"internalType\":\"uint256\",\"name\":\"\",\"type\":\"uint256\"}],\"stateMutability\":\"view\",\"type\":\"function\"},{\"inputs\":[{\"internalType\":\"uint256\",\"name\":\"amount\",\"type\":\"uint256\"}],\"name\":\"burn\",\"outputs\":[],\"stateMutability\":\"nonpayable\",\"type\":\"function\"},{\"inputs\":[{\"internalType\":\"address\",\"name\":\"account\",\"type\":\"address\"},{\"internalType\":\"uint256\",\"name\":\"amount\",\"type\":\"uint256\"}],\"name\":\"burnFrom\",\"outputs\":[],\"stateMutability\":\"nonpayable\",\"type\":\"function\"},{\"inputs\":[],\"name\":\"decimals\",\"outputs\":[{\"internalType\":\"uint8\",\"name\":\"\",\"type\":\"uint8\"}],\"stateMutability\":\"view\",\"type\":\"function\"},{\"inputs\":[],\"name\":\"eip712Domain\",\"outputs\":[{\"internalType\":\"bytes1\",\"name\":\"fields\",\"type\":\"bytes1\"},{\"internalType\":\"string\",\"name\":\"name\",\"type\":\"string\"},{\"internalType\":\"string\",\"name\":\"version\",\"type\":\"string\"},{\"internalType\":\"uint256\",\"name\":\"chainId\",\"type\":\"uint256\"},{\"internalType\":\"address\",\"name\":\"verifyingContract\",\"type\":\"address\"},{\"internalType\":\"bytes32\",\"name\":\"salt\",\"type\":\"bytes32\"},{\"internalType\":\"uint256[]\",\"name\":\"extensions\",\"type\":\"uint256[]\"}],\"stateMutability\":\"view\",\"type\":\"function\"},{\"inputs\":[{\"internalType\":\"contract IERC20\",\"name\":\"token\",\"type\":\"address\"},{\"internalType\":\"address\",\"name\":\"to\",\"type\":\"address\"},{\"internalType\":\"uint256\",\"name\":\"amount\",\"type\":\"uint256\"}],\"name\":\"emergencyRecoverERC20\",\"outputs\":[],\"stateMutability\":\"nonpayable\",\"type\":\"function\"},{\"inputs\":[{\"internalType\":\"address\",\"name\":\"newOwner\",\"type\":\"address\"}],\"name\":\"initiateOwnershipTransfer\",\"outputs\":[],\"stateMutability\":\"nonpayable\",\"type\":\"function\"},{\"inputs\":[{\"internalType\":\"address\",\"name\":\"to\",\"type\":\"address\"},{\"internalType\":\"uint256\",\"name\":\"amount\",\"type\":\"uint256\"}],\"name\":\"mint\",\"outputs\":[],\"stateMutability\":\"nonpayable\",\"type\":\"function\"},{\"inputs\":[],\"name\":\"name\",\"outputs\":[{\"internalType\":\"string\",\"name\":\"\",\"type\":\"string\"}],\"stateMutability\":\"view\",\"type\":\"function\"},{\"inputs\":[{\"internalType\":\"address\",\"name\":\"owner\",\"type\":\"address\"}],\"name\":\"nonces\",\"outputs\":[{\"internalType\":\"uint256\",\"name\":\"\",\"type\":\"uint256\"}],\"stateMutability\":\"view\",\"type\":\"function\"},{\"inputs\":[],\"name\":\"owner\",\"outputs\":[{\"internalType\":\"address\",\"name\":\"\",\"type\":\"address\"}],\"stateMutability\":\"view\",\"type\":\"function\"},{\"inputs\":[],\"name\":\"pendingOwner\",\"outputs\":[{\"internalType\":\"address\",\"name\":\"\",\"type\":\"address\"}],\"stateMutability\":\"view\",\"type\":\"function\"},{\"inputs\":[{\"internalType\":\"address\",\"name\":\"owner\",\"type\":\"address\"},{\"internalType\":\"address\",\"name\":\"spender\",\"type\":\"address\"},{\"internalType\":\"uint256\",\"name\":\"value\",\"type\":\"uint256\"},{\"internalType\":\"uint256\",\"name\":\"deadline\",\"type\":\"uint256\"},{\"internalType\":\"uint8\",\"name\":\"v\",\"type\":\"uint8\"},{\"internalType\":\"bytes32\",\"name\":\"r\",\"type\":\"bytes32\"},{\"internalType\":\"bytes32\",\"name\":\"s\",\"type\":\"bytes32\"}],\"name\":\"permit\",\"outputs\":[],\"stateMutability\":\"nonpayable\",\"type\":\"function\"},{\"inputs\":[],\"name\":\"renounceOwnership\",\"outputs\":[],\"stateMutability\":\"nonpayable\",\"type\":\"function\"},{\"inputs\":[],\"name\":\"symbol\",\"outputs\":[{\"internalType\":\"string\",\"name\":\"\",\"type\":\"string\"}],\"stateMutability\":\"view\",\"type\":\"function\"},{\"inputs\":[],\"name\":\"totalSupply\",\"outputs\":[{\"internalType\":\"uint256\",\"name\":\"\",\"type\":\"uint256\"}],\"stateMutability\":\"view\",\"type\":\"function\"},{\"inputs\":[{\"internalType\":\"address\",\"name\":\"to\",\"type\":\"address\"},{\"internalType\":\"uint256\",\"name\":\"value\",\"type\":\"uint256\"}],\"name\":\"transfer\",\"outputs\":[{\"internalType\":\"bool\",\"name\":\"\",\"type\":\"bool\"}],\"stateMutability\":\"nonpayable\",\"type\":\"function\"},{\"inputs\":[{\"internalType\":\"address\",\"name\":\"from\",\"type\":\"address\"},{\"internalType\":\"address\",\"name\":\"to\",\"type\":\"address\"},{\"internalType\":\"uint256\",\"name\":\"value\",\"type\":\"uint256\"}],\"name\":\"transferFrom\",\"outputs\":[{\"internalType\":\"bool\",\"name\":\"\",\"type\":\"bool\"}],\"stateMutability\":\"nonpayable\",\"type\":\"function\"},{\"inputs\":[{\"internalType\":\"address\",\"name\":\"newOwner\",\"type\":\"address\"}],\"name\":\"transferOwnership\",\"outputs\":[],\"stateMutability\":\"nonpayable\",\"type\":\"function\"}]);\nvar wrappedr5 = wrappedr5Contract.deploy({\n     data: '0x610160604052348015610010575f80fd5b50336040518060400160405280600a81526020017f5772617070656420523500000000000000000000000000000000000000000000815250806040518060400160405280600181526020017f31000000000000000000000000000000000000000000000000000000000000008152506040518060400160405280600a81526020017f57726170706564205235000000000000000000000000000000000000000000008152506040518060400160405280600381526020017f575235000000000000000000000000000000000000000000000000000000000081525081600390816100fa9190610657565b50806004908161010a9190610657565b50505061012160058361024560201b90919060201c565b610120818152505061013d60068261024560201b90919060201c565b6101408181525050818051906020012060e08181525050808051906020012061010081815250504660a0818152505061017a61029260201b60201c565b608081815250503073ffffffffffffffffffffffffffffffffffffffff1660c08173ffffffffffffffffffffffffffffffffffffffff16815250505050505f73ffffffffffffffffffffffffffffffffffffffff168173ffffffffffffffffffffffffffffffffffffffff1603610228575f6040517f1e4fbdf700000000000000000000000000000000000000000000000000000000815260040161021f9190610765565b60405180910390fd5b610237816102ec60201b60201c565b50600160098190555061090f565b5f6020835110156102665761025f836103af60201b60201c565b905061028c565b826102768361041460201b60201c565b5f0190816102849190610657565b5060ff5f1b90505b92915050565b5f7f8b73c3c69bb8fe3d512ecc4cf759cc79239f7b179b0ffacaa9a75d522b39400f60e0516101005146306040516020016102d19594939291906107a5565b60405160208183030381529060405280519060200120905090565b5f60085f9054906101000a900473ffffffffffffffffffffffffffffffffffffffff1690508160085f6101000a81548173ffffffffffffffffffffffffffffffffffffffff021916908373ffffffffffffffffffffffffffffffffffffffff1602179055508173ffffffffffffffffffffffffffffffffffffffff168173ffffffffffffffffffffffffffffffffffffffff167f8be0079c531659141344cd1fd0a4f28419497f9722a3daafe3b4186f6b6457e060405160405180910390a35050565b5f80829050601f815111156103fb57826040517f305a27a90000000000000000000000000000000000000000000000000000000081526004016103f2919061085c565b60405180910390fd5b805181610407906108a9565b5f1c175f1b915050919050565b5f819050919050565b5f81519050919050565b7f4e487b71000000000000000000000000000000000000000000000000000000005f52604160045260245ffd5b7f4e487b71000000000000000000000000000000000000000000000000000000005f52602260045260245ffd5b5f600282049050600182168061049857607f821691505b6020821081036104ab576104aa610454565b5b50919050565b5f819050815f5260205f209050919050565b5f6020601f8301049050919050565b5f82821b905092915050565b5f6008830261050d7fffffffffffffffffffffffffffffffffffffffffffffffffffffffffffffffff826104d2565b61051786836104d2565b95508019841693508086168417925050509392505050565b5f819050919050565b5f819050919050565b5f61055b6105566105518461052f565b610538565b61052f565b9050919050565b5f819050919050565b61057483610541565b61058861058082610562565b8484546104de565b825550505050565b5f90565b61059c610590565b6105a781848461056b565b505050565b5b818110156105ca576105bf5f82610594565b6001810190506105ad565b5050565b601f82111561060f576105e0816104b1565b6105e9846104c3565b810160208510156105f8578190505b61060c610604856104c3565b8301826105ac565b50505b505050565b5f82821c905092915050565b5f61062f5f1984600802610614565b1980831691505092915050565b5f6106478383610620565b9150826002028217905092915050565b6106608261041d565b67ffffffffffffffff81111561067957610678610427565b5b6106838254610481565b61068e8282856105ce565b5f60209050601f8311600181146106bf575f84156106ad578287015190505b6106b7858261063c565b86555061071e565b601f1984166106cd866104b1565b5f5b828110156106f4578489015182556001820191506020850194506020810190506106cf565b86831015610711578489015161070d601f891682610620565b8355505b6001600288020188555050505b505050505050565b5f73ffffffffffffffffffffffffffffffffffffffff82169050919050565b5f61074f82610726565b9050919050565b61075f81610745565b82525050565b5f6020820190506107785f830184610756565b92915050565b5f819050919050565b6107908161077e565b82525050565b61079f8161052f565b82525050565b5f60a0820190506107b85f830188610787565b6107c56020830187610787565b6107d26040830186610787565b6107df6060830185610796565b6107ec6080830184610756565b9695505050505050565b5f82825260208201905092915050565b8281835e5f83830152505050565b5f601f19601f8301169050919050565b5f61082e8261041d565b61083881856107f6565b9350610848818560208601610806565b61085181610814565b840191505092915050565b5f6020820190508181035f8301526108748184610824565b905092915050565b5f81519050919050565b5f819050602082019050919050565b5f6108a0825161077e565b80915050919050565b5f6108b38261087c565b826108bd84610886565b90506108c881610895565b92506020821015610908576109037fffffffffffffffffffffffffffffffffffffffffffffffffffffffffffffffff836020036008026104d2565b831692505b5050919050565b60805160a05160c05160e05161010051610120516101405161285c6109605f395f61138001525f61134501525f61187901525f61185801525f610fed01525f61104301525f61106c015261285c5ff3fe608060405234801561000f575f80fd5b5060043610610156575f3560e01c80637ecebe00116100c1578063d505accf1161007a578063d505accf146103a6578063dd62ed3e146103c2578063e30c3978146103f2578063eb8f4c4a14610410578063ec81b4831461042c578063f2fde38b1461044a57610156565b80637ecebe00146102ca57806384b0196e146102fa5780638da5cb5b1461031e57806395d89b411461033c578063a9059cbb1461035a578063c0b6f5611461038a57610156565b806340c10f191161011357806340c10f191461023257806342966c681461024e57806370a082311461026a578063715018a61461029a57806379ba5097146102a457806379cc6790146102ae57610156565b806306fdde031461015a578063095ea7b31461017857806318160ddd146101a857806323b872dd146101c6578063313ce567146101f65780633644e51514610214575b5f80fd5b610162610466565b60405161016f9190611dae565b60405180910390f35b610192600480360381019061018d9190611e5f565b6104f6565b60405161019f9190611eb7565b60405180910390f35b6101b0610518565b6040516101bd9190611edf565b60405180910390f35b6101e060048036038101906101db9190611ef8565b610521565b6040516101ed9190611eb7565b60405180910390f35b6101fe61054f565b60405161020b9190611f63565b60405180910390f35b61021c610557565b6040516102299190611f94565b60405180910390f35b61024c60048036038101906102479190611e5f565b610565565b005b61026860048036038101906102639190611fad565b610639565b005b610284600480360381019061027f9190611fd8565b61069a565b6040516102919190611edf565b60405180910390f35b6102a26106df565b005b6102ac6106f2565b005b6102c860048036038101906102c39190611e5f565b6107d8565b005b6102e460048036038101906102df9190611fd8565b610834565b6040516102f19190611edf565b60405180910390f35b610302610845565b6040516103159796959493929190612103565b60405180910390f35b6103266108ea565b6040516103339190612185565b60405180910390f35b610344610912565b6040516103519190611dae565b60405180910390f35b610374600480360381019061036f9190611e5f565b6109a2565b6040516103819190611eb7565b60405180910390f35b6103a4600480360381019061039f9190611fd8565b6109c4565b005b6103c060048036038101906103bb91906121f2565b610ade565b005b6103dc60048036038101906103d7919061228f565b610c23565b6040516103e99190611edf565b60405180910390f35b6103fa610ca5565b6040516104079190612185565b60405180910390f35b61042a60048036038101906104259190612308565b610ccd565b005b610434610dbb565b6040516104419190611edf565b60405180910390f35b610464600480360381019061045f9190611fd8565b610dca565b005b60606003805461047590612385565b80601f01602080910402602001604051908101604052809291908181526020018280546104a190612385565b80156104ec5780601f106104c3576101008083540402835291602001916104ec565b820191905f5260205f20905b8154815290600101906020018083116104cf57829003601f168201915b5050505050905090565b5f80610500610e4e565b905061050d818585610e55565b600191505092915050565b5f600254905090565b5f8061052b610e4e565b9050610538858285610e67565b610543858585610efa565b60019150509392505050565b5f6012905090565b5f610560610fea565b905090565b61056d6110a0565b610575611127565b6a36df8dec4229fb481000008161058a610518565b61059491906123e2565b11156105d5576040517f08c379a00000000000000000000000000000000000000000000000000000000081526004016105cc9061245f565b60405180910390fd5b6105df8282611176565b8173ffffffffffffffffffffffffffffffffffffffff167f3f2c9d57c068687834f0de942a9babb9e5acab57d516d3480a3c16ee165a4273826040516106259190611edf565b60405180910390a26106356111f5565b5050565b610642816111ff565b61064a610e4e565b73ffffffffffffffffffffffffffffffffffffffff167ffd38818f5291bf0bb3a2a48aadc06ba8757865d1dabd804585338aab3009dcb68260405161068f9190611edf565b60405180910390a250565b5f805f8373ffffffffffffffffffffffffffffffffffffffff1673ffffffffffffffffffffffffffffffffffffffff1681526020019081526020015f20549050919050565b6106e76110a0565b6106f05f611213565b565b5f6106fb610e4e565b9050600a5f9054906101000a900473ffffffffffffffffffffffffffffffffffffffff1673ffffffffffffffffffffffffffffffffffffffff168173ffffffffffffffffffffffffffffffffffffffff161461078c576040517f08c379a0000000000000000000000000000000000000000000000000000000008152600401610783906124ed565b60405180910390fd5b5f600a5f6101000a81548173ffffffffffffffffffffffffffffffffffffffff021916908373ffffffffffffffffffffffffffffffffffffffff1602179055506107d581611213565b50565b6107e282826112d6565b8173ffffffffffffffffffffffffffffffffffffffff167ffd38818f5291bf0bb3a2a48aadc06ba8757865d1dabd804585338aab3009dcb6826040516108289190611edf565b60405180910390a25050565b5f61083e826112f6565b9050919050565b5f6060805f805f606061085661133c565b61085e611377565b46305f801b5f67ffffffffffffffff81111561087d5761087c61250b565b5b6040519080825280602002602001820160405280156108ab5781602001602082028036833780820191505090505b507f0f00000000000000000000000000000000000000000000000000000000000000959493929190965096509650965096509650965090919293949596565b5f60085f9054906101000a900473ffffffffffffffffffffffffffffffffffffffff16905090565b60606004805461092190612385565b80601f016020809104026020016040519081016040528092919081815260200182805461094d90612385565b80156109985780601f1061096f57610100808354040283529160200191610998565b820191905f5260205f20905b81548152906001019060200180831161097b57829003601f168201915b5050505050905090565b5f806109ac610e4e565b90506109b9818585610efa565b600191505092915050565b6109cc6110a0565b5f73ffffffffffffffffffffffffffffffffffffffff168173ffffffffffffffffffffffffffffffffffffffff1603610a3a576040517f08c379a0000000000000000000000000000000000000000000000000000000008152600401610a31906125a8565b60405180910390fd5b80600a5f6101000a81548173ffffffffffffffffffffffffffffffffffffffff021916908373ffffffffffffffffffffffffffffffffffffffff1602179055508073ffffffffffffffffffffffffffffffffffffffff16610a996108ea565b73ffffffffffffffffffffffffffffffffffffffff167f38d16b8cac22d99fc7c124b9cd0de2d3fa1faef420bfe791d8c362d765e2270060405160405180910390a350565b83421115610b2357836040517f62791302000000000000000000000000000000000000000000000000000000008152600401610b1a9190611edf565b60405180910390fd5b5f7f6e71edae12b1b97f4d1f60370fef10105fa2faae0126114a169c64845d6126c9888888610b518c6113b2565b89604051602001610b67969594939291906125c6565b6040516020818303038152906040528051906020012090505f610b8982611405565b90505f610b988287878761141e565b90508973ffffffffffffffffffffffffffffffffffffffff168173ffffffffffffffffffffffffffffffffffffffff1614610c0c57808a6040517f4b800e46000000000000000000000000000000000000000000000000000000008152600401610c03929190612625565b60405180910390fd5b610c178a8a8a610e55565b50505050505050505050565b5f60015f8473ffffffffffffffffffffffffffffffffffffffff1673ffffffffffffffffffffffffffffffffffffffff1681526020019081526020015f205f8373ffffffffffffffffffffffffffffffffffffffff1673ffffffffffffffffffffffffffffffffffffffff1681526020019081526020015f2054905092915050565b5f600a5f9054906101000a900473ffffffffffffffffffffffffffffffffffffffff16905090565b610cd56110a0565b8273ffffffffffffffffffffffffffffffffffffffff1663a9059cbb83836040518363ffffffff1660e01b8152600401610d1092919061264c565b6020604051808303815f875af1158015610d2c573d5f803e3d5ffd5b505050506040513d601f19601f82011682018060405250810190610d50919061269d565b508173ffffffffffffffffffffffffffffffffffffffff168373ffffffffffffffffffffffffffffffffffffffff167f401f439d865a766757ec78675925bd67198d5e78805aa41691b34b5d6a6cbbe683604051610dae9190611edf565b60405180910390a3505050565b6a36df8dec4229fb4810000081565b610dd26110a0565b5f73ffffffffffffffffffffffffffffffffffffffff168173ffffffffffffffffffffffffffffffffffffffff1603610e42575f6040517f1e4fbdf7000000000000000000000000000000000000000000000000000000008152600401610e399190612185565b60405180910390fd5b610e4b81611213565b50565b5f33905090565b610e62838383600161144c565b505050565b5f610e728484610c23565b90507fffffffffffffffffffffffffffffffffffffffffffffffffffffffffffffffff811015610ef45781811015610ee5578281836040517ffb8f41b2000000000000000000000000000000000000000000000000000000008152600401610edc939291906126c8565b60405180910390fd5b610ef384848484035f61144c565b5b50505050565b5f73ffffffffffffffffffffffffffffffffffffffff168373ffffffffffffffffffffffffffffffffffffffff1603610f6a575f6040517f96c6fd1e000000000000000000000000000000000000000000000000000000008152600401610f619190612185565b60405180910390fd5b5f73ffffffffffffffffffffffffffffffffffffffff168273ffffffffffffffffffffffffffffffffffffffff1603610fda575f6040517fec442f05000000000000000000000000000000000000000000000000000000008152600401610fd19190612185565b60405180910390fd5b610fe583838361161b565b505050565b5f7f000000000000000000000000000000000000000000000000000000000000000073ffffffffffffffffffffffffffffffffffffffff163073ffffffffffffffffffffffffffffffffffffffff1614801561106557507f000000000000000000000000000000000000000000000000000000000000000046145b15611092577f0000000000000000000000000000000000000000000000000000000000000000905061109d565b61109a611834565b90505b90565b6110a8610e4e565b73ffffffffffffffffffffffffffffffffffffffff166110c66108ea565b73ffffffffffffffffffffffffffffffffffffffff1614611125576110e9610e4e565b6040517f118cdaa700000000000000000000000000000000000000000000000000000000815260040161111c9190612185565b60405180910390fd5b565b60026009540361116c576040517f08c379a000000000000000000000000000000000000000000000000000000000815260040161116390612747565b60405180910390fd5b6002600981905550565b5f73ffffffffffffffffffffffffffffffffffffffff168273ffffffffffffffffffffffffffffffffffffffff16036111e6575f6040517fec442f050000000000000000000000000000000000000000000000000000000081526004016111dd9190612185565b60405180910390fd5b6111f15f838361161b565b5050565b6001600981905550565b61121061120a610e4e565b826118c9565b50565b5f60085f9054906101000a900473ffffffffffffffffffffffffffffffffffffffff1690508160085f6101000a81548173ffffffffffffffffffffffffffffffffffffffff021916908373ffffffffffffffffffffffffffffffffffffffff1602179055508173ffffffffffffffffffffffffffffffffffffffff168173ffffffffffffffffffffffffffffffffffffffff167f8be0079c531659141344cd1fd0a4f28419497f9722a3daafe3b4186f6b6457e060405160405180910390a35050565b6112e8826112e2610e4e565b83610e67565b6112f282826118c9565b5050565b5f60075f8373ffffffffffffffffffffffffffffffffffffffff1673ffffffffffffffffffffffffffffffffffffffff1681526020019081526020015f20549050919050565b606061137260057f000000000000000000000000000000000000000000000000000000000000000061194890919063ffffffff16565b905090565b60606113ad60067f000000000000000000000000000000000000000000000000000000000000000061194890919063ffffffff16565b905090565b5f60075f8373ffffffffffffffffffffffffffffffffffffffff1673ffffffffffffffffffffffffffffffffffffffff1681526020019081526020015f205f815480929190600101919050559050919050565b5f611417611411610fea565b836119f5565b9050919050565b5f805f8061142e88888888611a35565b92509250925061143e8282611b1c565b829350505050949350505050565b5f73ffffffffffffffffffffffffffffffffffffffff168473ffffffffffffffffffffffffffffffffffffffff16036114bc575f6040517fe602df050000000000000000000000000000000000000000000000000000000081526004016114b39190612185565b60405180910390fd5b5f73ffffffffffffffffffffffffffffffffffffffff168373ffffffffffffffffffffffffffffffffffffffff160361152c575f6040517f94280d620000000000000000000000000000000000000000000000000000000081526004016115239190612185565b60405180910390fd5b8160015f8673ffffffffffffffffffffffffffffffffffffffff1673ffffffffffffffffffffffffffffffffffffffff1681526020019081526020015f205f8573ffffffffffffffffffffffffffffffffffffffff1673ffffffffffffffffffffffffffffffffffffffff1681526020019081526020015f20819055508015611615578273ffffffffffffffffffffffffffffffffffffffff168473ffffffffffffffffffffffffffffffffffffffff167f8c5be1e5ebec7d5bd14f71427d1e84f3dd0314c0f7b2291e5b200ac8c7c3b9258460405161160c9190611edf565b60405180910390a35b50505050565b5f73ffffffffffffffffffffffffffffffffffffffff168373ffffffffffffffffffffffffffffffffffffffff160361166b578060025f82825461165f91906123e2565b92505081905550611739565b5f805f8573ffffffffffffffffffffffffffffffffffffffff1673ffffffffffffffffffffffffffffffffffffffff1681526020019081526020015f20549050818110156116f4578381836040517fe450d38c0000000000000000000000000000000000000000000000000000000081526004016116eb939291906126c8565b60405180910390fd5b8181035f808673ffffffffffffffffffffffffffffffffffffffff1673ffffffffffffffffffffffffffffffffffffffff1681526020019081526020015f2081905550505b5f73ffffffffffffffffffffffffffffffffffffffff168273ffffffffffffffffffffffffffffffffffffffff1603611780578060025f82825403925050819055506117ca565b805f808473ffffffffffffffffffffffffffffffffffffffff1673ffffffffffffffffffffffffffffffffffffffff1681526020019081526020015f205f82825401925050819055505b8173ffffffffffffffffffffffffffffffffffffffff168373ffffffffffffffffffffffffffffffffffffffff167fddf252ad1be2c89b69c2b068fc378daa952ba7f163c4a11628f55a4df523b3ef836040516118279190611edf565b60405180910390a3505050565b5f7f8b73c3c69bb8fe3d512ecc4cf759cc79239f7b179b0ffacaa9a75d522b39400f7f00000000000000000000000000000000000000000000000000000000000000007f000000000000000000000000000000000000000000000000000000000000000046306040516020016118ae959493929190612765565b60405160208183030381529060405280519060200120905090565b5f73ffffffffffffffffffffffffffffffffffffffff168273ffffffffffffffffffffffffffffffffffffffff1603611939575f6040517f96c6fd1e0000000000000000000000000000000000000000000000000000000081526004016119309190612185565b60405180910390fd5b611944825f8361161b565b5050565b606060ff5f1b83146119645761195d83611c7e565b90506119ef565b81805461197090612385565b80601f016020809104026020016040519081016040528092919081815260200182805461199c90612385565b80156119e75780601f106119be576101008083540402835291602001916119e7565b820191905f5260205f20905b8154815290600101906020018083116119ca57829003601f168201915b505050505090505b92915050565b5f6040517f190100000000000000000000000000000000000000000000000000000000000081528360028201528260228201526042812091505092915050565b5f805f7f7fffffffffffffffffffffffffffffff5d576e7357a4501ddfe92f46681b20a0845f1c1115611a71575f600385925092509250611b12565b5f6001888888886040515f8152602001604052604051611a9494939291906127b6565b6020604051602081039080840390855afa158015611ab4573d5f803e3d5ffd5b5050506020604051035190505f73ffffffffffffffffffffffffffffffffffffffff168173ffffffffffffffffffffffffffffffffffffffff1603611b05575f60015f801b93509350935050611b12565b805f805f1b935093509350505b9450945094915050565b5f6003811115611b2f57611b2e6127f9565b5b826003811115611b4257611b416127f9565b5b0315611c7a5760016003811115611b5c57611b5b6127f9565b5b826003811115611b6f57611b6e6127f9565b5b03611ba6576040517ff645eedf00000000000000000000000000000000000000000000000000000000815260040160405180910390fd5b60026003811115611bba57611bb96127f9565b5b826003811115611bcd57611bcc6127f9565b5b03611c1157805f1c6040517ffce698f7000000000000000000000000000000000000000000000000000000008152600401611c089190611edf565b60405180910390fd5b600380811115611c2457611c236127f9565b5b826003811115611c3757611c366127f9565b5b03611c7957806040517fd78bce0c000000000000000000000000000000000000000000000000000000008152600401611c709190611f94565b60405180910390fd5b5b5050565b60605f611c8a83611cf0565b90505f602067ffffffffffffffff811115611ca857611ca761250b565b5b6040519080825280601f01601f191660200182016040528015611cda5781602001600182028036833780820191505090505b5090508181528360208201528092505050919050565b5f8060ff835f1c169050601f811115611d35576040517fb3512b0c00000000000000000000000000000000000000000000000000000000815260040160405180910390fd5b80915050919050565b5f81519050919050565b5f82825260208201905092915050565b8281835e5f83830152505050565b5f601f19601f8301169050919050565b5f611d8082611d3e565b611d8a8185611d48565b9350611d9a818560208601611d58565b611da381611d66565b840191505092915050565b5f6020820190508181035f830152611dc68184611d76565b905092915050565b5f80fd5b5f73ffffffffffffffffffffffffffffffffffffffff82169050919050565b5f611dfb82611dd2565b9050919050565b611e0b81611df1565b8114611e15575f80fd5b50565b5f81359050611e2681611e02565b92915050565b5f819050919050565b611e3e81611e2c565b8114611e48575f80fd5b50565b5f81359050611e5981611e35565b92915050565b5f8060408385031215611e7557611e74611dce565b5b5f611e8285828601611e18565b9250506020611e9385828601611e4b565b9150509250929050565b5f8115159050919050565b611eb181611e9d565b82525050565b5f602082019050611eca5f830184611ea8565b92915050565b611ed981611e2c565b82525050565b5f602082019050611ef25f830184611ed0565b92915050565b5f805f60608486031215611f0f57611f0e611dce565b5b5f611f1c86828701611e18565b9350506020611f2d86828701611e18565b9250506040611f3e86828701611e4b565b9150509250925092565b5f60ff82169050919050565b611f5d81611f48565b82525050565b5f602082019050611f765f830184611f54565b92915050565b5f819050919050565b611f8e81611f7c565b82525050565b5f602082019050611fa75f830184611f85565b92915050565b5f60208284031215611fc257611fc1611dce565b5b5f611fcf84828501611e4b565b91505092915050565b5f60208284031215611fed57611fec611dce565b5b5f611ffa84828501611e18565b91505092915050565b5f7fff0000000000000000000000000000000000000000000000000000000000000082169050919050565b61203781612003565b82525050565b61204681611df1565b82525050565b5f81519050919050565b5f82825260208201905092915050565b5f819050602082019050919050565b61207e81611e2c565b82525050565b5f61208f8383612075565b60208301905092915050565b5f602082019050919050565b5f6120b18261204c565b6120bb8185612056565b93506120c683612066565b805f5b838110156120f65781516120dd8882612084565b97506120e88361209b565b9250506001810190506120c9565b5085935050505092915050565b5f60e0820190506121165f83018a61202e565b81810360208301526121288189611d76565b9050818103604083015261213c8188611d76565b905061214b6060830187611ed0565b612158608083018661203d565b61216560a0830185611f85565b81810360c083015261217781846120a7565b905098975050505050505050565b5f6020820190506121985f83018461203d565b92915050565b6121a781611f48565b81146121b1575f80fd5b50565b5f813590506121c28161219e565b92915050565b6121d181611f7c565b81146121db575f80fd5b50565b5f813590506121ec816121c8565b92915050565b5f805f805f805f60e0888a03121561220d5761220c611dce565b5b5f61221a8a828b01611e18565b975050602061222b8a828b01611e18565b965050604061223c8a828b01611e4b565b955050606061224d8a828b01611e4b565b945050608061225e8a828b016121b4565b93505060a061226f8a828b016121de565b92505060c06122808a828b016121de565b91505092959891949750929550565b5f80604083850312156122a5576122a4611dce565b5b5f6122b285828601611e18565b92505060206122c385828601611e18565b9150509250929050565b5f6122d782611df1565b9050919050565b6122e7816122cd565b81146122f1575f80fd5b50565b5f81359050612302816122de565b92915050565b5f805f6060848603121561231f5761231e611dce565b5b5f61232c868287016122f4565b935050602061233d86828701611e18565b925050604061234e86828701611e4b565b9150509250925092565b7f4e487b71000000000000000000000000000000000000000000000000000000005f52602260045260245ffd5b5f600282049050600182168061239c57607f821691505b6020821081036123af576123ae612358565b5b50919050565b7f4e487b71000000000000000000000000000000000000000000000000000000005f52601160045260245ffd5b5f6123ec82611e2c565b91506123f783611e2c565b925082820190508082111561240f5761240e6123b5565b5b92915050565b7f5772617070656452353a206361702065786365656465640000000000000000005f82015250565b5f612449601783611d48565b915061245482612415565b602082019050919050565b5f6020820190508181035f8301526124768161243d565b9050919050565b7f5772617070656452353a2063616c6c6572206973206e6f74207468652070656e5f8201527f64696e67206f776e657200000000000000000000000000000000000000000000602082015250565b5f6124d7602a83611d48565b91506124e28261247d565b604082019050919050565b5f6020820190508181035f830152612504816124cb565b9050919050565b7f4e487b71000000000000000000000000000000000000000000000000000000005f52604160045260245ffd5b7f5772617070656452353a206e6577206f776e6572206973207a65726f206164645f8201527f7265737300000000000000000000000000000000000000000000000000000000602082015250565b5f612592602483611d48565b915061259d82612538565b604082019050919050565b5f6020820190508181035f8301526125bf81612586565b9050919050565b5f60c0820190506125d95f830189611f85565b6125e6602083018861203d565b6125f3604083018761203d565b6126006060830186611ed0565b61260d6080830185611ed0565b61261a60a0830184611ed0565b979650505050505050565b5f6040820190506126385f83018561203d565b612645602083018461203d565b9392505050565b5f60408201905061265f5f83018561203d565b61266c6020830184611ed0565b9392505050565b61267c81611e9d565b8114612686575f80fd5b50565b5f8151905061269781612673565b92915050565b5f602082840312156126b2576126b1611dce565b5b5f6126bf84828501612689565b91505092915050565b5f6060820190506126db5f83018661203d565b6126e86020830185611ed0565b6126f56040830184611ed0565b949350505050565b7f5265656e7472616e637947756172643a207265656e7472616e742063616c6c005f82015250565b5f612731601f83611d48565b915061273c826126fd565b602082019050919050565b5f6020820190508181035f83015261275e81612725565b9050919050565b5f60a0820190506127785f830188611f85565b6127856020830187611f85565b6127926040830186611f85565b61279f6060830185611ed0565b6127ac608083018461203d565b9695505050505050565b5f6080820190506127c95f830187611f85565b6127d66020830186611f54565b6127e36040830185611f85565b6127f06060830184611f85565b95945050505050565b7f4e487b71000000000000000000000000000000000000000000000000000000005f52602160045260245ffdfea264697066735822122046ec330ce2a86dce04904d74095c3d856e12831b325cd44a1b2dd954caf7f4ae64736f6c634300081a0033', \n     arguments: [\n     ]\n}).send({\n     from: web3.eth.accounts[0], \n     gas: '4700000'\n   }, function (e, contract){\n    console.log(e, contract);\n    if (typeof contract.address !== 'undefined') {\n         console.log('Contract mined! address: ' + contract.address + ' transactionHash: ' + contract.transactionHash);\n    }\n })",
	"functionHashes": {
		"ec81b483": "CAP()",
		"3644e515": "DOMAIN_SEPARATOR()",
		"79ba5097": "acceptOwnership()",
		"dd62ed3e": "allowance(address,address)",
		"095ea7b3": "approve(address,uint256)",
		"70a08231": "balanceOf(address)",
		"42966c68": "burn(uint256)",
		"79cc6790": "burnFrom(address,uint256)",
		"313ce567": "decimals()",
		"84b0196e": "eip712Domain()",
		"eb8f4c4a": "emergencyRecoverERC20(address,address,uint256)",
		"c0b6f561": "initiateOwnershipTransfer(address)",
		"40c10f19": "mint(address,uint256)",
		"06fdde03": "name()",
		"7ecebe00": "nonces(address)",
		"8da5cb5b": "owner()",
		"e30c3978": "pendingOwner()",
		"d505accf": "permit(address,address,uint256,uint256,uint8,bytes32,bytes32)",
		"715018a6": "renounceOwnership()",
		"95d89b41": "symbol()",
		"18160ddd": "totalSupply()",
		"a9059cbb": "transfer(address,uint256)",
		"23b872dd": "transferFrom(address,address,uint256)",
		"f2fde38b": "transferOwnership(address)"
	},
	"gasEstimates": {
		"Creation": {
			"codeDepositCost": "2066400",
			"executionCost": "infinite",
			"totalCost": "infinite"
		},
		"External": {
			"CAP()": "435",
			"DOMAIN_SEPARATOR()": "infinite",
			"acceptOwnership()": "54721",
			"allowance(address,address)": "infinite",
			"approve(address,uint256)": "infinite",
			"balanceOf(address)": "2896",
			"burn(uint256)": "infinite",
			"burnFrom(address,uint256)": "infinite",
			"decimals()": "450",
			"eip712Domain()": "infinite",
			"emergencyRecoverERC20(address,address,uint256)": "infinite",
			"initiateOwnershipTransfer(address)": "infinite",
			"mint(address,uint256)": "infinite",
			"name()": "infinite",
			"nonces(address)": "2894",
			"owner()": "2582",
			"pendingOwner()": "2581",
			"permit(address,address,uint256,uint256,uint8,bytes32,bytes32)": "infinite",
			"renounceOwnership()": "infinite",
			"symbol()": "infinite",
			"totalSupply()": "2500",
			"transfer(address,uint256)": "infinite",
			"transferFrom(address,address,uint256)": "infinite",
			"transferOwnership(address)": "infinite"
		}
	},
	"devdoc": {
		"errors": {
			"ECDSAInvalidSignature()": [
				{
					"details": "The signature derives the `address(0)`."
				}
			],
			"ECDSAInvalidSignatureLength(uint256)": [
				{
					"details": "The signature has an invalid length."
				}
			],
			"ECDSAInvalidSignatureS(bytes32)": [
				{
					"details": "The signature has an S value that is in the upper half order."
				}
			],
			"ERC20InsufficientAllowance(address,uint256,uint256)": [
				{
					"details": "Indicates a failure with the `spender`’s `allowance`. Used in transfers.",
					"params": {
						"allowance": "Amount of tokens a `spender` is allowed to operate with.",
						"needed": "Minimum amount required to perform a transfer.",
						"spender": "Address that may be allowed to operate on tokens without being their owner."
					}
				}
			],
			"ERC20InsufficientBalance(address,uint256,uint256)": [
				{
					"details": "Indicates an error related to the current `balance` of a `sender`. Used in transfers.",
					"params": {
						"balance": "Current balance for the interacting account.",
						"needed": "Minimum amount required to perform a transfer.",
						"sender": "Address whose tokens are being transferred."
					}
				}
			],
			"ERC20InvalidApprover(address)": [
				{
					"details": "Indicates a failure with the `approver` of a token to be approved. Used in approvals.",
					"params": {
						"approver": "Address initiating an approval operation."
					}
				}
			],
			"ERC20InvalidReceiver(address)": [
				{
					"details": "Indicates a failure with the token `receiver`. Used in transfers.",
					"params": {
						"receiver": "Address to which tokens are being transferred."
					}
				}
			],
			"ERC20InvalidSender(address)": [
				{
					"details": "Indicates a failure with the token `sender`. Used in transfers.",
					"params": {
						"sender": "Address whose tokens are being transferred."
					}
				}
			],
			"ERC20InvalidSpender(address)": [
				{
					"details": "Indicates a failure with the `spender` to be approved. Used in approvals.",
					"params": {
						"spender": "Address that may be allowed to operate on tokens without being their owner."
					}
				}
			],
			"ERC2612ExpiredSignature(uint256)": [
				{
					"details": "Permit deadline has expired."
				}
			],
			"ERC2612InvalidSigner(address,address)": [
				{
					"details": "Mismatched signature."
				}
			],
			"InvalidAccountNonce(address,uint256)": [
				{
					"details": "The nonce used for an `account` is not the expected current nonce."
				}
			],
			"OwnableInvalidOwner(address)": [
				{
					"details": "The owner is not a valid owner account. (eg. `address(0)`)"
				}
			],
			"OwnableUnauthorizedAccount(address)": [
				{
					"details": "The caller account is not authorized to perform an operation."
				}
			]
		},
		"events": {
			"Approval(address,address,uint256)": {
				"details": "Emitted when the allowance of a `spender` for an `owner` is set by a call to {approve}. `value` is the new allowance."
			},
			"EIP712DomainChanged()": {
				"details": "MAY be emitted to signal that the domain could have changed."
			},
			"OwnershipTransferStarted(address,address)": {
				"details": "Emitted when ownership transfer is initiated"
			},
			"TokensBurned(address,uint256)": {
				"details": "Emitted when tokens are burned"
			},
			"TokensMinted(address,uint256)": {
				"details": "Emitted when new tokens are minted"
			},
			"TokensRecovered(address,address,uint256)": {
				"details": "Emitted when tokens are rescued from the contract"
			},
			"Transfer(address,address,uint256)": {
				"details": "Emitted when `value` tokens are moved from one account (`from`) to another (`to`). Note that `value` may be zero."
			}
		},
		"kind": "dev",
		"methods": {
			"DOMAIN_SEPARATOR()": {
				"details": "Returns the domain separator used in the encoding of the signature for {permit}, as defined by {EIP712}."
			},
			"allowance(address,address)": {
				"details": "See {IERC20-allowance}."
			},
			"approve(address,uint256)": {
				"details": "See {IERC20-approve}. NOTE: If `value` is the maximum `uint256`, the allowance is not updated on `transferFrom`. This is semantically equivalent to an infinite approval. Requirements: - `spender` cannot be the zero address."
			},
			"balanceOf(address)": {
				"details": "See {IERC20-balanceOf}."
			},
			"decimals()": {
				"details": "Returns the number of decimals used to get its user representation. For example, if `decimals` equals `2`, a balance of `505` tokens should be displayed to a user as `5.05` (`505 / 10 ** 2`). Tokens usually opt for a value of 18, imitating the relationship between Ether and Wei. This is the default value returned by this function, unless it's overridden. NOTE: This information is only used for _display_ purposes: it in no way affects any of the arithmetic of the contract, including {IERC20-balanceOf} and {IERC20-transfer}."
			},
			"eip712Domain()": {
				"details": "returns the fields and values that describe the domain separator used by this contract for EIP-712 signature."
			},
			"emergencyRecoverERC20(address,address,uint256)": {
				"params": {
					"amount": "Amount to recover",
					"to": "Recipient of the rescued tokens",
					"token": "The ERC20 contract to pull tokens from"
				}
			},
			"initiateOwnershipTransfer(address)": {
				"params": {
					"newOwner": "The address to transfer ownership to"
				}
			},
			"mint(address,uint256)": {
				"params": {
					"amount": "Amount to mint (in wei)",
					"to": "Recipient of the minted tokens"
				}
			},
			"name()": {
				"details": "Returns the name of the token."
			},
			"nonces(address)": {
				"details": "Returns the current nonce for `owner`. This value must be included whenever a signature is generated for {permit}. Every successful call to {permit} increases ``owner``'s nonce by one. This prevents a signature from being used multiple times."
			},
			"owner()": {
				"details": "Returns the address of the current owner."
			},
			"permit(address,address,uint256,uint256,uint8,bytes32,bytes32)": {
				"details": "Sets `value` as the allowance of `spender` over ``owner``'s tokens, given ``owner``'s signed approval. IMPORTANT: The same issues {IERC20-approve} has related to transaction ordering also apply here. Emits an {Approval} event. Requirements: - `spender` cannot be the zero address. - `deadline` must be a timestamp in the future. - `v`, `r` and `s` must be a valid `secp256k1` signature from `owner` over the EIP712-formatted function arguments. - the signature must use ``owner``'s current nonce (see {nonces}). For more information on the signature format, see the https://eips.ethereum.org/EIPS/eip-2612#specification[relevant EIP section]. CAUTION: See Security Considerations above."
			},
			"renounceOwnership()": {
				"details": "Leaves the contract without owner. It will not be possible to call `onlyOwner` functions. Can only be called by the current owner. NOTE: Renouncing ownership will leave the contract without an owner, thereby disabling any functionality that is only available to the owner."
			},
			"symbol()": {
				"details": "Returns the symbol of the token, usually a shorter version of the name."
			},
			"totalSupply()": {
				"details": "See {IERC20-totalSupply}."
			},
			"transfer(address,uint256)": {
				"details": "See {IERC20-transfer}. Requirements: - `to` cannot be the zero address. - the caller must have a balance of at least `value`."
			},
			"transferFrom(address,address,uint256)": {
				"details": "See {IERC20-transferFrom}. Skips emitting an {Approval} event indicating an allowance update. This is not required by the ERC. See {xref-ERC20-_approve-address-address-uint256-bool-}[_approve]. NOTE: Does not update the allowance if the current allowance is the maximum `uint256`. Requirements: - `from` and `to` cannot be the zero address. - `from` must have a balance of at least `value`. - the caller must have allowance for ``from``'s tokens of at least `value`."
			},
			"transferOwnership(address)": {
				"details": "Transfers ownership of the contract to a new account (`newOwner`). Can only be called by the current owner."
			}
		},
		"stateVariables": {
			"_pendingOwner": {
				"details": "The address pending ownership transfer"
			}
		},
		"title": "Wrapped R5",
		"version": 1
	},
	"userdoc": {
		"kind": "user",
		"methods": {
			"CAP()": {
				"notice": "Maximum total supply: 66,337,700 WR5 (18 decimals)"
			},
			"acceptOwnership()": {
				"notice": "Accept ownership transfer (must be called by pending owner)"
			},
			"burn(uint256)": {
				"notice": "Burn your own tokens; emits a custom event"
			},
			"burnFrom(address,uint256)": {
				"notice": "Burn from someone else’s allowance; emits a custom event"
			},
			"emergencyRecoverERC20(address,address,uint256)": {
				"notice": "Rescue any ERC20 tokens sent here by mistake"
			},
			"initiateOwnershipTransfer(address)": {
				"notice": "Initiate ownership transfer to a new account (`newOwner` cannot accept until this is called)"
			},
			"mint(address,uint256)": {
				"notice": "Mint up to the cap; only the owner can call"
			},
			"pendingOwner()": {
				"notice": "View the address pending to become owner"
			}
		},
		"notice": "ERC20 wrapper for R5 coin with a fixed cap, burn, and EIP‑2612 permit",
		"version": 1
	},
	"Runtime Bytecode": {
		"immutableReferences": {
			"2292": [
				{
					"length": 32,
					"start": 4204
				}
			],
			"2294": [
				{
					"length": 32,
					"start": 4163
				}
			],
			"2296": [
				{
					"length": 32,
					"start": 4077
				}
			],
			"2298": [
				{
					"length": 32,
					"start": 6232
				}
			],
			"2300": [
				{
					"length": 32,
					"start": 6265
				}
			],
			"2303": [
				{
					"length": 32,
					"start": 4933
				}
			],
			"2306": [
				{
					"length": 32,
					"start": 4992
				}
			]
		},
		"linkReferences": {},
		"object": "608060405234801561000f575f80fd5b5060043610610156575f3560e01c80637ecebe00116100c1578063d505accf1161007a578063d505accf146103a6578063dd62ed3e146103c2578063e30c3978146103f2578063eb8f4c4a14610410578063ec81b4831461042c578063f2fde38b1461044a57610156565b80637ecebe00146102ca57806384b0196e146102fa5780638da5cb5b1461031e57806395d89b411461033c578063a9059cbb1461035a578063c0b6f5611461038a57610156565b806340c10f191161011357806340c10f191461023257806342966c681461024e57806370a082311461026a578063715018a61461029a57806379ba5097146102a457806379cc6790146102ae57610156565b806306fdde031461015a578063095ea7b31461017857806318160ddd146101a857806323b872dd146101c6578063313ce567146101f65780633644e51514610214575b5f80fd5b610162610466565b60405161016f9190611dae565b60405180910390f35b610192600480360381019061018d9190611e5f565b6104f6565b60405161019f9190611eb7565b60405180910390f35b6101b0610518565b6040516101bd9190611edf565b60405180910390f35b6101e060048036038101906101db9190611ef8565b610521565b6040516101ed9190611eb7565b60405180910390f35b6101fe61054f565b60405161020b9190611f63565b60405180910390f35b61021c610557565b6040516102299190611f94565b60405180910390f35b61024c60048036038101906102479190611e5f565b610565565b005b61026860048036038101906102639190611fad565b610639565b005b610284600480360381019061027f9190611fd8565b61069a565b6040516102919190611edf565b60405180910390f35b6102a26106df565b005b6102ac6106f2565b005b6102c860048036038101906102c39190611e5f565b6107d8565b005b6102e460048036038101906102df9190611fd8565b610834565b6040516102f19190611edf565b60405180910390f35b610302610845565b6040516103159796959493929190612103565b60405180910390f35b6103266108ea565b6040516103339190612185565b60405180910390f35b610344610912565b6040516103519190611dae565b60405180910390f35b610374600480360381019061036f9190611e5f565b6109a2565b6040516103819190611eb7565b60405180910390f35b6103a4600480360381019061039f9190611fd8565b6109c4565b005b6103c060048036038101906103bb91906121f2565b610ade565b005b6103dc60048036038101906103d7919061228f565b610c23565b6040516103e99190611edf565b60405180910390f35b6103fa610ca5565b6040516104079190612185565b60405180910390f35b61042a60048036038101906104259190612308565b610ccd565b005b610434610dbb565b6040516104419190611edf565b60405180910390f35b610464600480360381019061045f9190611fd8565b610dca565b005b60606003805461047590612385565b80601f01602080910402602001604051908101604052809291908181526020018280546104a190612385565b80156104ec5780601f106104c3576101008083540402835291602001916104ec565b820191905f5260205f20905b8154815290600101906020018083116104cf57829003601f168201915b5050505050905090565b5f80610500610e4e565b905061050d818585610e55565b600191505092915050565b5f600254905090565b5f8061052b610e4e565b9050610538858285610e67565b610543858585610efa565b60019150509392505050565b5f6012905090565b5f610560610fea565b905090565b61056d6110a0565b610575611127565b6a36df8dec4229fb481000008161058a610518565b61059491906123e2565b11156105d5576040517f08c379a00000000000000000000000000000000000000000000000000000000081526004016105cc9061245f565b60405180910390fd5b6105df8282611176565b8173ffffffffffffffffffffffffffffffffffffffff167f3f2c9d57c068687834f0de942a9babb9e5acab57d516d3480a3c16ee165a4273826040516106259190611edf565b60405180910390a26106356111f5565b5050565b610642816111ff565b61064a610e4e565b73ffffffffffffffffffffffffffffffffffffffff167ffd38818f5291bf0bb3a2a48aadc06ba8757865d1dabd804585338aab3009dcb68260405161068f9190611edf565b60405180910390a250565b5f805f8373ffffffffffffffffffffffffffffffffffffffff1673ffffffffffffffffffffffffffffffffffffffff1681526020019081526020015f20549050919050565b6106e76110a0565b6106f05f611213565b565b5f6106fb610e4e565b9050600a5f9054906101000a900473ffffffffffffffffffffffffffffffffffffffff1673ffffffffffffffffffffffffffffffffffffffff168173ffffffffffffffffffffffffffffffffffffffff161461078c576040517f08c379a0000000000000000000000000000000000000000000000000000000008152600401610783906124ed565b60405180910390fd5b5f600a5f6101000a81548173ffffffffffffffffffffffffffffffffffffffff021916908373ffffffffffffffffffffffffffffffffffffffff1602179055506107d581611213565b50565b6107e282826112d6565b8173ffffffffffffffffffffffffffffffffffffffff167ffd38818f5291bf0bb3a2a48aadc06ba8757865d1dabd804585338aab3009dcb6826040516108289190611edf565b60405180910390a25050565b5f61083e826112f6565b9050919050565b5f6060805f805f606061085661133c565b61085e611377565b46305f801b5f67ffffffffffffffff81111561087d5761087c61250b565b5b6040519080825280602002602001820160405280156108ab5781602001602082028036833780820191505090505b507f0f00000000000000000000000000000000000000000000000000000000000000959493929190965096509650965096509650965090919293949596565b5f60085f9054906101000a900473ffffffffffffffffffffffffffffffffffffffff16905090565b60606004805461092190612385565b80601f016020809104026020016040519081016040528092919081815260200182805461094d90612385565b80156109985780601f1061096f57610100808354040283529160200191610998565b820191905f5260205f20905b81548152906001019060200180831161097b57829003601f168201915b5050505050905090565b5f806109ac610e4e565b90506109b9818585610efa565b600191505092915050565b6109cc6110a0565b5f73ffffffffffffffffffffffffffffffffffffffff168173ffffffffffffffffffffffffffffffffffffffff1603610a3a576040517f08c379a0000000000000000000000000000000000000000000000000000000008152600401610a31906125a8565b60405180910390fd5b80600a5f6101000a81548173ffffffffffffffffffffffffffffffffffffffff021916908373ffffffffffffffffffffffffffffffffffffffff1602179055508073ffffffffffffffffffffffffffffffffffffffff16610a996108ea565b73ffffffffffffffffffffffffffffffffffffffff167f38d16b8cac22d99fc7c124b9cd0de2d3fa1faef420bfe791d8c362d765e2270060405160405180910390a350565b83421115610b2357836040517f62791302000000000000000000000000000000000000000000000000000000008152600401610b1a9190611edf565b60405180910390fd5b5f7f6e71edae12b1b97f4d1f60370fef10105fa2faae0126114a169c64845d6126c9888888610b518c6113b2565b89604051602001610b67969594939291906125c6565b6040516020818303038152906040528051906020012090505f610b8982611405565b90505f610b988287878761141e565b90508973ffffffffffffffffffffffffffffffffffffffff168173ffffffffffffffffffffffffffffffffffffffff1614610c0c57808a6040517f4b800e46000000000000000000000000000000000000000000000000000000008152600401610c03929190612625565b60405180910390fd5b610c178a8a8a610e55565b50505050505050505050565b5f60015f8473ffffffffffffffffffffffffffffffffffffffff1673ffffffffffffffffffffffffffffffffffffffff1681526020019081526020015f205f8373ffffffffffffffffffffffffffffffffffffffff1673ffffffffffffffffffffffffffffffffffffffff1681526020019081526020015f2054905092915050565b5f600a5f9054906101000a900473ffffffffffffffffffffffffffffffffffffffff16905090565b610cd56110a0565b8273ffffffffffffffffffffffffffffffffffffffff1663a9059cbb83836040518363ffffffff1660e01b8152600401610d1092919061264c565b6020604051808303815f875af1158015610d2c573d5f803e3d5ffd5b505050506040513d601f19601f82011682018060405250810190610d50919061269d565b508173ffffffffffffffffffffffffffffffffffffffff168373ffffffffffffffffffffffffffffffffffffffff167f401f439d865a766757ec78675925bd67198d5e78805aa41691b34b5d6a6cbbe683604051610dae9190611edf565b60405180910390a3505050565b6a36df8dec4229fb4810000081565b610dd26110a0565b5f73ffffffffffffffffffffffffffffffffffffffff168173ffffffffffffffffffffffffffffffffffffffff1603610e42575f6040517f1e4fbdf7000000000000000000000000000000000000000000000000000000008152600401610e399190612185565b60405180910390fd5b610e4b81611213565b50565b5f33905090565b610e62838383600161144c565b505050565b5f610e728484610c23565b90507fffffffffffffffffffffffffffffffffffffffffffffffffffffffffffffffff811015610ef45781811015610ee5578281836040517ffb8f41b2000000000000000000000000000000000000000000000000000000008152600401610edc939291906126c8565b60405180910390fd5b610ef384848484035f61144c565b5b50505050565b5f73ffffffffffffffffffffffffffffffffffffffff168373ffffffffffffffffffffffffffffffffffffffff1603610f6a575f6040517f96c6fd1e000000000000000000000000000000000000000000000000000000008152600401610f619190612185565b60405180910390fd5b5f73ffffffffffffffffffffffffffffffffffffffff168273ffffffffffffffffffffffffffffffffffffffff1603610fda575f6040517fec442f05000000000000000000000000000000000000000000000000000000008152600401610fd19190612185565b60405180910390fd5b610fe583838361161b565b505050565b5f7f000000000000000000000000000000000000000000000000000000000000000073ffffffffffffffffffffffffffffffffffffffff163073ffffffffffffffffffffffffffffffffffffffff1614801561106557507f000000000000000000000000000000000000000000000000000000000000000046145b15611092577f0000000000000000000000000000000000000000000000000000000000000000905061109d565b61109a611834565b90505b90565b6110a8610e4e565b73ffffffffffffffffffffffffffffffffffffffff166110c66108ea565b73ffffffffffffffffffffffffffffffffffffffff1614611125576110e9610e4e565b6040517f118cdaa700000000000000000000000000000000000000000000000000000000815260040161111c9190612185565b60405180910390fd5b565b60026009540361116c576040517f08c379a000000000000000000000000000000000000000000000000000000000815260040161116390612747565b60405180910390fd5b6002600981905550565b5f73ffffffffffffffffffffffffffffffffffffffff168273ffffffffffffffffffffffffffffffffffffffff16036111e6575f6040517fec442f050000000000000000000000000000000000000000000000000000000081526004016111dd9190612185565b60405180910390fd5b6111f15f838361161b565b5050565b6001600981905550565b61121061120a610e4e565b826118c9565b50565b5f60085f9054906101000a900473ffffffffffffffffffffffffffffffffffffffff1690508160085f6101000a81548173ffffffffffffffffffffffffffffffffffffffff021916908373ffffffffffffffffffffffffffffffffffffffff1602179055508173ffffffffffffffffffffffffffffffffffffffff168173ffffffffffffffffffffffffffffffffffffffff167f8be0079c531659141344cd1fd0a4f28419497f9722a3daafe3b4186f6b6457e060405160405180910390a35050565b6112e8826112e2610e4e565b83610e67565b6112f282826118c9565b5050565b5f60075f8373ffffffffffffffffffffffffffffffffffffffff1673ffffffffffffffffffffffffffffffffffffffff1681526020019081526020015f20549050919050565b606061137260057f000000000000000000000000000000000000000000000000000000000000000061194890919063ffffffff16565b905090565b60606113ad60067f000000000000000000000000000000000000000000000000000000000000000061194890919063ffffffff16565b905090565b5f60075f8373ffffffffffffffffffffffffffffffffffffffff1673ffffffffffffffffffffffffffffffffffffffff1681526020019081526020015f205f815480929190600101919050559050919050565b5f611417611411610fea565b836119f5565b9050919050565b5f805f8061142e88888888611a35565b92509250925061143e8282611b1c565b829350505050949350505050565b5f73ffffffffffffffffffffffffffffffffffffffff168473ffffffffffffffffffffffffffffffffffffffff16036114bc575f6040517fe602df050000000000000000000000000000000000000000000000000000000081526004016114b39190612185565b60405180910390fd5b5f73ffffffffffffffffffffffffffffffffffffffff168373ffffffffffffffffffffffffffffffffffffffff160361152c575f6040517f94280d620000000000000000000000000000000000000000000000000000000081526004016115239190612185565b60405180910390fd5b8160015f8673ffffffffffffffffffffffffffffffffffffffff1673ffffffffffffffffffffffffffffffffffffffff1681526020019081526020015f205f8573ffffffffffffffffffffffffffffffffffffffff1673ffffffffffffffffffffffffffffffffffffffff1681526020019081526020015f20819055508015611615578273ffffffffffffffffffffffffffffffffffffffff168473ffffffffffffffffffffffffffffffffffffffff167f8c5be1e5ebec7d5bd14f71427d1e84f3dd0314c0f7b2291e5b200ac8c7c3b9258460405161160c9190611edf565b60405180910390a35b50505050565b5f73ffffffffffffffffffffffffffffffffffffffff168373ffffffffffffffffffffffffffffffffffffffff160361166b578060025f82825461165f91906123e2565b92505081905550611739565b5f805f8573ffffffffffffffffffffffffffffffffffffffff1673ffffffffffffffffffffffffffffffffffffffff1681526020019081526020015f20549050818110156116f4578381836040517fe450d38c0000000000000000000000000000000000000000000000000000000081526004016116eb939291906126c8565b60405180910390fd5b8181035f808673ffffffffffffffffffffffffffffffffffffffff1673ffffffffffffffffffffffffffffffffffffffff1681526020019081526020015f2081905550505b5f73ffffffffffffffffffffffffffffffffffffffff168273ffffffffffffffffffffffffffffffffffffffff1603611780578060025f82825403925050819055506117ca565b805f808473ffffffffffffffffffffffffffffffffffffffff1673ffffffffffffffffffffffffffffffffffffffff1681526020019081526020015f205f82825401925050819055505b8173ffffffffffffffffffffffffffffffffffffffff168373ffffffffffffffffffffffffffffffffffffffff167fddf252ad1be2c89b69c2b068fc378daa952ba7f163c4a11628f55a4df523b3ef836040516118279190611edf565b60405180910390a3505050565b5f7f8b73c3c69bb8fe3d512ecc4cf759cc79239f7b179b0ffacaa9a75d522b39400f7f00000000000000000000000000000000000000000000000000000000000000007f000000000000000000000000000000000000000000000000000000000000000046306040516020016118ae959493929190612765565b60405160208183030381529060405280519060200120905090565b5f73ffffffffffffffffffffffffffffffffffffffff168273ffffffffffffffffffffffffffffffffffffffff1603611939575f6040517f96c6fd1e0000000000000000000000000000000000000000000000000000000081526004016119309190612185565b60405180910390fd5b611944825f8361161b565b5050565b606060ff5f1b83146119645761195d83611c7e565b90506119ef565b81805461197090612385565b80601f016020809104026020016040519081016040528092919081815260200182805461199c90612385565b80156119e75780601f106119be576101008083540402835291602001916119e7565b820191905f5260205f20905b8154815290600101906020018083116119ca57829003601f168201915b505050505090505b92915050565b5f6040517f190100000000000000000000000000000000000000000000000000000000000081528360028201528260228201526042812091505092915050565b5f805f7f7fffffffffffffffffffffffffffffff5d576e7357a4501ddfe92f46681b20a0845f1c1115611a71575f600385925092509250611b12565b5f6001888888886040515f8152602001604052604051611a9494939291906127b6565b6020604051602081039080840390855afa158015611ab4573d5f803e3d5ffd5b5050506020604051035190505f73ffffffffffffffffffffffffffffffffffffffff168173ffffffffffffffffffffffffffffffffffffffff1603611b05575f60015f801b93509350935050611b12565b805f805f1b935093509350505b9450945094915050565b5f6003811115611b2f57611b2e6127f9565b5b826003811115611b4257611b416127f9565b5b0315611c7a5760016003811115611b5c57611b5b6127f9565b5b826003811115611b6f57611b6e6127f9565b5b03611ba6576040517ff645eedf00000000000000000000000000000000000000000000000000000000815260040160405180910390fd5b60026003811115611bba57611bb96127f9565b5b826003811115611bcd57611bcc6127f9565b5b03611c1157805f1c6040517ffce698f7000000000000000000000000000000000000000000000000000000008152600401611c089190611edf565b60405180910390fd5b600380811115611c2457611c236127f9565b5b826003811115611c3757611c366127f9565b5b03611c7957806040517fd78bce0c000000000000000000000000000000000000000000000000000000008152600401611c709190611f94565b60405180910390fd5b5b5050565b60605f611c8a83611cf0565b90505f602067ffffffffffffffff811115611ca857611ca761250b565b5b6040519080825280601f01601f191660200182016040528015611cda5781602001600182028036833780820191505090505b5090508181528360208201528092505050919050565b5f8060ff835f1c169050601f811115611d35576040517fb3512b0c00000000000000000000000000000000000000000000000000000000815260040160405180910390fd5b80915050919050565b5f81519050919050565b5f82825260208201905092915050565b8281835e5f83830152505050565b5f601f19601f8301169050919050565b5f611d8082611d3e565b611d8a8185611d48565b9350611d9a818560208601611d58565b611da381611d66565b840191505092915050565b5f6020820190508181035f830152611dc68184611d76565b905092915050565b5f80fd5b5f73ffffffffffffffffffffffffffffffffffffffff82169050919050565b5f611dfb82611dd2565b9050919050565b611e0b81611df1565b8114611e15575f80fd5b50565b5f81359050611e2681611e02565b92915050565b5f819050919050565b611e3e81611e2c565b8114611e48575f80fd5b50565b5f81359050611e5981611e35565b92915050565b5f8060408385031215611e7557611e74611dce565b5b5f611e8285828601611e18565b9250506020611e9385828601611e4b565b9150509250929050565b5f8115159050919050565b611eb181611e9d565b82525050565b5f602082019050611eca5f830184611ea8565b92915050565b611ed981611e2c565b82525050565b5f602082019050611ef25f830184611ed0565b92915050565b5f805f60608486031215611f0f57611f0e611dce565b5b5f611f1c86828701611e18565b9350506020611f2d86828701611e18565b9250506040611f3e86828701611e4b565b9150509250925092565b5f60ff82169050919050565b611f5d81611f48565b82525050565b5f602082019050611f765f830184611f54565b92915050565b5f819050919050565b611f8e81611f7c565b82525050565b5f602082019050611fa75f830184611f85565b92915050565b5f60208284031215611fc257611fc1611dce565b5b5f611fcf84828501611e4b565b91505092915050565b5f60208284031215611fed57611fec611dce565b5b5f611ffa84828501611e18565b91505092915050565b5f7fff0000000000000000000000000000000000000000000000000000000000000082169050919050565b61203781612003565b82525050565b61204681611df1565b82525050565b5f81519050919050565b5f82825260208201905092915050565b5f819050602082019050919050565b61207e81611e2c565b82525050565b5f61208f8383612075565b60208301905092915050565b5f602082019050919050565b5f6120b18261204c565b6120bb8185612056565b93506120c683612066565b805f5b838110156120f65781516120dd8882612084565b97506120e88361209b565b9250506001810190506120c9565b5085935050505092915050565b5f60e0820190506121165f83018a61202e565b81810360208301526121288189611d76565b9050818103604083015261213c8188611d76565b905061214b6060830187611ed0565b612158608083018661203d565b61216560a0830185611f85565b81810360c083015261217781846120a7565b905098975050505050505050565b5f6020820190506121985f83018461203d565b92915050565b6121a781611f48565b81146121b1575f80fd5b50565b5f813590506121c28161219e565b92915050565b6121d181611f7c565b81146121db575f80fd5b50565b5f813590506121ec816121c8565b92915050565b5f805f805f805f60e0888a03121561220d5761220c611dce565b5b5f61221a8a828b01611e18565b975050602061222b8a828b01611e18565b965050604061223c8a828b01611e4b565b955050606061224d8a828b01611e4b565b945050608061225e8a828b016121b4565b93505060a061226f8a828b016121de565b92505060c06122808a828b016121de565b91505092959891949750929550565b5f80604083850312156122a5576122a4611dce565b5b5f6122b285828601611e18565b92505060206122c385828601611e18565b9150509250929050565b5f6122d782611df1565b9050919050565b6122e7816122cd565b81146122f1575f80fd5b50565b5f81359050612302816122de565b92915050565b5f805f6060848603121561231f5761231e611dce565b5b5f61232c868287016122f4565b935050602061233d86828701611e18565b925050604061234e86828701611e4b565b9150509250925092565b7f4e487b71000000000000000000000000000000000000000000000000000000005f52602260045260245ffd5b5f600282049050600182168061239c57607f821691505b6020821081036123af576123ae612358565b5b50919050565b7f4e487b71000000000000000000000000000000000000000000000000000000005f52601160045260245ffd5b5f6123ec82611e2c565b91506123f783611e2c565b925082820190508082111561240f5761240e6123b5565b5b92915050565b7f5772617070656452353a206361702065786365656465640000000000000000005f82015250565b5f612449601783611d48565b915061245482612415565b602082019050919050565b5f6020820190508181035f8301526124768161243d565b9050919050565b7f5772617070656452353a2063616c6c6572206973206e6f74207468652070656e5f8201527f64696e67206f776e657200000000000000000000000000000000000000000000602082015250565b5f6124d7602a83611d48565b91506124e28261247d565b604082019050919050565b5f6020820190508181035f830152612504816124cb565b9050919050565b7f4e487b71000000000000000000000000000000000000000000000000000000005f52604160045260245ffd5b7f5772617070656452353a206e6577206f776e6572206973207a65726f206164645f8201527f7265737300000000000000000000000000000000000000000000000000000000602082015250565b5f612592602483611d48565b915061259d82612538565b604082019050919050565b5f6020820190508181035f8301526125bf81612586565b9050919050565b5f60c0820190506125d95f830189611f85565b6125e6602083018861203d565b6125f3604083018761203d565b6126006060830186611ed0565b61260d6080830185611ed0565b61261a60a0830184611ed0565b979650505050505050565b5f6040820190506126385f83018561203d565b612645602083018461203d565b9392505050565b5f60408201905061265f5f83018561203d565b61266c6020830184611ed0565b9392505050565b61267c81611e9d565b8114612686575f80fd5b50565b5f8151905061269781612673565b92915050565b5f602082840312156126b2576126b1611dce565b5b5f6126bf84828501612689565b91505092915050565b5f6060820190506126db5f83018661203d565b6126e86020830185611ed0565b6126f56040830184611ed0565b949350505050565b7f5265656e7472616e637947756172643a207265656e7472616e742063616c6c005f82015250565b5f612731601f83611d48565b915061273c826126fd565b602082019050919050565b5f6020820190508181035f83015261275e81612725565b9050919050565b5f60a0820190506127785f830188611f85565b6127856020830187611f85565b6127926040830186611f85565b61279f6060830185611ed0565b6127ac608083018461203d565b9695505050505050565b5f6080820190506127c95f830187611f85565b6127d66020830186611f54565b6127e36040830185611f85565b6127f06060830184611f85565b95945050505050565b7f4e487b71000000000000000000000000000000000000000000000000000000005f52602160045260245ffdfea264697066735822122046ec330ce2a86dce04904d74095c3d856e12831b325cd44a1b2dd954caf7f4ae64736f6c634300081a0033",
		"opcodes": "PUSH1 0x80 PUSH1 0x40 MSTORE CALLVALUE DUP1 ISZERO PUSH2 0xF JUMPI PUSH0 DUP1 REVERT JUMPDEST POP PUSH1 0x4 CALLDATASIZE LT PUSH2 0x156 JUMPI PUSH0 CALLDATALOAD PUSH1 0xE0 SHR DUP1 PUSH4 0x7ECEBE00 GT PUSH2 0xC1 JUMPI DUP1 PUSH4 0xD505ACCF GT PUSH2 0x7A JUMPI DUP1 PUSH4 0xD505ACCF EQ PUSH2 0x3A6 JUMPI DUP1 PUSH4 0xDD62ED3E EQ PUSH2 0x3C2 JUMPI DUP1 PUSH4 0xE30C3978 EQ PUSH2 0x3F2 JUMPI DUP1 PUSH4 0xEB8F4C4A EQ PUSH2 0x410 JUMPI DUP1 PUSH4 0xEC81B483 EQ PUSH2 0x42C JUMPI DUP1 PUSH4 0xF2FDE38B EQ PUSH2 0x44A JUMPI PUSH2 0x156 JUMP JUMPDEST DUP1 PUSH4 0x7ECEBE00 EQ PUSH2 0x2CA JUMPI DUP1 PUSH4 0x84B0196E EQ PUSH2 0x2FA JUMPI DUP1 PUSH4 0x8DA5CB5B EQ PUSH2 0x31E JUMPI DUP1 PUSH4 0x95D89B41 EQ PUSH2 0x33C JUMPI DUP1 PUSH4 0xA9059CBB EQ PUSH2 0x35A JUMPI DUP1 PUSH4 0xC0B6F561 EQ PUSH2 0x38A JUMPI PUSH2 0x156 JUMP JUMPDEST DUP1 PUSH4 0x40C10F19 GT PUSH2 0x113 JUMPI DUP1 PUSH4 0x40C10F19 EQ PUSH2 0x232 JUMPI DUP1 PUSH4 0x42966C68 EQ PUSH2 0x24E JUMPI DUP1 PUSH4 0x70A08231 EQ PUSH2 0x26A JUMPI DUP1 PUSH4 0x715018A6 EQ PUSH2 0x29A JUMPI DUP1 PUSH4 0x79BA5097 EQ PUSH2 0x2A4 JUMPI DUP1 PUSH4 0x79CC6790 EQ PUSH2 0x2AE JUMPI PUSH2 0x156 JUMP JUMPDEST DUP1 PUSH4 0x6FDDE03 EQ PUSH2 0x15A JUMPI DUP1 PUSH4 0x95EA7B3 EQ PUSH2 0x178 JUMPI DUP1 PUSH4 0x18160DDD EQ PUSH2 0x1A8 JUMPI DUP1 PUSH4 0x23B872DD EQ PUSH2 0x1C6 JUMPI DUP1 PUSH4 0x313CE567 EQ PUSH2 0x1F6 JUMPI DUP1 PUSH4 0x3644E515 EQ PUSH2 0x214 JUMPI JUMPDEST PUSH0 DUP1 REVERT JUMPDEST PUSH2 0x162 PUSH2 0x466 JUMP JUMPDEST PUSH1 0x40 MLOAD PUSH2 0x16F SWAP2 SWAP1 PUSH2 0x1DAE JUMP JUMPDEST PUSH1 0x40 MLOAD DUP1 SWAP2 SUB SWAP1 RETURN JUMPDEST PUSH2 0x192 PUSH1 0x4 DUP1 CALLDATASIZE SUB DUP2 ADD SWAP1 PUSH2 0x18D SWAP2 SWAP1 PUSH2 0x1E5F JUMP JUMPDEST PUSH2 0x4F6 JUMP JUMPDEST PUSH1 0x40 MLOAD PUSH2 0x19F SWAP2 SWAP1 PUSH2 0x1EB7 JUMP JUMPDEST PUSH1 0x40 MLOAD DUP1 SWAP2 SUB SWAP1 RETURN JUMPDEST PUSH2 0x1B0 PUSH2 0x518 JUMP JUMPDEST PUSH1 0x40 MLOAD PUSH2 0x1BD SWAP2 SWAP1 PUSH2 0x1EDF JUMP JUMPDEST PUSH1 0x40 MLOAD DUP1 SWAP2 SUB SWAP1 RETURN JUMPDEST PUSH2 0x1E0 PUSH1 0x4 DUP1 CALLDATASIZE SUB DUP2 ADD SWAP1 PUSH2 0x1DB SWAP2 SWAP1 PUSH2 0x1EF8 JUMP JUMPDEST PUSH2 0x521 JUMP JUMPDEST PUSH1 0x40 MLOAD PUSH2 0x1ED SWAP2 SWAP1 PUSH2 0x1EB7 JUMP JUMPDEST PUSH1 0x40 MLOAD DUP1 SWAP2 SUB SWAP1 RETURN JUMPDEST PUSH2 0x1FE PUSH2 0x54F JUMP JUMPDEST PUSH1 0x40 MLOAD PUSH2 0x20B SWAP2 SWAP1 PUSH2 0x1F63 JUMP JUMPDEST PUSH1 0x40 MLOAD DUP1 SWAP2 SUB SWAP1 RETURN JUMPDEST PUSH2 0x21C PUSH2 0x557 JUMP JUMPDEST PUSH1 0x40 MLOAD PUSH2 0x229 SWAP2 SWAP1 PUSH2 0x1F94 JUMP JUMPDEST PUSH1 0x40 MLOAD DUP1 SWAP2 SUB SWAP1 RETURN JUMPDEST PUSH2 0x24C PUSH1 0x4 DUP1 CALLDATASIZE SUB DUP2 ADD SWAP1 PUSH2 0x247 SWAP2 SWAP1 PUSH2 0x1E5F JUMP JUMPDEST PUSH2 0x565 JUMP JUMPDEST STOP JUMPDEST PUSH2 0x268 PUSH1 0x4 DUP1 CALLDATASIZE SUB DUP2 ADD SWAP1 PUSH2 0x263 SWAP2 SWAP1 PUSH2 0x1FAD JUMP JUMPDEST PUSH2 0x639 JUMP JUMPDEST STOP JUMPDEST PUSH2 0x284 PUSH1 0x4 DUP1 CALLDATASIZE SUB DUP2 ADD SWAP1 PUSH2 0x27F SWAP2 SWAP1 PUSH2 0x1FD8 JUMP JUMPDEST PUSH2 0x69A JUMP JUMPDEST PUSH1 0x40 MLOAD PUSH2 0x291 SWAP2 SWAP1 PUSH2 0x1EDF JUMP JUMPDEST PUSH1 0x40 MLOAD DUP1 SWAP2 SUB SWAP1 RETURN JUMPDEST PUSH2 0x2A2 PUSH2 0x6DF JUMP JUMPDEST STOP JUMPDEST PUSH2 0x2AC PUSH2 0x6F2 JUMP JUMPDEST STOP JUMPDEST PUSH2 0x2C8 PUSH1 0x4 DUP1 CALLDATASIZE SUB DUP2 ADD SWAP1 PUSH2 0x2C3 SWAP2 SWAP1 PUSH2 0x1E5F JUMP JUMPDEST PUSH2 0x7D8 JUMP JUMPDEST STOP JUMPDEST PUSH2 0x2E4 PUSH1 0x4 DUP1 CALLDATASIZE SUB DUP2 ADD SWAP1 PUSH2 0x2DF SWAP2 SWAP1 PUSH2 0x1FD8 JUMP JUMPDEST PUSH2 0x834 JUMP JUMPDEST PUSH1 0x40 MLOAD PUSH2 0x2F1 SWAP2 SWAP1 PUSH2 0x1EDF JUMP JUMPDEST PUSH1 0x40 MLOAD DUP1 SWAP2 SUB SWAP1 RETURN JUMPDEST PUSH2 0x302 PUSH2 0x845 JUMP JUMPDEST PUSH1 0x40 MLOAD PUSH2 0x315 SWAP8 SWAP7 SWAP6 SWAP5 SWAP4 SWAP3 SWAP2 SWAP1 PUSH2 0x2103 JUMP JUMPDEST PUSH1 0x40 MLOAD DUP1 SWAP2 SUB SWAP1 RETURN JUMPDEST PUSH2 0x326 PUSH2 0x8EA JUMP JUMPDEST PUSH1 0x40 MLOAD PUSH2 0x333 SWAP2 SWAP1 PUSH2 0x2185 JUMP JUMPDEST PUSH1 0x40 MLOAD DUP1 SWAP2 SUB SWAP1 RETURN JUMPDEST PUSH2 0x344 PUSH2 0x912 JUMP JUMPDEST PUSH1 0x40 MLOAD PUSH2 0x351 SWAP2 SWAP1 PUSH2 0x1DAE JUMP JUMPDEST PUSH1 0x40 MLOAD DUP1 SWAP2 SUB SWAP1 RETURN JUMPDEST PUSH2 0x374 PUSH1 0x4 DUP1 CALLDATASIZE SUB DUP2 ADD SWAP1 PUSH2 0x36F SWAP2 SWAP1 PUSH2 0x1E5F JUMP JUMPDEST PUSH2 0x9A2 JUMP JUMPDEST PUSH1 0x40 MLOAD PUSH2 0x381 SWAP2 SWAP1 PUSH2 0x1EB7 JUMP JUMPDEST PUSH1 0x40 MLOAD DUP1 SWAP2 SUB SWAP1 RETURN JUMPDEST PUSH2 0x3A4 PUSH1 0x4 DUP1 CALLDATASIZE SUB DUP2 ADD SWAP1 PUSH2 0x39F SWAP2 SWAP1 PUSH2 0x1FD8 JUMP JUMPDEST PUSH2 0x9C4 JUMP JUMPDEST STOP JUMPDEST PUSH2 0x3C0 PUSH1 0x4 DUP1 CALLDATASIZE SUB DUP2 ADD SWAP1 PUSH2 0x3BB SWAP2 SWAP1 PUSH2 0x21F2 JUMP JUMPDEST PUSH2 0xADE JUMP JUMPDEST STOP JUMPDEST PUSH2 0x3DC PUSH1 0x4 DUP1 CALLDATASIZE SUB DUP2 ADD SWAP1 PUSH2 0x3D7 SWAP2 SWAP1 PUSH2 0x228F JUMP JUMPDEST PUSH2 0xC23 JUMP JUMPDEST PUSH1 0x40 MLOAD PUSH2 0x3E9 SWAP2 SWAP1 PUSH2 0x1EDF JUMP JUMPDEST PUSH1 0x40 MLOAD DUP1 SWAP2 SUB SWAP1 RETURN JUMPDEST PUSH2 0x3FA PUSH2 0xCA5 JUMP JUMPDEST PUSH1 0x40 MLOAD PUSH2 0x407 SWAP2 SWAP1 PUSH2 0x2185 JUMP JUMPDEST PUSH1 0x40 MLOAD DUP1 SWAP2 SUB SWAP1 RETURN JUMPDEST PUSH2 0x42A PUSH1 0x4 DUP1 CALLDATASIZE SUB DUP2 ADD SWAP1 PUSH2 0x425 SWAP2 SWAP1 PUSH2 0x2308 JUMP JUMPDEST PUSH2 0xCCD JUMP JUMPDEST STOP JUMPDEST PUSH2 0x434 PUSH2 0xDBB JUMP JUMPDEST PUSH1 0x40 MLOAD PUSH2 0x441 SWAP2 SWAP1 PUSH2 0x1EDF JUMP JUMPDEST PUSH1 0x40 MLOAD DUP1 SWAP2 SUB SWAP1 RETURN JUMPDEST PUSH2 0x464 PUSH1 0x4 DUP1 CALLDATASIZE SUB DUP2 ADD SWAP1 PUSH2 0x45F SWAP2 SWAP1 PUSH2 0x1FD8 JUMP JUMPDEST PUSH2 0xDCA JUMP JUMPDEST STOP JUMPDEST PUSH1 0x60 PUSH1 0x3 DUP1 SLOAD PUSH2 0x475 SWAP1 PUSH2 0x2385 JUMP JUMPDEST DUP1 PUSH1 0x1F ADD PUSH1 0x20 DUP1 SWAP2 DIV MUL PUSH1 0x20 ADD PUSH1 0x40 MLOAD SWAP1 DUP2 ADD PUSH1 0x40 MSTORE DUP1 SWAP3 SWAP2 SWAP1 DUP2 DUP2 MSTORE PUSH1 0x20 ADD DUP3 DUP1 SLOAD PUSH2 0x4A1 SWAP1 PUSH2 0x2385 JUMP JUMPDEST DUP1 ISZERO PUSH2 0x4EC JUMPI DUP1 PUSH1 0x1F LT PUSH2 0x4C3 JUMPI PUSH2 0x100 DUP1 DUP4 SLOAD DIV MUL DUP4 MSTORE SWAP2 PUSH1 0x20 ADD SWAP2 PUSH2 0x4EC JUMP JUMPDEST DUP3 ADD SWAP2 SWAP1 PUSH0 MSTORE PUSH1 0x20 PUSH0 KECCAK256 SWAP1 JUMPDEST DUP2 SLOAD DUP2 MSTORE SWAP1 PUSH1 0x1 ADD SWAP1 PUSH1 0x20 ADD DUP1 DUP4 GT PUSH2 0x4CF JUMPI DUP3 SWAP1 SUB PUSH1 0x1F AND DUP3 ADD SWAP2 JUMPDEST POP POP POP POP POP SWAP1 POP SWAP1 JUMP JUMPDEST PUSH0 DUP1 PUSH2 0x500 PUSH2 0xE4E JUMP JUMPDEST SWAP1 POP PUSH2 0x50D DUP2 DUP6 DUP6 PUSH2 0xE55 JUMP JUMPDEST PUSH1 0x1 SWAP2 POP POP SWAP3 SWAP2 POP POP JUMP JUMPDEST PUSH0 PUSH1 0x2 SLOAD SWAP1 POP SWAP1 JUMP JUMPDEST PUSH0 DUP1 PUSH2 0x52B PUSH2 0xE4E JUMP JUMPDEST SWAP1 POP PUSH2 0x538 DUP6 DUP3 DUP6 PUSH2 0xE67 JUMP JUMPDEST PUSH2 0x543 DUP6 DUP6 DUP6 PUSH2 0xEFA JUMP JUMPDEST PUSH1 0x1 SWAP2 POP POP SWAP4 SWAP3 POP POP POP JUMP JUMPDEST PUSH0 PUSH1 0x12 SWAP1 POP SWAP1 JUMP JUMPDEST PUSH0 PUSH2 0x560 PUSH2 0xFEA JUMP JUMPDEST SWAP1 POP SWAP1 JUMP JUMPDEST PUSH2 0x56D PUSH2 0x10A0 JUMP JUMPDEST PUSH2 0x575 PUSH2 0x1127 JUMP JUMPDEST PUSH11 0x36DF8DEC4229FB48100000 DUP2 PUSH2 0x58A PUSH2 0x518 JUMP JUMPDEST PUSH2 0x594 SWAP2 SWAP1 PUSH2 0x23E2 JUMP JUMPDEST GT ISZERO PUSH2 0x5D5 JUMPI PUSH1 0x40 MLOAD PUSH32 0x8C379A000000000000000000000000000000000000000000000000000000000 DUP2 MSTORE PUSH1 0x4 ADD PUSH2 0x5CC SWAP1 PUSH2 0x245F JUMP JUMPDEST PUSH1 0x40 MLOAD DUP1 SWAP2 SUB SWAP1 REVERT JUMPDEST PUSH2 0x5DF DUP3 DUP3 PUSH2 0x1176 JUMP JUMPDEST DUP2 PUSH20 0xFFFFFFFFFFFFFFFFFFFFFFFFFFFFFFFFFFFFFFFF AND PUSH32 0x3F2C9D57C068687834F0DE942A9BABB9E5ACAB57D516D3480A3C16EE165A4273 DUP3 PUSH1 0x40 MLOAD PUSH2 0x625 SWAP2 SWAP1 PUSH2 0x1EDF JUMP JUMPDEST PUSH1 0x40 MLOAD DUP1 SWAP2 SUB SWAP1 LOG2 PUSH2 0x635 PUSH2 0x11F5 JUMP JUMPDEST POP POP JUMP JUMPDEST PUSH2 0x642 DUP2 PUSH2 0x11FF JUMP JUMPDEST PUSH2 0x64A PUSH2 0xE4E JUMP JUMPDEST PUSH20 0xFFFFFFFFFFFFFFFFFFFFFFFFFFFFFFFFFFFFFFFF AND PUSH32 0xFD38818F5291BF0BB3A2A48AADC06BA8757865D1DABD804585338AAB3009DCB6 DUP3 PUSH1 0x40 MLOAD PUSH2 0x68F SWAP2 SWAP1 PUSH2 0x1EDF JUMP JUMPDEST PUSH1 0x40 MLOAD DUP1 SWAP2 SUB SWAP1 LOG2 POP JUMP JUMPDEST PUSH0 DUP1 PUSH0 DUP4 PUSH20 0xFFFFFFFFFFFFFFFFFFFFFFFFFFFFFFFFFFFFFFFF AND PUSH20 0xFFFFFFFFFFFFFFFFFFFFFFFFFFFFFFFFFFFFFFFF AND DUP2 MSTORE PUSH1 0x20 ADD SWAP1 DUP2 MSTORE PUSH1 0x20 ADD PUSH0 KECCAK256 SLOAD SWAP1 POP SWAP2 SWAP1 POP JUMP JUMPDEST PUSH2 0x6E7 PUSH2 0x10A0 JUMP JUMPDEST PUSH2 0x6F0 PUSH0 PUSH2 0x1213 JUMP JUMPDEST JUMP JUMPDEST PUSH0 PUSH2 0x6FB PUSH2 0xE4E JUMP JUMPDEST SWAP1 POP PUSH1 0xA PUSH0 SWAP1 SLOAD SWAP1 PUSH2 0x100 EXP SWAP1 DIV PUSH20 0xFFFFFFFFFFFFFFFFFFFFFFFFFFFFFFFFFFFFFFFF AND PUSH20 0xFFFFFFFFFFFFFFFFFFFFFFFFFFFFFFFFFFFFFFFF AND DUP2 PUSH20 0xFFFFFFFFFFFFFFFFFFFFFFFFFFFFFFFFFFFFFFFF AND EQ PUSH2 0x78C JUMPI PUSH1 0x40 MLOAD PUSH32 0x8C379A000000000000000000000000000000000000000000000000000000000 DUP2 MSTORE PUSH1 0x4 ADD PUSH2 0x783 SWAP1 PUSH2 0x24ED JUMP JUMPDEST PUSH1 0x40 MLOAD DUP1 SWAP2 SUB SWAP1 REVERT JUMPDEST PUSH0 PUSH1 0xA PUSH0 PUSH2 0x100 EXP DUP2 SLOAD DUP2 PUSH20 0xFFFFFFFFFFFFFFFFFFFFFFFFFFFFFFFFFFFFFFFF MUL NOT AND SWAP1 DUP4 PUSH20 0xFFFFFFFFFFFFFFFFFFFFFFFFFFFFFFFFFFFFFFFF AND MUL OR SWAP1 SSTORE POP PUSH2 0x7D5 DUP2 PUSH2 0x1213 JUMP JUMPDEST POP JUMP JUMPDEST PUSH2 0x7E2 DUP3 DUP3 PUSH2 0x12D6 JUMP JUMPDEST DUP2 PUSH20 0xFFFFFFFFFFFFFFFFFFFFFFFFFFFFFFFFFFFFFFFF AND PUSH32 0xFD38818F5291BF0BB3A2A48AADC06BA8757865D1DABD804585338AAB3009DCB6 DUP3 PUSH1 0x40 MLOAD PUSH2 0x828 SWAP2 SWAP1 PUSH2 0x1EDF JUMP JUMPDEST PUSH1 0x40 MLOAD DUP1 SWAP2 SUB SWAP1 LOG2 POP POP JUMP JUMPDEST PUSH0 PUSH2 0x83E DUP3 PUSH2 0x12F6 JUMP JUMPDEST SWAP1 POP SWAP2 SWAP1 POP JUMP JUMPDEST PUSH0 PUSH1 0x60 DUP1 PUSH0 DUP1 PUSH0 PUSH1 0x60 PUSH2 0x856 PUSH2 0x133C JUMP JUMPDEST PUSH2 0x85E PUSH2 0x1377 JUMP JUMPDEST CHAINID ADDRESS PUSH0 DUP1 SHL PUSH0 PUSH8 0xFFFFFFFFFFFFFFFF DUP2 GT ISZERO PUSH2 0x87D JUMPI PUSH2 0x87C PUSH2 0x250B JUMP JUMPDEST JUMPDEST PUSH1 0x40 MLOAD SWAP1 DUP1 DUP3 MSTORE DUP1 PUSH1 0x20 MUL PUSH1 0x20 ADD DUP3 ADD PUSH1 0x40 MSTORE DUP1 ISZERO PUSH2 0x8AB JUMPI DUP2 PUSH1 0x20 ADD PUSH1 0x20 DUP3 MUL DUP1 CALLDATASIZE DUP4 CALLDATACOPY DUP1 DUP3 ADD SWAP2 POP POP SWAP1 POP JUMPDEST POP PUSH32 0xF00000000000000000000000000000000000000000000000000000000000000 SWAP6 SWAP5 SWAP4 SWAP3 SWAP2 SWAP1 SWAP7 POP SWAP7 POP SWAP7 POP SWAP7 POP SWAP7 POP SWAP7 POP SWAP7 POP SWAP1 SWAP2 SWAP3 SWAP4 SWAP5 SWAP6 SWAP7 JUMP JUMPDEST PUSH0 PUSH1 0x8 PUSH0 SWAP1 SLOAD SWAP1 PUSH2 0x100 EXP SWAP1 DIV PUSH20 0xFFFFFFFFFFFFFFFFFFFFFFFFFFFFFFFFFFFFFFFF AND SWAP1 POP SWAP1 JUMP JUMPDEST PUSH1 0x60 PUSH1 0x4 DUP1 SLOAD PUSH2 0x921 SWAP1 PUSH2 0x2385 JUMP JUMPDEST DUP1 PUSH1 0x1F ADD PUSH1 0x20 DUP1 SWAP2 DIV MUL PUSH1 0x20 ADD PUSH1 0x40 MLOAD SWAP1 DUP2 ADD PUSH1 0x40 MSTORE DUP1 SWAP3 SWAP2 SWAP1 DUP2 DUP2 MSTORE PUSH1 0x20 ADD DUP3 DUP1 SLOAD PUSH2 0x94D SWAP1 PUSH2 0x2385 JUMP JUMPDEST DUP1 ISZERO PUSH2 0x998 JUMPI DUP1 PUSH1 0x1F LT PUSH2 0x96F JUMPI PUSH2 0x100 DUP1 DUP4 SLOAD DIV MUL DUP4 MSTORE SWAP2 PUSH1 0x20 ADD SWAP2 PUSH2 0x998 JUMP JUMPDEST DUP3 ADD SWAP2 SWAP1 PUSH0 MSTORE PUSH1 0x20 PUSH0 KECCAK256 SWAP1 JUMPDEST DUP2 SLOAD DUP2 MSTORE SWAP1 PUSH1 0x1 ADD SWAP1 PUSH1 0x20 ADD DUP1 DUP4 GT PUSH2 0x97B JUMPI DUP3 SWAP1 SUB PUSH1 0x1F AND DUP3 ADD SWAP2 JUMPDEST POP POP POP POP POP SWAP1 POP SWAP1 JUMP JUMPDEST PUSH0 DUP1 PUSH2 0x9AC PUSH2 0xE4E JUMP JUMPDEST SWAP1 POP PUSH2 0x9B9 DUP2 DUP6 DUP6 PUSH2 0xEFA JUMP JUMPDEST PUSH1 0x1 SWAP2 POP POP SWAP3 SWAP2 POP POP JUMP JUMPDEST PUSH2 0x9CC PUSH2 0x10A0 JUMP JUMPDEST PUSH0 PUSH20 0xFFFFFFFFFFFFFFFFFFFFFFFFFFFFFFFFFFFFFFFF AND DUP2 PUSH20 0xFFFFFFFFFFFFFFFFFFFFFFFFFFFFFFFFFFFFFFFF AND SUB PUSH2 0xA3A JUMPI PUSH1 0x40 MLOAD PUSH32 0x8C379A000000000000000000000000000000000000000000000000000000000 DUP2 MSTORE PUSH1 0x4 ADD PUSH2 0xA31 SWAP1 PUSH2 0x25A8 JUMP JUMPDEST PUSH1 0x40 MLOAD DUP1 SWAP2 SUB SWAP1 REVERT JUMPDEST DUP1 PUSH1 0xA PUSH0 PUSH2 0x100 EXP DUP2 SLOAD DUP2 PUSH20 0xFFFFFFFFFFFFFFFFFFFFFFFFFFFFFFFFFFFFFFFF MUL NOT AND SWAP1 DUP4 PUSH20 0xFFFFFFFFFFFFFFFFFFFFFFFFFFFFFFFFFFFFFFFF AND MUL OR SWAP1 SSTORE POP DUP1 PUSH20 0xFFFFFFFFFFFFFFFFFFFFFFFFFFFFFFFFFFFFFFFF AND PUSH2 0xA99 PUSH2 0x8EA JUMP JUMPDEST PUSH20 0xFFFFFFFFFFFFFFFFFFFFFFFFFFFFFFFFFFFFFFFF AND PUSH32 0x38D16B8CAC22D99FC7C124B9CD0DE2D3FA1FAEF420BFE791D8C362D765E22700 PUSH1 0x40 MLOAD PUSH1 0x40 MLOAD DUP1 SWAP2 SUB SWAP1 LOG3 POP JUMP JUMPDEST DUP4 TIMESTAMP GT ISZERO PUSH2 0xB23 JUMPI DUP4 PUSH1 0x40 MLOAD PUSH32 0x6279130200000000000000000000000000000000000000000000000000000000 DUP2 MSTORE PUSH1 0x4 ADD PUSH2 0xB1A SWAP2 SWAP1 PUSH2 0x1EDF JUMP JUMPDEST PUSH1 0x40 MLOAD DUP1 SWAP2 SUB SWAP1 REVERT JUMPDEST PUSH0 PUSH32 0x6E71EDAE12B1B97F4D1F60370FEF10105FA2FAAE0126114A169C64845D6126C9 DUP9 DUP9 DUP9 PUSH2 0xB51 DUP13 PUSH2 0x13B2 JUMP JUMPDEST DUP10 PUSH1 0x40 MLOAD PUSH1 0x20 ADD PUSH2 0xB67 SWAP7 SWAP6 SWAP5 SWAP4 SWAP3 SWAP2 SWAP1 PUSH2 0x25C6 JUMP JUMPDEST PUSH1 0x40 MLOAD PUSH1 0x20 DUP2 DUP4 SUB SUB DUP2 MSTORE SWAP1 PUSH1 0x40 MSTORE DUP1 MLOAD SWAP1 PUSH1 0x20 ADD KECCAK256 SWAP1 POP PUSH0 PUSH2 0xB89 DUP3 PUSH2 0x1405 JUMP JUMPDEST SWAP1 POP PUSH0 PUSH2 0xB98 DUP3 DUP8 DUP8 DUP8 PUSH2 0x141E JUMP JUMPDEST SWAP1 POP DUP10 PUSH20 0xFFFFFFFFFFFFFFFFFFFFFFFFFFFFFFFFFFFFFFFF AND DUP2 PUSH20 0xFFFFFFFFFFFFFFFFFFFFFFFFFFFFFFFFFFFFFFFF AND EQ PUSH2 0xC0C JUMPI DUP1 DUP11 PUSH1 0x40 MLOAD PUSH32 0x4B800E4600000000000000000000000000000000000000000000000000000000 DUP2 MSTORE PUSH1 0x4 ADD PUSH2 0xC03 SWAP3 SWAP2 SWAP1 PUSH2 0x2625 JUMP JUMPDEST PUSH1 0x40 MLOAD DUP1 SWAP2 SUB SWAP1 REVERT JUMPDEST PUSH2 0xC17 DUP11 DUP11 DUP11 PUSH2 0xE55 JUMP JUMPDEST POP POP POP POP POP POP POP POP POP POP JUMP JUMPDEST PUSH0 PUSH1 0x1 PUSH0 DUP5 PUSH20 0xFFFFFFFFFFFFFFFFFFFFFFFFFFFFFFFFFFFFFFFF AND PUSH20 0xFFFFFFFFFFFFFFFFFFFFFFFFFFFFFFFFFFFFFFFF AND DUP2 MSTORE PUSH1 0x20 ADD SWAP1 DUP2 MSTORE PUSH1 0x20 ADD PUSH0 KECCAK256 PUSH0 DUP4 PUSH20 0xFFFFFFFFFFFFFFFFFFFFFFFFFFFFFFFFFFFFFFFF AND PUSH20 0xFFFFFFFFFFFFFFFFFFFFFFFFFFFFFFFFFFFFFFFF AND DUP2 MSTORE PUSH1 0x20 ADD SWAP1 DUP2 MSTORE PUSH1 0x20 ADD PUSH0 KECCAK256 SLOAD SWAP1 POP SWAP3 SWAP2 POP POP JUMP JUMPDEST PUSH0 PUSH1 0xA PUSH0 SWAP1 SLOAD SWAP1 PUSH2 0x100 EXP SWAP1 DIV PUSH20 0xFFFFFFFFFFFFFFFFFFFFFFFFFFFFFFFFFFFFFFFF AND SWAP1 POP SWAP1 JUMP JUMPDEST PUSH2 0xCD5 PUSH2 0x10A0 JUMP JUMPDEST DUP3 PUSH20 0xFFFFFFFFFFFFFFFFFFFFFFFFFFFFFFFFFFFFFFFF AND PUSH4 0xA9059CBB DUP4 DUP4 PUSH1 0x40 MLOAD DUP4 PUSH4 0xFFFFFFFF AND PUSH1 0xE0 SHL DUP2 MSTORE PUSH1 0x4 ADD PUSH2 0xD10 SWAP3 SWAP2 SWAP1 PUSH2 0x264C JUMP JUMPDEST PUSH1 0x20 PUSH1 0x40 MLOAD DUP1 DUP4 SUB DUP2 PUSH0 DUP8 GAS CALL ISZERO DUP1 ISZERO PUSH2 0xD2C JUMPI RETURNDATASIZE PUSH0 DUP1 RETURNDATACOPY RETURNDATASIZE PUSH0 REVERT JUMPDEST POP POP POP POP PUSH1 0x40 MLOAD RETURNDATASIZE PUSH1 0x1F NOT PUSH1 0x1F DUP3 ADD AND DUP3 ADD DUP1 PUSH1 0x40 MSTORE POP DUP2 ADD SWAP1 PUSH2 0xD50 SWAP2 SWAP1 PUSH2 0x269D JUMP JUMPDEST POP DUP2 PUSH20 0xFFFFFFFFFFFFFFFFFFFFFFFFFFFFFFFFFFFFFFFF AND DUP4 PUSH20 0xFFFFFFFFFFFFFFFFFFFFFFFFFFFFFFFFFFFFFFFF AND PUSH32 0x401F439D865A766757EC78675925BD67198D5E78805AA41691B34B5D6A6CBBE6 DUP4 PUSH1 0x40 MLOAD PUSH2 0xDAE SWAP2 SWAP1 PUSH2 0x1EDF JUMP JUMPDEST PUSH1 0x40 MLOAD DUP1 SWAP2 SUB SWAP1 LOG3 POP POP POP JUMP JUMPDEST PUSH11 0x36DF8DEC4229FB48100000 DUP2 JUMP JUMPDEST PUSH2 0xDD2 PUSH2 0x10A0 JUMP JUMPDEST PUSH0 PUSH20 0xFFFFFFFFFFFFFFFFFFFFFFFFFFFFFFFFFFFFFFFF AND DUP2 PUSH20 0xFFFFFFFFFFFFFFFFFFFFFFFFFFFFFFFFFFFFFFFF AND SUB PUSH2 0xE42 JUMPI PUSH0 PUSH1 0x40 MLOAD PUSH32 0x1E4FBDF700000000000000000000000000000000000000000000000000000000 DUP2 MSTORE PUSH1 0x4 ADD PUSH2 0xE39 SWAP2 SWAP1 PUSH2 0x2185 JUMP JUMPDEST PUSH1 0x40 MLOAD DUP1 SWAP2 SUB SWAP1 REVERT JUMPDEST PUSH2 0xE4B DUP2 PUSH2 0x1213 JUMP JUMPDEST POP JUMP JUMPDEST PUSH0 CALLER SWAP1 POP SWAP1 JUMP JUMPDEST PUSH2 0xE62 DUP4 DUP4 DUP4 PUSH1 0x1 PUSH2 0x144C JUMP JUMPDEST POP POP POP JUMP JUMPDEST PUSH0 PUSH2 0xE72 DUP5 DUP5 PUSH2 0xC23 JUMP JUMPDEST SWAP1 POP PUSH32 0xFFFFFFFFFFFFFFFFFFFFFFFFFFFFFFFFFFFFFFFFFFFFFFFFFFFFFFFFFFFFFFFF DUP2 LT ISZERO PUSH2 0xEF4 JUMPI DUP2 DUP2 LT ISZERO PUSH2 0xEE5 JUMPI DUP3 DUP2 DUP4 PUSH1 0x40 MLOAD PUSH32 0xFB8F41B200000000000000000000000000000000000000000000000000000000 DUP2 MSTORE PUSH1 0x4 ADD PUSH2 0xEDC SWAP4 SWAP3 SWAP2 SWAP1 PUSH2 0x26C8 JUMP JUMPDEST PUSH1 0x40 MLOAD DUP1 SWAP2 SUB SWAP1 REVERT JUMPDEST PUSH2 0xEF3 DUP5 DUP5 DUP5 DUP5 SUB PUSH0 PUSH2 0x144C JUMP JUMPDEST JUMPDEST POP POP POP POP JUMP JUMPDEST PUSH0 PUSH20 0xFFFFFFFFFFFFFFFFFFFFFFFFFFFFFFFFFFFFFFFF AND DUP4 PUSH20 0xFFFFFFFFFFFFFFFFFFFFFFFFFFFFFFFFFFFFFFFF AND SUB PUSH2 0xF6A JUMPI PUSH0 PUSH1 0x40 MLOAD PUSH32 0x96C6FD1E00000000000000000000000000000000000000000000000000000000 DUP2 MSTORE PUSH1 0x4 ADD PUSH2 0xF61 SWAP2 SWAP1 PUSH2 0x2185 JUMP JUMPDEST PUSH1 0x40 MLOAD DUP1 SWAP2 SUB SWAP1 REVERT JUMPDEST PUSH0 PUSH20 0xFFFFFFFFFFFFFFFFFFFFFFFFFFFFFFFFFFFFFFFF AND DUP3 PUSH20 0xFFFFFFFFFFFFFFFFFFFFFFFFFFFFFFFFFFFFFFFF AND SUB PUSH2 0xFDA JUMPI PUSH0 PUSH1 0x40 MLOAD PUSH32 0xEC442F0500000000000000000000000000000000000000000000000000000000 DUP2 MSTORE PUSH1 0x4 ADD PUSH2 0xFD1 SWAP2 SWAP1 PUSH2 0x2185 JUMP JUMPDEST PUSH1 0x40 MLOAD DUP1 SWAP2 SUB SWAP1 REVERT JUMPDEST PUSH2 0xFE5 DUP4 DUP4 DUP4 PUSH2 0x161B JUMP JUMPDEST POP POP POP JUMP JUMPDEST PUSH0 PUSH32 0x0 PUSH20 0xFFFFFFFFFFFFFFFFFFFFFFFFFFFFFFFFFFFFFFFF AND ADDRESS PUSH20 0xFFFFFFFFFFFFFFFFFFFFFFFFFFFFFFFFFFFFFFFF AND EQ DUP1 ISZERO PUSH2 0x1065 JUMPI POP PUSH32 0x0 CHAINID EQ JUMPDEST ISZERO PUSH2 0x1092 JUMPI PUSH32 0x0 SWAP1 POP PUSH2 0x109D JUMP JUMPDEST PUSH2 0x109A PUSH2 0x1834 JUMP JUMPDEST SWAP1 POP JUMPDEST SWAP1 JUMP JUMPDEST PUSH2 0x10A8 PUSH2 0xE4E JUMP JUMPDEST PUSH20 0xFFFFFFFFFFFFFFFFFFFFFFFFFFFFFFFFFFFFFFFF AND PUSH2 0x10C6 PUSH2 0x8EA JUMP JUMPDEST PUSH20 0xFFFFFFFFFFFFFFFFFFFFFFFFFFFFFFFFFFFFFFFF AND EQ PUSH2 0x1125 JUMPI PUSH2 0x10E9 PUSH2 0xE4E JUMP JUMPDEST PUSH1 0x40 MLOAD PUSH32 0x118CDAA700000000000000000000000000000000000000000000000000000000 DUP2 MSTORE PUSH1 0x4 ADD PUSH2 0x111C SWAP2 SWAP1 PUSH2 0x2185 JUMP JUMPDEST PUSH1 0x40 MLOAD DUP1 SWAP2 SUB SWAP1 REVERT JUMPDEST JUMP JUMPDEST PUSH1 0x2 PUSH1 0x9 SLOAD SUB PUSH2 0x116C JUMPI PUSH1 0x40 MLOAD PUSH32 0x8C379A000000000000000000000000000000000000000000000000000000000 DUP2 MSTORE PUSH1 0x4 ADD PUSH2 0x1163 SWAP1 PUSH2 0x2747 JUMP JUMPDEST PUSH1 0x40 MLOAD DUP1 SWAP2 SUB SWAP1 REVERT JUMPDEST PUSH1 0x2 PUSH1 0x9 DUP2 SWAP1 SSTORE POP JUMP JUMPDEST PUSH0 PUSH20 0xFFFFFFFFFFFFFFFFFFFFFFFFFFFFFFFFFFFFFFFF AND DUP3 PUSH20 0xFFFFFFFFFFFFFFFFFFFFFFFFFFFFFFFFFFFFFFFF AND SUB PUSH2 0x11E6 JUMPI PUSH0 PUSH1 0x40 MLOAD PUSH32 0xEC442F0500000000000000000000000000000000000000000000000000000000 DUP2 MSTORE PUSH1 0x4 ADD PUSH2 0x11DD SWAP2 SWAP1 PUSH2 0x2185 JUMP JUMPDEST PUSH1 0x40 MLOAD DUP1 SWAP2 SUB SWAP1 REVERT JUMPDEST PUSH2 0x11F1 PUSH0 DUP4 DUP4 PUSH2 0x161B JUMP JUMPDEST POP POP JUMP JUMPDEST PUSH1 0x1 PUSH1 0x9 DUP2 SWAP1 SSTORE POP JUMP JUMPDEST PUSH2 0x1210 PUSH2 0x120A PUSH2 0xE4E JUMP JUMPDEST DUP3 PUSH2 0x18C9 JUMP JUMPDEST POP JUMP JUMPDEST PUSH0 PUSH1 0x8 PUSH0 SWAP1 SLOAD SWAP1 PUSH2 0x100 EXP SWAP1 DIV PUSH20 0xFFFFFFFFFFFFFFFFFFFFFFFFFFFFFFFFFFFFFFFF AND SWAP1 POP DUP2 PUSH1 0x8 PUSH0 PUSH2 0x100 EXP DUP2 SLOAD DUP2 PUSH20 0xFFFFFFFFFFFFFFFFFFFFFFFFFFFFFFFFFFFFFFFF MUL NOT AND SWAP1 DUP4 PUSH20 0xFFFFFFFFFFFFFFFFFFFFFFFFFFFFFFFFFFFFFFFF AND MUL OR SWAP1 SSTORE POP DUP2 PUSH20 0xFFFFFFFFFFFFFFFFFFFFFFFFFFFFFFFFFFFFFFFF AND DUP2 PUSH20 0xFFFFFFFFFFFFFFFFFFFFFFFFFFFFFFFFFFFFFFFF AND PUSH32 0x8BE0079C531659141344CD1FD0A4F28419497F9722A3DAAFE3B4186F6B6457E0 PUSH1 0x40 MLOAD PUSH1 0x40 MLOAD DUP1 SWAP2 SUB SWAP1 LOG3 POP POP JUMP JUMPDEST PUSH2 0x12E8 DUP3 PUSH2 0x12E2 PUSH2 0xE4E JUMP JUMPDEST DUP4 PUSH2 0xE67 JUMP JUMPDEST PUSH2 0x12F2 DUP3 DUP3 PUSH2 0x18C9 JUMP JUMPDEST POP POP JUMP JUMPDEST PUSH0 PUSH1 0x7 PUSH0 DUP4 PUSH20 0xFFFFFFFFFFFFFFFFFFFFFFFFFFFFFFFFFFFFFFFF AND PUSH20 0xFFFFFFFFFFFFFFFFFFFFFFFFFFFFFFFFFFFFFFFF AND DUP2 MSTORE PUSH1 0x20 ADD SWAP1 DUP2 MSTORE PUSH1 0x20 ADD PUSH0 KECCAK256 SLOAD SWAP1 POP SWAP2 SWAP1 POP JUMP JUMPDEST PUSH1 0x60 PUSH2 0x1372 PUSH1 0x5 PUSH32 0x0 PUSH2 0x1948 SWAP1 SWAP2 SWAP1 PUSH4 0xFFFFFFFF AND JUMP JUMPDEST SWAP1 POP SWAP1 JUMP JUMPDEST PUSH1 0x60 PUSH2 0x13AD PUSH1 0x6 PUSH32 0x0 PUSH2 0x1948 SWAP1 SWAP2 SWAP1 PUSH4 0xFFFFFFFF AND JUMP JUMPDEST SWAP1 POP SWAP1 JUMP JUMPDEST PUSH0 PUSH1 0x7 PUSH0 DUP4 PUSH20 0xFFFFFFFFFFFFFFFFFFFFFFFFFFFFFFFFFFFFFFFF AND PUSH20 0xFFFFFFFFFFFFFFFFFFFFFFFFFFFFFFFFFFFFFFFF AND DUP2 MSTORE PUSH1 0x20 ADD SWAP1 DUP2 MSTORE PUSH1 0x20 ADD PUSH0 KECCAK256 PUSH0 DUP2 SLOAD DUP1 SWAP3 SWAP2 SWAP1 PUSH1 0x1 ADD SWAP2 SWAP1 POP SSTORE SWAP1 POP SWAP2 SWAP1 POP JUMP JUMPDEST PUSH0 PUSH2 0x1417 PUSH2 0x1411 PUSH2 0xFEA JUMP JUMPDEST DUP4 PUSH2 0x19F5 JUMP JUMPDEST SWAP1 POP SWAP2 SWAP1 POP JUMP JUMPDEST PUSH0 DUP1 PUSH0 DUP1 PUSH2 0x142E DUP9 DUP9 DUP9 DUP9 PUSH2 0x1A35 JUMP JUMPDEST SWAP3 POP SWAP3 POP SWAP3 POP PUSH2 0x143E DUP3 DUP3 PUSH2 0x1B1C JUMP JUMPDEST DUP3 SWAP4 POP POP POP POP SWAP5 SWAP4 POP POP POP POP JUMP JUMPDEST PUSH0 PUSH20 0xFFFFFFFFFFFFFFFFFFFFFFFFFFFFFFFFFFFFFFFF AND DUP5 PUSH20 0xFFFFFFFFFFFFFFFFFFFFFFFFFFFFFFFFFFFFFFFF AND SUB PUSH2 0x14BC JUMPI PUSH0 PUSH1 0x40 MLOAD PUSH32 0xE602DF0500000000000000000000000000000000000000000000000000000000 DUP2 MSTORE PUSH1 0x4 ADD PUSH2 0x14B3 SWAP2 SWAP1 PUSH2 0x2185 JUMP JUMPDEST PUSH1 0x40 MLOAD DUP1 SWAP2 SUB SWAP1 REVERT JUMPDEST PUSH0 PUSH20 0xFFFFFFFFFFFFFFFFFFFFFFFFFFFFFFFFFFFFFFFF AND DUP4 PUSH20 0xFFFFFFFFFFFFFFFFFFFFFFFFFFFFFFFFFFFFFFFF AND SUB PUSH2 0x152C JUMPI PUSH0 PUSH1 0x40 MLOAD PUSH32 0x94280D6200000000000000000000000000000000000000000000000000000000 DUP2 MSTORE PUSH1 0x4 ADD PUSH2 0x1523 SWAP2 SWAP1 PUSH2 0x2185 JUMP JUMPDEST PUSH1 0x40 MLOAD DUP1 SWAP2 SUB SWAP1 REVERT JUMPDEST DUP2 PUSH1 0x1 PUSH0 DUP7 PUSH20 0xFFFFFFFFFFFFFFFFFFFFFFFFFFFFFFFFFFFFFFFF AND PUSH20 0xFFFFFFFFFFFFFFFFFFFFFFFFFFFFFFFFFFFFFFFF AND DUP2 MSTORE PUSH1 0x20 ADD SWAP1 DUP2 MSTORE PUSH1 0x20 ADD PUSH0 KECCAK256 PUSH0 DUP6 PUSH20 0xFFFFFFFFFFFFFFFFFFFFFFFFFFFFFFFFFFFFFFFF AND PUSH20 0xFFFFFFFFFFFFFFFFFFFFFFFFFFFFFFFFFFFFFFFF AND DUP2 MSTORE PUSH1 0x20 ADD SWAP1 DUP2 MSTORE PUSH1 0x20 ADD PUSH0 KECCAK256 DUP2 SWAP1 SSTORE POP DUP1 ISZERO PUSH2 0x1615 JUMPI DUP3 PUSH20 0xFFFFFFFFFFFFFFFFFFFFFFFFFFFFFFFFFFFFFFFF AND DUP5 PUSH20 0xFFFFFFFFFFFFFFFFFFFFFFFFFFFFFFFFFFFFFFFF AND PUSH32 0x8C5BE1E5EBEC7D5BD14F71427D1E84F3DD0314C0F7B2291E5B200AC8C7C3B925 DUP5 PUSH1 0x40 MLOAD PUSH2 0x160C SWAP2 SWAP1 PUSH2 0x1EDF JUMP JUMPDEST PUSH1 0x40 MLOAD DUP1 SWAP2 SUB SWAP1 LOG3 JUMPDEST POP POP POP POP JUMP JUMPDEST PUSH0 PUSH20 0xFFFFFFFFFFFFFFFFFFFFFFFFFFFFFFFFFFFFFFFF AND DUP4 PUSH20 0xFFFFFFFFFFFFFFFFFFFFFFFFFFFFFFFFFFFFFFFF AND SUB PUSH2 0x166B JUMPI DUP1 PUSH1 0x2 PUSH0 DUP3 DUP3 SLOAD PUSH2 0x165F SWAP2 SWAP1 PUSH2 0x23E2 JUMP JUMPDEST SWAP3 POP POP DUP2 SWAP1 SSTORE POP PUSH2 0x1739 JUMP JUMPDEST PUSH0 DUP1 PUSH0 DUP6 PUSH20 0xFFFFFFFFFFFFFFFFFFFFFFFFFFFFFFFFFFFFFFFF AND PUSH20 0xFFFFFFFFFFFFFFFFFFFFFFFFFFFFFFFFFFFFFFFF AND DUP2 MSTORE PUSH1 0x20 ADD SWAP1 DUP2 MSTORE PUSH1 0x20 ADD PUSH0 KECCAK256 SLOAD SWAP1 POP DUP2 DUP2 LT ISZERO PUSH2 0x16F4 JUMPI DUP4 DUP2 DUP4 PUSH1 0x40 MLOAD PUSH32 0xE450D38C00000000000000000000000000000000000000000000000000000000 DUP2 MSTORE PUSH1 0x4 ADD PUSH2 0x16EB SWAP4 SWAP3 SWAP2 SWAP1 PUSH2 0x26C8 JUMP JUMPDEST PUSH1 0x40 MLOAD DUP1 SWAP2 SUB SWAP1 REVERT JUMPDEST DUP2 DUP2 SUB PUSH0 DUP1 DUP7 PUSH20 0xFFFFFFFFFFFFFFFFFFFFFFFFFFFFFFFFFFFFFFFF AND PUSH20 0xFFFFFFFFFFFFFFFFFFFFFFFFFFFFFFFFFFFFFFFF AND DUP2 MSTORE PUSH1 0x20 ADD SWAP1 DUP2 MSTORE PUSH1 0x20 ADD PUSH0 KECCAK256 DUP2 SWAP1 SSTORE POP POP JUMPDEST PUSH0 PUSH20 0xFFFFFFFFFFFFFFFFFFFFFFFFFFFFFFFFFFFFFFFF AND DUP3 PUSH20 0xFFFFFFFFFFFFFFFFFFFFFFFFFFFFFFFFFFFFFFFF AND SUB PUSH2 0x1780 JUMPI DUP1 PUSH1 0x2 PUSH0 DUP3 DUP3 SLOAD SUB SWAP3 POP POP DUP2 SWAP1 SSTORE POP PUSH2 0x17CA JUMP JUMPDEST DUP1 PUSH0 DUP1 DUP5 PUSH20 0xFFFFFFFFFFFFFFFFFFFFFFFFFFFFFFFFFFFFFFFF AND PUSH20 0xFFFFFFFFFFFFFFFFFFFFFFFFFFFFFFFFFFFFFFFF AND DUP2 MSTORE PUSH1 0x20 ADD SWAP1 DUP2 MSTORE PUSH1 0x20 ADD PUSH0 KECCAK256 PUSH0 DUP3 DUP3 SLOAD ADD SWAP3 POP POP DUP2 SWAP1 SSTORE POP JUMPDEST DUP2 PUSH20 0xFFFFFFFFFFFFFFFFFFFFFFFFFFFFFFFFFFFFFFFF AND DUP4 PUSH20 0xFFFFFFFFFFFFFFFFFFFFFFFFFFFFFFFFFFFFFFFF AND PUSH32 0xDDF252AD1BE2C89B69C2B068FC378DAA952BA7F163C4A11628F55A4DF523B3EF DUP4 PUSH1 0x40 MLOAD PUSH2 0x1827 SWAP2 SWAP1 PUSH2 0x1EDF JUMP JUMPDEST PUSH1 0x40 MLOAD DUP1 SWAP2 SUB SWAP1 LOG3 POP POP POP JUMP JUMPDEST PUSH0 PUSH32 0x8B73C3C69BB8FE3D512ECC4CF759CC79239F7B179B0FFACAA9A75D522B39400F PUSH32 0x0 PUSH32 0x0 CHAINID ADDRESS PUSH1 0x40 MLOAD PUSH1 0x20 ADD PUSH2 0x18AE SWAP6 SWAP5 SWAP4 SWAP3 SWAP2 SWAP1 PUSH2 0x2765 JUMP JUMPDEST PUSH1 0x40 MLOAD PUSH1 0x20 DUP2 DUP4 SUB SUB DUP2 MSTORE SWAP1 PUSH1 0x40 MSTORE DUP1 MLOAD SWAP1 PUSH1 0x20 ADD KECCAK256 SWAP1 POP SWAP1 JUMP JUMPDEST PUSH0 PUSH20 0xFFFFFFFFFFFFFFFFFFFFFFFFFFFFFFFFFFFFFFFF AND DUP3 PUSH20 0xFFFFFFFFFFFFFFFFFFFFFFFFFFFFFFFFFFFFFFFF AND SUB PUSH2 0x1939 JUMPI PUSH0 PUSH1 0x40 MLOAD PUSH32 0x96C6FD1E00000000000000000000000000000000000000000000000000000000 DUP2 MSTORE PUSH1 0x4 ADD PUSH2 0x1930 SWAP2 SWAP1 PUSH2 0x2185 JUMP JUMPDEST PUSH1 0x40 MLOAD DUP1 SWAP2 SUB SWAP1 REVERT JUMPDEST PUSH2 0x1944 DUP3 PUSH0 DUP4 PUSH2 0x161B JUMP JUMPDEST POP POP JUMP JUMPDEST PUSH1 0x60 PUSH1 0xFF PUSH0 SHL DUP4 EQ PUSH2 0x1964 JUMPI PUSH2 0x195D DUP4 PUSH2 0x1C7E JUMP JUMPDEST SWAP1 POP PUSH2 0x19EF JUMP JUMPDEST DUP2 DUP1 SLOAD PUSH2 0x1970 SWAP1 PUSH2 0x2385 JUMP JUMPDEST DUP1 PUSH1 0x1F ADD PUSH1 0x20 DUP1 SWAP2 DIV MUL PUSH1 0x20 ADD PUSH1 0x40 MLOAD SWAP1 DUP2 ADD PUSH1 0x40 MSTORE DUP1 SWAP3 SWAP2 SWAP1 DUP2 DUP2 MSTORE PUSH1 0x20 ADD DUP3 DUP1 SLOAD PUSH2 0x199C SWAP1 PUSH2 0x2385 JUMP JUMPDEST DUP1 ISZERO PUSH2 0x19E7 JUMPI DUP1 PUSH1 0x1F LT PUSH2 0x19BE JUMPI PUSH2 0x100 DUP1 DUP4 SLOAD DIV MUL DUP4 MSTORE SWAP2 PUSH1 0x20 ADD SWAP2 PUSH2 0x19E7 JUMP JUMPDEST DUP3 ADD SWAP2 SWAP1 PUSH0 MSTORE PUSH1 0x20 PUSH0 KECCAK256 SWAP1 JUMPDEST DUP2 SLOAD DUP2 MSTORE SWAP1 PUSH1 0x1 ADD SWAP1 PUSH1 0x20 ADD DUP1 DUP4 GT PUSH2 0x19CA JUMPI DUP3 SWAP1 SUB PUSH1 0x1F AND DUP3 ADD SWAP2 JUMPDEST POP POP POP POP POP SWAP1 POP JUMPDEST SWAP3 SWAP2 POP POP JUMP JUMPDEST PUSH0 PUSH1 0x40 MLOAD PUSH32 0x1901000000000000000000000000000000000000000000000000000000000000 DUP2 MSTORE DUP4 PUSH1 0x2 DUP3 ADD MSTORE DUP3 PUSH1 0x22 DUP3 ADD MSTORE PUSH1 0x42 DUP2 KECCAK256 SWAP2 POP POP SWAP3 SWAP2 POP POP JUMP JUMPDEST PUSH0 DUP1 PUSH0 PUSH32 0x7FFFFFFFFFFFFFFFFFFFFFFFFFFFFFFF5D576E7357A4501DDFE92F46681B20A0 DUP5 PUSH0 SHR GT ISZERO PUSH2 0x1A71 JUMPI PUSH0 PUSH1 0x3 DUP6 SWAP3 POP SWAP3 POP SWAP3 POP PUSH2 0x1B12 JUMP JUMPDEST PUSH0 PUSH1 0x1 DUP9 DUP9 DUP9 DUP9 PUSH1 0x40 MLOAD PUSH0 DUP2 MSTORE PUSH1 0x20 ADD PUSH1 0x40 MSTORE PUSH1 0x40 MLOAD PUSH2 0x1A94 SWAP5 SWAP4 SWAP3 SWAP2 SWAP1 PUSH2 0x27B6 JUMP JUMPDEST PUSH1 0x20 PUSH1 0x40 MLOAD PUSH1 0x20 DUP2 SUB SWAP1 DUP1 DUP5 SUB SWAP1 DUP6 GAS STATICCALL ISZERO DUP1 ISZERO PUSH2 0x1AB4 JUMPI RETURNDATASIZE PUSH0 DUP1 RETURNDATACOPY RETURNDATASIZE PUSH0 REVERT JUMPDEST POP POP POP PUSH1 0x20 PUSH1 0x40 MLOAD SUB MLOAD SWAP1 POP PUSH0 PUSH20 0xFFFFFFFFFFFFFFFFFFFFFFFFFFFFFFFFFFFFFFFF AND DUP2 PUSH20 0xFFFFFFFFFFFFFFFFFFFFFFFFFFFFFFFFFFFFFFFF AND SUB PUSH2 0x1B05 JUMPI PUSH0 PUSH1 0x1 PUSH0 DUP1 SHL SWAP4 POP SWAP4 POP SWAP4 POP POP PUSH2 0x1B12 JUMP JUMPDEST DUP1 PUSH0 DUP1 PUSH0 SHL SWAP4 POP SWAP4 POP SWAP4 POP POP JUMPDEST SWAP5 POP SWAP5 POP SWAP5 SWAP2 POP POP JUMP JUMPDEST PUSH0 PUSH1 0x3 DUP2 GT ISZERO PUSH2 0x1B2F JUMPI PUSH2 0x1B2E PUSH2 0x27F9 JUMP JUMPDEST JUMPDEST DUP3 PUSH1 0x3 DUP2 GT ISZERO PUSH2 0x1B42 JUMPI PUSH2 0x1B41 PUSH2 0x27F9 JUMP JUMPDEST JUMPDEST SUB ISZERO PUSH2 0x1C7A JUMPI PUSH1 0x1 PUSH1 0x3 DUP2 GT ISZERO PUSH2 0x1B5C JUMPI PUSH2 0x1B5B PUSH2 0x27F9 JUMP JUMPDEST JUMPDEST DUP3 PUSH1 0x3 DUP2 GT ISZERO PUSH2 0x1B6F JUMPI PUSH2 0x1B6E PUSH2 0x27F9 JUMP JUMPDEST JUMPDEST SUB PUSH2 0x1BA6 JUMPI PUSH1 0x40 MLOAD PUSH32 0xF645EEDF00000000000000000000000000000000000000000000000000000000 DUP2 MSTORE PUSH1 0x4 ADD PUSH1 0x40 MLOAD DUP1 SWAP2 SUB SWAP1 REVERT JUMPDEST PUSH1 0x2 PUSH1 0x3 DUP2 GT ISZERO PUSH2 0x1BBA JUMPI PUSH2 0x1BB9 PUSH2 0x27F9 JUMP JUMPDEST JUMPDEST DUP3 PUSH1 0x3 DUP2 GT ISZERO PUSH2 0x1BCD JUMPI PUSH2 0x1BCC PUSH2 0x27F9 JUMP JUMPDEST JUMPDEST SUB PUSH2 0x1C11 JUMPI DUP1 PUSH0 SHR PUSH1 0x40 MLOAD PUSH32 0xFCE698F700000000000000000000000000000000000000000000000000000000 DUP2 MSTORE PUSH1 0x4 ADD PUSH2 0x1C08 SWAP2 SWAP1 PUSH2 0x1EDF JUMP JUMPDEST PUSH1 0x40 MLOAD DUP1 SWAP2 SUB SWAP1 REVERT JUMPDEST PUSH1 0x3 DUP1 DUP2 GT ISZERO PUSH2 0x1C24 JUMPI PUSH2 0x1C23 PUSH2 0x27F9 JUMP JUMPDEST JUMPDEST DUP3 PUSH1 0x3 DUP2 GT ISZERO PUSH2 0x1C37 JUMPI PUSH2 0x1C36 PUSH2 0x27F9 JUMP JUMPDEST JUMPDEST SUB PUSH2 0x1C79 JUMPI DUP1 PUSH1 0x40 MLOAD PUSH32 0xD78BCE0C00000000000000000000000000000000000000000000000000000000 DUP2 MSTORE PUSH1 0x4 ADD PUSH2 0x1C70 SWAP2 SWAP1 PUSH2 0x1F94 JUMP JUMPDEST PUSH1 0x40 MLOAD DUP1 SWAP2 SUB SWAP1 REVERT JUMPDEST JUMPDEST POP POP JUMP JUMPDEST PUSH1 0x60 PUSH0 PUSH2 0x1C8A DUP4 PUSH2 0x1CF0 JUMP JUMPDEST SWAP1 POP PUSH0 PUSH1 0x20 PUSH8 0xFFFFFFFFFFFFFFFF DUP2 GT ISZERO PUSH2 0x1CA8 JUMPI PUSH2 0x1CA7 PUSH2 0x250B JUMP JUMPDEST JUMPDEST PUSH1 0x40 MLOAD SWAP1 DUP1 DUP3 MSTORE DUP1 PUSH1 0x1F ADD PUSH1 0x1F NOT AND PUSH1 0x20 ADD DUP3 ADD PUSH1 0x40 MSTORE DUP1 ISZERO PUSH2 0x1CDA JUMPI DUP2 PUSH1 0x20 ADD PUSH1 0x1 DUP3 MUL DUP1 CALLDATASIZE DUP4 CALLDATACOPY DUP1 DUP3 ADD SWAP2 POP POP SWAP1 POP JUMPDEST POP SWAP1 POP DUP2 DUP2 MSTORE DUP4 PUSH1 0x20 DUP3 ADD MSTORE DUP1 SWAP3 POP POP POP SWAP2 SWAP1 POP JUMP JUMPDEST PUSH0 DUP1 PUSH1 0xFF DUP4 PUSH0 SHR AND SWAP1 POP PUSH1 0x1F DUP2 GT ISZERO PUSH2 0x1D35 JUMPI PUSH1 0x40 MLOAD PUSH32 0xB3512B0C00000000000000000000000000000000000000000000000000000000 DUP2 MSTORE PUSH1 0x4 ADD PUSH1 0x40 MLOAD DUP1 SWAP2 SUB SWAP1 REVERT JUMPDEST DUP1 SWAP2 POP POP SWAP2 SWAP1 POP JUMP JUMPDEST PUSH0 DUP2 MLOAD SWAP1 POP SWAP2 SWAP1 POP JUMP JUMPDEST PUSH0 DUP3 DUP3 MSTORE PUSH1 0x20 DUP3 ADD SWAP1 POP SWAP3 SWAP2 POP POP JUMP JUMPDEST DUP3 DUP2 DUP4 MCOPY PUSH0 DUP4 DUP4 ADD MSTORE POP POP POP JUMP JUMPDEST PUSH0 PUSH1 0x1F NOT PUSH1 0x1F DUP4 ADD AND SWAP1 POP SWAP2 SWAP1 POP JUMP JUMPDEST PUSH0 PUSH2 0x1D80 DUP3 PUSH2 0x1D3E JUMP JUMPDEST PUSH2 0x1D8A DUP2 DUP6 PUSH2 0x1D48 JUMP JUMPDEST SWAP4 POP PUSH2 0x1D9A DUP2 DUP6 PUSH1 0x20 DUP7 ADD PUSH2 0x1D58 JUMP JUMPDEST PUSH2 0x1DA3 DUP2 PUSH2 0x1D66 JUMP JUMPDEST DUP5 ADD SWAP2 POP POP SWAP3 SWAP2 POP POP JUMP JUMPDEST PUSH0 PUSH1 0x20 DUP3 ADD SWAP1 POP DUP2 DUP2 SUB PUSH0 DUP4 ADD MSTORE PUSH2 0x1DC6 DUP2 DUP5 PUSH2 0x1D76 JUMP JUMPDEST SWAP1 POP SWAP3 SWAP2 POP POP JUMP JUMPDEST PUSH0 DUP1 REVERT JUMPDEST PUSH0 PUSH20 0xFFFFFFFFFFFFFFFFFFFFFFFFFFFFFFFFFFFFFFFF DUP3 AND SWAP1 POP SWAP2 SWAP1 POP JUMP JUMPDEST PUSH0 PUSH2 0x1DFB DUP3 PUSH2 0x1DD2 JUMP JUMPDEST SWAP1 POP SWAP2 SWAP1 POP JUMP JUMPDEST PUSH2 0x1E0B DUP2 PUSH2 0x1DF1 JUMP JUMPDEST DUP2 EQ PUSH2 0x1E15 JUMPI PUSH0 DUP1 REVERT JUMPDEST POP JUMP JUMPDEST PUSH0 DUP2 CALLDATALOAD SWAP1 POP PUSH2 0x1E26 DUP2 PUSH2 0x1E02 JUMP JUMPDEST SWAP3 SWAP2 POP POP JUMP JUMPDEST PUSH0 DUP2 SWAP1 POP SWAP2 SWAP1 POP JUMP JUMPDEST PUSH2 0x1E3E DUP2 PUSH2 0x1E2C JUMP JUMPDEST DUP2 EQ PUSH2 0x1E48 JUMPI PUSH0 DUP1 REVERT JUMPDEST POP JUMP JUMPDEST PUSH0 DUP2 CALLDATALOAD SWAP1 POP PUSH2 0x1E59 DUP2 PUSH2 0x1E35 JUMP JUMPDEST SWAP3 SWAP2 POP POP JUMP JUMPDEST PUSH0 DUP1 PUSH1 0x40 DUP4 DUP6 SUB SLT ISZERO PUSH2 0x1E75 JUMPI PUSH2 0x1E74 PUSH2 0x1DCE JUMP JUMPDEST JUMPDEST PUSH0 PUSH2 0x1E82 DUP6 DUP3 DUP7 ADD PUSH2 0x1E18 JUMP JUMPDEST SWAP3 POP POP PUSH1 0x20 PUSH2 0x1E93 DUP6 DUP3 DUP7 ADD PUSH2 0x1E4B JUMP JUMPDEST SWAP2 POP POP SWAP3 POP SWAP3 SWAP1 POP JUMP JUMPDEST PUSH0 DUP2 ISZERO ISZERO SWAP1 POP SWAP2 SWAP1 POP JUMP JUMPDEST PUSH2 0x1EB1 DUP2 PUSH2 0x1E9D JUMP JUMPDEST DUP3 MSTORE POP POP JUMP JUMPDEST PUSH0 PUSH1 0x20 DUP3 ADD SWAP1 POP PUSH2 0x1ECA PUSH0 DUP4 ADD DUP5 PUSH2 0x1EA8 JUMP JUMPDEST SWAP3 SWAP2 POP POP JUMP JUMPDEST PUSH2 0x1ED9 DUP2 PUSH2 0x1E2C JUMP JUMPDEST DUP3 MSTORE POP POP JUMP JUMPDEST PUSH0 PUSH1 0x20 DUP3 ADD SWAP1 POP PUSH2 0x1EF2 PUSH0 DUP4 ADD DUP5 PUSH2 0x1ED0 JUMP JUMPDEST SWAP3 SWAP2 POP POP JUMP JUMPDEST PUSH0 DUP1 PUSH0 PUSH1 0x60 DUP5 DUP7 SUB SLT ISZERO PUSH2 0x1F0F JUMPI PUSH2 0x1F0E PUSH2 0x1DCE JUMP JUMPDEST JUMPDEST PUSH0 PUSH2 0x1F1C DUP7 DUP3 DUP8 ADD PUSH2 0x1E18 JUMP JUMPDEST SWAP4 POP POP PUSH1 0x20 PUSH2 0x1F2D DUP7 DUP3 DUP8 ADD PUSH2 0x1E18 JUMP JUMPDEST SWAP3 POP POP PUSH1 0x40 PUSH2 0x1F3E DUP7 DUP3 DUP8 ADD PUSH2 0x1E4B JUMP JUMPDEST SWAP2 POP POP SWAP3 POP SWAP3 POP SWAP3 JUMP JUMPDEST PUSH0 PUSH1 0xFF DUP3 AND SWAP1 POP SWAP2 SWAP1 POP JUMP JUMPDEST PUSH2 0x1F5D DUP2 PUSH2 0x1F48 JUMP JUMPDEST DUP3 MSTORE POP POP JUMP JUMPDEST PUSH0 PUSH1 0x20 DUP3 ADD SWAP1 POP PUSH2 0x1F76 PUSH0 DUP4 ADD DUP5 PUSH2 0x1F54 JUMP JUMPDEST SWAP3 SWAP2 POP POP JUMP JUMPDEST PUSH0 DUP2 SWAP1 POP SWAP2 SWAP1 POP JUMP JUMPDEST PUSH2 0x1F8E DUP2 PUSH2 0x1F7C JUMP JUMPDEST DUP3 MSTORE POP POP JUMP JUMPDEST PUSH0 PUSH1 0x20 DUP3 ADD SWAP1 POP PUSH2 0x1FA7 PUSH0 DUP4 ADD DUP5 PUSH2 0x1F85 JUMP JUMPDEST SWAP3 SWAP2 POP POP JUMP JUMPDEST PUSH0 PUSH1 0x20 DUP3 DUP5 SUB SLT ISZERO PUSH2 0x1FC2 JUMPI PUSH2 0x1FC1 PUSH2 0x1DCE JUMP JUMPDEST JUMPDEST PUSH0 PUSH2 0x1FCF DUP5 DUP3 DUP6 ADD PUSH2 0x1E4B JUMP JUMPDEST SWAP2 POP POP SWAP3 SWAP2 POP POP JUMP JUMPDEST PUSH0 PUSH1 0x20 DUP3 DUP5 SUB SLT ISZERO PUSH2 0x1FED JUMPI PUSH2 0x1FEC PUSH2 0x1DCE JUMP JUMPDEST JUMPDEST PUSH0 PUSH2 0x1FFA DUP5 DUP3 DUP6 ADD PUSH2 0x1E18 JUMP JUMPDEST SWAP2 POP POP SWAP3 SWAP2 POP POP JUMP JUMPDEST PUSH0 PUSH32 0xFF00000000000000000000000000000000000000000000000000000000000000 DUP3 AND SWAP1 POP SWAP2 SWAP1 POP JUMP JUMPDEST PUSH2 0x2037 DUP2 PUSH2 0x2003 JUMP JUMPDEST DUP3 MSTORE POP POP JUMP JUMPDEST PUSH2 0x2046 DUP2 PUSH2 0x1DF1 JUMP JUMPDEST DUP3 MSTORE POP POP JUMP JUMPDEST PUSH0 DUP2 MLOAD SWAP1 POP SWAP2 SWAP1 POP JUMP JUMPDEST PUSH0 DUP3 DUP3 MSTORE PUSH1 0x20 DUP3 ADD SWAP1 POP SWAP3 SWAP2 POP POP JUMP JUMPDEST PUSH0 DUP2 SWAP1 POP PUSH1 0x20 DUP3 ADD SWAP1 POP SWAP2 SWAP1 POP JUMP JUMPDEST PUSH2 0x207E DUP2 PUSH2 0x1E2C JUMP JUMPDEST DUP3 MSTORE POP POP JUMP JUMPDEST PUSH0 PUSH2 0x208F DUP4 DUP4 PUSH2 0x2075 JUMP JUMPDEST PUSH1 0x20 DUP4 ADD SWAP1 POP SWAP3 SWAP2 POP POP JUMP JUMPDEST PUSH0 PUSH1 0x20 DUP3 ADD SWAP1 POP SWAP2 SWAP1 POP JUMP JUMPDEST PUSH0 PUSH2 0x20B1 DUP3 PUSH2 0x204C JUMP JUMPDEST PUSH2 0x20BB DUP2 DUP6 PUSH2 0x2056 JUMP JUMPDEST SWAP4 POP PUSH2 0x20C6 DUP4 PUSH2 0x2066 JUMP JUMPDEST DUP1 PUSH0 JUMPDEST DUP4 DUP2 LT ISZERO PUSH2 0x20F6 JUMPI DUP2 MLOAD PUSH2 0x20DD DUP9 DUP3 PUSH2 0x2084 JUMP JUMPDEST SWAP8 POP PUSH2 0x20E8 DUP4 PUSH2 0x209B JUMP JUMPDEST SWAP3 POP POP PUSH1 0x1 DUP2 ADD SWAP1 POP PUSH2 0x20C9 JUMP JUMPDEST POP DUP6 SWAP4 POP POP POP POP SWAP3 SWAP2 POP POP JUMP JUMPDEST PUSH0 PUSH1 0xE0 DUP3 ADD SWAP1 POP PUSH2 0x2116 PUSH0 DUP4 ADD DUP11 PUSH2 0x202E JUMP JUMPDEST DUP2 DUP2 SUB PUSH1 0x20 DUP4 ADD MSTORE PUSH2 0x2128 DUP2 DUP10 PUSH2 0x1D76 JUMP JUMPDEST SWAP1 POP DUP2 DUP2 SUB PUSH1 0x40 DUP4 ADD MSTORE PUSH2 0x213C DUP2 DUP9 PUSH2 0x1D76 JUMP JUMPDEST SWAP1 POP PUSH2 0x214B PUSH1 0x60 DUP4 ADD DUP8 PUSH2 0x1ED0 JUMP JUMPDEST PUSH2 0x2158 PUSH1 0x80 DUP4 ADD DUP7 PUSH2 0x203D JUMP JUMPDEST PUSH2 0x2165 PUSH1 0xA0 DUP4 ADD DUP6 PUSH2 0x1F85 JUMP JUMPDEST DUP2 DUP2 SUB PUSH1 0xC0 DUP4 ADD MSTORE PUSH2 0x2177 DUP2 DUP5 PUSH2 0x20A7 JUMP JUMPDEST SWAP1 POP SWAP9 SWAP8 POP POP POP POP POP POP POP POP JUMP JUMPDEST PUSH0 PUSH1 0x20 DUP3 ADD SWAP1 POP PUSH2 0x2198 PUSH0 DUP4 ADD DUP5 PUSH2 0x203D JUMP JUMPDEST SWAP3 SWAP2 POP POP JUMP JUMPDEST PUSH2 0x21A7 DUP2 PUSH2 0x1F48 JUMP JUMPDEST DUP2 EQ PUSH2 0x21B1 JUMPI PUSH0 DUP1 REVERT JUMPDEST POP JUMP JUMPDEST PUSH0 DUP2 CALLDATALOAD SWAP1 POP PUSH2 0x21C2 DUP2 PUSH2 0x219E JUMP JUMPDEST SWAP3 SWAP2 POP POP JUMP JUMPDEST PUSH2 0x21D1 DUP2 PUSH2 0x1F7C JUMP JUMPDEST DUP2 EQ PUSH2 0x21DB JUMPI PUSH0 DUP1 REVERT JUMPDEST POP JUMP JUMPDEST PUSH0 DUP2 CALLDATALOAD SWAP1 POP PUSH2 0x21EC DUP2 PUSH2 0x21C8 JUMP JUMPDEST SWAP3 SWAP2 POP POP JUMP JUMPDEST PUSH0 DUP1 PUSH0 DUP1 PUSH0 DUP1 PUSH0 PUSH1 0xE0 DUP9 DUP11 SUB SLT ISZERO PUSH2 0x220D JUMPI PUSH2 0x220C PUSH2 0x1DCE JUMP JUMPDEST JUMPDEST PUSH0 PUSH2 0x221A DUP11 DUP3 DUP12 ADD PUSH2 0x1E18 JUMP JUMPDEST SWAP8 POP POP PUSH1 0x20 PUSH2 0x222B DUP11 DUP3 DUP12 ADD PUSH2 0x1E18 JUMP JUMPDEST SWAP7 POP POP PUSH1 0x40 PUSH2 0x223C DUP11 DUP3 DUP12 ADD PUSH2 0x1E4B JUMP JUMPDEST SWAP6 POP POP PUSH1 0x60 PUSH2 0x224D DUP11 DUP3 DUP12 ADD PUSH2 0x1E4B JUMP JUMPDEST SWAP5 POP POP PUSH1 0x80 PUSH2 0x225E DUP11 DUP3 DUP12 ADD PUSH2 0x21B4 JUMP JUMPDEST SWAP4 POP POP PUSH1 0xA0 PUSH2 0x226F DUP11 DUP3 DUP12 ADD PUSH2 0x21DE JUMP JUMPDEST SWAP3 POP POP PUSH1 0xC0 PUSH2 0x2280 DUP11 DUP3 DUP12 ADD PUSH2 0x21DE JUMP JUMPDEST SWAP2 POP POP SWAP3 SWAP6 SWAP9 SWAP2 SWAP5 SWAP8 POP SWAP3 SWAP6 POP JUMP JUMPDEST PUSH0 DUP1 PUSH1 0x40 DUP4 DUP6 SUB SLT ISZERO PUSH2 0x22A5 JUMPI PUSH2 0x22A4 PUSH2 0x1DCE JUMP JUMPDEST JUMPDEST PUSH0 PUSH2 0x22B2 DUP6 DUP3 DUP7 ADD PUSH2 0x1E18 JUMP JUMPDEST SWAP3 POP POP PUSH1 0x20 PUSH2 0x22C3 DUP6 DUP3 DUP7 ADD PUSH2 0x1E18 JUMP JUMPDEST SWAP2 POP POP SWAP3 POP SWAP3 SWAP1 POP JUMP JUMPDEST PUSH0 PUSH2 0x22D7 DUP3 PUSH2 0x1DF1 JUMP JUMPDEST SWAP1 POP SWAP2 SWAP1 POP JUMP JUMPDEST PUSH2 0x22E7 DUP2 PUSH2 0x22CD JUMP JUMPDEST DUP2 EQ PUSH2 0x22F1 JUMPI PUSH0 DUP1 REVERT JUMPDEST POP JUMP JUMPDEST PUSH0 DUP2 CALLDATALOAD SWAP1 POP PUSH2 0x2302 DUP2 PUSH2 0x22DE JUMP JUMPDEST SWAP3 SWAP2 POP POP JUMP JUMPDEST PUSH0 DUP1 PUSH0 PUSH1 0x60 DUP5 DUP7 SUB SLT ISZERO PUSH2 0x231F JUMPI PUSH2 0x231E PUSH2 0x1DCE JUMP JUMPDEST JUMPDEST PUSH0 PUSH2 0x232C DUP7 DUP3 DUP8 ADD PUSH2 0x22F4 JUMP JUMPDEST SWAP4 POP POP PUSH1 0x20 PUSH2 0x233D DUP7 DUP3 DUP8 ADD PUSH2 0x1E18 JUMP JUMPDEST SWAP3 POP POP PUSH1 0x40 PUSH2 0x234E DUP7 DUP3 DUP8 ADD PUSH2 0x1E4B JUMP JUMPDEST SWAP2 POP POP SWAP3 POP SWAP3 POP SWAP3 JUMP JUMPDEST PUSH32 0x4E487B7100000000000000000000000000000000000000000000000000000000 PUSH0 MSTORE PUSH1 0x22 PUSH1 0x4 MSTORE PUSH1 0x24 PUSH0 REVERT JUMPDEST PUSH0 PUSH1 0x2 DUP3 DIV SWAP1 POP PUSH1 0x1 DUP3 AND DUP1 PUSH2 0x239C JUMPI PUSH1 0x7F DUP3 AND SWAP2 POP JUMPDEST PUSH1 0x20 DUP3 LT DUP2 SUB PUSH2 0x23AF JUMPI PUSH2 0x23AE PUSH2 0x2358 JUMP JUMPDEST JUMPDEST POP SWAP2 SWAP1 POP JUMP JUMPDEST PUSH32 0x4E487B7100000000000000000000000000000000000000000000000000000000 PUSH0 MSTORE PUSH1 0x11 PUSH1 0x4 MSTORE PUSH1 0x24 PUSH0 REVERT JUMPDEST PUSH0 PUSH2 0x23EC DUP3 PUSH2 0x1E2C JUMP JUMPDEST SWAP2 POP PUSH2 0x23F7 DUP4 PUSH2 0x1E2C JUMP JUMPDEST SWAP3 POP DUP3 DUP3 ADD SWAP1 POP DUP1 DUP3 GT ISZERO PUSH2 0x240F JUMPI PUSH2 0x240E PUSH2 0x23B5 JUMP JUMPDEST JUMPDEST SWAP3 SWAP2 POP POP JUMP JUMPDEST PUSH32 0x5772617070656452353A20636170206578636565646564000000000000000000 PUSH0 DUP3 ADD MSTORE POP JUMP JUMPDEST PUSH0 PUSH2 0x2449 PUSH1 0x17 DUP4 PUSH2 0x1D48 JUMP JUMPDEST SWAP2 POP PUSH2 0x2454 DUP3 PUSH2 0x2415 JUMP JUMPDEST PUSH1 0x20 DUP3 ADD SWAP1 POP SWAP2 SWAP1 POP JUMP JUMPDEST PUSH0 PUSH1 0x20 DUP3 ADD SWAP1 POP DUP2 DUP2 SUB PUSH0 DUP4 ADD MSTORE PUSH2 0x2476 DUP2 PUSH2 0x243D JUMP JUMPDEST SWAP1 POP SWAP2 SWAP1 POP JUMP JUMPDEST PUSH32 0x5772617070656452353A2063616C6C6572206973206E6F74207468652070656E PUSH0 DUP3 ADD MSTORE PUSH32 0x64696E67206F776E657200000000000000000000000000000000000000000000 PUSH1 0x20 DUP3 ADD MSTORE POP JUMP JUMPDEST PUSH0 PUSH2 0x24D7 PUSH1 0x2A DUP4 PUSH2 0x1D48 JUMP JUMPDEST SWAP2 POP PUSH2 0x24E2 DUP3 PUSH2 0x247D JUMP JUMPDEST PUSH1 0x40 DUP3 ADD SWAP1 POP SWAP2 SWAP1 POP JUMP JUMPDEST PUSH0 PUSH1 0x20 DUP3 ADD SWAP1 POP DUP2 DUP2 SUB PUSH0 DUP4 ADD MSTORE PUSH2 0x2504 DUP2 PUSH2 0x24CB JUMP JUMPDEST SWAP1 POP SWAP2 SWAP1 POP JUMP JUMPDEST PUSH32 0x4E487B7100000000000000000000000000000000000000000000000000000000 PUSH0 MSTORE PUSH1 0x41 PUSH1 0x4 MSTORE PUSH1 0x24 PUSH0 REVERT JUMPDEST PUSH32 0x5772617070656452353A206E6577206F776E6572206973207A65726F20616464 PUSH0 DUP3 ADD MSTORE PUSH32 0x7265737300000000000000000000000000000000000000000000000000000000 PUSH1 0x20 DUP3 ADD MSTORE POP JUMP JUMPDEST PUSH0 PUSH2 0x2592 PUSH1 0x24 DUP4 PUSH2 0x1D48 JUMP JUMPDEST SWAP2 POP PUSH2 0x259D DUP3 PUSH2 0x2538 JUMP JUMPDEST PUSH1 0x40 DUP3 ADD SWAP1 POP SWAP2 SWAP1 POP JUMP JUMPDEST PUSH0 PUSH1 0x20 DUP3 ADD SWAP1 POP DUP2 DUP2 SUB PUSH0 DUP4 ADD MSTORE PUSH2 0x25BF DUP2 PUSH2 0x2586 JUMP JUMPDEST SWAP1 POP SWAP2 SWAP1 POP JUMP JUMPDEST PUSH0 PUSH1 0xC0 DUP3 ADD SWAP1 POP PUSH2 0x25D9 PUSH0 DUP4 ADD DUP10 PUSH2 0x1F85 JUMP JUMPDEST PUSH2 0x25E6 PUSH1 0x20 DUP4 ADD DUP9 PUSH2 0x203D JUMP JUMPDEST PUSH2 0x25F3 PUSH1 0x40 DUP4 ADD DUP8 PUSH2 0x203D JUMP JUMPDEST PUSH2 0x2600 PUSH1 0x60 DUP4 ADD DUP7 PUSH2 0x1ED0 JUMP JUMPDEST PUSH2 0x260D PUSH1 0x80 DUP4 ADD DUP6 PUSH2 0x1ED0 JUMP JUMPDEST PUSH2 0x261A PUSH1 0xA0 DUP4 ADD DUP5 PUSH2 0x1ED0 JUMP JUMPDEST SWAP8 SWAP7 POP POP POP POP POP POP POP JUMP JUMPDEST PUSH0 PUSH1 0x40 DUP3 ADD SWAP1 POP PUSH2 0x2638 PUSH0 DUP4 ADD DUP6 PUSH2 0x203D JUMP JUMPDEST PUSH2 0x2645 PUSH1 0x20 DUP4 ADD DUP5 PUSH2 0x203D JUMP JUMPDEST SWAP4 SWAP3 POP POP POP JUMP JUMPDEST PUSH0 PUSH1 0x40 DUP3 ADD SWAP1 POP PUSH2 0x265F PUSH0 DUP4 ADD DUP6 PUSH2 0x203D JUMP JUMPDEST PUSH2 0x266C PUSH1 0x20 DUP4 ADD DUP5 PUSH2 0x1ED0 JUMP JUMPDEST SWAP4 SWAP3 POP POP POP JUMP JUMPDEST PUSH2 0x267C DUP2 PUSH2 0x1E9D JUMP JUMPDEST DUP2 EQ PUSH2 0x2686 JUMPI PUSH0 DUP1 REVERT JUMPDEST POP JUMP JUMPDEST PUSH0 DUP2 MLOAD SWAP1 POP PUSH2 0x2697 DUP2 PUSH2 0x2673 JUMP JUMPDEST SWAP3 SWAP2 POP POP JUMP JUMPDEST PUSH0 PUSH1 0x20 DUP3 DUP5 SUB SLT ISZERO PUSH2 0x26B2 JUMPI PUSH2 0x26B1 PUSH2 0x1DCE JUMP JUMPDEST JUMPDEST PUSH0 PUSH2 0x26BF DUP5 DUP3 DUP6 ADD PUSH2 0x2689 JUMP JUMPDEST SWAP2 POP POP SWAP3 SWAP2 POP POP JUMP JUMPDEST PUSH0 PUSH1 0x60 DUP3 ADD SWAP1 POP PUSH2 0x26DB PUSH0 DUP4 ADD DUP7 PUSH2 0x203D JUMP JUMPDEST PUSH2 0x26E8 PUSH1 0x20 DUP4 ADD DUP6 PUSH2 0x1ED0 JUMP JUMPDEST PUSH2 0x26F5 PUSH1 0x40 DUP4 ADD DUP5 PUSH2 0x1ED0 JUMP JUMPDEST SWAP5 SWAP4 POP POP POP POP JUMP JUMPDEST PUSH32 0x5265656E7472616E637947756172643A207265656E7472616E742063616C6C00 PUSH0 DUP3 ADD MSTORE POP JUMP JUMPDEST PUSH0 PUSH2 0x2731 PUSH1 0x1F DUP4 PUSH2 0x1D48 JUMP JUMPDEST SWAP2 POP PUSH2 0x273C DUP3 PUSH2 0x26FD JUMP JUMPDEST PUSH1 0x20 DUP3 ADD SWAP1 POP SWAP2 SWAP1 POP JUMP JUMPDEST PUSH0 PUSH1 0x20 DUP3 ADD SWAP1 POP DUP2 DUP2 SUB PUSH0 DUP4 ADD MSTORE PUSH2 0x275E DUP2 PUSH2 0x2725 JUMP JUMPDEST SWAP1 POP SWAP2 SWAP1 POP JUMP JUMPDEST PUSH0 PUSH1 0xA0 DUP3 ADD SWAP1 POP PUSH2 0x2778 PUSH0 DUP4 ADD DUP9 PUSH2 0x1F85 JUMP JUMPDEST PUSH2 0x2785 PUSH1 0x20 DUP4 ADD DUP8 PUSH2 0x1F85 JUMP JUMPDEST PUSH2 0x2792 PUSH1 0x40 DUP4 ADD DUP7 PUSH2 0x1F85 JUMP JUMPDEST PUSH2 0x279F PUSH1 0x60 DUP4 ADD DUP6 PUSH2 0x1ED0 JUMP JUMPDEST PUSH2 0x27AC PUSH1 0x80 DUP4 ADD DUP5 PUSH2 0x203D JUMP JUMPDEST SWAP7 SWAP6 POP POP POP POP POP POP JUMP JUMPDEST PUSH0 PUSH1 0x80 DUP3 ADD SWAP1 POP PUSH2 0x27C9 PUSH0 DUP4 ADD DUP8 PUSH2 0x1F85 JUMP JUMPDEST PUSH2 0x27D6 PUSH1 0x20 DUP4 ADD DUP7 PUSH2 0x1F54 JUMP JUMPDEST PUSH2 0x27E3 PUSH1 0x40 DUP4 ADD DUP6 PUSH2 0x1F85 JUMP JUMPDEST PUSH2 0x27F0 PUSH1 0x60 DUP4 ADD DUP5 PUSH2 0x1F85 JUMP JUMPDEST SWAP6 SWAP5 POP POP POP POP POP JUMP JUMPDEST PUSH32 0x4E487B7100000000000000000000000000000000000000000000000000000000 PUSH0 MSTORE PUSH1 0x21 PUSH1 0x4 MSTORE PUSH1 0x24 PUSH0 REVERT INVALID LOG2 PUSH5 0x6970667358 0x22 SLT KECCAK256 CHAINID 0xEC CALLER 0xC 0xE2 0xA8 PUSH14 0xCE04904D74095C3D856E12831B32 TLOAD 0xD4 BLOBBASEFEE SHL 0x2D 0xD9 SLOAD 0xCA 0xF7 DELEGATECALL 0xAE PUSH5 0x736F6C6343 STOP ADDMOD BYTE STOP CALLER "
	},
	"Assembly": ".code\n  PUSH 160\t\t\tntract WrappedR5 is\\r\\n    ERC...\n  PUSH 40\t\t\tntract WrappedR5 is\\r\\n    ERC...\n  MSTORE \t\t\tntract WrappedR5 is\\r\\n    ERC...\n  CALLVALUE \t\t\tnstructor()\\r\\n        ERC20(\"...\n  DUP1 \t\t\tnstructor()\\r\\n        ERC20(\"...\n  ISZERO \t\t\tnstructor()\\r\\n        ERC20(\"...\n  PUSH [tag] 1\t\t\tnstructor()\\r\\n        ERC20(\"...\n  JUMPI \t\t\tnstructor()\\r\\n        ERC20(\"...\n  PUSH 0\t\t\tnstructor()\\r\\n        ERC20(\"...\n  DUP1 \t\t\tnstructor()\\r\\n        ERC20(\"...\n  REVERT \t\t\tnstructor()\\r\\n        ERC20(\"...\ntag 1\t\t\tnstructor()\\r\\n        ERC20(\"...\n  JUMPDEST \t\t\tnstructor()\\r\\n        ERC20(\"...\n  POP \t\t\tnstructor()\\r\\n        ERC20(\"...\n  CALLER \t\t\tg.sender)\\r\n  PUSH 40\t\t\table(msg.sender)\\r\\n    {\\r\\n ...\n  MLOAD \t\t\table(msg.sender)\\r\\n    {\\r\\n ...\n  DUP1 \t\t\table(msg.sender)\\r\\n    {\\r\\n ...\n  PUSH 40\t\t\table(msg.sender)\\r\\n    {\\r\\n ...\n  ADD \t\t\table(msg.sender)\\r\\n    {\\r\\n ...\n  PUSH 40\t\t\table(msg.sender)\\r\\n    {\\r\\n ...\n  MSTORE \t\t\table(msg.sender)\\r\\n    {\\r\\n ...\n  DUP1 \t\t\table(msg.sender)\\r\\n    {\\r\\n ...\n  PUSH A\t\t\table(msg.sender)\\r\\n    {\\r\\n ...\n  DUP2 \t\t\table(msg.sender)\\r\\n    {\\r\\n ...\n  MSTORE \t\t\table(msg.sender)\\r\\n    {\\r\\n ...\n  PUSH 20\t\t\table(msg.sender)\\r\\n    {\\r\\n ...\n  ADD \t\t\table(msg.sender)\\r\\n    {\\r\\n ...\n  PUSH 5772617070656420523500000000000000000000000000000000000000000000\t\t\table(msg.sender)\\r\\n    {\\r\\n ...\n  DUP2 \t\t\table(msg.sender)\\r\\n    {\\r\\n ...\n  MSTORE \t\t\table(msg.sender)\\r\\n    {\\r\\n ...\n  POP \t\t\table(msg.sender)\\r\\n    {\\r\\n ...\n  DUP1 \t\t\ter i\n  PUSH 40\t\t\t@notice Rescue any ERC20 token...\n  MLOAD \t\t\t@notice Rescue any ERC20 token...\n  DUP1 \t\t\t@notice Rescue any ERC20 token...\n  PUSH 40\t\t\t@notice Rescue any ERC20 token...\n  ADD \t\t\t@notice Rescue any ERC20 token...\n  PUSH 40\t\t\t@notice Rescue any ERC20 token...\n  MSTORE \t\t\t@notice Rescue any ERC20 token...\n  DUP1 \t\t\t@notice Rescue any ERC20 token...\n  PUSH 1\t\t\t@notice Rescue any ERC20 token...\n  DUP2 \t\t\t@notice Rescue any ERC20 token...\n  MSTORE \t\t\t@notice Rescue any ERC20 token...\n  PUSH 20\t\t\t@notice Rescue any ERC20 token...\n  ADD \t\t\t@notice Rescue any ERC20 token...\n  PUSH 3100000000000000000000000000000000000000000000000000000000000000\t\t\t@notice Rescue any ERC20 token...\n  DUP2 \t\t\t@notice Rescue any ERC20 token...\n  MSTORE \t\t\t@notice Rescue any ERC20 token...\n  POP \t\t\t@notice Rescue any ERC20 token...\n  PUSH 40\t\t\tmsg.sender)\\r\\n    {\\r\\n      ...\n  MLOAD \t\t\tmsg.sender)\\r\\n    {\\r\\n      ...\n  DUP1 \t\t\tmsg.sender)\\r\\n    {\\r\\n      ...\n  PUSH 40\t\t\tmsg.sender)\\r\\n    {\\r\\n      ...\n  ADD \t\t\tmsg.sender)\\r\\n    {\\r\\n      ...\n  PUSH 40\t\t\tmsg.sender)\\r\\n    {\\r\\n      ...\n  MSTORE \t\t\tmsg.sender)\\r\\n    {\\r\\n      ...\n  DUP1 \t\t\tmsg.sender)\\r\\n    {\\r\\n      ...\n  PUSH A\t\t\tmsg.sender)\\r\\n    {\\r\\n      ...\n  DUP2 \t\t\tmsg.sender)\\r\\n    {\\r\\n      ...\n  MSTORE \t\t\tmsg.sender)\\r\\n    {\\r\\n      ...\n  PUSH 20\t\t\tmsg.sender)\\r\\n    {\\r\\n      ...\n  ADD \t\t\tmsg.sender)\\r\\n    {\\r\\n      ...\n  PUSH 5772617070656420523500000000000000000000000000000000000000000000\t\t\tmsg.sender)\\r\\n    {\\r\\n      ...\n  DUP2 \t\t\tmsg.sender)\\r\\n    {\\r\\n      ...\n  MSTORE \t\t\tmsg.sender)\\r\\n    {\\r\\n      ...\n  POP \t\t\tmsg.sender)\\r\\n    {\\r\\n      ...\n  PUSH 40\t\t\tmsg.sender)\\r\\n    {\\r\\n      ...\n  MLOAD \t\t\tmsg.sender)\\r\\n    {\\r\\n      ...\n  DUP1 \t\t\tmsg.sender)\\r\\n    {\\r\\n      ...\n  PUSH 40\t\t\tmsg.sender)\\r\\n    {\\r\\n      ...\n  ADD \t\t\tmsg.sender)\\r\\n    {\\r\\n      ...\n  PUSH 40\t\t\tmsg.sender)\\r\\n    {\\r\\n      ...\n  MSTORE \t\t\tmsg.sender)\\r\\n    {\\r\\n      ...\n  DUP1 \t\t\tmsg.sender)\\r\\n    {\\r\\n      ...\n  PUSH 3\t\t\tmsg.sender)\\r\\n    {\\r\\n      ...\n  DUP2 \t\t\tmsg.sender)\\r\\n    {\\r\\n      ...\n  MSTORE \t\t\tmsg.sender)\\r\\n    {\\r\\n      ...\n  PUSH 20\t\t\tmsg.sender)\\r\\n    {\\r\\n      ...\n  ADD \t\t\tmsg.sender)\\r\\n    {\\r\\n      ...\n  PUSH 5752350000000000000000000000000000000000000000000000000000000000\t\t\tmsg.sender)\\r\\n    {\\r\\n      ...\n  DUP2 \t\t\tmsg.sender)\\r\\n    {\\r\\n      ...\n  MSTORE \t\t\tmsg.sender)\\r\\n    {\\r\\n      ...\n  POP \t\t\tmsg.sender)\\r\\n    {\\r\\n      ...\n  DUP2 \t\t\t /// \n  PUSH 3\t\t\t}\\r\\n\\r\\n\n  SWAP1 \t\t\t}\\r\\n\\r\\n    /// \n  DUP2 \t\t\t}\\r\\n\\r\\n    /// \n  PUSH [tag] 9\t\t\t}\\r\\n\\r\\n    /// \n  SWAP2 \t\t\t}\\r\\n\\r\\n    /// \n  SWAP1 \t\t\t}\\r\\n\\r\\n    /// \n  PUSH [tag] 10\t\t\t}\\r\\n\\r\\n    /// \n  JUMP \t\t\t}\\r\\n\\r\\n    /// \ntag 9\t\t\t}\\r\\n\\r\\n    /// \n  JUMPDEST \t\t\t}\\r\\n\\r\\n    /// \n  POP \t\t\t}\\r\\n\\r\\n    /// \n  DUP1 \t\t\tress pe\n  PUSH 4\t\t\tew the \n  SWAP1 \t\t\tew the address pe\n  DUP2 \t\t\tew the address pe\n  PUSH [tag] 11\t\t\tew the address pe\n  SWAP2 \t\t\tew the address pe\n  SWAP1 \t\t\tew the address pe\n  PUSH [tag] 10\t\t\tew the address pe\n  JUMP \t\t\tew the address pe\ntag 11\t\t\tew the address pe\n  JUMPDEST \t\t\tew the address pe\n  POP \t\t\tew the address pe\n  POP \t\t\tmsg.sender)\\r\\n    {\\r\\n      ...\n  POP \t\t\tmsg.sender)\\r\\n    {\\r\\n      ...\n  PUSH [tag] 13\t\t\tn  The ERC20 contract to pull ...\n  PUSH 5\t\t\tokens from\\r\\n \n  DUP4 \t\t\tn  T\n  PUSH [tag] 14\t\t\tn  The ERC20 contract to pull \n  PUSH 20\t\t\tn  The ERC20 contract to pull \n  SHL \t\t\tn  The ERC20 contract to pull \n  SWAP1 \t\t\tn  The ERC20 contract to pull \n  SWAP2 \t\t\tn  The ERC20 contract to pull ...\n  SWAP1 \t\t\tn  The ERC20 contract to pull ...\n  PUSH 20\t\t\tn  The ERC20 contract to pull ...\n  SHR \t\t\tn  The ERC20 contract to pull ...\n  JUMP \t\t\tn  The ERC20 contract to pull ...\ntag 13\t\t\tn  The ERC20 contract to pull ...\n  JUMPDEST \t\t\tn  The ERC20 contract to pull ...\n  PUSH 120\t\t\tram token  The ERC20 contract ...\n  DUP2 \t\t\tram token  The ERC20 contract ...\n  DUP2 \t\t\tram token  The ERC20 contract ...\n  MSTORE \t\t\tram token  The ERC20 contract ...\n  POP \t\t\tram token  The ERC20 contract ...\n  POP \t\t\tram token  The ERC20 contract ...\n  PUSH [tag] 15\t\t\tecipient of the rescued tokens...\n  PUSH 6\t\t\t  /// @param amo\n  DUP3 \t\t\tecipien\n  PUSH [tag] 14\t\t\tecipient of the rescued tokens...\n  PUSH 20\t\t\tecipient of the rescued tokens...\n  SHL \t\t\tecipient of the rescued tokens...\n  SWAP1 \t\t\tecipient of the rescued tokens...\n  SWAP2 \t\t\tecipient of the rescued tokens...\n  SWAP1 \t\t\tecipient of the rescued tokens...\n  PUSH 20\t\t\tecipient of the rescued tokens...\n  SHR \t\t\tecipient of the rescued tokens...\n  JUMP \t\t\tecipient of the rescued tokens...\ntag 15\t\t\tecipient of the rescued tokens...\n  JUMPDEST \t\t\tecipient of the rescued tokens...\n  PUSH 140\t\t\tam to     Recipient of the res...\n  DUP2 \t\t\tam to     Recipient of the res...\n  DUP2 \t\t\tam to     Recipient of the res...\n  MSTORE \t\t\tam to     Recipient of the res...\n  POP \t\t\tam to     Recipient of the res...\n  POP \t\t\tam to     Recipient of the res...\n  DUP2 \t\t\tency\n  DUP1 \t\t\t  function emergencyRe\n  MLOAD \t\t\t  function emergencyRe\n  SWAP1 \t\t\t  function emergencyRe\n  PUSH 20\t\t\t  function emergencyRe\n  ADD \t\t\t  function emergencyRe\n  KECCAK256 \t\t\t  function emergencyRe\n  PUSH E0\t\t\tto recover\\r\\n    function eme...\n  DUP2 \t\t\tto recover\\r\\n    function eme...\n  DUP2 \t\t\tto recover\\r\\n    function eme...\n  MSTORE \t\t\tto recover\\r\\n    function eme...\n  POP \t\t\tto recover\\r\\n    function eme...\n  POP \t\t\tto recover\\r\\n    function eme...\n  DUP1 \t\t\t addres\n  DUP1 \t\t\t token,\\r\\n        address \n  MLOAD \t\t\t token,\\r\\n        address \n  SWAP1 \t\t\t token,\\r\\n        address \n  PUSH 20\t\t\t token,\\r\\n        address \n  ADD \t\t\t token,\\r\\n        address \n  KECCAK256 \t\t\t token,\\r\\n        address \n  PUSH 100\t\t\t(\\r\\n        IERC20 token,\\r\\n...\n  DUP2 \t\t\t(\\r\\n        IERC20 token,\\r\\n...\n  DUP2 \t\t\t(\\r\\n        IERC20 token,\\r\\n...\n  MSTORE \t\t\t(\\r\\n        IERC20 token,\\r\\n...\n  POP \t\t\t(\\r\\n        IERC20 token,\\r\\n...\n  POP \t\t\t(\\r\\n        IERC20 token,\\r\\n...\n  CHAINID \t\t\t\\n    ) extern\n  PUSH A0\t\t\t  uint256 amount\\r\\n    ) exte...\n  DUP2 \t\t\t  uint256 amount\\r\\n    ) exte...\n  DUP2 \t\t\t  uint256 amount\\r\\n    ) exte...\n  MSTORE \t\t\t  uint256 amount\\r\\n    ) exte...\n  POP \t\t\t  uint256 amount\\r\\n    ) exte...\n  POP \t\t\t  uint256 amount\\r\\n    ) exte...\n  PUSH [tag] 16\t\t\tfer(to, amount);\\r\\n     \n  PUSH [tag] 17\t\t\tfer(to, amount);\\r\\n   \n  PUSH 20\t\t\tfer(to, amount);\\r\\n   \n  SHL \t\t\tfer(to, amount);\\r\\n   \n  PUSH 20\t\t\tfer(to, amount);\\r\\n     \n  SHR \t\t\tfer(to, amount);\\r\\n     \n  JUMP \t\t\tfer(to, amount);\\r\\n     \ntag 16\t\t\tfer(to, amount);\\r\\n     \n  JUMPDEST \t\t\tfer(to, amount);\\r\\n     \n  PUSH 80\t\t\ter {\\r\\n        token.transfer...\n  DUP2 \t\t\ter {\\r\\n        token.transfer...\n  DUP2 \t\t\ter {\\r\\n        token.transfer...\n  MSTORE \t\t\ter {\\r\\n        token.transfer...\n  POP \t\t\ter {\\r\\n        token.transfer...\n  POP \t\t\ter {\\r\\n        token.transfer...\n  ADDRESS \t\t\ttoke\n  PUSH FFFFFFFFFFFFFFFFFFFFFFFFFFFFFFFFFFFFFFFF\t\t\tkensRecovered(address(token\n  AND \t\t\tkensRecovered(address(token\n  PUSH C0\t\t\tkensRecovered(address(token\n  DUP2 \t\t\tkensRecovered(address(token\n  PUSH FFFFFFFFFFFFFFFFFFFFFFFFFFFFFFFFFFFFFFFF\t\t\tkensRecovered(address(token\n  AND \t\t\tkensRecovered(address(token\n  DUP2 \t\t\tkensRecovered(address(token\n  MSTORE \t\t\tkensRecovered(address(token\n  POP \t\t\tkensRecovered(address(token\n  POP \t\t\tkensRecovered(address(token\n  POP \t\t\t@notice Rescue any ERC20 token...\n  POP \t\t\t@notice Rescue any ERC20 token...\n  POP \t\t\table(msg.sender)\\r\\n    {\\r\\n ...\n  PUSH 0\t\t\td\n  PUSH FFFFFFFFFFFFFFFFFFFFFFFFFFFFFFFFFFFFFFFF\t\t\t OwnershipTransferStarted(\n  AND \t\t\t OwnershipTransferStarted(\n  DUP2 \t\t\t OwnershipTr\n  PUSH FFFFFFFFFFFFFFFFFFFFFFFFFFFFFFFFFFFFFFFF\t\t\t OwnershipTransferStarted(\n  AND \t\t\t OwnershipTransferStarted(\n  SUB \t\t\t OwnershipTransferStarted(\n  PUSH [tag] 20\t\t\tvent OwnershipTransferStarted(...\n  JUMPI \t\t\tvent OwnershipTransferStarted(...\n  PUSH 0\t\t\td\n  PUSH 40\t\t\ted previousOwner,\\r\\n        a...\n  MLOAD \t\t\ted previousOwner,\\r\\n        a...\n  PUSH 1E4FBDF700000000000000000000000000000000000000000000000000000000\t\t\ted previousOwner,\\r\\n        a...\n  DUP2 \t\t\ted previousOwner,\\r\\n        a...\n  MSTORE \t\t\ted previousOwner,\\r\\n        a...\n  PUSH 4\t\t\ted previousOwner,\\r\\n        a...\n  ADD \t\t\ted previousOwner,\\r\\n        a...\n  PUSH [tag] 21\t\t\ted previousOwner,\\r\\n        a...\n  SWAP2 \t\t\ted previousOwner,\\r\\n        a...\n  SWAP1 \t\t\ted previousOwner,\\r\\n        a...\n  PUSH [tag] 22\t\t\ted previousOwner,\\r\\n        a...\n  JUMP \t\t\ted previousOwner,\\r\\n        a...\ntag 21\t\t\ted previousOwner,\\r\\n        a...\n  JUMPDEST \t\t\ted previousOwner,\\r\\n        a...\n  PUSH 40\t\t\ted previousOwner,\\r\\n        a...\n  MLOAD \t\t\ted previousOwner,\\r\\n        a...\n  DUP1 \t\t\ted previousOwner,\\r\\n        a...\n  SWAP2 \t\t\ted previousOwner,\\r\\n        a...\n  SUB \t\t\ted previousOwner,\\r\\n        a...\n  SWAP1 \t\t\ted previousOwner,\\r\\n        a...\n  REVERT \t\t\ted previousOwner,\\r\\n        a...\ntag 20\t\t\tvent OwnershipTransferStarted(...\n  JUMPDEST \t\t\tvent OwnershipTransferStarted(...\n  PUSH [tag] 23\t\t\t\\r\\n    );\\r\\n\\r\\n    /// @dev...\n  DUP2 \t\t\t @dev The ad\n  PUSH [tag] 24\t\t\t\\r\\n    );\\r\\n\\r\\n    //\n  PUSH 20\t\t\t\\r\\n    );\\r\\n\\r\\n    //\n  SHL \t\t\t\\r\\n    );\\r\\n\\r\\n    //\n  PUSH 20\t\t\t\\r\\n    );\\r\\n\\r\\n    /// @dev...\n  SHR \t\t\t\\r\\n    );\\r\\n\\r\\n    /// @dev...\n  JUMP \t\t\t\\r\\n    );\\r\\n\\r\\n    /// @dev...\ntag 23\t\t\t\\r\\n    );\\r\\n\\r\\n    /// @dev...\n  JUMPDEST \t\t\t\\r\\n    );\\r\\n\\r\\n    /// @dev...\n  POP \t\t\t when ownership transfer is in...\n  PUSH 1\t\t\tu\n  PUSH 9\t\t\tnotice \n  DUP2 \t\t\tnotice Initiate owners\n  SWAP1 \t\t\tnotice Initiate owners\n  SSTORE \t\t\tnotice Initiate owners\n  POP \t\t\tnotice Initiate owners\n  PUSH [tag] 27\t\t\tntract WrappedR5 is\\r\\n    ERC...\n  JUMP \t\t\tntract WrappedR5 is\\r\\n    ERC...\ntag 14\t\t\tceeded\");\\r\\n        _mint(to,...\n  JUMPDEST \t\t\tceeded\");\\r\\n        _mint(to,...\n  PUSH 0\t\t\t@notice Bur\n  PUSH 20\t\t\tt\\r\n  DUP4 \t\t\tts a \n  MLOAD \t\t\ts; emits a custom e\n  LT \t\t\ts; emits a custom event\\r\n  ISZERO \t\t\tokens; emits a custom event\\r\\...\n  PUSH [tag] 29\t\t\tokens; emits a custom event\\r\\...\n  JUMPI \t\t\tokens; emits a custom event\\r\\...\n  PUSH [tag] 30\t\t\t256 amount) public o\n  DUP4 \t\t\tblic \n  PUSH [tag] 31\t\t\t256 amount) p\n  PUSH 20\t\t\t256 amount) p\n  SHL \t\t\t256 amount) p\n  PUSH 20\t\t\t256 amount) public o\n  SHR \t\t\t256 amount) public o\n  JUMP \t\t\t256 amount) public o\ntag 30\t\t\t256 amount) public o\n  JUMPDEST \t\t\t256 amount) public o\n  SWAP1 \t\t\trn(uint256 amount) public o\n  POP \t\t\trn(uint256 amount) public o\n  PUSH [tag] 28\t\t\trn(uint256 amount) public o\n  JUMP \t\t\trn(uint256 amount) public o\ntag 29\t\t\tokens; emits a custom event\\r\\...\n  JUMPDEST \t\t\tokens; emits a custom event\\r\\...\n  DUP3 \t\t\tnder(\n  PUSH [tag] 33\t\t\tmount);\\r\\n        emit Tokens...\n  DUP4 \t\t\tnsBur\n  PUSH [tag] 34\t\t\tmount);\\r\\n        emit Tok\n  PUSH 20\t\t\tmount);\\r\\n        emit Tok\n  SHL \t\t\tmount);\\r\\n        emit Tok\n  PUSH 20\t\t\tmount);\\r\\n        emit Tokens...\n  SHR \t\t\tmount);\\r\\n        emit Tokens...\n  JUMP \t\t\tmount);\\r\\n        emit Tokens...\ntag 33\t\t\tmount);\\r\\n        emit Tokens...\n  JUMPDEST \t\t\tmount);\\r\\n        emit Tokens...\n  PUSH 0\t\t\tmount);\\r\\n        emit Tokens...\n  ADD \t\t\tmount);\\r\\n        emit Tokens...\n  SWAP1 \t\t\tmount);\\r\\n        emit Tokens...\n  DUP2 \t\t\tmount);\\r\\n        emit Tokens...\n  PUSH [tag] 35\t\t\tmount);\\r\\n        emit Tokens...\n  SWAP2 \t\t\tmount);\\r\\n        emit Tokens...\n  SWAP1 \t\t\tmount);\\r\\n        emit Tokens...\n  PUSH [tag] 10\t\t\tmount);\\r\\n        emit Tokens...\n  JUMP \t\t\tmount);\\r\\n        emit Tokens...\ntag 35\t\t\tmount);\\r\\n        emit Tokens...\n  JUMPDEST \t\t\tmount);\\r\\n        emit Tokens...\n  POP \t\t\tmount);\\r\\n        emit Tokens...\n  PUSH FF\t\t\t// @dev The address pending ow...\n  PUSH 0\t\t\tBurn from someone\n  SHL \t\t\tBurn from someone\n  SWAP1 \t\t\t   }\\r\\n\\r\\n    /// @notice Bu...\n  POP \t\t\t   }\\r\\n\\r\\n    /// @notice Bu...\ntag 28\t\t\tceeded\");\\r\\n        _mint(to,...\n  JUMPDEST \t\t\tceeded\");\\r\\n        _mint(to,...\n  SWAP3 \t\t\tceeded\");\\r\\n        _mint(to,...\n  SWAP2 \t\t\tceeded\");\\r\\n        _mint(to,...\n  POP \t\t\tceeded\");\\r\\n        _mint(to,...\n  POP \t\t\tceeded\");\\r\\n        _mint(to,...\n  JUMP \t\t\tceeded\");\\r\\n        _mint(to,...\ntag 17\t\t\t\n  JUMPDEST \t\t\t\n  PUSH 0\t\t\t\n  PUSH 8B73C3C69BB8FE3D512ECC4CF759CC79239F7B179B0FFACAA9A75D522B39400F\t\t\tnewOwner != address(0), \"Wrapp...\n  PUSH E0\t\t\t\n  MLOAD \t\t\t\n  PUSH 100\t\t\t\n  MLOAD \t\t\t\n  CHAINID \t\t\t\n  ADDRESS \t\t\t\n  PUSH 40\t\t\t\n  MLOAD \t\t\t\n  PUSH 20\t\t\t\n  ADD \t\t\t\n  PUSH [tag] 37\t\t\t\n  SWAP6 \t\t\t\n  SWAP5 \t\t\t\n  SWAP4 \t\t\t\n  SWAP3 \t\t\t\n  SWAP2 \t\t\t\n  SWAP1 \t\t\t\n  PUSH [tag] 38\t\t\t\n  JUMP \t\t\t\ntag 37\t\t\t\n  JUMPDEST \t\t\t\n  PUSH 40\t\t\t\n  MLOAD \t\t\t\n  PUSH 20\t\t\t\n  DUP2 \t\t\t\n  DUP4 \t\t\t\n  SUB \t\t\t\n  SUB \t\t\t\n  DUP2 \t\t\t\n  MSTORE \t\t\t\n  SWAP1 \t\t\t\n  PUSH 40\t\t\t\n  MSTORE \t\t\t\n  DUP1 \t\t\t\n  MLOAD \t\t\t\n  SWAP1 \t\t\t\n  PUSH 20\t\t\t\n  ADD \t\t\t\n  KECCAK256 \t\t\t\n  SWAP1 \t\t\t\n  POP \t\t\t\n  SWAP1 \t\t\t\n  JUMP \t\t\t\ntag 24\t\t\tto, amount);\\r\\n        emit T...\n  JUMPDEST \t\t\tto, amount);\\r\\n        emit T...\n  PUSH 0\t\t\totice Burn your \n  PUSH 8\t\t\t token\n  PUSH 0\t\t\t token\n  SWAP1 \t\t\t token\n  SLOAD \t\t\t token\n  SWAP1 \t\t\t token\n  PUSH 100\t\t\t token\n  EXP \t\t\t token\n  SWAP1 \t\t\t token\n  DIV \t\t\t token\n  PUSH FFFFFFFFFFFFFFFFFFFFFFFFFFFFFFFFFFFFFFFF\t\t\t token\n  AND \t\t\t token\n  SWAP1 \t\t\totice Burn your own token\n  POP \t\t\totice Burn your own token\n  DUP2 \t\t\tvent\\r\\n  \n  PUSH 8\t\t\t custo\n  PUSH 0\t\t\t custo\n  PUSH 100\t\t\t custom event\\r\\n  \n  EXP \t\t\t custom event\\r\\n  \n  DUP2 \t\t\t custom event\\r\\n  \n  SLOAD \t\t\t custom event\\r\\n  \n  DUP2 \t\t\t custom event\\r\\n  \n  PUSH FFFFFFFFFFFFFFFFFFFFFFFFFFFFFFFFFFFFFFFF\t\t\t custom event\\r\\n  \n  MUL \t\t\t custom event\\r\\n  \n  NOT \t\t\t custom event\\r\\n  \n  AND \t\t\t custom event\\r\\n  \n  SWAP1 \t\t\t custom event\\r\\n  \n  DUP4 \t\t\t custom event\\r\\n  \n  PUSH FFFFFFFFFFFFFFFFFFFFFFFFFFFFFFFFFFFFFFFF\t\t\t custom event\\r\\n  \n  AND \t\t\t custom event\\r\\n  \n  MUL \t\t\t custom event\\r\\n  \n  OR \t\t\t custom event\\r\\n  \n  SWAP1 \t\t\t custom event\\r\\n  \n  SSTORE \t\t\t custom event\\r\\n  \n  POP \t\t\t custom event\\r\\n  \n  DUP2 \t\t\te {\\r\\n   \n  PUSH FFFFFFFFFFFFFFFFFFFFFFFFFFFFFFFFFFFFFFFF\t\t\t(uint256 amount) public overri...\n  AND \t\t\t(uint256 amount) public overri...\n  DUP2 \t\t\tic overr\n  PUSH FFFFFFFFFFFFFFFFFFFFFFFFFFFFFFFFFFFFFFFF\t\t\t(uint256 amount) public overri...\n  AND \t\t\t(uint256 amount) public overri...\n  PUSH 8BE0079C531659141344CD1FD0A4F28419497F9722A3DAAFE3B4186F6B6457E0\t\t\t(uint256 amount) public overri...\n  PUSH 40\t\t\t(uint256 amount) public overri...\n  MLOAD \t\t\t(uint256 amount) public overri...\n  PUSH 40\t\t\t(uint256 amount) public overri...\n  MLOAD \t\t\t(uint256 amount) public overri...\n  DUP1 \t\t\t(uint256 amount) public overri...\n  SWAP2 \t\t\t(uint256 amount) public overri...\n  SUB \t\t\t(uint256 amount) public overri...\n  SWAP1 \t\t\t(uint256 amount) public overri...\n  LOG3 \t\t\t(uint256 amount) public overri...\n  POP \t\t\t    /// @notice Burn your own ...\n  POP \t\t\tto, amount);\\r\\n        emit T...\n  JUMP \t\t\tto, amount);\\r\\n        emit T...\ntag 31\t\t\tr\\r\\n    function pendingOwner...\n  JUMPDEST \t\t\tr\\r\\n    function pendingOwner...\n  PUSH 0\t\t\t       retu\n  DUP1 \t\t\twner;\\r\\n    }\\r\\n\\r\\n \n  DUP3 \t\t\toti\n  SWAP1 \t\t\twner;\\r\\n    }\\r\\n\\r\\n    /// ...\n  POP \t\t\twner;\\r\\n    }\\r\\n\\r\\n    /// ...\n  PUSH 1F\t\t\tr \n  DUP2 \t\t\tersh\n  MLOAD \t\t\tership tran\n  GT \t\t\tership transfer \n  ISZERO \t\t\t ownership transfer to a new a...\n  PUSH [tag] 41\t\t\t ownership transfer to a new a...\n  JUMPI \t\t\t ownership transfer to a new a...\n  DUP3 \t\t\tcce\n  PUSH 40\t\t\twner` cannot accep\n  MLOAD \t\t\twner` cannot accep\n  PUSH 305A27A900000000000000000000000000000000000000000000000000000000\t\t\twner` cannot accep\n  DUP2 \t\t\twner` cannot accep\n  MSTORE \t\t\twner` cannot accep\n  PUSH 4\t\t\twner` cannot accep\n  ADD \t\t\twner` cannot accep\n  PUSH [tag] 42\t\t\twner` cannot accep\n  SWAP2 \t\t\twner` cannot accep\n  SWAP1 \t\t\twner` cannot accep\n  PUSH [tag] 43\t\t\twner` cannot accep\n  JUMP \t\t\twner` cannot accep\ntag 42\t\t\twner` cannot accep\n  JUMPDEST \t\t\twner` cannot accep\n  PUSH 40\t\t\twner` cannot accep\n  MLOAD \t\t\twner` cannot accep\n  DUP1 \t\t\twner` cannot accep\n  SWAP2 \t\t\twner` cannot accep\n  SUB \t\t\twner` cannot accep\n  SWAP1 \t\t\twner` cannot accep\n  REVERT \t\t\twner` cannot accep\ntag 41\t\t\t ownership transfer to a new a...\n  JUMPDEST \t\t\t ownership transfer to a new a...\n  DUP1 \t\t\trshi\n  MLOAD \t\t\trship to\\r\\n \n  DUP2 \t\t\tsfer\n  PUSH [tag] 44\t\t\t to transfer \n  SWAP1 \t\t\t to transfer \n  PUSH [tag] 45\t\t\t to transfer \n  JUMP \t\t\t to transfer \ntag 44\t\t\t to transfer \n  JUMPDEST \t\t\t to transfer \n  PUSH 0\t\t\t address to transfer o\n  SHR \t\t\t address to transfer o\n  OR \t\t\t address to transfer ownership...\n  PUSH 0\t\t\twner The address to transfer o...\n  SHL \t\t\twner The address to transfer o...\n  SWAP2 \t\t\ted)\\r\\n    /// @param newOwner...\n  POP \t\t\ted)\\r\\n    /// @param newOwner...\n  POP \t\t\ted)\\r\\n    /// @param newOwner...\n  SWAP2 \t\t\tr\\r\\n    function pendingOwner...\n  SWAP1 \t\t\tr\\r\\n    function pendingOwner...\n  POP \t\t\tr\\r\\n    function pendingOwner...\n  JUMP \t\t\tr\\r\\n    function pendingOwner...\ntag 34\t\t\te by mistake\\r\\n    /// @param...\n  JUMPDEST \t\t\te by mistake\\r\\n    /// @param...\n  PUSH 0\t\t\ts from\\r\\n    /// @par\n  DUP2 \t\t\tunt Amount\n  SWAP1 \t\t\t@param amount Amount\n  POP \t\t\t@param amount Amount\n  SWAP2 \t\t\te by mistake\\r\\n    /// @param...\n  SWAP1 \t\t\te by mistake\\r\\n    /// @param...\n  POP \t\t\te by mistake\\r\\n    /// @param...\n  JUMP \t\t\te by mistake\\r\\n    /// @param...\ntag 47\t\t\t-License-Identifier: MIT\\r\\npr...\n  JUMPDEST \t\t\t-License-Identifier: MIT\\r\\npr...\n  PUSH 0\t\t\t.9;\\r\\n\\r\n  DUP2 \t\t\tacts/\n  MLOAD \t\t\t/contracts/t\n  SWAP1 \t\t\tenzeppelin/contracts/t\n  POP \t\t\tenzeppelin/contracts/t\n  SWAP2 \t\t\t-License-Identifier: MIT\\r\\npr...\n  SWAP1 \t\t\t-License-Identifier: MIT\\r\\npr...\n  POP \t\t\t-License-Identifier: MIT\\r\\npr...\n  JUMP \t\t\t-License-Identifier: MIT\\r\\npr...\ntag 48\t\t\tRC20.sol\";\\r\\nimport \"@openzep...\n  JUMPDEST \t\t\tRC20.sol\";\\r\\nimport \"@openzep...\n  PUSH 4E487B7100000000000000000000000000000000000000000000000000000000\t\t\tn/ERC20/ERC20.sol\";\\r\\nimport ...\n  PUSH 0\t\t\to\n  MSTORE \t\t\tracts/token/ERC20/ERC20.sol\";\\...\n  PUSH 41\t\t\timpo\n  PUSH 4\t\t\t;\n  MSTORE \t\t\tle.sol\";\\r\\nimpor\n  PUSH 24\t\t\tntra\n  PUSH 0\t\t\t/\n  REVERT \t\t\teppelin/contrac\ntag 49\t\t\t20/extensions/ERC20Permit.sol\"...\n  JUMPDEST \t\t\t20/extensions/ERC20Permit.sol\"...\n  PUSH 4E487B7100000000000000000000000000000000000000000000000000000000\t\t\tppelin/contracts/access/Ownabl...\n  PUSH 0\t\t\tn\n  MSTORE \t\t\tt \"@openzeppelin/contracts/acc...\n  PUSH 22\t\t\tol\";\n  PUSH 4\t\t\td\n  MSTORE \t\t\tncyGuard.sol\";\\r\n  PUSH 24\t\t\ted R\n  PUSH 0\t\t\ta\n  REVERT \t\t\title Wrapped R5\ntag 50\t\t\te ERC20 wrapper for R5 coin wi...\n  JUMPDEST \t\t\te ERC20 wrapper for R5 coin wi...\n  PUSH 0\t\t\t, burn\n  PUSH 2\t\t\t \n  DUP3 \t\t\tntra\n  DIV \t\t\t\\r\\ncontract W\n  SWAP1 \t\t\t612 permit\\r\\ncontract W\n  POP \t\t\t612 permit\\r\\ncontract W\n  PUSH 1\t\t\t \n  DUP3 \t\t\tble,\n  AND \t\t\turnable,\\r\\n  \n  DUP1 \t\t\t Ownable,\\r\\n    Ree\n  PUSH [tag] 85\t\t\trmit,\\r\\n    Ownable,\\r\\n    R...\n  JUMPI \t\t\trmit,\\r\\n    Ownable,\\r\\n    R...\n  PUSH 7F\t\t\tum t\n  DUP3 \t\t\tce Max\n  AND \t\t\tnotice Maximum to\n  SWAP2 \t\t\t\\n    /// @notice Maximum to\n  POP \t\t\t\\n    /// @notice Maximum to\ntag 85\t\t\trmit,\\r\\n    Ownable,\\r\\n    R...\n  JUMPDEST \t\t\trmit,\\r\\n    Ownable,\\r\\n    R...\n  PUSH 20\t\t\tli\n  DUP3 \t\t\tt256 p\n  LT \t\t\tuint256 public\n  DUP2 \t\t\t (18 decimals)\\r\\n  \n  SUB \t\t\tWR5 (18 decimals)\\r\\n    uint2...\n  PUSH [tag] 86\t\t\t00 WR5 (18 decimals)\\r\\n    ui...\n  JUMPI \t\t\t00 WR5 (18 decimals)\\r\\n    ui...\n  PUSH [tag] 87\t\t\t66_337_700 * 10 **\n  PUSH [tag] 49\t\t\t66_337_700 * 10 **\n  JUMP \t\t\t66_337_700 * 10 **\ntag 87\t\t\t66_337_700 * 10 **\n  JUMPDEST \t\t\t66_337_700 * 10 **\ntag 86\t\t\t00 WR5 (18 decimals)\\r\\n    ui...\n  JUMPDEST \t\t\t00 WR5 (18 decimals)\\r\\n    ui...\n  POP \t\t\t and EIP‑2612 permit\\r\\ncontra...\n  SWAP2 \t\t\te ERC20 wrapper for R5 coin wi...\n  SWAP1 \t\t\te ERC20 wrapper for R5 coin wi...\n  POP \t\t\te ERC20 wrapper for R5 coin wi...\n  JUMP \t\t\te ERC20 wrapper for R5 coin wi...\ntag 51\t\t\tmitted when new tokens are min...\n  JUMPDEST \t\t\tmitted when new tokens are min...\n  PUSH 0\t\t\tnsMi\n  DUP2 \t\t\td t\n  SWAP1 \t\t\ts indexed t\n  POP \t\t\ts indexed t\n  DUP2 \t\t\t\\n\\r\\n\n  PUSH 0\t\t\t)\n  MSTORE \t\t\t amount);\\r\\n\\r\\n \n  PUSH 20\t\t\ts ar\n  PUSH 0\t\t\tk\n  KECCAK256 \t\t\ted when tokens are\n  SWAP1 \t\t\tev Emitted when tokens are\n  POP \t\t\tev Emitted when tokens are\n  SWAP2 \t\t\tmitted when new tokens are min...\n  SWAP1 \t\t\tmitted when new tokens are min...\n  POP \t\t\tmitted when new tokens are min...\n  JUMP \t\t\tmitted when new tokens are min...\ntag 52\t\t\tevent TokensBurned(address ind...\n  JUMPDEST \t\t\tevent TokensBurned(address ind...\n  PUSH 0\t\t\tom, ui\n  PUSH 20\t\t\ten\n  PUSH 1F\t\t\ted\n  DUP4 \t\t\tv Emi\n  ADD \t\t\t @dev Emitted \n  DIV \t\t\t /// @dev Emitted when \n  SWAP1 \t\t\tt);\\r\\n\\r\\n    /// @dev Emitte...\n  POP \t\t\tt);\\r\\n\\r\\n    /// @dev Emitte...\n  SWAP2 \t\t\tevent TokensBurned(address ind...\n  SWAP1 \t\t\tevent TokensBurned(address ind...\n  POP \t\t\tevent TokensBurned(address ind...\n  JUMP \t\t\tevent TokensBurned(address ind...\ntag 53\t\t\tescued from the contract\\r\\n  ...\n  JUMPDEST \t\t\tescued from the contract\\r\\n  ...\n  PUSH 0\t\t\tcovered(\n  DUP3 \t\t\taddre\n  DUP3 \t\t\t    \n  SHL \t\t\t\\r\\n        addres\n  SWAP1 \t\t\tddress indexed token,\\r\\n     ...\n  POP \t\t\tddress indexed token,\\r\\n     ...\n  SWAP3 \t\t\tescued from the contract\\r\\n  ...\n  SWAP2 \t\t\tescued from the contract\\r\\n  ...\n  POP \t\t\tescued from the contract\\r\\n  ...\n  POP \t\t\tescued from the contract\\r\\n  ...\n  JUMP \t\t\tescued from the contract\\r\\n  ...\ntag 54\t\t\t\\r\\n        uint256 amount\\r\\n...\n  JUMPDEST \t\t\t\\r\\n        uint256 amount\\r\\n...\n  PUSH 0\t\t\tip tra\n  PUSH 8\t\t\tf\n  DUP4 \t\t\tnershipTra\n  MUL \t\t\tt OwnershipTransfe\n  PUSH [tag] 92\t\t\tdress indexed previousOwner,\\r...\n  PUSH FFFFFFFFFFFFFFFFFFFFFFFFFFFFFFFFFFFFFFFFFFFFFFFFFFFFFFFFFFFFFFFF\t\t\t        address indexed newOwn...\n  DUP3 \t\t\tousOwner,\n  PUSH [tag] 53\t\t\tdress indexed previousOwner,\\r...\n  JUMP \t\t\tdress indexed previousOwner,\\r...\ntag 92\t\t\tdress indexed previousOwner,\\r...\n  JUMPDEST \t\t\tdress indexed previousOwner,\\r...\n  PUSH [tag] 93\t\t\transfer\\r\\n    address private...\n  DUP7 \t\t\tpendingO\n  DUP4 \t\t\ts private\n  PUSH [tag] 53\t\t\transfer\\r\\n    address private...\n  JUMP \t\t\transfer\\r\\n    address private...\ntag 93\t\t\transfer\\r\\n    address private...\n  JUMPDEST \t\t\transfer\\r\\n    address private...\n  SWAP6 \t\t\t ownership transfer\\r\\n    add...\n  POP \t\t\t ownership transfer\\r\\n    add...\n  DUP1 \t\t\t  ER\n  NOT \t\t\t      ERC\n  DUP5 \t\t\tr()\\r\\n\n  AND \t\t\tuctor()\\r\\n        ERC2\n  SWAP4 \t\t\t   constructor()\\r\\n        ER...\n  POP \t\t\t   constructor()\\r\\n        ER...\n  DUP1 \t\t\t(\"Wr\n  DUP7 \t\t\tRC20Perm\n  AND \t\t\t   ERC20Permit(\"Wra\n  DUP5 \t\t\t\\r\\n   \n  OR \t\t\t5\")\\r\\n        ERC20Permit(\"Wr...\n  SWAP3 \t\t\td R5\", \"WR5\")\\r\\n        ERC20...\n  POP \t\t\td R5\", \"WR5\")\\r\\n        ERC20...\n  POP \t\t\tsfer is initiated\\r\\n    event...\n  POP \t\t\tsfer is initiated\\r\\n    event...\n  SWAP4 \t\t\t\\r\\n        uint256 amount\\r\\n...\n  SWAP3 \t\t\t\\r\\n        uint256 amount\\r\\n...\n  POP \t\t\t\\r\\n        uint256 amount\\r\\n...\n  POP \t\t\t\\r\\n        uint256 amount\\r\\n...\n  POP \t\t\t\\r\\n        uint256 amount\\r\\n...\n  JUMP \t\t\t\\r\\n        uint256 amount\\r\\n...\ntag 55\t\t\t      Ownable(msg.sender)\\r\\n ...\n  JUMPDEST \t\t\t      Ownable(msg.sender)\\r\\n ...\n  PUSH 0\t\t\t     //\n  DUP2 \t\t\tdeplo\n  SWAP1 \t\t\tialized to deplo\n  POP \t\t\tialized to deplo\n  SWAP2 \t\t\t      Ownable(msg.sender)\\r\\n ...\n  SWAP1 \t\t\t      Ownable(msg.sender)\\r\\n ...\n  POP \t\t\t      Ownable(msg.sender)\\r\\n ...\n  JUMP \t\t\t      Ownable(msg.sender)\\r\\n ...\ntag 56\t\t\t\\r\\n    /// @notice View the a...\n  JUMPDEST \t\t\t\\r\\n    /// @notice View the a...\n  PUSH 0\t\t\tddr\n  DUP2 \t\t\tome o\n  SWAP1 \t\t\t to become o\n  POP \t\t\t to become o\n  SWAP2 \t\t\t\\r\\n    /// @notice View the a...\n  SWAP1 \t\t\t\\r\\n    /// @notice View the a...\n  POP \t\t\t\\r\\n    /// @notice View the a...\n  JUMP \t\t\t\\r\\n    /// @notice View the a...\ntag 57\t\t\tnction pendingOwner() public v...\n  JUMPDEST \t\t\tnction pendingOwner() public v...\n  PUSH 0\t\t\t) {\\r\\n    \n  PUSH [tag] 97\t\t\t;\\r\\n    }\\r\\n\\r\\n    /// @not...\n  PUSH [tag] 98\t\t\t/ @notice Initiate ownership t...\n  PUSH [tag] 99\t\t\t Initiate ownership tran\n  DUP5 \t\t\tp tra\n  PUSH [tag] 55\t\t\t Initiate ownership tran\n  JUMP \t\t\t Initiate ownership tran\ntag 99\t\t\t Initiate ownership tran\n  JUMPDEST \t\t\t Initiate ownership tran\n  PUSH [tag] 56\t\t\t/ @notice Initiate ownership t...\n  JUMP \t\t\t/ @notice Initiate ownership t...\ntag 98\t\t\t/ @notice Initiate ownership t...\n  JUMPDEST \t\t\t/ @notice Initiate ownership t...\n  PUSH [tag] 55\t\t\t;\\r\\n    }\\r\\n\\r\\n    /// @not...\n  JUMP \t\t\t;\\r\\n    }\\r\\n\\r\\n    /// @not...\ntag 97\t\t\t;\\r\\n    }\\r\\n\\r\\n    /// @not...\n  JUMPDEST \t\t\t;\\r\\n    }\\r\\n\\r\\n    /// @not...\n  SWAP1 \t\t\t_pendingOwner;\\r\\n    }\\r\\n\\r\\...\n  POP \t\t\t_pendingOwner;\\r\\n    }\\r\\n\\r\\...\n  SWAP2 \t\t\tnction pendingOwner() public v...\n  SWAP1 \t\t\tnction pendingOwner() public v...\n  POP \t\t\tnction pendingOwner() public v...\n  JUMP \t\t\tnction pendingOwner() public v...\ntag 58\t\t\taccount (`newOwner` cannot acc...\n  JUMPDEST \t\t\taccount (`newOwner` cannot acc...\n  PUSH 0\t\t\ts i\n  DUP2 \t\t\t @par\n  SWAP1 \t\t\t    /// @par\n  POP \t\t\t    /// @par\n  SWAP2 \t\t\taccount (`newOwner` cannot acc...\n  SWAP1 \t\t\taccount (`newOwner` cannot acc...\n  POP \t\t\taccount (`newOwner` cannot acc...\n  JUMP \t\t\taccount (`newOwner` cannot acc...\ntag 59\t\t\tThe address to transfer owners...\n  JUMPDEST \t\t\tThe address to transfer owners...\n  PUSH [tag] 102\t\t\tner {\\r\\n        require(newOw...\n  DUP4 \t\t\t != add\n  PUSH [tag] 57\t\t\tner {\\r\\n        require(newOw...\n  JUMP \t\t\tner {\\r\\n        require(newOw...\ntag 102\t\t\tner {\\r\\n        require(newOw...\n  JUMPDEST \t\t\tner {\\r\\n        require(newOw...\n  PUSH [tag] 103\t\t\tw owner is zero address\");\\r\\n...\n  PUSH [tag] 104\t\t\t = newOwner;\\r\\n        emit O...\n  DUP3 \t\t\tit OwnershipTran\n  PUSH [tag] 58\t\t\t = newOwner;\\r\\n        emit O...\n  JUMP \t\t\t = newOwner;\\r\\n        emit O...\ntag 104\t\t\t = newOwner;\\r\\n        emit O...\n  JUMPDEST \t\t\t = newOwner;\\r\\n        emit O...\n  DUP5 \t\t\tingOwn\n  DUP5 \t\t\t  _p\n  SLOAD \t\t\t        _pe\n  PUSH [tag] 54\t\t\tw owner is zero address\");\\r\\n...\n  JUMP \t\t\tw owner is zero address\");\\r\\n...\ntag 103\t\t\tw owner is zero address\");\\r\\n...\n  JUMPDEST \t\t\tw owner is zero address\");\\r\\n...\n  DUP3 \t\t\tR5: \n  SSTORE \t\t\tWrappedR5: new owner is zero a...\n  POP \t\t\t(address newOwner) external on...\n  POP \t\t\tThe address to transfer owners...\n  POP \t\t\tThe address to transfer owners...\n  POP \t\t\tThe address to transfer owners...\n  JUMP \t\t\tThe address to transfer owners...\ntag 60\t\t\ter(), newOwner);\\r\\n    }\\r\\n\\...\n  JUMPDEST \t\t\ter(), newOwner);\\r\\n    }\\r\\n\\...\n  PUSH 0\t\t\tcep\n  SWAP1 \t\t\ter(), newOwner);\\r\\n    }\\r\\n\\...\n  JUMP \t\t\ter(), newOwner);\\r\\n    }\\r\\n\\...\ntag 61\t\t\talled by pending owner)\\r\\n   ...\n  JUMPDEST \t\t\talled by pending owner)\\r\\n   ...\n  PUSH [tag] 107\t\t\tddress sender = _msgSender();\\...\n  PUSH [tag] 60\t\t\tddress sender = _msgSender();\\...\n  JUMP \t\t\tddress sender = _msgSender();\\...\ntag 107\t\t\tddress sender = _msgSender();\\...\n  JUMPDEST \t\t\tddress sender = _msgSender();\\...\n  PUSH [tag] 108\t\t\tquire(sender == _pendingOwner,...\n  DUP2 \t\t\the pen\n  DUP5 \t\t\tis not\n  DUP5 \t\t\talle\n  PUSH [tag] 59\t\t\tquire(sender == _pendingOwner,...\n  JUMP \t\t\tquire(sender == _pendingOwner,...\ntag 108\t\t\tquire(sender == _pendingOwner,...\n  JUMPDEST \t\t\tquire(sender == _pendingOwner,...\n  POP \t\t\t() external {\\r\\n        addre...\n  POP \t\t\talled by pending owner)\\r\\n   ...\n  POP \t\t\talled by pending owner)\\r\\n   ...\n  JUMP \t\t\talled by pending owner)\\r\\n   ...\ntag 62\t\t\t\\r\\n        _pendingOwner = ad...\n  JUMPDEST \t\t\t\\r\\n        _pendingOwner = ad...\ntag 110\t\t\trship(sender);\\r\\n    }\\r\\n\\r\\...\n  JUMPDEST \t\t\trship(sender);\\r\\n    }\\r\\n\\r\\...\n  DUP2 \t\t\t   \n  DUP2 \t\t\ter);\\r\n  LT \t\t\tender);\\r\\n    }\n  ISZERO \t\t\trship(sender);\\r\\n    }\\r\\n\\r\\...\n  PUSH [tag] 112\t\t\trship(sender);\\r\\n    }\\r\\n\\r\\...\n  JUMPI \t\t\trship(sender);\\r\\n    }\\r\\n\\r\\...\n  PUSH [tag] 113\t\t\twner can call\\r\\n    /// @para...\n  PUSH 0\t\t\tc\n  DUP3 \t\t\tto   \n  PUSH [tag] 61\t\t\twner can call\\r\\n    /// @para...\n  JUMP \t\t\twner can call\\r\\n    /// @para...\ntag 113\t\t\twner can call\\r\\n    /// @para...\n  JUMPDEST \t\t\twner can call\\r\\n    /// @para...\n  PUSH 1\t\t\tt\n  DUP2 \t\t\tice M\n  ADD \t\t\t@notice Mint \n  SWAP1 \t\t\t\\n    /// @notice Mint \n  POP \t\t\t\\n    /// @notice Mint \n  PUSH [tag] 110\t\t\trship(sender);\\r\\n    }\\r\\n\\r\\...\n  JUMP \t\t\trship(sender);\\r\\n    }\\r\\n\\r\\...\ntag 112\t\t\trship(sender);\\r\\n    }\\r\\n\\r\\...\n  JUMPDEST \t\t\trship(sender);\\r\\n    }\\r\\n\\r\\...\n  POP \t\t\t\\r\\n        _pendingOwner = ad...\n  POP \t\t\t\\r\\n        _pendingOwner = ad...\n  JUMP \t\t\t\\r\\n        _pendingOwner = ad...\ntag 63\t\t\tkens\\r\\n    /// @param amount ...\n  JUMPDEST \t\t\tkens\\r\\n    /// @param amount ...\n  PUSH 1F\t\t\txt\n  DUP3 \t\t\tnt)\n  GT \t\t\tmount) exte\n  ISZERO \t\t\t6 amount) external onlyOwner n...\n  PUSH [tag] 115\t\t\t6 amount) external onlyOwner n...\n  JUMPI \t\t\t6 amount) external onlyOwner n...\n  PUSH [tag] 116\t\t\t        require(totalSupply() ...\n  DUP2 \t\t\tamoun\n  PUSH [tag] 51\t\t\t        require(totalSupply() ...\n  JUMP \t\t\t        require(totalSupply() ...\ntag 116\t\t\t        require(totalSupply() ...\n  JUMPDEST \t\t\t        require(totalSupply() ...\n  PUSH [tag] 117\t\t\t_mint(to, amount);\\r\\n        ...\n  DUP5 \t\t\t\\r\\n        \n  PUSH [tag] 52\t\t\t_mint(to, amount);\\r\\n        ...\n  JUMP \t\t\t_mint(to, amount);\\r\\n        ...\ntag 117\t\t\t_mint(to, amount);\\r\\n        ...\n  JUMPDEST \t\t\t_mint(to, amount);\\r\\n        ...\n  DUP2 \t\t\t\\r\\n      \n  ADD \t\t\td\");\\r\\n        _mint(to, amou...\n  PUSH 20\t\t\t  \n  DUP6 \t\t\tverride {\\r\n  LT \t\t\tc override {\\r\\n    \n  ISZERO \t\t\tblic override {\\r\\n        sup...\n  PUSH [tag] 118\t\t\tblic override {\\r\\n        sup...\n  JUMPI \t\t\tblic override {\\r\\n        sup...\n  DUP2 \t\t\tunt);\\r\\n \n  SWAP1 \t\t\t super.burn(amount);\\r\\n \n  POP \t\t\t super.burn(amount);\\r\\n \ntag 118\t\t\tblic override {\\r\\n        sup...\n  JUMPDEST \t\t\tblic override {\\r\\n        sup...\n  PUSH [tag] 119\t\t\tensBurned(_msgSender(), amount...\n  PUSH [tag] 120\t\t\tce Burn from someone e\n  DUP6 \t\t\tne \n  PUSH [tag] 52\t\t\tce Burn from someone e\n  JUMP \t\t\tce Burn from someone e\ntag 120\t\t\tce Burn from someone e\n  JUMPDEST \t\t\tce Burn from someone e\n  DUP4 \t\t\t /// @no\n  ADD \t\t\t\\n    /// @notice Burn from so...\n  DUP3 \t\t\tt);\\r\\n    }\\r\n  PUSH [tag] 62\t\t\tensBurned(_msgSender(), amount...\n  JUMP \t\t\tensBurned(_msgSender(), amount...\ntag 119\t\t\tensBurned(_msgSender(), amount...\n  JUMPDEST \t\t\tensBurned(_msgSender(), amount...\n  POP \t\t\tnal onlyOwner nonReentrant {\\r...\n  POP \t\t\tnal onlyOwner nonReentrant {\\r...\ntag 115\t\t\t6 amount) external onlyOwner n...\n  JUMPDEST \t\t\t6 amount) external onlyOwner n...\n  POP \t\t\tkens\\r\\n    /// @param amount ...\n  POP \t\t\tkens\\r\\n    /// @param amount ...\n  POP \t\t\tkens\\r\\n    /// @param amount ...\n  JUMP \t\t\tkens\\r\\n    /// @param amount ...\ntag 64\t\t\tcustom event\\r\\n    function b...\n  JUMPDEST \t\t\tcustom event\\r\\n    function b...\n  PUSH 0\t\t\tint256 a\n  DUP3 \t\t\trnFro\n  DUP3 \t\t\tper.\n  SHR \t\t\t  super.burnFrom\n  SWAP1 \t\t\tic override {\\r\\n        super...\n  POP \t\t\tic override {\\r\\n        super...\n  SWAP3 \t\t\tcustom event\\r\\n    function b...\n  SWAP2 \t\t\tcustom event\\r\\n    function b...\n  POP \t\t\tcustom event\\r\\n    function b...\n  POP \t\t\tcustom event\\r\\n    function b...\n  JUMP \t\t\tcustom event\\r\\n    function b...\ntag 65\t\t\tunt);\\r\\n        emit TokensBu...\n  JUMPDEST \t\t\tunt);\\r\\n        emit TokensBu...\n  PUSH 0\t\t\tount);\n  PUSH [tag] 123\t\t\tRescue any ERC20 tokens sent h...\n  PUSH 0\t\t\t \n  NOT \t\t\t\\r\\n    \n  DUP5 \t\t\t mist\n  PUSH 8\t\t\t \n  MUL \t\t\there by mista\n  PUSH [tag] 64\t\t\tRescue any ERC20 tokens sent h...\n  JUMP \t\t\tRescue any ERC20 tokens sent h...\ntag 123\t\t\tRescue any ERC20 tokens sent h...\n  JUMPDEST \t\t\tRescue any ERC20 tokens sent h...\n  NOT \t\t\tice Rescue any ERC20 tokens se...\n  DUP1 \t\t\ttrac\n  DUP4 \t\t\t20 c\n  AND \t\t\t ERC20 contract\n  SWAP2 \t\t\ttoken  The ERC20 contract\n  POP \t\t\ttoken  The ERC20 contract\n  POP \t\t\t\\n    }\\r\\n\\r\\n    /// @notice...\n  SWAP3 \t\t\tunt);\\r\\n        emit TokensBu...\n  SWAP2 \t\t\tunt);\\r\\n        emit TokensBu...\n  POP \t\t\tunt);\\r\\n        emit TokensBu...\n  POP \t\t\tunt);\\r\\n        emit TokensBu...\n  JUMP \t\t\tunt);\\r\\n        emit TokensBu...\ntag 66\t\t\tkens from\\r\\n    /// @param to...\n  JUMPDEST \t\t\tkens from\\r\\n    /// @param to...\n  PUSH 0\t\t\taram\n  PUSH [tag] 125\t\t\trnal onlyOwner {\\r\\n        to...\n  DUP4 \t\t\t to\n  DUP4 \t\t\t    \n  PUSH [tag] 65\t\t\trnal onlyOwner {\\r\\n        to...\n  JUMP \t\t\trnal onlyOwner {\\r\\n        to...\ntag 125\t\t\trnal onlyOwner {\\r\\n        to...\n  JUMPDEST \t\t\trnal onlyOwner {\\r\\n        to...\n  SWAP2 \t\t\t  ) external onlyOwner {\\r\\n  ...\n  POP \t\t\t  ) external onlyOwner {\\r\\n  ...\n  DUP3 \t\t\t em\n  PUSH 2\t\t\t \n  MUL \t\t\t        emi\n  DUP3 \t\t\tnt);\n  OR \t\t\tmount);\\r\\n        emit\n  SWAP1 \t\t\ter(to, amount);\\r\\n        emi...\n  POP \t\t\ter(to, amount);\\r\\n        emi...\n  SWAP3 \t\t\tkens from\\r\\n    /// @param to...\n  SWAP2 \t\t\tkens from\\r\\n    /// @param to...\n  POP \t\t\tkens from\\r\\n    /// @param to...\n  POP \t\t\tkens from\\r\\n    /// @param to...\n  JUMP \t\t\tkens from\\r\\n    /// @param to...\ntag 10\t\t\tvered(address(token), to, amou...\n  JUMPDEST \t\t\tvered(address(token), to, amou...\n  PUSH [tag] 127\t\t\t\n  DUP3 \t\t\t\n  PUSH [tag] 47\t\t\t\n  JUMP \t\t\t\ntag 127\t\t\t\n  JUMPDEST \t\t\t\n  PUSH FFFFFFFFFFFFFFFF\t\t\t\n  DUP2 \t\t\t\n  GT \t\t\t\n  ISZERO \t\t\t\n  PUSH [tag] 128\t\t\t\n  JUMPI \t\t\t\n  PUSH [tag] 129\t\t\t\n  PUSH [tag] 48\t\t\t\n  JUMP \t\t\t\ntag 129\t\t\t\n  JUMPDEST \t\t\t\ntag 128\t\t\t\n  JUMPDEST \t\t\t\n  PUSH [tag] 130\t\t\t\n  DUP3 \t\t\t\n  SLOAD \t\t\t\n  PUSH [tag] 50\t\t\t\n  JUMP \t\t\t\ntag 130\t\t\t\n  JUMPDEST \t\t\t\n  PUSH [tag] 131\t\t\t\n  DUP3 \t\t\t\n  DUP3 \t\t\t\n  DUP6 \t\t\t\n  PUSH [tag] 63\t\t\t\n  JUMP \t\t\t\ntag 131\t\t\t\n  JUMPDEST \t\t\t\n  PUSH 0\t\t\t\n  PUSH 20\t\t\t\n  SWAP1 \t\t\t\n  POP \t\t\t\n  PUSH 1F\t\t\t\n  DUP4 \t\t\t\n  GT \t\t\t\n  PUSH 1\t\t\t\n  DUP2 \t\t\t\n  EQ \t\t\t\n  PUSH [tag] 133\t\t\t\n  JUMPI \t\t\t\n  PUSH 0\t\t\t\n  DUP5 \t\t\t\n  ISZERO \t\t\t\n  PUSH [tag] 134\t\t\t\n  JUMPI \t\t\t\n  DUP3 \t\t\t\n  DUP8 \t\t\t\n  ADD \t\t\t\n  MLOAD \t\t\t\n  SWAP1 \t\t\t\n  POP \t\t\t\ntag 134\t\t\t\n  JUMPDEST \t\t\t\n  PUSH [tag] 135\t\t\t\n  DUP6 \t\t\t\n  DUP3 \t\t\t\n  PUSH [tag] 66\t\t\t\n  JUMP \t\t\t\ntag 135\t\t\t\n  JUMPDEST \t\t\t\n  DUP7 \t\t\t\n  SSTORE \t\t\t\n  POP \t\t\t\n  PUSH [tag] 132\t\t\t\n  JUMP \t\t\t\ntag 133\t\t\t\n  JUMPDEST \t\t\t\n  PUSH 1F\t\t\t\n  NOT \t\t\t\n  DUP5 \t\t\t\n  AND \t\t\t\n  PUSH [tag] 136\t\t\t\n  DUP7 \t\t\t\n  PUSH [tag] 51\t\t\t\n  JUMP \t\t\t\ntag 136\t\t\t\n  JUMPDEST \t\t\t\n  PUSH 0\t\t\t\ntag 137\t\t\t\n  JUMPDEST \t\t\t\n  DUP3 \t\t\t\n  DUP2 \t\t\t\n  LT \t\t\t\n  ISZERO \t\t\t\n  PUSH [tag] 139\t\t\t\n  JUMPI \t\t\t\n  DUP5 \t\t\t\n  DUP10 \t\t\t\n  ADD \t\t\t\n  MLOAD \t\t\t\n  DUP3 \t\t\t\n  SSTORE \t\t\t\n  PUSH 1\t\t\t\n  DUP3 \t\t\t\n  ADD \t\t\t\n  SWAP2 \t\t\t\n  POP \t\t\t\n  PUSH 20\t\t\t\n  DUP6 \t\t\t\n  ADD \t\t\t\n  SWAP5 \t\t\t\n  POP \t\t\t\n  PUSH 20\t\t\t\n  DUP2 \t\t\t\n  ADD \t\t\t\n  SWAP1 \t\t\t\n  POP \t\t\t\n  PUSH [tag] 137\t\t\t\n  JUMP \t\t\t\ntag 139\t\t\t\n  JUMPDEST \t\t\t\n  DUP7 \t\t\t\n  DUP4 \t\t\t\n  LT \t\t\t\n  ISZERO \t\t\t\n  PUSH [tag] 140\t\t\t\n  JUMPI \t\t\t\n  DUP5 \t\t\t\n  DUP10 \t\t\t\n  ADD \t\t\t\n  MLOAD \t\t\t\n  PUSH [tag] 141\t\t\t\n  PUSH 1F\t\t\t\n  DUP10 \t\t\t\n  AND \t\t\t\n  DUP3 \t\t\t\n  PUSH [tag] 65\t\t\t\n  JUMP \t\t\t\ntag 141\t\t\t\n  JUMPDEST \t\t\t\n  DUP4 \t\t\t\n  SSTORE \t\t\t\n  POP \t\t\t\ntag 140\t\t\t\n  JUMPDEST \t\t\t\n  PUSH 1\t\t\t\n  PUSH 2\t\t\t\n  DUP9 \t\t\t\n  MUL \t\t\t\n  ADD \t\t\t\n  DUP9 \t\t\t\n  SSTORE \t\t\t\n  POP \t\t\t\n  POP \t\t\t\n  POP \t\t\t\ntag 132\t\t\t\n  JUMPDEST \t\t\t\n  POP \t\t\t\n  POP \t\t\t\n  POP \t\t\t\n  POP \t\t\t\n  POP \t\t\tvered(address(token), to, amou...\n  POP \t\t\tvered(address(token), to, amou...\n  JUMP \t\t\tvered(address(token), to, amou...\ntag 67\t\t\t\n  JUMPDEST \t\t\t\n  PUSH 0\t\t\t\n  PUSH FFFFFFFFFFFFFFFFFFFFFFFFFFFFFFFFFFFFFFFF\t\t\t\n  DUP3 \t\t\t\n  AND \t\t\t\n  SWAP1 \t\t\t\n  POP \t\t\t\n  SWAP2 \t\t\t\n  SWAP1 \t\t\t\n  POP \t\t\t\n  JUMP \t\t\t\ntag 68\t\t\t\n  JUMPDEST \t\t\t\n  PUSH 0\t\t\t\n  PUSH [tag] 144\t\t\t\n  DUP3 \t\t\t\n  PUSH [tag] 67\t\t\t\n  JUMP \t\t\t\ntag 144\t\t\t\n  JUMPDEST \t\t\t\n  SWAP1 \t\t\t\n  POP \t\t\t\n  SWAP2 \t\t\t\n  SWAP1 \t\t\t\n  POP \t\t\t\n  JUMP \t\t\t\ntag 69\t\t\t\n  JUMPDEST \t\t\t\n  PUSH [tag] 146\t\t\t\n  DUP2 \t\t\t\n  PUSH [tag] 68\t\t\t\n  JUMP \t\t\t\ntag 146\t\t\t\n  JUMPDEST \t\t\t\n  DUP3 \t\t\t\n  MSTORE \t\t\t\n  POP \t\t\t\n  POP \t\t\t\n  JUMP \t\t\t\ntag 22\t\t\t\n  JUMPDEST \t\t\t\n  PUSH 0\t\t\t\n  PUSH 20\t\t\t\n  DUP3 \t\t\t\n  ADD \t\t\t\n  SWAP1 \t\t\t\n  POP \t\t\t\n  PUSH [tag] 148\t\t\t\n  PUSH 0\t\t\t\n  DUP4 \t\t\t\n  ADD \t\t\t\n  DUP5 \t\t\t\n  PUSH [tag] 69\t\t\t\n  JUMP \t\t\t\ntag 148\t\t\t\n  JUMPDEST \t\t\t\n  SWAP3 \t\t\t\n  SWAP2 \t\t\t\n  POP \t\t\t\n  POP \t\t\t\n  JUMP \t\t\t\ntag 70\t\t\t\n  JUMPDEST \t\t\t\n  PUSH 0\t\t\t\n  DUP2 \t\t\t\n  SWAP1 \t\t\t\n  POP \t\t\t\n  SWAP2 \t\t\t\n  SWAP1 \t\t\t\n  POP \t\t\t\n  JUMP \t\t\t\ntag 71\t\t\t\n  JUMPDEST \t\t\t\n  PUSH [tag] 151\t\t\t\n  DUP2 \t\t\t\n  PUSH [tag] 70\t\t\t\n  JUMP \t\t\t\ntag 151\t\t\t\n  JUMPDEST \t\t\t\n  DUP3 \t\t\t\n  MSTORE \t\t\t\n  POP \t\t\t\n  POP \t\t\t\n  JUMP \t\t\t\ntag 72\t\t\t\n  JUMPDEST \t\t\t\n  PUSH [tag] 153\t\t\t\n  DUP2 \t\t\t\n  PUSH [tag] 55\t\t\t\n  JUMP \t\t\t\ntag 153\t\t\t\n  JUMPDEST \t\t\t\n  DUP3 \t\t\t\n  MSTORE \t\t\t\n  POP \t\t\t\n  POP \t\t\t\n  JUMP \t\t\t\ntag 38\t\t\t\n  JUMPDEST \t\t\t\n  PUSH 0\t\t\t\n  PUSH A0\t\t\t\n  DUP3 \t\t\t\n  ADD \t\t\t\n  SWAP1 \t\t\t\n  POP \t\t\t\n  PUSH [tag] 155\t\t\t\n  PUSH 0\t\t\t\n  DUP4 \t\t\t\n  ADD \t\t\t\n  DUP9 \t\t\t\n  PUSH [tag] 71\t\t\t\n  JUMP \t\t\t\ntag 155\t\t\t\n  JUMPDEST \t\t\t\n  PUSH [tag] 156\t\t\t\n  PUSH 20\t\t\t\n  DUP4 \t\t\t\n  ADD \t\t\t\n  DUP8 \t\t\t\n  PUSH [tag] 71\t\t\t\n  JUMP \t\t\t\ntag 156\t\t\t\n  JUMPDEST \t\t\t\n  PUSH [tag] 157\t\t\t\n  PUSH 40\t\t\t\n  DUP4 \t\t\t\n  ADD \t\t\t\n  DUP7 \t\t\t\n  PUSH [tag] 71\t\t\t\n  JUMP \t\t\t\ntag 157\t\t\t\n  JUMPDEST \t\t\t\n  PUSH [tag] 158\t\t\t\n  PUSH 60\t\t\t\n  DUP4 \t\t\t\n  ADD \t\t\t\n  DUP6 \t\t\t\n  PUSH [tag] 72\t\t\t\n  JUMP \t\t\t\ntag 158\t\t\t\n  JUMPDEST \t\t\t\n  PUSH [tag] 159\t\t\t\n  PUSH 80\t\t\t\n  DUP4 \t\t\t\n  ADD \t\t\t\n  DUP5 \t\t\t\n  PUSH [tag] 69\t\t\t\n  JUMP \t\t\t\ntag 159\t\t\t\n  JUMPDEST \t\t\t\n  SWAP7 \t\t\t\n  SWAP6 \t\t\t\n  POP \t\t\t\n  POP \t\t\t\n  POP \t\t\t\n  POP \t\t\t\n  POP \t\t\t\n  POP \t\t\t\n  JUMP \t\t\t\ntag 73\t\t\t\n  JUMPDEST \t\t\t\n  PUSH 0\t\t\t\n  DUP3 \t\t\t\n  DUP3 \t\t\t\n  MSTORE \t\t\t\n  PUSH 20\t\t\t\n  DUP3 \t\t\t\n  ADD \t\t\t\n  SWAP1 \t\t\t\n  POP \t\t\t\n  SWAP3 \t\t\t\n  SWAP2 \t\t\t\n  POP \t\t\t\n  POP \t\t\t\n  JUMP \t\t\t\ntag 74\t\t\t\n  JUMPDEST \t\t\t\n  DUP3 \t\t\t\n  DUP2 \t\t\t\n  DUP4 \t\t\t\n  MCOPY \t\t\t\n  PUSH 0\t\t\t\n  DUP4 \t\t\t\n  DUP4 \t\t\t\n  ADD \t\t\t\n  MSTORE \t\t\t\n  POP \t\t\t\n  POP \t\t\t\n  POP \t\t\t\n  JUMP \t\t\t\ntag 75\t\t\t\n  JUMPDEST \t\t\t\n  PUSH 0\t\t\t\n  PUSH 1F\t\t\t\n  NOT \t\t\t\n  PUSH 1F\t\t\t\n  DUP4 \t\t\t\n  ADD \t\t\t\n  AND \t\t\t\n  SWAP1 \t\t\t\n  POP \t\t\t\n  SWAP2 \t\t\t\n  SWAP1 \t\t\t\n  POP \t\t\t\n  JUMP \t\t\t\ntag 76\t\t\t\n  JUMPDEST \t\t\t\n  PUSH 0\t\t\t\n  PUSH [tag] 164\t\t\t\n  DUP3 \t\t\t\n  PUSH [tag] 47\t\t\t\n  JUMP \t\t\t\ntag 164\t\t\t\n  JUMPDEST \t\t\t\n  PUSH [tag] 165\t\t\t\n  DUP2 \t\t\t\n  DUP6 \t\t\t\n  PUSH [tag] 73\t\t\t\n  JUMP \t\t\t\ntag 165\t\t\t\n  JUMPDEST \t\t\t\n  SWAP4 \t\t\t\n  POP \t\t\t\n  PUSH [tag] 166\t\t\t\n  DUP2 \t\t\t\n  DUP6 \t\t\t\n  PUSH 20\t\t\t\n  DUP7 \t\t\t\n  ADD \t\t\t\n  PUSH [tag] 74\t\t\t\n  JUMP \t\t\t\ntag 166\t\t\t\n  JUMPDEST \t\t\t\n  PUSH [tag] 167\t\t\t\n  DUP2 \t\t\t\n  PUSH [tag] 75\t\t\t\n  JUMP \t\t\t\ntag 167\t\t\t\n  JUMPDEST \t\t\t\n  DUP5 \t\t\t\n  ADD \t\t\t\n  SWAP2 \t\t\t\n  POP \t\t\t\n  POP \t\t\t\n  SWAP3 \t\t\t\n  SWAP2 \t\t\t\n  POP \t\t\t\n  POP \t\t\t\n  JUMP \t\t\t\ntag 43\t\t\t\n  JUMPDEST \t\t\t\n  PUSH 0\t\t\t\n  PUSH 20\t\t\t\n  DUP3 \t\t\t\n  ADD \t\t\t\n  SWAP1 \t\t\t\n  POP \t\t\t\n  DUP2 \t\t\t\n  DUP2 \t\t\t\n  SUB \t\t\t\n  PUSH 0\t\t\t\n  DUP4 \t\t\t\n  ADD \t\t\t\n  MSTORE \t\t\t\n  PUSH [tag] 169\t\t\t\n  DUP2 \t\t\t\n  DUP5 \t\t\t\n  PUSH [tag] 76\t\t\t\n  JUMP \t\t\t\ntag 169\t\t\t\n  JUMPDEST \t\t\t\n  SWAP1 \t\t\t\n  POP \t\t\t\n  SWAP3 \t\t\t\n  SWAP2 \t\t\t\n  POP \t\t\t\n  POP \t\t\t\n  JUMP \t\t\t\ntag 77\t\t\t\n  JUMPDEST \t\t\t\n  PUSH 0\t\t\t\n  DUP2 \t\t\t\n  MLOAD \t\t\t\n  SWAP1 \t\t\t\n  POP \t\t\t\n  SWAP2 \t\t\t\n  SWAP1 \t\t\t\n  POP \t\t\t\n  JUMP \t\t\t\ntag 78\t\t\t\n  JUMPDEST \t\t\t\n  PUSH 0\t\t\t\n  DUP2 \t\t\t\n  SWAP1 \t\t\t\n  POP \t\t\t\n  PUSH 20\t\t\t\n  DUP3 \t\t\t\n  ADD \t\t\t\n  SWAP1 \t\t\t\n  POP \t\t\t\n  SWAP2 \t\t\t\n  SWAP1 \t\t\t\n  POP \t\t\t\n  JUMP \t\t\t\ntag 79\t\t\t\n  JUMPDEST \t\t\t\n  PUSH 0\t\t\t\n  PUSH [tag] 173\t\t\t\n  DUP3 \t\t\t\n  MLOAD \t\t\t\n  PUSH [tag] 70\t\t\t\n  JUMP \t\t\t\ntag 173\t\t\t\n  JUMPDEST \t\t\t\n  DUP1 \t\t\t\n  SWAP2 \t\t\t\n  POP \t\t\t\n  POP \t\t\t\n  SWAP2 \t\t\t\n  SWAP1 \t\t\t\n  POP \t\t\t\n  JUMP \t\t\t\ntag 45\t\t\t\n  JUMPDEST \t\t\t\n  PUSH 0\t\t\t\n  PUSH [tag] 175\t\t\t\n  DUP3 \t\t\t\n  PUSH [tag] 77\t\t\t\n  JUMP \t\t\t\ntag 175\t\t\t\n  JUMPDEST \t\t\t\n  DUP3 \t\t\t\n  PUSH [tag] 176\t\t\t\n  DUP5 \t\t\t\n  PUSH [tag] 78\t\t\t\n  JUMP \t\t\t\ntag 176\t\t\t\n  JUMPDEST \t\t\t\n  SWAP1 \t\t\t\n  POP \t\t\t\n  PUSH [tag] 177\t\t\t\n  DUP2 \t\t\t\n  PUSH [tag] 79\t\t\t\n  JUMP \t\t\t\ntag 177\t\t\t\n  JUMPDEST \t\t\t\n  SWAP3 \t\t\t\n  POP \t\t\t\n  PUSH 20\t\t\t\n  DUP3 \t\t\t\n  LT \t\t\t\n  ISZERO \t\t\t\n  PUSH [tag] 178\t\t\t\n  JUMPI \t\t\t\n  PUSH [tag] 179\t\t\t\n  PUSH FFFFFFFFFFFFFFFFFFFFFFFFFFFFFFFFFFFFFFFFFFFFFFFFFFFFFFFFFFFFFFFF\t\t\t\n  DUP4 \t\t\t\n  PUSH 20\t\t\t\n  SUB \t\t\t\n  PUSH 8\t\t\t\n  MUL \t\t\t\n  PUSH [tag] 53\t\t\t\n  JUMP \t\t\t\ntag 179\t\t\t\n  JUMPDEST \t\t\t\n  DUP4 \t\t\t\n  AND \t\t\t\n  SWAP3 \t\t\t\n  POP \t\t\t\ntag 178\t\t\t\n  JUMPDEST \t\t\t\n  POP \t\t\t\n  POP \t\t\t\n  SWAP2 \t\t\t\n  SWAP1 \t\t\t\n  POP \t\t\t\n  JUMP \t\t\t\ntag 27\t\t\tntract WrappedR5 is\\r\\n    ERC...\n  JUMPDEST \t\t\tntract WrappedR5 is\\r\\n    ERC...\n  PUSH 80\t\t\tntract WrappedR5 is\\r\\n    ERC...\n  MLOAD \t\t\tntract WrappedR5 is\\r\\n    ERC...\n  PUSH A0\t\t\tntract WrappedR5 is\\r\\n    ERC...\n  MLOAD \t\t\tntract WrappedR5 is\\r\\n    ERC...\n  PUSH C0\t\t\tntract WrappedR5 is\\r\\n    ERC...\n  MLOAD \t\t\tntract WrappedR5 is\\r\\n    ERC...\n  PUSH E0\t\t\tntract WrappedR5 is\\r\\n    ERC...\n  MLOAD \t\t\tntract WrappedR5 is\\r\\n    ERC...\n  PUSH 100\t\t\tntract WrappedR5 is\\r\\n    ERC...\n  MLOAD \t\t\tntract WrappedR5 is\\r\\n    ERC...\n  PUSH 120\t\t\tntract WrappedR5 is\\r\\n    ERC...\n  MLOAD \t\t\tntract WrappedR5 is\\r\\n    ERC...\n  PUSH 140\t\t\tntract WrappedR5 is\\r\\n    ERC...\n  MLOAD \t\t\tntract WrappedR5 is\\r\\n    ERC...\n  PUSH #[$] 0000000000000000000000000000000000000000000000000000000000000000\t\t\tntract WrappedR5 is\\r\\n    ERC...\n  PUSH [$] 0000000000000000000000000000000000000000000000000000000000000000\t\t\tntract WrappedR5 is\\r\\n    ERC...\n  PUSH 0\t\t\tntract WrappedR5 is\\r\\n    ERC...\n  CODECOPY \t\t\tntract WrappedR5 is\\r\\n    ERC...\n  PUSH 0\t\t\tntract WrappedR5 is\\r\\n    ERC...\n  ASSIGNIMMUTABLE 2306\t\t\tntract WrappedR5 is\\r\\n    ERC...\n  PUSH 0\t\t\tntract WrappedR5 is\\r\\n    ERC...\n  ASSIGNIMMUTABLE 2303\t\t\tntract WrappedR5 is\\r\\n    ERC...\n  PUSH 0\t\t\tntract WrappedR5 is\\r\\n    ERC...\n  ASSIGNIMMUTABLE 2300\t\t\tntract WrappedR5 is\\r\\n    ERC...\n  PUSH 0\t\t\tntract WrappedR5 is\\r\\n    ERC...\n  ASSIGNIMMUTABLE 2298\t\t\tntract WrappedR5 is\\r\\n    ERC...\n  PUSH 0\t\t\tntract WrappedR5 is\\r\\n    ERC...\n  ASSIGNIMMUTABLE 2296\t\t\tntract WrappedR5 is\\r\\n    ERC...\n  PUSH 0\t\t\tntract WrappedR5 is\\r\\n    ERC...\n  ASSIGNIMMUTABLE 2294\t\t\tntract WrappedR5 is\\r\\n    ERC...\n  PUSH 0\t\t\tntract WrappedR5 is\\r\\n    ERC...\n  ASSIGNIMMUTABLE 2292\t\t\tntract WrappedR5 is\\r\\n    ERC...\n  PUSH #[$] 0000000000000000000000000000000000000000000000000000000000000000\t\t\tntract WrappedR5 is\\r\\n    ERC...\n  PUSH 0\t\t\tntract WrappedR5 is\\r\\n    ERC...\n  RETURN \t\t\tntract WrappedR5 is\\r\\n    ERC...\n.data\n  0:\n    .code\n      PUSH 80\t\t\tntract WrappedR5 is\\r\\n    ERC...\n      PUSH 40\t\t\tntract WrappedR5 is\\r\\n    ERC...\n      MSTORE \t\t\tntract WrappedR5 is\\r\\n    ERC...\n      CALLVALUE \t\t\tntract WrappedR5 is\\r\\n    ERC...\n      DUP1 \t\t\tntract WrappedR5 is\\r\\n    ERC...\n      ISZERO \t\t\tntract WrappedR5 is\\r\\n    ERC...\n      PUSH [tag] 1\t\t\tntract WrappedR5 is\\r\\n    ERC...\n      JUMPI \t\t\tntract WrappedR5 is\\r\\n    ERC...\n      PUSH 0\t\t\tntract WrappedR5 is\\r\\n    ERC...\n      DUP1 \t\t\tntract WrappedR5 is\\r\\n    ERC...\n      REVERT \t\t\tntract WrappedR5 is\\r\\n    ERC...\n    tag 1\t\t\tntract WrappedR5 is\\r\\n    ERC...\n      JUMPDEST \t\t\tntract WrappedR5 is\\r\\n    ERC...\n      POP \t\t\tntract WrappedR5 is\\r\\n    ERC...\n      PUSH 4\t\t\tntract WrappedR5 is\\r\\n    ERC...\n      CALLDATASIZE \t\t\tntract WrappedR5 is\\r\\n    ERC...\n      LT \t\t\tntract WrappedR5 is\\r\\n    ERC...\n      PUSH [tag] 2\t\t\tntract WrappedR5 is\\r\\n    ERC...\n      JUMPI \t\t\tntract WrappedR5 is\\r\\n    ERC...\n      PUSH 0\t\t\tntract WrappedR5 is\\r\\n    ERC...\n      CALLDATALOAD \t\t\tntract WrappedR5 is\\r\\n    ERC...\n      PUSH E0\t\t\tntract WrappedR5 is\\r\\n    ERC...\n      SHR \t\t\tntract WrappedR5 is\\r\\n    ERC...\n      DUP1 \t\t\tntract WrappedR5 is\\r\\n    ERC...\n      PUSH 7ECEBE00\t\t\tntract WrappedR5 is\\r\\n    ERC...\n      GT \t\t\tntract WrappedR5 is\\r\\n    ERC...\n      PUSH [tag] 27\t\t\tntract WrappedR5 is\\r\\n    ERC...\n      JUMPI \t\t\tntract WrappedR5 is\\r\\n    ERC...\n      DUP1 \t\t\tntract WrappedR5 is\\r\\n    ERC...\n      PUSH D505ACCF\t\t\tntract WrappedR5 is\\r\\n    ERC...\n      GT \t\t\tntract WrappedR5 is\\r\\n    ERC...\n      PUSH [tag] 28\t\t\tntract WrappedR5 is\\r\\n    ERC...\n      JUMPI \t\t\tntract WrappedR5 is\\r\\n    ERC...\n      DUP1 \t\t\tntract WrappedR5 is\\r\\n    ERC...\n      PUSH D505ACCF\t\t\tntract WrappedR5 is\\r\\n    ERC...\n      EQ \t\t\tntract WrappedR5 is\\r\\n    ERC...\n      PUSH [tag] 21\t\t\tntract WrappedR5 is\\r\\n    ERC...\n      JUMPI \t\t\tntract WrappedR5 is\\r\\n    ERC...\n      DUP1 \t\t\tntract WrappedR5 is\\r\\n    ERC...\n      PUSH DD62ED3E\t\t\tntract WrappedR5 is\\r\\n    ERC...\n      EQ \t\t\tntract WrappedR5 is\\r\\n    ERC...\n      PUSH [tag] 22\t\t\tntract WrappedR5 is\\r\\n    ERC...\n      JUMPI \t\t\tntract WrappedR5 is\\r\\n    ERC...\n      DUP1 \t\t\tntract WrappedR5 is\\r\\n    ERC...\n      PUSH E30C3978\t\t\tntract WrappedR5 is\\r\\n    ERC...\n      EQ \t\t\tntract WrappedR5 is\\r\\n    ERC...\n      PUSH [tag] 23\t\t\tntract WrappedR5 is\\r\\n    ERC...\n      JUMPI \t\t\tntract WrappedR5 is\\r\\n    ERC...\n      DUP1 \t\t\tntract WrappedR5 is\\r\\n    ERC...\n      PUSH EB8F4C4A\t\t\tntract WrappedR5 is\\r\\n    ERC...\n      EQ \t\t\tntract WrappedR5 is\\r\\n    ERC...\n      PUSH [tag] 24\t\t\tntract WrappedR5 is\\r\\n    ERC...\n      JUMPI \t\t\tntract WrappedR5 is\\r\\n    ERC...\n      DUP1 \t\t\tntract WrappedR5 is\\r\\n    ERC...\n      PUSH EC81B483\t\t\tntract WrappedR5 is\\r\\n    ERC...\n      EQ \t\t\tntract WrappedR5 is\\r\\n    ERC...\n      PUSH [tag] 25\t\t\tntract WrappedR5 is\\r\\n    ERC...\n      JUMPI \t\t\tntract WrappedR5 is\\r\\n    ERC...\n      DUP1 \t\t\tntract WrappedR5 is\\r\\n    ERC...\n      PUSH F2FDE38B\t\t\tntract WrappedR5 is\\r\\n    ERC...\n      EQ \t\t\tntract WrappedR5 is\\r\\n    ERC...\n      PUSH [tag] 26\t\t\tntract WrappedR5 is\\r\\n    ERC...\n      JUMPI \t\t\tntract WrappedR5 is\\r\\n    ERC...\n      PUSH [tag] 2\t\t\tntract WrappedR5 is\\r\\n    ERC...\n      JUMP \t\t\tntract WrappedR5 is\\r\\n    ERC...\n    tag 28\t\t\tntract WrappedR5 is\\r\\n    ERC...\n      JUMPDEST \t\t\tntract WrappedR5 is\\r\\n    ERC...\n      DUP1 \t\t\tntract WrappedR5 is\\r\\n    ERC...\n      PUSH 7ECEBE00\t\t\tntract WrappedR5 is\\r\\n    ERC...\n      EQ \t\t\tntract WrappedR5 is\\r\\n    ERC...\n      PUSH [tag] 15\t\t\tntract WrappedR5 is\\r\\n    ERC...\n      JUMPI \t\t\tntract WrappedR5 is\\r\\n    ERC...\n      DUP1 \t\t\tntract WrappedR5 is\\r\\n    ERC...\n      PUSH 84B0196E\t\t\tntract WrappedR5 is\\r\\n    ERC...\n      EQ \t\t\tntract WrappedR5 is\\r\\n    ERC...\n      PUSH [tag] 16\t\t\tntract WrappedR5 is\\r\\n    ERC...\n      JUMPI \t\t\tntract WrappedR5 is\\r\\n    ERC...\n      DUP1 \t\t\tntract WrappedR5 is\\r\\n    ERC...\n      PUSH 8DA5CB5B\t\t\tntract WrappedR5 is\\r\\n    ERC...\n      EQ \t\t\tntract WrappedR5 is\\r\\n    ERC...\n      PUSH [tag] 17\t\t\tntract WrappedR5 is\\r\\n    ERC...\n      JUMPI \t\t\tntract WrappedR5 is\\r\\n    ERC...\n      DUP1 \t\t\tntract WrappedR5 is\\r\\n    ERC...\n      PUSH 95D89B41\t\t\tntract WrappedR5 is\\r\\n    ERC...\n      EQ \t\t\tntract WrappedR5 is\\r\\n    ERC...\n      PUSH [tag] 18\t\t\tntract WrappedR5 is\\r\\n    ERC...\n      JUMPI \t\t\tntract WrappedR5 is\\r\\n    ERC...\n      DUP1 \t\t\tntract WrappedR5 is\\r\\n    ERC...\n      PUSH A9059CBB\t\t\tntract WrappedR5 is\\r\\n    ERC...\n      EQ \t\t\tntract WrappedR5 is\\r\\n    ERC...\n      PUSH [tag] 19\t\t\tntract WrappedR5 is\\r\\n    ERC...\n      JUMPI \t\t\tntract WrappedR5 is\\r\\n    ERC...\n      DUP1 \t\t\tntract WrappedR5 is\\r\\n    ERC...\n      PUSH C0B6F561\t\t\tntract WrappedR5 is\\r\\n    ERC...\n      EQ \t\t\tntract WrappedR5 is\\r\\n    ERC...\n      PUSH [tag] 20\t\t\tntract WrappedR5 is\\r\\n    ERC...\n      JUMPI \t\t\tntract WrappedR5 is\\r\\n    ERC...\n      PUSH [tag] 2\t\t\tntract WrappedR5 is\\r\\n    ERC...\n      JUMP \t\t\tntract WrappedR5 is\\r\\n    ERC...\n    tag 27\t\t\tntract WrappedR5 is\\r\\n    ERC...\n      JUMPDEST \t\t\tntract WrappedR5 is\\r\\n    ERC...\n      DUP1 \t\t\tntract WrappedR5 is\\r\\n    ERC...\n      PUSH 40C10F19\t\t\tntract WrappedR5 is\\r\\n    ERC...\n      GT \t\t\tntract WrappedR5 is\\r\\n    ERC...\n      PUSH [tag] 29\t\t\tntract WrappedR5 is\\r\\n    ERC...\n      JUMPI \t\t\tntract WrappedR5 is\\r\\n    ERC...\n      DUP1 \t\t\tntract WrappedR5 is\\r\\n    ERC...\n      PUSH 40C10F19\t\t\tntract WrappedR5 is\\r\\n    ERC...\n      EQ \t\t\tntract WrappedR5 is\\r\\n    ERC...\n      PUSH [tag] 9\t\t\tntract WrappedR5 is\\r\\n    ERC...\n      JUMPI \t\t\tntract WrappedR5 is\\r\\n    ERC...\n      DUP1 \t\t\tntract WrappedR5 is\\r\\n    ERC...\n      PUSH 42966C68\t\t\tntract WrappedR5 is\\r\\n    ERC...\n      EQ \t\t\tntract WrappedR5 is\\r\\n    ERC...\n      PUSH [tag] 10\t\t\tntract WrappedR5 is\\r\\n    ERC...\n      JUMPI \t\t\tntract WrappedR5 is\\r\\n    ERC...\n      DUP1 \t\t\tntract WrappedR5 is\\r\\n    ERC...\n      PUSH 70A08231\t\t\tntract WrappedR5 is\\r\\n    ERC...\n      EQ \t\t\tntract WrappedR5 is\\r\\n    ERC...\n      PUSH [tag] 11\t\t\tntract WrappedR5 is\\r\\n    ERC...\n      JUMPI \t\t\tntract WrappedR5 is\\r\\n    ERC...\n      DUP1 \t\t\tntract WrappedR5 is\\r\\n    ERC...\n      PUSH 715018A6\t\t\tntract WrappedR5 is\\r\\n    ERC...\n      EQ \t\t\tntract WrappedR5 is\\r\\n    ERC...\n      PUSH [tag] 12\t\t\tntract WrappedR5 is\\r\\n    ERC...\n      JUMPI \t\t\tntract WrappedR5 is\\r\\n    ERC...\n      DUP1 \t\t\tntract WrappedR5 is\\r\\n    ERC...\n      PUSH 79BA5097\t\t\tntract WrappedR5 is\\r\\n    ERC...\n      EQ \t\t\tntract WrappedR5 is\\r\\n    ERC...\n      PUSH [tag] 13\t\t\tntract WrappedR5 is\\r\\n    ERC...\n      JUMPI \t\t\tntract WrappedR5 is\\r\\n    ERC...\n      DUP1 \t\t\tntract WrappedR5 is\\r\\n    ERC...\n      PUSH 79CC6790\t\t\tntract WrappedR5 is\\r\\n    ERC...\n      EQ \t\t\tntract WrappedR5 is\\r\\n    ERC...\n      PUSH [tag] 14\t\t\tntract WrappedR5 is\\r\\n    ERC...\n      JUMPI \t\t\tntract WrappedR5 is\\r\\n    ERC...\n      PUSH [tag] 2\t\t\tntract WrappedR5 is\\r\\n    ERC...\n      JUMP \t\t\tntract WrappedR5 is\\r\\n    ERC...\n    tag 29\t\t\tntract WrappedR5 is\\r\\n    ERC...\n      JUMPDEST \t\t\tntract WrappedR5 is\\r\\n    ERC...\n      DUP1 \t\t\tntract WrappedR5 is\\r\\n    ERC...\n      PUSH 6FDDE03\t\t\tntract WrappedR5 is\\r\\n    ERC...\n      EQ \t\t\tntract WrappedR5 is\\r\\n    ERC...\n      PUSH [tag] 3\t\t\tntract WrappedR5 is\\r\\n    ERC...\n      JUMPI \t\t\tntract WrappedR5 is\\r\\n    ERC...\n      DUP1 \t\t\tntract WrappedR5 is\\r\\n    ERC...\n      PUSH 95EA7B3\t\t\tntract WrappedR5 is\\r\\n    ERC...\n      EQ \t\t\tntract WrappedR5 is\\r\\n    ERC...\n      PUSH [tag] 4\t\t\tntract WrappedR5 is\\r\\n    ERC...\n      JUMPI \t\t\tntract WrappedR5 is\\r\\n    ERC...\n      DUP1 \t\t\tntract WrappedR5 is\\r\\n    ERC...\n      PUSH 18160DDD\t\t\tntract WrappedR5 is\\r\\n    ERC...\n      EQ \t\t\tntract WrappedR5 is\\r\\n    ERC...\n      PUSH [tag] 5\t\t\tntract WrappedR5 is\\r\\n    ERC...\n      JUMPI \t\t\tntract WrappedR5 is\\r\\n    ERC...\n      DUP1 \t\t\tntract WrappedR5 is\\r\\n    ERC...\n      PUSH 23B872DD\t\t\tntract WrappedR5 is\\r\\n    ERC...\n      EQ \t\t\tntract WrappedR5 is\\r\\n    ERC...\n      PUSH [tag] 6\t\t\tntract WrappedR5 is\\r\\n    ERC...\n      JUMPI \t\t\tntract WrappedR5 is\\r\\n    ERC...\n      DUP1 \t\t\tntract WrappedR5 is\\r\\n    ERC...\n      PUSH 313CE567\t\t\tntract WrappedR5 is\\r\\n    ERC...\n      EQ \t\t\tntract WrappedR5 is\\r\\n    ERC...\n      PUSH [tag] 7\t\t\tntract WrappedR5 is\\r\\n    ERC...\n      JUMPI \t\t\tntract WrappedR5 is\\r\\n    ERC...\n      DUP1 \t\t\tntract WrappedR5 is\\r\\n    ERC...\n      PUSH 3644E515\t\t\tntract WrappedR5 is\\r\\n    ERC...\n      EQ \t\t\tntract WrappedR5 is\\r\\n    ERC...\n      PUSH [tag] 8\t\t\tntract WrappedR5 is\\r\\n    ERC...\n      JUMPI \t\t\tntract WrappedR5 is\\r\\n    ERC...\n    tag 2\t\t\tntract WrappedR5 is\\r\\n    ERC...\n      JUMPDEST \t\t\tntract WrappedR5 is\\r\\n    ERC...\n      PUSH 0\t\t\tntract WrappedR5 is\\r\\n    ERC...\n      DUP1 \t\t\tntract WrappedR5 is\\r\\n    ERC...\n      REVERT \t\t\tntract WrappedR5 is\\r\\n    ERC...\n    tag 3\t\t\taddress) {\\r\\n        return _...\n      JUMPDEST \t\t\taddress) {\\r\\n        return _...\n      PUSH [tag] 30\t\t\taddress) {\\r\\n        return _...\n      PUSH [tag] 31\t\t\taddress) {\\r\\n        return _...\n      JUMP \t\t\taddress) {\\r\\n        return _...\n    tag 30\t\t\taddress) {\\r\\n        return _...\n      JUMPDEST \t\t\taddress) {\\r\\n        return _...\n      PUSH 40\t\t\taddress) {\\r\\n        return _...\n      MLOAD \t\t\taddress) {\\r\\n        return _...\n      PUSH [tag] 32\t\t\taddress) {\\r\\n        return _...\n      SWAP2 \t\t\taddress) {\\r\\n        return _...\n      SWAP1 \t\t\taddress) {\\r\\n        return _...\n      PUSH [tag] 33\t\t\taddress) {\\r\\n        return _...\n      JUMP \t\t\taddress) {\\r\\n        return _...\n    tag 32\t\t\taddress) {\\r\\n        return _...\n      JUMPDEST \t\t\taddress) {\\r\\n        return _...\n      PUSH 40\t\t\taddress) {\\r\\n        return _...\n      MLOAD \t\t\taddress) {\\r\\n        return _...\n      DUP1 \t\t\taddress) {\\r\\n        return _...\n      SWAP2 \t\t\taddress) {\\r\\n        return _...\n      SUB \t\t\taddress) {\\r\\n        return _...\n      SWAP1 \t\t\taddress) {\\r\\n        return _...\n      RETURN \t\t\taddress) {\\r\\n        return _...\n    tag 4\t\t\t\n      JUMPDEST \t\t\t\n      PUSH [tag] 34\t\t\t\n      PUSH 4\t\t\t\n      DUP1 \t\t\t\n      CALLDATASIZE \t\t\t\n      SUB \t\t\t\n      DUP2 \t\t\t\n      ADD \t\t\t\n      SWAP1 \t\t\t\n      PUSH [tag] 35\t\t\t\n      SWAP2 \t\t\t\n      SWAP1 \t\t\t\n      PUSH [tag] 36\t\t\t\n      JUMP \t\t\t\n    tag 35\t\t\t\n      JUMPDEST \t\t\t\n      PUSH [tag] 37\t\t\t\n      JUMP \t\t\t\n    tag 34\t\t\t\n      JUMPDEST \t\t\t\n      PUSH 40\t\t\t\n      MLOAD \t\t\t\n      PUSH [tag] 38\t\t\t\n      SWAP2 \t\t\t\n      SWAP1 \t\t\t\n      PUSH [tag] 39\t\t\t\n      JUMP \t\t\t\n    tag 38\t\t\t\n      JUMPDEST \t\t\t\n      PUSH 40\t\t\t\n      MLOAD \t\t\t\n      DUP1 \t\t\t\n      SWAP2 \t\t\t\n      SUB \t\t\t\n      SWAP1 \t\t\t\n      RETURN \t\t\t\n    tag 5\t\t\trequire(totalSupply() + amount...\n      JUMPDEST \t\t\trequire(totalSupply() + amount...\n      PUSH [tag] 40\t\t\trequire(totalSupply() + amount...\n      PUSH [tag] 41\t\t\trequire(totalSupply() + amount...\n      JUMP \t\t\trequire(totalSupply() + amount...\n    tag 40\t\t\trequire(totalSupply() + amount...\n      JUMPDEST \t\t\trequire(totalSupply() + amount...\n      PUSH 40\t\t\trequire(totalSupply() + amount...\n      MLOAD \t\t\trequire(totalSupply() + amount...\n      PUSH [tag] 42\t\t\trequire(totalSupply() + amount...\n      SWAP2 \t\t\trequire(totalSupply() + amount...\n      SWAP1 \t\t\trequire(totalSupply() + amount...\n      PUSH [tag] 43\t\t\trequire(totalSupply() + amount...\n      JUMP \t\t\trequire(totalSupply() + amount...\n    tag 42\t\t\trequire(totalSupply() + amount...\n      JUMPDEST \t\t\trequire(totalSupply() + amount...\n      PUSH 40\t\t\trequire(totalSupply() + amount...\n      MLOAD \t\t\trequire(totalSupply() + amount...\n      DUP1 \t\t\trequire(totalSupply() + amount...\n      SWAP2 \t\t\trequire(totalSupply() + amount...\n      SUB \t\t\trequire(totalSupply() + amount...\n      SWAP1 \t\t\trequire(totalSupply() + amount...\n      RETURN \t\t\trequire(totalSupply() + amount...\n    tag 6\t\t\t\n      JUMPDEST \t\t\t\n      PUSH [tag] 44\t\t\t\n      PUSH 4\t\t\t\n      DUP1 \t\t\t\n      CALLDATASIZE \t\t\t\n      SUB \t\t\t\n      DUP2 \t\t\t\n      ADD \t\t\t\n      SWAP1 \t\t\t\n      PUSH [tag] 45\t\t\t\n      SWAP2 \t\t\t\n      SWAP1 \t\t\t\n      PUSH [tag] 46\t\t\t\n      JUMP \t\t\t\n    tag 45\t\t\t\n      JUMPDEST \t\t\t\n      PUSH [tag] 47\t\t\t\n      JUMP \t\t\t\n    tag 44\t\t\t\n      JUMPDEST \t\t\t\n      PUSH 40\t\t\t\n      MLOAD \t\t\t\n      PUSH [tag] 48\t\t\t\n      SWAP2 \t\t\t\n      SWAP1 \t\t\t\n      PUSH [tag] 39\t\t\t\n      JUMP \t\t\t\n    tag 48\t\t\t\n      JUMPDEST \t\t\t\n      PUSH 40\t\t\t\n      MLOAD \t\t\t\n      DUP1 \t\t\t\n      SWAP2 \t\t\t\n      SUB \t\t\t\n      SWAP1 \t\t\t\n      RETURN \t\t\t\n    tag 7\t\t\tens\\r\\n    /// @param amount  ...\n      JUMPDEST \t\t\tens\\r\\n    /// @param amount  ...\n      PUSH [tag] 49\t\t\tens\\r\\n    /// @param amount  ...\n      PUSH [tag] 50\t\t\tens\\r\\n    /// @param amount  ...\n      JUMP \t\t\tens\\r\\n    /// @param amount  ...\n    tag 49\t\t\tens\\r\\n    /// @param amount  ...\n      JUMPDEST \t\t\tens\\r\\n    /// @param amount  ...\n      PUSH 40\t\t\tens\\r\\n    /// @param amount  ...\n      MLOAD \t\t\tens\\r\\n    /// @param amount  ...\n      PUSH [tag] 51\t\t\tens\\r\\n    /// @param amount  ...\n      SWAP2 \t\t\tens\\r\\n    /// @param amount  ...\n      SWAP1 \t\t\tens\\r\\n    /// @param amount  ...\n      PUSH [tag] 52\t\t\tens\\r\\n    /// @param amount  ...\n      JUMP \t\t\tens\\r\\n    /// @param amount  ...\n    tag 51\t\t\tens\\r\\n    /// @param amount  ...\n      JUMPDEST \t\t\tens\\r\\n    /// @param amount  ...\n      PUSH 40\t\t\tens\\r\\n    /// @param amount  ...\n      MLOAD \t\t\tens\\r\\n    /// @param amount  ...\n      DUP1 \t\t\tens\\r\\n    /// @param amount  ...\n      SWAP2 \t\t\tens\\r\\n    /// @param amount  ...\n      SUB \t\t\tens\\r\\n    /// @param amount  ...\n      SWAP1 \t\t\tens\\r\\n    /// @param amount  ...\n      RETURN \t\t\tens\\r\\n    /// @param amount  ...\n    tag 8\t\t\t  Recipient of the minted toke...\n      JUMPDEST \t\t\t  Recipient of the minted toke...\n      PUSH [tag] 53\t\t\t  Recipient of the minted toke...\n      PUSH [tag] 54\t\t\t  Recipient of the minted toke...\n      JUMP \t\t\t  Recipient of the minted toke...\n    tag 53\t\t\t  Recipient of the minted toke...\n      JUMPDEST \t\t\t  Recipient of the minted toke...\n      PUSH 40\t\t\t  Recipient of the minted toke...\n      MLOAD \t\t\t  Recipient of the minted toke...\n      PUSH [tag] 55\t\t\t  Recipient of the minted toke...\n      SWAP2 \t\t\t  Recipient of the minted toke...\n      SWAP1 \t\t\t  Recipient of the minted toke...\n      PUSH [tag] 56\t\t\t  Recipient of the minted toke...\n      JUMP \t\t\t  Recipient of the minted toke...\n    tag 55\t\t\t  Recipient of the minted toke...\n      JUMPDEST \t\t\t  Recipient of the minted toke...\n      PUSH 40\t\t\t  Recipient of the minted toke...\n      MLOAD \t\t\t  Recipient of the minted toke...\n      DUP1 \t\t\t  Recipient of the minted toke...\n      SWAP2 \t\t\t  Recipient of the minted toke...\n      SUB \t\t\t  Recipient of the minted toke...\n      SWAP1 \t\t\t  Recipient of the minted toke...\n      RETURN \t\t\t  Recipient of the minted toke...\n    tag 9\t\t\tnction mint(address to, uint25...\n      JUMPDEST \t\t\tnction mint(address to, uint25...\n      PUSH [tag] 57\t\t\tnction mint(address to, uint25...\n      PUSH 4\t\t\tnction mint(address to, uint25...\n      DUP1 \t\t\tnction mint(address to, uint25...\n      CALLDATASIZE \t\t\tnction mint(address to, uint25...\n      SUB \t\t\tnction mint(address to, uint25...\n      DUP2 \t\t\tnction mint(address to, uint25...\n      ADD \t\t\tnction mint(address to, uint25...\n      SWAP1 \t\t\tnction mint(address to, uint25...\n      PUSH [tag] 58\t\t\tnction mint(address to, uint25...\n      SWAP2 \t\t\tnction mint(address to, uint25...\n      SWAP1 \t\t\tnction mint(address to, uint25...\n      PUSH [tag] 36\t\t\tnction mint(address to, uint25...\n      JUMP \t\t\tnction mint(address to, uint25...\n    tag 58\t\t\tnction mint(address to, uint25...\n      JUMPDEST \t\t\tnction mint(address to, uint25...\n      PUSH [tag] 59\t\t\tnction mint(address to, uint25...\n      JUMP \t\t\tnction mint(address to, uint25...\n    tag 57\t\t\tnction mint(address to, uint25...\n      JUMPDEST \t\t\tnction mint(address to, uint25...\n      STOP \t\t\tnction mint(address to, uint25...\n    tag 10\t\t\tnction burn(uint256 amount) pu...\n      JUMPDEST \t\t\tnction burn(uint256 amount) pu...\n      PUSH [tag] 60\t\t\tnction burn(uint256 amount) pu...\n      PUSH 4\t\t\tnction burn(uint256 amount) pu...\n      DUP1 \t\t\tnction burn(uint256 amount) pu...\n      CALLDATASIZE \t\t\tnction burn(uint256 amount) pu...\n      SUB \t\t\tnction burn(uint256 amount) pu...\n      DUP2 \t\t\tnction burn(uint256 amount) pu...\n      ADD \t\t\tnction burn(uint256 amount) pu...\n      SWAP1 \t\t\tnction burn(uint256 amount) pu...\n      PUSH [tag] 61\t\t\tnction burn(uint256 amount) pu...\n      SWAP2 \t\t\tnction burn(uint256 amount) pu...\n      SWAP1 \t\t\tnction burn(uint256 amount) pu...\n      PUSH [tag] 62\t\t\tnction burn(uint256 amount) pu...\n      JUMP \t\t\tnction burn(uint256 amount) pu...\n    tag 61\t\t\tnction burn(uint256 amount) pu...\n      JUMPDEST \t\t\tnction burn(uint256 amount) pu...\n      PUSH [tag] 63\t\t\tnction burn(uint256 amount) pu...\n      JUMP \t\t\tnction burn(uint256 amount) pu...\n    tag 60\t\t\tnction burn(uint256 amount) pu...\n      JUMPDEST \t\t\tnction burn(uint256 amount) pu...\n      STOP \t\t\tnction burn(uint256 amount) pu...\n    tag 11\t\t\totice Burn your own tokens; em...\n      JUMPDEST \t\t\totice Burn your own tokens; em...\n      PUSH [tag] 64\t\t\totice Burn your own tokens; em...\n      PUSH 4\t\t\totice Burn your own tokens; em...\n      DUP1 \t\t\totice Burn your own tokens; em...\n      CALLDATASIZE \t\t\totice Burn your own tokens; em...\n      SUB \t\t\totice Burn your own tokens; em...\n      DUP2 \t\t\totice Burn your own tokens; em...\n      ADD \t\t\totice Burn your own tokens; em...\n      SWAP1 \t\t\totice Burn your own tokens; em...\n      PUSH [tag] 65\t\t\totice Burn your own tokens; em...\n      SWAP2 \t\t\totice Burn your own tokens; em...\n      SWAP1 \t\t\totice Burn your own tokens; em...\n      PUSH [tag] 66\t\t\totice Burn your own tokens; em...\n      JUMP \t\t\totice Burn your own tokens; em...\n    tag 65\t\t\totice Burn your own tokens; em...\n      JUMPDEST \t\t\totice Burn your own tokens; em...\n      PUSH [tag] 67\t\t\totice Burn your own tokens; em...\n      JUMP \t\t\totice Burn your own tokens; em...\n    tag 64\t\t\totice Burn your own tokens; em...\n      JUMPDEST \t\t\totice Burn your own tokens; em...\n      PUSH 40\t\t\totice Burn your own tokens; em...\n      MLOAD \t\t\totice Burn your own tokens; em...\n      PUSH [tag] 68\t\t\totice Burn your own tokens; em...\n      SWAP2 \t\t\totice Burn your own tokens; em...\n      SWAP1 \t\t\totice Burn your own tokens; em...\n      PUSH [tag] 43\t\t\totice Burn your own tokens; em...\n      JUMP \t\t\totice Burn your own tokens; em...\n    tag 68\t\t\totice Burn your own tokens; em...\n      JUMPDEST \t\t\totice Burn your own tokens; em...\n      PUSH 40\t\t\totice Burn your own tokens; em...\n      MLOAD \t\t\totice Burn your own tokens; em...\n      DUP1 \t\t\totice Burn your own tokens; em...\n      SWAP2 \t\t\totice Burn your own tokens; em...\n      SUB \t\t\totice Burn your own tokens; em...\n      SWAP1 \t\t\totice Burn your own tokens; em...\n      RETURN \t\t\totice Burn your own tokens; em...\n    tag 12\t\t\tst be called by pending owner)...\n      JUMPDEST \t\t\tst be called by pending owner)...\n      PUSH [tag] 69\t\t\tst be called by pending owner)...\n      PUSH [tag] 70\t\t\tst be called by pending owner)...\n      JUMP \t\t\tst be called by pending owner)...\n    tag 69\t\t\tst be called by pending owner)...\n      JUMPDEST \t\t\tst be called by pending owner)...\n      STOP \t\t\tst be called by pending owner)...\n    tag 13\t\t\tnction acceptOwnership() exter...\n      JUMPDEST \t\t\tnction acceptOwnership() exter...\n      PUSH [tag] 71\t\t\tnction acceptOwnership() exter...\n      PUSH [tag] 72\t\t\tnction acceptOwnership() exter...\n      JUMP \t\t\tnction acceptOwnership() exter...\n    tag 71\t\t\tnction acceptOwnership() exter...\n      JUMPDEST \t\t\tnction acceptOwnership() exter...\n      STOP \t\t\tnction acceptOwnership() exter...\n    tag 14\t\t\ttion burnFrom(address account,...\n      JUMPDEST \t\t\ttion burnFrom(address account,...\n      PUSH [tag] 73\t\t\ttion burnFrom(address account,...\n      PUSH 4\t\t\ttion burnFrom(address account,...\n      DUP1 \t\t\ttion burnFrom(address account,...\n      CALLDATASIZE \t\t\ttion burnFrom(address account,...\n      SUB \t\t\ttion burnFrom(address account,...\n      DUP2 \t\t\ttion burnFrom(address account,...\n      ADD \t\t\ttion burnFrom(address account,...\n      SWAP1 \t\t\ttion burnFrom(address account,...\n      PUSH [tag] 74\t\t\ttion burnFrom(address account,...\n      SWAP2 \t\t\ttion burnFrom(address account,...\n      SWAP1 \t\t\ttion burnFrom(address account,...\n      PUSH [tag] 36\t\t\ttion burnFrom(address account,...\n      JUMP \t\t\ttion burnFrom(address account,...\n    tag 74\t\t\ttion burnFrom(address account,...\n      JUMPDEST \t\t\ttion burnFrom(address account,...\n      PUSH [tag] 75\t\t\ttion burnFrom(address account,...\n      JUMP \t\t\ttion burnFrom(address account,...\n    tag 73\t\t\ttion burnFrom(address account,...\n      JUMPDEST \t\t\ttion burnFrom(address account,...\n      STOP \t\t\ttion burnFrom(address account,...\n    tag 15\t\t\t       require(sender == _pend...\n      JUMPDEST \t\t\t       require(sender == _pend...\n      PUSH [tag] 76\t\t\t       require(sender == _pend...\n      PUSH 4\t\t\t       require(sender == _pend...\n      DUP1 \t\t\t       require(sender == _pend...\n      CALLDATASIZE \t\t\t       require(sender == _pend...\n      SUB \t\t\t       require(sender == _pend...\n      DUP2 \t\t\t       require(sender == _pend...\n      ADD \t\t\t       require(sender == _pend...\n      SWAP1 \t\t\t       require(sender == _pend...\n      PUSH [tag] 77\t\t\t       require(sender == _pend...\n      SWAP2 \t\t\t       require(sender == _pend...\n      SWAP1 \t\t\t       require(sender == _pend...\n      PUSH [tag] 66\t\t\t       require(sender == _pend...\n      JUMP \t\t\t       require(sender == _pend...\n    tag 77\t\t\t       require(sender == _pend...\n      JUMPDEST \t\t\t       require(sender == _pend...\n      PUSH [tag] 78\t\t\t       require(sender == _pend...\n      JUMP \t\t\t       require(sender == _pend...\n    tag 76\t\t\t       require(sender == _pend...\n      JUMPDEST \t\t\t       require(sender == _pend...\n      PUSH 40\t\t\t       require(sender == _pend...\n      MLOAD \t\t\t       require(sender == _pend...\n      PUSH [tag] 79\t\t\t       require(sender == _pend...\n      SWAP2 \t\t\t       require(sender == _pend...\n      SWAP1 \t\t\t       require(sender == _pend...\n      PUSH [tag] 43\t\t\t       require(sender == _pend...\n      JUMP \t\t\t       require(sender == _pend...\n    tag 79\t\t\t       require(sender == _pend...\n      JUMPDEST \t\t\t       require(sender == _pend...\n      PUSH 40\t\t\t       require(sender == _pend...\n      MLOAD \t\t\t       require(sender == _pend...\n      DUP1 \t\t\t       require(sender == _pend...\n      SWAP2 \t\t\t       require(sender == _pend...\n      SUB \t\t\t       require(sender == _pend...\n      SWAP1 \t\t\t       require(sender == _pend...\n      RETURN \t\t\t       require(sender == _pend...\n    tag 16\t\t\t\n      JUMPDEST \t\t\t\n      PUSH [tag] 80\t\t\t\n      PUSH [tag] 81\t\t\t\n      JUMP \t\t\t\n    tag 80\t\t\t\n      JUMPDEST \t\t\t\n      PUSH 40\t\t\t\n      MLOAD \t\t\t\n      PUSH [tag] 82\t\t\t\n      SWAP8 \t\t\t\n      SWAP7 \t\t\t\n      SWAP6 \t\t\t\n      SWAP5 \t\t\t\n      SWAP4 \t\t\t\n      SWAP3 \t\t\t\n      SWAP2 \t\t\t\n      SWAP1 \t\t\t\n      PUSH [tag] 83\t\t\t\n      JUMP \t\t\t\n    tag 82\t\t\t\n      JUMPDEST \t\t\t\n      PUSH 40\t\t\t\n      MLOAD \t\t\t\n      DUP1 \t\t\t\n      SWAP2 \t\t\t\n      SUB \t\t\t\n      SWAP1 \t\t\t\n      RETURN \t\t\t\n    tag 17\t\t\toyer\\r\\n    }\\r\\n\\r\\n    /// @...\n      JUMPDEST \t\t\toyer\\r\\n    }\\r\\n\\r\\n    /// @...\n      PUSH [tag] 84\t\t\toyer\\r\\n    }\\r\\n\\r\\n    /// @...\n      PUSH [tag] 85\t\t\toyer\\r\\n    }\\r\\n\\r\\n    /// @...\n      JUMP \t\t\toyer\\r\\n    }\\r\\n\\r\\n    /// @...\n    tag 84\t\t\toyer\\r\\n    }\\r\\n\\r\\n    /// @...\n      JUMPDEST \t\t\toyer\\r\\n    }\\r\\n\\r\\n    /// @...\n      PUSH 40\t\t\toyer\\r\\n    }\\r\\n\\r\\n    /// @...\n      MLOAD \t\t\toyer\\r\\n    }\\r\\n\\r\\n    /// @...\n      PUSH [tag] 86\t\t\toyer\\r\\n    }\\r\\n\\r\\n    /// @...\n      SWAP2 \t\t\toyer\\r\\n    }\\r\\n\\r\\n    /// @...\n      SWAP1 \t\t\toyer\\r\\n    }\\r\\n\\r\\n    /// @...\n      PUSH [tag] 87\t\t\toyer\\r\\n    }\\r\\n\\r\\n    /// @...\n      JUMP \t\t\toyer\\r\\n    }\\r\\n\\r\\n    /// @...\n    tag 86\t\t\toyer\\r\\n    }\\r\\n\\r\\n    /// @...\n      JUMPDEST \t\t\toyer\\r\\n    }\\r\\n\\r\\n    /// @...\n      PUSH 40\t\t\toyer\\r\\n    }\\r\\n\\r\\n    /// @...\n      MLOAD \t\t\toyer\\r\\n    }\\r\\n\\r\\n    /// @...\n      DUP1 \t\t\toyer\\r\\n    }\\r\\n\\r\\n    /// @...\n      SWAP2 \t\t\toyer\\r\\n    }\\r\\n\\r\\n    /// @...\n      SUB \t\t\toyer\\r\\n    }\\r\\n\\r\\n    /// @...\n      SWAP1 \t\t\toyer\\r\\n    }\\r\\n\\r\\n    /// @...\n      RETURN \t\t\toyer\\r\\n    }\\r\\n\\r\\n    /// @...\n    tag 18\t\t\transfer ownership to\\r\\n    fu...\n      JUMPDEST \t\t\transfer ownership to\\r\\n    fu...\n      PUSH [tag] 88\t\t\transfer ownership to\\r\\n    fu...\n      PUSH [tag] 89\t\t\transfer ownership to\\r\\n    fu...\n      JUMP \t\t\transfer ownership to\\r\\n    fu...\n    tag 88\t\t\transfer ownership to\\r\\n    fu...\n      JUMPDEST \t\t\transfer ownership to\\r\\n    fu...\n      PUSH 40\t\t\transfer ownership to\\r\\n    fu...\n      MLOAD \t\t\transfer ownership to\\r\\n    fu...\n      PUSH [tag] 90\t\t\transfer ownership to\\r\\n    fu...\n      SWAP2 \t\t\transfer ownership to\\r\\n    fu...\n      SWAP1 \t\t\transfer ownership to\\r\\n    fu...\n      PUSH [tag] 33\t\t\transfer ownership to\\r\\n    fu...\n      JUMP \t\t\transfer ownership to\\r\\n    fu...\n    tag 90\t\t\transfer ownership to\\r\\n    fu...\n      JUMPDEST \t\t\transfer ownership to\\r\\n    fu...\n      PUSH 40\t\t\transfer ownership to\\r\\n    fu...\n      MLOAD \t\t\transfer ownership to\\r\\n    fu...\n      DUP1 \t\t\transfer ownership to\\r\\n    fu...\n      SWAP2 \t\t\transfer ownership to\\r\\n    fu...\n      SUB \t\t\transfer ownership to\\r\\n    fu...\n      SWAP1 \t\t\transfer ownership to\\r\\n    fu...\n      RETURN \t\t\transfer ownership to\\r\\n    fu...\n    tag 19\t\t\t amount) public override {\\r\\n...\n      JUMPDEST \t\t\t amount) public override {\\r\\n...\n      PUSH [tag] 91\t\t\t amount) public override {\\r\\n...\n      PUSH 4\t\t\t amount) public override {\\r\\n...\n      DUP1 \t\t\t amount) public override {\\r\\n...\n      CALLDATASIZE \t\t\t amount) public override {\\r\\n...\n      SUB \t\t\t amount) public override {\\r\\n...\n      DUP2 \t\t\t amount) public override {\\r\\n...\n      ADD \t\t\t amount) public override {\\r\\n...\n      SWAP1 \t\t\t amount) public override {\\r\\n...\n      PUSH [tag] 92\t\t\t amount) public override {\\r\\n...\n      SWAP2 \t\t\t amount) public override {\\r\\n...\n      SWAP1 \t\t\t amount) public override {\\r\\n...\n      PUSH [tag] 36\t\t\t amount) public override {\\r\\n...\n      JUMP \t\t\t amount) public override {\\r\\n...\n    tag 92\t\t\t amount) public override {\\r\\n...\n      JUMPDEST \t\t\t amount) public override {\\r\\n...\n      PUSH [tag] 93\t\t\t amount) public override {\\r\\n...\n      JUMP \t\t\t amount) public override {\\r\\n...\n    tag 91\t\t\t amount) public override {\\r\\n...\n      JUMPDEST \t\t\t amount) public override {\\r\\n...\n      PUSH 40\t\t\t amount) public override {\\r\\n...\n      MLOAD \t\t\t amount) public override {\\r\\n...\n      PUSH [tag] 94\t\t\t amount) public override {\\r\\n...\n      SWAP2 \t\t\t amount) public override {\\r\\n...\n      SWAP1 \t\t\t amount) public override {\\r\\n...\n      PUSH [tag] 39\t\t\t amount) public override {\\r\\n...\n      JUMP \t\t\t amount) public override {\\r\\n...\n    tag 94\t\t\t amount) public override {\\r\\n...\n      JUMPDEST \t\t\t amount) public override {\\r\\n...\n      PUSH 40\t\t\t amount) public override {\\r\\n...\n      MLOAD \t\t\t amount) public override {\\r\\n...\n      DUP1 \t\t\t amount) public override {\\r\\n...\n      SWAP2 \t\t\t amount) public override {\\r\\n...\n      SUB \t\t\t amount) public override {\\r\\n...\n      SWAP1 \t\t\t amount) public override {\\r\\n...\n      RETURN \t\t\t amount) public override {\\r\\n...\n    tag 20\t\t\tnction initiateOwnershipTransf...\n      JUMPDEST \t\t\tnction initiateOwnershipTransf...\n      PUSH [tag] 95\t\t\tnction initiateOwnershipTransf...\n      PUSH 4\t\t\tnction initiateOwnershipTransf...\n      DUP1 \t\t\tnction initiateOwnershipTransf...\n      CALLDATASIZE \t\t\tnction initiateOwnershipTransf...\n      SUB \t\t\tnction initiateOwnershipTransf...\n      DUP2 \t\t\tnction initiateOwnershipTransf...\n      ADD \t\t\tnction initiateOwnershipTransf...\n      SWAP1 \t\t\tnction initiateOwnershipTransf...\n      PUSH [tag] 96\t\t\tnction initiateOwnershipTransf...\n      SWAP2 \t\t\tnction initiateOwnershipTransf...\n      SWAP1 \t\t\tnction initiateOwnershipTransf...\n      PUSH [tag] 66\t\t\tnction initiateOwnershipTransf...\n      JUMP \t\t\tnction initiateOwnershipTransf...\n    tag 96\t\t\tnction initiateOwnershipTransf...\n      JUMPDEST \t\t\tnction initiateOwnershipTransf...\n      PUSH [tag] 97\t\t\tnction initiateOwnershipTransf...\n      JUMP \t\t\tnction initiateOwnershipTransf...\n    tag 95\t\t\tnction initiateOwnershipTransf...\n      JUMPDEST \t\t\tnction initiateOwnershipTransf...\n      STOP \t\t\tnction initiateOwnershipTransf...\n    tag 21\t\t\tss pending to become owner\\r\\n...\n      JUMPDEST \t\t\tss pending to become owner\\r\\n...\n      PUSH [tag] 98\t\t\tss pending to become owner\\r\\n...\n      PUSH 4\t\t\tss pending to become owner\\r\\n...\n      DUP1 \t\t\tss pending to become owner\\r\\n...\n      CALLDATASIZE \t\t\tss pending to become owner\\r\\n...\n      SUB \t\t\tss pending to become owner\\r\\n...\n      DUP2 \t\t\tss pending to become owner\\r\\n...\n      ADD \t\t\tss pending to become owner\\r\\n...\n      SWAP1 \t\t\tss pending to become owner\\r\\n...\n      PUSH [tag] 99\t\t\tss pending to become owner\\r\\n...\n      SWAP2 \t\t\tss pending to become owner\\r\\n...\n      SWAP1 \t\t\tss pending to become owner\\r\\n...\n      PUSH [tag] 100\t\t\tss pending to become owner\\r\\n...\n      JUMP \t\t\tss pending to become owner\\r\\n...\n    tag 99\t\t\tss pending to become owner\\r\\n...\n      JUMPDEST \t\t\tss pending to become owner\\r\\n...\n      PUSH [tag] 101\t\t\tss pending to become owner\\r\\n...\n      JUMP \t\t\tss pending to become owner\\r\\n...\n    tag 98\t\t\tss pending to become owner\\r\\n...\n      JUMPDEST \t\t\tss pending to become owner\\r\\n...\n      STOP \t\t\tss pending to become owner\\r\\n...\n    tag 22\t\t\tokens from\\r\\n    /// @param t...\n      JUMPDEST \t\t\tokens from\\r\\n    /// @param t...\n      PUSH [tag] 102\t\t\tokens from\\r\\n    /// @param t...\n      PUSH 4\t\t\tokens from\\r\\n    /// @param t...\n      DUP1 \t\t\tokens from\\r\\n    /// @param t...\n      CALLDATASIZE \t\t\tokens from\\r\\n    /// @param t...\n      SUB \t\t\tokens from\\r\\n    /// @param t...\n      DUP2 \t\t\tokens from\\r\\n    /// @param t...\n      ADD \t\t\tokens from\\r\\n    /// @param t...\n      SWAP1 \t\t\tokens from\\r\\n    /// @param t...\n      PUSH [tag] 103\t\t\tokens from\\r\\n    /// @param t...\n      SWAP2 \t\t\tokens from\\r\\n    /// @param t...\n      SWAP1 \t\t\tokens from\\r\\n    /// @param t...\n      PUSH [tag] 104\t\t\tokens from\\r\\n    /// @param t...\n      JUMP \t\t\tokens from\\r\\n    /// @param t...\n    tag 103\t\t\tokens from\\r\\n    /// @param t...\n      JUMPDEST \t\t\tokens from\\r\\n    /// @param t...\n      PUSH [tag] 105\t\t\tokens from\\r\\n    /// @param t...\n      JUMP \t\t\tokens from\\r\\n    /// @param t...\n    tag 102\t\t\tokens from\\r\\n    /// @param t...\n      JUMPDEST \t\t\tokens from\\r\\n    /// @param t...\n      PUSH 40\t\t\tokens from\\r\\n    /// @param t...\n      MLOAD \t\t\tokens from\\r\\n    /// @param t...\n      PUSH [tag] 106\t\t\tokens from\\r\\n    /// @param t...\n      SWAP2 \t\t\tokens from\\r\\n    /// @param t...\n      SWAP1 \t\t\tokens from\\r\\n    /// @param t...\n      PUSH [tag] 43\t\t\tokens from\\r\\n    /// @param t...\n      JUMP \t\t\tokens from\\r\\n    /// @param t...\n    tag 106\t\t\tokens from\\r\\n    /// @param t...\n      JUMPDEST \t\t\tokens from\\r\\n    /// @param t...\n      PUSH 40\t\t\tokens from\\r\\n    /// @param t...\n      MLOAD \t\t\tokens from\\r\\n    /// @param t...\n      DUP1 \t\t\tokens from\\r\\n    /// @param t...\n      SWAP2 \t\t\tokens from\\r\\n    /// @param t...\n      SUB \t\t\tokens from\\r\\n    /// @param t...\n      SWAP1 \t\t\tokens from\\r\\n    /// @param t...\n      RETURN \t\t\tokens from\\r\\n    /// @param t...\n    tag 23\t\t\tnction pendingOwner() public v...\n      JUMPDEST \t\t\tnction pendingOwner() public v...\n      PUSH [tag] 107\t\t\tnction pendingOwner() public v...\n      PUSH [tag] 108\t\t\tnction pendingOwner() public v...\n      JUMP \t\t\tnction pendingOwner() public v...\n    tag 107\t\t\tnction pendingOwner() public v...\n      JUMPDEST \t\t\tnction pendingOwner() public v...\n      PUSH 40\t\t\tnction pendingOwner() public v...\n      MLOAD \t\t\tnction pendingOwner() public v...\n      PUSH [tag] 109\t\t\tnction pendingOwner() public v...\n      SWAP2 \t\t\tnction pendingOwner() public v...\n      SWAP1 \t\t\tnction pendingOwner() public v...\n      PUSH [tag] 87\t\t\tnction pendingOwner() public v...\n      JUMP \t\t\tnction pendingOwner() public v...\n    tag 109\t\t\tnction pendingOwner() public v...\n      JUMPDEST \t\t\tnction pendingOwner() public v...\n      PUSH 40\t\t\tnction pendingOwner() public v...\n      MLOAD \t\t\tnction pendingOwner() public v...\n      DUP1 \t\t\tnction pendingOwner() public v...\n      SWAP2 \t\t\tnction pendingOwner() public v...\n      SUB \t\t\tnction pendingOwner() public v...\n      SWAP1 \t\t\tnction pendingOwner() public v...\n      RETURN \t\t\tnction pendingOwner() public v...\n    tag 24\t\t\ttion emergencyRecoverERC20(\\r\\...\n      JUMPDEST \t\t\ttion emergencyRecoverERC20(\\r\\...\n      PUSH [tag] 110\t\t\ttion emergencyRecoverERC20(\\r\\...\n      PUSH 4\t\t\ttion emergencyRecoverERC20(\\r\\...\n      DUP1 \t\t\ttion emergencyRecoverERC20(\\r\\...\n      CALLDATASIZE \t\t\ttion emergencyRecoverERC20(\\r\\...\n      SUB \t\t\ttion emergencyRecoverERC20(\\r\\...\n      DUP2 \t\t\ttion emergencyRecoverERC20(\\r\\...\n      ADD \t\t\ttion emergencyRecoverERC20(\\r\\...\n      SWAP1 \t\t\ttion emergencyRecoverERC20(\\r\\...\n      PUSH [tag] 111\t\t\ttion emergencyRecoverERC20(\\r\\...\n      SWAP2 \t\t\ttion emergencyRecoverERC20(\\r\\...\n      SWAP1 \t\t\ttion emergencyRecoverERC20(\\r\\...\n      PUSH [tag] 112\t\t\ttion emergencyRecoverERC20(\\r\\...\n      JUMP \t\t\ttion emergencyRecoverERC20(\\r\\...\n    tag 111\t\t\ttion emergencyRecoverERC20(\\r\\...\n      JUMPDEST \t\t\ttion emergencyRecoverERC20(\\r\\...\n      PUSH [tag] 113\t\t\ttion emergencyRecoverERC20(\\r\\...\n      JUMP \t\t\ttion emergencyRecoverERC20(\\r\\...\n    tag 110\t\t\ttion emergencyRecoverERC20(\\r\\...\n      JUMPDEST \t\t\ttion emergencyRecoverERC20(\\r\\...\n      STOP \t\t\ttion emergencyRecoverERC20(\\r\\...\n    tag 25\t\t\tnt256 public constant CAP = 66...\n      JUMPDEST \t\t\tnt256 public constant CAP = 66...\n      PUSH [tag] 114\t\t\tnt256 public constant CAP = 66...\n      PUSH [tag] 115\t\t\tnt256 public constant CAP = 66...\n      JUMP \t\t\tnt256 public constant CAP = 66...\n    tag 114\t\t\tnt256 public constant CAP = 66...\n      JUMPDEST \t\t\tnt256 public constant CAP = 66...\n      PUSH 40\t\t\tnt256 public constant CAP = 66...\n      MLOAD \t\t\tnt256 public constant CAP = 66...\n      PUSH [tag] 116\t\t\tnt256 public constant CAP = 66...\n      SWAP2 \t\t\tnt256 public constant CAP = 66...\n      SWAP1 \t\t\tnt256 public constant CAP = 66...\n      PUSH [tag] 43\t\t\tnt256 public constant CAP = 66...\n      JUMP \t\t\tnt256 public constant CAP = 66...\n    tag 116\t\t\tnt256 public constant CAP = 66...\n      JUMPDEST \t\t\tnt256 public constant CAP = 66...\n      PUSH 40\t\t\tnt256 public constant CAP = 66...\n      MLOAD \t\t\tnt256 public constant CAP = 66...\n      DUP1 \t\t\tnt256 public constant CAP = 66...\n      SWAP2 \t\t\tnt256 public constant CAP = 66...\n      SUB \t\t\tnt256 public constant CAP = 66...\n      SWAP1 \t\t\tnt256 public constant CAP = 66...\n      RETURN \t\t\tnt256 public constant CAP = 66...\n    tag 26\t\t\ttransferOwnership(sender);\\r\\n...\n      JUMPDEST \t\t\ttransferOwnership(sender);\\r\\n...\n      PUSH [tag] 117\t\t\ttransferOwnership(sender);\\r\\n...\n      PUSH 4\t\t\ttransferOwnership(sender);\\r\\n...\n      DUP1 \t\t\ttransferOwnership(sender);\\r\\n...\n      CALLDATASIZE \t\t\ttransferOwnership(sender);\\r\\n...\n      SUB \t\t\ttransferOwnership(sender);\\r\\n...\n      DUP2 \t\t\ttransferOwnership(sender);\\r\\n...\n      ADD \t\t\ttransferOwnership(sender);\\r\\n...\n      SWAP1 \t\t\ttransferOwnership(sender);\\r\\n...\n      PUSH [tag] 118\t\t\ttransferOwnership(sender);\\r\\n...\n      SWAP2 \t\t\ttransferOwnership(sender);\\r\\n...\n      SWAP1 \t\t\ttransferOwnership(sender);\\r\\n...\n      PUSH [tag] 66\t\t\ttransferOwnership(sender);\\r\\n...\n      JUMP \t\t\ttransferOwnership(sender);\\r\\n...\n    tag 118\t\t\ttransferOwnership(sender);\\r\\n...\n      JUMPDEST \t\t\ttransferOwnership(sender);\\r\\n...\n      PUSH [tag] 119\t\t\ttransferOwnership(sender);\\r\\n...\n      JUMP \t\t\ttransferOwnership(sender);\\r\\n...\n    tag 117\t\t\ttransferOwnership(sender);\\r\\n...\n      JUMPDEST \t\t\ttransferOwnership(sender);\\r\\n...\n      STOP \t\t\ttransferOwnership(sender);\\r\\n...\n    tag 31\t\t\taddress) {\\r\\n        return _...\n      JUMPDEST \t\t\taddress) {\\r\\n        return _...\n      PUSH 60\t\t\t  }\\r\\n\\r\\n    //\n      PUSH 3\t\t\towner\n      DUP1 \t\t\titiate owner\n      SLOAD \t\t\titiate owner\n      PUSH [tag] 121\t\t\titiate owner\n      SWAP1 \t\t\titiate owner\n      PUSH [tag] 122\t\t\titiate owner\n      JUMP \t\t\titiate owner\n    tag 121\t\t\titiate owner\n      JUMPDEST \t\t\titiate owner\n      DUP1 \t\t\titiate owner\n      PUSH 1F\t\t\titiate owner\n      ADD \t\t\titiate owner\n      PUSH 20\t\t\titiate owner\n      DUP1 \t\t\titiate owner\n      SWAP2 \t\t\titiate owner\n      DIV \t\t\titiate owner\n      MUL \t\t\titiate owner\n      PUSH 20\t\t\titiate owner\n      ADD \t\t\titiate owner\n      PUSH 40\t\t\titiate owner\n      MLOAD \t\t\titiate owner\n      SWAP1 \t\t\titiate owner\n      DUP2 \t\t\titiate owner\n      ADD \t\t\titiate owner\n      PUSH 40\t\t\titiate owner\n      MSTORE \t\t\titiate owner\n      DUP1 \t\t\titiate owner\n      SWAP3 \t\t\titiate owner\n      SWAP2 \t\t\titiate owner\n      SWAP1 \t\t\titiate owner\n      DUP2 \t\t\titiate owner\n      DUP2 \t\t\titiate owner\n      MSTORE \t\t\titiate owner\n      PUSH 20\t\t\titiate owner\n      ADD \t\t\titiate owner\n      DUP3 \t\t\titiate owner\n      DUP1 \t\t\titiate owner\n      SLOAD \t\t\titiate owner\n      PUSH [tag] 123\t\t\titiate owner\n      SWAP1 \t\t\titiate owner\n      PUSH [tag] 122\t\t\titiate owner\n      JUMP \t\t\titiate owner\n    tag 123\t\t\titiate owner\n      JUMPDEST \t\t\titiate owner\n      DUP1 \t\t\titiate owner\n      ISZERO \t\t\titiate owner\n      PUSH [tag] 124\t\t\titiate owner\n      JUMPI \t\t\titiate owner\n      DUP1 \t\t\titiate owner\n      PUSH 1F\t\t\titiate owner\n      LT \t\t\titiate owner\n      PUSH [tag] 125\t\t\titiate owner\n      JUMPI \t\t\titiate owner\n      PUSH 100\t\t\titiate owner\n      DUP1 \t\t\titiate owner\n      DUP4 \t\t\titiate owner\n      SLOAD \t\t\titiate owner\n      DIV \t\t\titiate owner\n      MUL \t\t\titiate owner\n      DUP4 \t\t\titiate owner\n      MSTORE \t\t\titiate owner\n      SWAP2 \t\t\titiate owner\n      PUSH 20\t\t\titiate owner\n      ADD \t\t\titiate owner\n      SWAP2 \t\t\titiate owner\n      PUSH [tag] 124\t\t\titiate owner\n      JUMP \t\t\titiate owner\n    tag 125\t\t\titiate owner\n      JUMPDEST \t\t\titiate owner\n      DUP3 \t\t\titiate owner\n      ADD \t\t\titiate owner\n      SWAP2 \t\t\titiate owner\n      SWAP1 \t\t\titiate owner\n      PUSH 0\t\t\titiate owner\n      MSTORE \t\t\titiate owner\n      PUSH 20\t\t\titiate owner\n      PUSH 0\t\t\titiate owner\n      KECCAK256 \t\t\titiate owner\n      SWAP1 \t\t\titiate owner\n    tag 126\t\t\titiate owner\n      JUMPDEST \t\t\titiate owner\n      DUP2 \t\t\titiate owner\n      SLOAD \t\t\titiate owner\n      DUP2 \t\t\titiate owner\n      MSTORE \t\t\titiate owner\n      SWAP1 \t\t\titiate owner\n      PUSH 1\t\t\titiate owner\n      ADD \t\t\titiate owner\n      SWAP1 \t\t\titiate owner\n      PUSH 20\t\t\titiate owner\n      ADD \t\t\titiate owner\n      DUP1 \t\t\titiate owner\n      DUP4 \t\t\titiate owner\n      GT \t\t\titiate owner\n      PUSH [tag] 126\t\t\titiate owner\n      JUMPI \t\t\titiate owner\n      DUP3 \t\t\titiate owner\n      SWAP1 \t\t\titiate owner\n      SUB \t\t\titiate owner\n      PUSH 1F\t\t\titiate owner\n      AND \t\t\titiate owner\n      DUP3 \t\t\titiate owner\n      ADD \t\t\titiate owner\n      SWAP2 \t\t\titiate owner\n    tag 124\t\t\titiate owner\n      JUMPDEST \t\t\titiate owner\n      POP \t\t\titiate owner\n      POP \t\t\titiate owner\n      POP \t\t\titiate owner\n      POP \t\t\titiate owner\n      POP \t\t\titiate owner\n      SWAP1 \t\t\titiate owner\n      POP \t\t\titiate owner\n      SWAP1 \t\t\taddress) {\\r\\n        return _...\n      JUMP \t\t\taddress) {\\r\\n        return _...\n    tag 37\t\t\t\n      JUMPDEST \t\t\t\n      PUSH 0\t\t\t\n      DUP1 \t\t\t\n      PUSH [tag] 128\t\t\t\n      PUSH [tag] 129\t\t\t\n      JUMP \t\t\t\n    tag 128\t\t\t\n      JUMPDEST \t\t\t\n      SWAP1 \t\t\t\n      POP \t\t\t\n      PUSH [tag] 130\t\t\t\n      DUP2 \t\t\t\n      DUP6 \t\t\t\n      DUP6 \t\t\t\n      PUSH [tag] 131\t\t\t\n      JUMP \t\t\t\n    tag 130\t\t\t\n      JUMPDEST \t\t\t\n      PUSH 1\t\t\t\n      SWAP2 \t\t\t\n      POP \t\t\t\n      POP \t\t\t\n      SWAP3 \t\t\t\n      SWAP2 \t\t\t\n      POP \t\t\t\n      POP \t\t\t\n      JUMP \t\t\t\n    tag 41\t\t\trequire(totalSupply() + amount...\n      JUMPDEST \t\t\trequire(totalSupply() + amount...\n      PUSH 0\t\t\tap exce\n      PUSH 2\t\t\tint(to, amou\n      SLOAD \t\t\tint(to, amou\n      SWAP1 \t\t\t     _mint(to, amou\n      POP \t\t\t     _mint(to, amou\n      SWAP1 \t\t\trequire(totalSupply() + amount...\n      JUMP \t\t\trequire(totalSupply() + amount...\n    tag 47\t\t\t\n      JUMPDEST \t\t\t\n      PUSH 0\t\t\t\n      DUP1 \t\t\t\n      PUSH [tag] 134\t\t\t\n      PUSH [tag] 129\t\t\t\n      JUMP \t\t\t\n    tag 134\t\t\t\n      JUMPDEST \t\t\t\n      SWAP1 \t\t\t\n      POP \t\t\t\n      PUSH [tag] 135\t\t\t\n      DUP6 \t\t\t\n      DUP3 \t\t\t\n      DUP6 \t\t\t\n      PUSH [tag] 136\t\t\t\n      JUMP \t\t\t\n    tag 135\t\t\t\n      JUMPDEST \t\t\t\n      PUSH [tag] 137\t\t\t\n      DUP6 \t\t\t\n      DUP6 \t\t\t\n      DUP6 \t\t\t\n      PUSH [tag] 138\t\t\t\n      JUMP \t\t\t\n    tag 137\t\t\t\n      JUMPDEST \t\t\t\n      PUSH 1\t\t\t\n      SWAP2 \t\t\t\n      POP \t\t\t\n      POP \t\t\t\n      SWAP4 \t\t\t\n      SWAP3 \t\t\t\n      POP \t\t\t\n      POP \t\t\t\n      POP \t\t\t\n      JUMP \t\t\t\n    tag 50\t\t\tens\\r\\n    /// @param amount  ...\n      JUMPDEST \t\t\tens\\r\\n    /// @param amount  ...\n      PUSH 0\t\t\ti)\\r\\n \n      PUSH 12\t\t\tdr\n      SWAP1 \t\t\tmint(addr\n      POP \t\t\tmint(addr\n      SWAP1 \t\t\tens\\r\\n    /// @param amount  ...\n      JUMP \t\t\tens\\r\\n    /// @param amount  ...\n    tag 54\t\t\t  Recipient of the minted toke...\n      JUMPDEST \t\t\t  Recipient of the minted toke...\n      PUSH 0\t\t\tount to\n      PUSH [tag] 141\t\t\t function mint(addre\n      PUSH [tag] 142\t\t\t function mint(add\n      JUMP \t\t\t function mint(addre\n    tag 141\t\t\t function mint(addre\n      JUMPDEST \t\t\t function mint(addre\n      SWAP1 \t\t\ti)\\r\\n    function mint(addre\n      POP \t\t\ti)\\r\\n    function mint(addre\n      SWAP1 \t\t\t  Recipient of the minted toke...\n      JUMP \t\t\t  Recipient of the minted toke...\n    tag 59\t\t\tnction mint(address to, uint25...\n      JUMPDEST \t\t\tnction mint(address to, uint25...\n      PUSH [tag] 144\t\t\t        ERC20\n      PUSH [tag] 145\t\t\t        ERC\n      JUMP \t\t\t        ERC20\n    tag 144\t\t\t        ERC20\n      JUMPDEST \t\t\t        ERC20\n      PUSH [tag] 147\t\t\tce Accept ownership t\n      PUSH [tag] 148\t\t\tce Accept ownership\n      JUMP \t\t\tce Accept ownership t\n    tag 147\t\t\tce Accept ownership t\n      JUMPDEST \t\t\tce Accept ownership t\n      PUSH 36DF8DEC4229FB48100000\t\t\t_337_700 * 10 ** 18;\\r\n      DUP2 \t\t\tount <\n      PUSH [tag] 150\t\t\ttalSupply() +\n      PUSH [tag] 41\t\t\ttalSupply()\n      JUMP \t\t\ttalSupply() +\n    tag 150\t\t\ttalSupply() +\n      JUMPDEST \t\t\ttalSupply() +\n      PUSH [tag] 151\t\t\ttalSupply() + amount <\n      SWAP2 \t\t\ttalSupply() + amount <\n      SWAP1 \t\t\ttalSupply() + amount <\n      PUSH [tag] 152\t\t\ttalSupply() + amount <\n      JUMP \t\t\ttalSupply() + amount <\n    tag 151\t\t\ttalSupply() + amount <\n      JUMPDEST \t\t\ttalSupply() + amount <\n      GT \t\t\ttalSupply() + amount <= CAP, \n      ISZERO \t\t\ttalSupply() + amount <= CAP, \n      PUSH [tag] 153\t\t\tquire(totalSupply() + amount <...\n      JUMPI \t\t\tquire(totalSupply() + amount <...\n      PUSH 40\t\t\tquire(totalSupply() + amount <...\n      MLOAD \t\t\tquire(totalSupply() + amount <...\n      PUSH 8C379A000000000000000000000000000000000000000000000000000000000\t\t\tquire(totalSupply() + amount <...\n      DUP2 \t\t\tquire(totalSupply() + amount <...\n      MSTORE \t\t\tquire(totalSupply() + amount <...\n      PUSH 4\t\t\tquire(totalSupply() + amount <...\n      ADD \t\t\tquire(totalSupply() + amount <...\n      PUSH [tag] 154\t\t\tquire(totalSupply() + amount <...\n      SWAP1 \t\t\tquire(totalSupply() + amount <...\n      PUSH [tag] 155\t\t\tquire(totalSupply() + amount <...\n      JUMP \t\t\tquire(totalSupply() + amount <...\n    tag 154\t\t\tquire(totalSupply() + amount <...\n      JUMPDEST \t\t\tquire(totalSupply() + amount <...\n      PUSH 40\t\t\tquire(totalSupply() + amount <...\n      MLOAD \t\t\tquire(totalSupply() + amount <...\n      DUP1 \t\t\tquire(totalSupply() + amount <...\n      SWAP2 \t\t\tquire(totalSupply() + amount <...\n      SUB \t\t\tquire(totalSupply() + amount <...\n      SWAP1 \t\t\tquire(totalSupply() + amount <...\n      REVERT \t\t\tquire(totalSupply() + amount <...\n    tag 153\t\t\tquire(totalSupply() + amount <...\n      JUMPDEST \t\t\tquire(totalSupply() + amount <...\n      PUSH [tag] 156\t\t\tint(to, amount);\\r\n      DUP3 \t\t\t, \n      DUP3 \t\t\tount);\n      PUSH [tag] 157\t\t\tint(t\n      JUMP \t\t\tint(to, amount);\\r\n    tag 156\t\t\tint(to, amount);\\r\n      JUMPDEST \t\t\tint(to, amount);\\r\n      DUP2 \t\t\t, \n      PUSH FFFFFFFFFFFFFFFFFFFFFFFFFFFFFFFFFFFFFFFF\t\t\tkensMinted(to, amount);\\r\n      AND \t\t\tkensMinted(to, amount);\\r\n      PUSH 3F2C9D57C068687834F0DE942A9BABB9E5ACAB57D516D3480A3C16EE165A4273\t\t\tkensMinted(to, amount);\\r\n      DUP3 \t\t\tount);\n      PUSH 40\t\t\tkensMinted(to, amount);\\r\n      MLOAD \t\t\tkensMinted(to, amount);\\r\n      PUSH [tag] 158\t\t\tkensMinted(to, amount);\\r\n      SWAP2 \t\t\tkensMinted(to, amount);\\r\n      SWAP1 \t\t\tkensMinted(to, amount);\\r\n      PUSH [tag] 43\t\t\tkensMinted(to, amount);\\r\n      JUMP \t\t\tkensMinted(to, amount);\\r\n    tag 158\t\t\tkensMinted(to, amount);\\r\n      JUMPDEST \t\t\tkensMinted(to, amount);\\r\n      PUSH 40\t\t\tkensMinted(to, amount);\\r\n      MLOAD \t\t\tkensMinted(to, amount);\\r\n      DUP1 \t\t\tkensMinted(to, amount);\\r\n      SWAP2 \t\t\tkensMinted(to, amount);\\r\n      SUB \t\t\tkensMinted(to, amount);\\r\n      SWAP1 \t\t\tkensMinted(to, amount);\\r\n      LOG2 \t\t\tkensMinted(to, amount);\\r\n      PUSH [tag] 159\t\t\ted by pending owner)\n      PUSH [tag] 160\t\t\ted by pending owne\n      JUMP \t\t\ted by pending owner)\n    tag 159\t\t\ted by pending owner)\n      JUMPDEST \t\t\ted by pending owner)\n      POP \t\t\tnction mint(address to, uint25...\n      POP \t\t\tnction mint(address to, uint25...\n      JUMP \t\t\tnction mint(address to, uint25...\n    tag 63\t\t\tnction burn(uint256 amount) pu...\n      JUMPDEST \t\t\tnction burn(uint256 amount) pu...\n      PUSH [tag] 162\t\t\tper.burn(amount);\\r\n      DUP2 \t\t\tount);\n      PUSH [tag] 163\t\t\tper.burn(a\n      JUMP \t\t\tper.burn(amount);\\r\n    tag 162\t\t\tper.burn(amount);\\r\n      JUMPDEST \t\t\tper.burn(amount);\\r\n      PUSH [tag] 164\t\t\tsgSender(), \n      PUSH [tag] 129\t\t\tsgSender()\n      JUMP \t\t\tsgSender(), \n    tag 164\t\t\tsgSender(), \n      JUMPDEST \t\t\tsgSender(), \n      PUSH FFFFFFFFFFFFFFFFFFFFFFFFFFFFFFFFFFFFFFFF\t\t\tkensBurned(_msgSender(), amoun...\n      AND \t\t\tkensBurned(_msgSender(), amoun...\n      PUSH FD38818F5291BF0BB3A2A48AADC06BA8757865D1DABD804585338AAB3009DCB6\t\t\tkensBurned(_msgSender(), amoun...\n      DUP3 \t\t\tount);\n      PUSH 40\t\t\tkensBurned(_msgSender(), amoun...\n      MLOAD \t\t\tkensBurned(_msgSender(), amoun...\n      PUSH [tag] 165\t\t\tkensBurned(_msgSender(), amoun...\n      SWAP2 \t\t\tkensBurned(_msgSender(), amoun...\n      SWAP1 \t\t\tkensBurned(_msgSender(), amoun...\n      PUSH [tag] 43\t\t\tkensBurned(_msgSender(), amoun...\n      JUMP \t\t\tkensBurned(_msgSender(), amoun...\n    tag 165\t\t\tkensBurned(_msgSender(), amoun...\n      JUMPDEST \t\t\tkensBurned(_msgSender(), amoun...\n      PUSH 40\t\t\tkensBurned(_msgSender(), amoun...\n      MLOAD \t\t\tkensBurned(_msgSender(), amoun...\n      DUP1 \t\t\tkensBurned(_msgSender(), amoun...\n      SWAP2 \t\t\tkensBurned(_msgSender(), amoun...\n      SUB \t\t\tkensBurned(_msgSender(), amoun...\n      SWAP1 \t\t\tkensBurned(_msgSender(), amoun...\n      LOG2 \t\t\tkensBurned(_msgSender(), amoun...\n      POP \t\t\tnction burn(uint256 amount) pu...\n      JUMP \t\t\tnction burn(uint256 amount) pu...\n    tag 67\t\t\totice Burn your own tokens; em...\n      JUMPDEST \t\t\totice Burn your own tokens; em...\n      PUSH 0\t\t\trn(uint\n      DUP1 \t\t\toverride \n      PUSH 0\t\t\toverride {\\r\\n      \n      DUP4 \t\t\t\\r\\n     \n      PUSH FFFFFFFFFFFFFFFFFFFFFFFFFFFFFFFFFFFFFFFF\t\t\toverride {\\r\\n      \n      AND \t\t\toverride {\\r\\n      \n      PUSH FFFFFFFFFFFFFFFFFFFFFFFFFFFFFFFFFFFFFFFF\t\t\toverride {\\r\\n      \n      AND \t\t\toverride {\\r\\n      \n      DUP2 \t\t\toverride {\\r\\n      \n      MSTORE \t\t\toverride {\\r\\n      \n      PUSH 20\t\t\toverride {\\r\\n      \n      ADD \t\t\toverride {\\r\\n      \n      SWAP1 \t\t\toverride {\\r\\n      \n      DUP2 \t\t\toverride {\\r\\n      \n      MSTORE \t\t\toverride {\\r\\n      \n      PUSH 20\t\t\toverride {\\r\\n      \n      ADD \t\t\toverride {\\r\\n      \n      PUSH 0\t\t\toverride {\\r\\n      \n      KECCAK256 \t\t\toverride {\\r\\n      \n      SLOAD \t\t\toverride {\\r\\n      \n      SWAP1 \t\t\tpublic override {\\r\\n      \n      POP \t\t\tpublic override {\\r\\n      \n      SWAP2 \t\t\totice Burn your own tokens; em...\n      SWAP1 \t\t\totice Burn your own tokens; em...\n      POP \t\t\totice Burn your own tokens; em...\n      JUMP \t\t\totice Burn your own tokens; em...\n    tag 70\t\t\tst be called by pending owner)...\n      JUMPDEST \t\t\tst be called by pending owner)...\n      PUSH [tag] 168\t\t\t        ERC20\n      PUSH [tag] 145\t\t\t        ERC\n      JUMP \t\t\t        ERC20\n    tag 168\t\t\t        ERC20\n      JUMPDEST \t\t\t        ERC20\n      PUSH [tag] 170\t\t\txternal {\\r\\n        address s...\n      PUSH 0\t\t\ts\n      PUSH [tag] 171\t\t\txternal {\\r\\n       \n      JUMP \t\t\txternal {\\r\\n        address s...\n    tag 170\t\t\txternal {\\r\\n        address s...\n      JUMPDEST \t\t\txternal {\\r\\n        address s...\n      JUMP \t\t\tst be called by pending owner)...\n    tag 72\t\t\tnction acceptOwnership() exter...\n      JUMPDEST \t\t\tnction acceptOwnership() exter...\n      PUSH 0\t\t\tdress sender =\n      PUSH [tag] 173\t\t\tsgSender();\\r\n      PUSH [tag] 129\t\t\tsgSender()\n      JUMP \t\t\tsgSender();\\r\n    tag 173\t\t\tsgSender();\\r\n      JUMPDEST \t\t\tsgSender();\\r\n      SWAP1 \t\t\tdress sender = _msgSender();\\r\n      POP \t\t\tdress sender = _msgSender();\\r\n      PUSH A\t\t\tendingOwner, \n      PUSH 0\t\t\tendingOwner, \n      SWAP1 \t\t\tendingOwner, \n      SLOAD \t\t\tendingOwner, \n      SWAP1 \t\t\tendingOwner, \n      PUSH 100\t\t\tendingOwner, \n      EXP \t\t\tendingOwner, \n      SWAP1 \t\t\tendingOwner, \n      DIV \t\t\tendingOwner, \n      PUSH FFFFFFFFFFFFFFFFFFFFFFFFFFFFFFFFFFFFFFFF\t\t\tendingOwner, \n      AND \t\t\tendingOwner, \n      PUSH FFFFFFFFFFFFFFFFFFFFFFFFFFFFFFFFFFFFFFFF\t\t\tnder == _pendingOwner, \n      AND \t\t\tnder == _pendingOwner, \n      DUP2 \t\t\tnder =\n      PUSH FFFFFFFFFFFFFFFFFFFFFFFFFFFFFFFFFFFFFFFF\t\t\tnder == _pendingOwner, \n      AND \t\t\tnder == _pendingOwner, \n      EQ \t\t\tnder == _pendingOwner, \n      PUSH [tag] 174\t\t\tquire(sender == _pendingOwner,...\n      JUMPI \t\t\tquire(sender == _pendingOwner,...\n      PUSH 40\t\t\tquire(sender == _pendingOwner,...\n      MLOAD \t\t\tquire(sender == _pendingOwner,...\n      PUSH 8C379A000000000000000000000000000000000000000000000000000000000\t\t\tquire(sender == _pendingOwner,...\n      DUP2 \t\t\tquire(sender == _pendingOwner,...\n      MSTORE \t\t\tquire(sender == _pendingOwner,...\n      PUSH 4\t\t\tquire(sender == _pendingOwner,...\n      ADD \t\t\tquire(sender == _pendingOwner,...\n      PUSH [tag] 175\t\t\tquire(sender == _pendingOwner,...\n      SWAP1 \t\t\tquire(sender == _pendingOwner,...\n      PUSH [tag] 176\t\t\tquire(sender == _pendingOwner,...\n      JUMP \t\t\tquire(sender == _pendingOwner,...\n    tag 175\t\t\tquire(sender == _pendingOwner,...\n      JUMPDEST \t\t\tquire(sender == _pendingOwner,...\n      PUSH 40\t\t\tquire(sender == _pendingOwner,...\n      MLOAD \t\t\tquire(sender == _pendingOwner,...\n      DUP1 \t\t\tquire(sender == _pendingOwner,...\n      SWAP2 \t\t\tquire(sender == _pendingOwner,...\n      SUB \t\t\tquire(sender == _pendingOwner,...\n      SWAP1 \t\t\tquire(sender == _pendingOwner,...\n      REVERT \t\t\tquire(sender == _pendingOwner,...\n    tag 174\t\t\tquire(sender == _pendingOwner,...\n      JUMPDEST \t\t\tquire(sender == _pendingOwner,...\n      PUSH 0\t\t\t;\n      PUSH A\t\t\tendingOwner =\n      PUSH 0\t\t\tendingOwner =\n      PUSH 100\t\t\tendingOwner = address(0);\\r\n      EXP \t\t\tendingOwner = address(0);\\r\n      DUP2 \t\t\tendingOwner = address(0);\\r\n      SLOAD \t\t\tendingOwner = address(0);\\r\n      DUP2 \t\t\tendingOwner = address(0);\\r\n      PUSH FFFFFFFFFFFFFFFFFFFFFFFFFFFFFFFFFFFFFFFF\t\t\tendingOwner = address(0);\\r\n      MUL \t\t\tendingOwner = address(0);\\r\n      NOT \t\t\tendingOwner = address(0);\\r\n      AND \t\t\tendingOwner = address(0);\\r\n      SWAP1 \t\t\tendingOwner = address(0);\\r\n      DUP4 \t\t\tendingOwner = address(0);\\r\n      PUSH FFFFFFFFFFFFFFFFFFFFFFFFFFFFFFFFFFFFFFFF\t\t\tendingOwner = address(0);\\r\n      AND \t\t\tendingOwner = address(0);\\r\n      MUL \t\t\tendingOwner = address(0);\\r\n      OR \t\t\tendingOwner = address(0);\\r\n      SWAP1 \t\t\tendingOwner = address(0);\\r\n      SSTORE \t\t\tendingOwner = address(0);\\r\n      POP \t\t\tendingOwner = address(0);\\r\n      PUSH [tag] 177\t\t\transferOwnership(sender);\\r\n      DUP2 \t\t\tnder);\n      PUSH [tag] 171\t\t\transferOwnership(s\n      JUMP \t\t\transferOwnership(sender);\\r\n    tag 177\t\t\transferOwnership(sender);\\r\n      JUMPDEST \t\t\transferOwnership(sender);\\r\n      POP \t\t\t\\n        address sender = _ms...\n      JUMP \t\t\tnction acceptOwnership() exter...\n    tag 75\t\t\ttion burnFrom(address account,...\n      JUMPDEST \t\t\ttion burnFrom(address account,...\n      PUSH [tag] 179\t\t\tr.burnFrom(account, amount);\\r...\n      DUP3 \t\t\tunt, am\n      DUP3 \t\t\tnt);\\r\\n\n      PUSH [tag] 180\t\t\tr.burnFrom(acc\n      JUMP \t\t\tr.burnFrom(account, amount);\\r...\n    tag 179\t\t\tr.burnFrom(account, amount);\\r...\n      JUMPDEST \t\t\tr.burnFrom(account, amount);\\r...\n      DUP2 \t\t\tunt, am\n      PUSH FFFFFFFFFFFFFFFFFFFFFFFFFFFFFFFFFFFFFFFF\t\t\tnsBurned(account, amount);\\r\\n...\n      AND \t\t\tnsBurned(account, amount);\\r\\n...\n      PUSH FD38818F5291BF0BB3A2A48AADC06BA8757865D1DABD804585338AAB3009DCB6\t\t\tnsBurned(account, amount);\\r\\n...\n      DUP3 \t\t\tnt);\\r\\n\n      PUSH 40\t\t\tnsBurned(account, amount);\\r\\n...\n      MLOAD \t\t\tnsBurned(account, amount);\\r\\n...\n      PUSH [tag] 181\t\t\tnsBurned(account, amount);\\r\\n...\n      SWAP2 \t\t\tnsBurned(account, amount);\\r\\n...\n      SWAP1 \t\t\tnsBurned(account, amount);\\r\\n...\n      PUSH [tag] 43\t\t\tnsBurned(account, amount);\\r\\n...\n      JUMP \t\t\tnsBurned(account, amount);\\r\\n...\n    tag 181\t\t\tnsBurned(account, amount);\\r\\n...\n      JUMPDEST \t\t\tnsBurned(account, amount);\\r\\n...\n      PUSH 40\t\t\tnsBurned(account, amount);\\r\\n...\n      MLOAD \t\t\tnsBurned(account, amount);\\r\\n...\n      DUP1 \t\t\tnsBurned(account, amount);\\r\\n...\n      SWAP2 \t\t\tnsBurned(account, amount);\\r\\n...\n      SUB \t\t\tnsBurned(account, amount);\\r\\n...\n      SWAP1 \t\t\tnsBurned(account, amount);\\r\\n...\n      LOG2 \t\t\tnsBurned(account, amount);\\r\\n...\n      POP \t\t\ttion burnFrom(address account,...\n      POP \t\t\ttion burnFrom(address account,...\n      JUMP \t\t\ttion burnFrom(address account,...\n    tag 78\t\t\t       require(sender == _pend...\n      JUMPDEST \t\t\t       require(sender == _pend...\n      PUSH 0\t\t\t     _p\n      PUSH [tag] 183\t\t\tss(0);\\r\\n        _tr\n      DUP3 \t\t\t   _t\n      PUSH [tag] 184\t\t\tss(0);\\r\\n    \n      JUMP \t\t\tss(0);\\r\\n        _tr\n    tag 183\t\t\tss(0);\\r\\n        _tr\n      JUMPDEST \t\t\tss(0);\\r\\n        _tr\n      SWAP1 \t\t\t= address(0);\\r\\n        _tr\n      POP \t\t\t= address(0);\\r\\n        _tr\n      SWAP2 \t\t\t       require(sender == _pend...\n      SWAP1 \t\t\t       require(sender == _pend...\n      POP \t\t\t       require(sender == _pend...\n      JUMP \t\t\t       require(sender == _pend...\n    tag 81\t\t\t\n      JUMPDEST \t\t\t\n      PUSH 0\t\t\t\n      PUSH 60\t\t\t\n      DUP1 \t\t\t\n      PUSH 0\t\t\t\n      DUP1 \t\t\t\n      PUSH 0\t\t\t\n      PUSH 60\t\t\t\n      PUSH [tag] 186\t\t\t\n      PUSH [tag] 187\t\t\t\n      JUMP \t\t\t\n    tag 186\t\t\t\n      JUMPDEST \t\t\t\n      PUSH [tag] 188\t\t\t\n      PUSH [tag] 189\t\t\t\n      JUMP \t\t\t\n    tag 188\t\t\t\n      JUMPDEST \t\t\t\n      CHAINID \t\t\t\n      ADDRESS \t\t\t\n      PUSH 0\t\t\t\n      DUP1 \t\t\t\n      SHL \t\t\t\n      PUSH 0\t\t\t\n      PUSH FFFFFFFFFFFFFFFF\t\t\t\n      DUP2 \t\t\t\n      GT \t\t\t\n      ISZERO \t\t\t\n      PUSH [tag] 190\t\t\t\n      JUMPI \t\t\t\n      PUSH [tag] 191\t\t\t\n      PUSH [tag] 192\t\t\t\n      JUMP \t\t\t\n    tag 191\t\t\t\n      JUMPDEST \t\t\t\n    tag 190\t\t\t\n      JUMPDEST \t\t\t\n      PUSH 40\t\t\t\n      MLOAD \t\t\t\n      SWAP1 \t\t\t\n      DUP1 \t\t\t\n      DUP3 \t\t\t\n      MSTORE \t\t\t\n      DUP1 \t\t\t\n      PUSH 20\t\t\t\n      MUL \t\t\t\n      PUSH 20\t\t\t\n      ADD \t\t\t\n      DUP3 \t\t\t\n      ADD \t\t\t\n      PUSH 40\t\t\t\n      MSTORE \t\t\t\n      DUP1 \t\t\t\n      ISZERO \t\t\t\n      PUSH [tag] 193\t\t\t\n      JUMPI \t\t\t\n      DUP2 \t\t\t\n      PUSH 20\t\t\t\n      ADD \t\t\t\n      PUSH 20\t\t\t\n      DUP3 \t\t\t\n      MUL \t\t\t\n      DUP1 \t\t\t\n      CALLDATASIZE \t\t\t\n      DUP4 \t\t\t\n      CALLDATACOPY \t\t\t\n      DUP1 \t\t\t\n      DUP3 \t\t\t\n      ADD \t\t\t\n      SWAP2 \t\t\t\n      POP \t\t\t\n      POP \t\t\t\n      SWAP1 \t\t\t\n      POP \t\t\t\n    tag 193\t\t\t\n      JUMPDEST \t\t\t\n      POP \t\t\t\n      PUSH F00000000000000000000000000000000000000000000000000000000000000\t\t\t\n      SWAP6 \t\t\t\n      SWAP5 \t\t\t\n      SWAP4 \t\t\t\n      SWAP3 \t\t\t\n      SWAP2 \t\t\t\n      SWAP1 \t\t\t\n      SWAP7 \t\t\t\n      POP \t\t\t\n      SWAP7 \t\t\t\n      POP \t\t\t\n      SWAP7 \t\t\t\n      POP \t\t\t\n      SWAP7 \t\t\t\n      POP \t\t\t\n      SWAP7 \t\t\t\n      POP \t\t\t\n      SWAP7 \t\t\t\n      POP \t\t\t\n      SWAP7 \t\t\t\n      POP \t\t\t\n      SWAP1 \t\t\t\n      SWAP2 \t\t\t\n      SWAP3 \t\t\t\n      SWAP4 \t\t\t\n      SWAP5 \t\t\t\n      SWAP6 \t\t\t\n      SWAP7 \t\t\t\n      JUMP \t\t\t\n    tag 85\t\t\toyer\\r\\n    }\\r\\n\\r\\n    /// @...\n      JUMPDEST \t\t\toyer\\r\\n    }\\r\\n\\r\\n    /// @...\n      PUSH 0\t\t\ts pendi\n      PUSH 8\t\t\t\\n    f\n      PUSH 0\t\t\t\\n    f\n      SWAP1 \t\t\t\\n    f\n      SLOAD \t\t\t\\n    f\n      SWAP1 \t\t\t\\n    f\n      PUSH 100\t\t\t\\n    f\n      EXP \t\t\t\\n    f\n      SWAP1 \t\t\t\\n    f\n      DIV \t\t\t\\n    f\n      PUSH FFFFFFFFFFFFFFFFFFFFFFFFFFFFFFFFFFFFFFFF\t\t\t\\n    f\n      AND \t\t\t\\n    f\n      SWAP1 \t\t\t owner\\r\\n    f\n      POP \t\t\t owner\\r\\n    f\n      SWAP1 \t\t\toyer\\r\\n    }\\r\\n\\r\\n    /// @...\n      JUMP \t\t\toyer\\r\\n    }\\r\\n\\r\\n    /// @...\n    tag 89\t\t\transfer ownership to\\r\\n    fu...\n      JUMPDEST \t\t\transfer ownership to\\r\\n    fu...\n      PUSH 60\t\t\trshipTransfer\n      PUSH 4\t\t\texterna\n      DUP1 \t\t\tOwner) externa\n      SLOAD \t\t\tOwner) externa\n      PUSH [tag] 196\t\t\tOwner) externa\n      SWAP1 \t\t\tOwner) externa\n      PUSH [tag] 122\t\t\tOwner) externa\n      JUMP \t\t\tOwner) externa\n    tag 196\t\t\tOwner) externa\n      JUMPDEST \t\t\tOwner) externa\n      DUP1 \t\t\tOwner) externa\n      PUSH 1F\t\t\tOwner) externa\n      ADD \t\t\tOwner) externa\n      PUSH 20\t\t\tOwner) externa\n      DUP1 \t\t\tOwner) externa\n      SWAP2 \t\t\tOwner) externa\n      DIV \t\t\tOwner) externa\n      MUL \t\t\tOwner) externa\n      PUSH 20\t\t\tOwner) externa\n      ADD \t\t\tOwner) externa\n      PUSH 40\t\t\tOwner) externa\n      MLOAD \t\t\tOwner) externa\n      SWAP1 \t\t\tOwner) externa\n      DUP2 \t\t\tOwner) externa\n      ADD \t\t\tOwner) externa\n      PUSH 40\t\t\tOwner) externa\n      MSTORE \t\t\tOwner) externa\n      DUP1 \t\t\tOwner) externa\n      SWAP3 \t\t\tOwner) externa\n      SWAP2 \t\t\tOwner) externa\n      SWAP1 \t\t\tOwner) externa\n      DUP2 \t\t\tOwner) externa\n      DUP2 \t\t\tOwner) externa\n      MSTORE \t\t\tOwner) externa\n      PUSH 20\t\t\tOwner) externa\n      ADD \t\t\tOwner) externa\n      DUP3 \t\t\tOwner) externa\n      DUP1 \t\t\tOwner) externa\n      SLOAD \t\t\tOwner) externa\n      PUSH [tag] 197\t\t\tOwner) externa\n      SWAP1 \t\t\tOwner) externa\n      PUSH [tag] 122\t\t\tOwner) externa\n      JUMP \t\t\tOwner) externa\n    tag 197\t\t\tOwner) externa\n      JUMPDEST \t\t\tOwner) externa\n      DUP1 \t\t\tOwner) externa\n      ISZERO \t\t\tOwner) externa\n      PUSH [tag] 198\t\t\tOwner) externa\n      JUMPI \t\t\tOwner) externa\n      DUP1 \t\t\tOwner) externa\n      PUSH 1F\t\t\tOwner) externa\n      LT \t\t\tOwner) externa\n      PUSH [tag] 199\t\t\tOwner) externa\n      JUMPI \t\t\tOwner) externa\n      PUSH 100\t\t\tOwner) externa\n      DUP1 \t\t\tOwner) externa\n      DUP4 \t\t\tOwner) externa\n      SLOAD \t\t\tOwner) externa\n      DIV \t\t\tOwner) externa\n      MUL \t\t\tOwner) externa\n      DUP4 \t\t\tOwner) externa\n      MSTORE \t\t\tOwner) externa\n      SWAP2 \t\t\tOwner) externa\n      PUSH 20\t\t\tOwner) externa\n      ADD \t\t\tOwner) externa\n      SWAP2 \t\t\tOwner) externa\n      PUSH [tag] 198\t\t\tOwner) externa\n      JUMP \t\t\tOwner) externa\n    tag 199\t\t\tOwner) externa\n      JUMPDEST \t\t\tOwner) externa\n      DUP3 \t\t\tOwner) externa\n      ADD \t\t\tOwner) externa\n      SWAP2 \t\t\tOwner) externa\n      SWAP1 \t\t\tOwner) externa\n      PUSH 0\t\t\tOwner) externa\n      MSTORE \t\t\tOwner) externa\n      PUSH 20\t\t\tOwner) externa\n      PUSH 0\t\t\tOwner) externa\n      KECCAK256 \t\t\tOwner) externa\n      SWAP1 \t\t\tOwner) externa\n    tag 200\t\t\tOwner) externa\n      JUMPDEST \t\t\tOwner) externa\n      DUP2 \t\t\tOwner) externa\n      SLOAD \t\t\tOwner) externa\n      DUP2 \t\t\tOwner) externa\n      MSTORE \t\t\tOwner) externa\n      SWAP1 \t\t\tOwner) externa\n      PUSH 1\t\t\tOwner) externa\n      ADD \t\t\tOwner) externa\n      SWAP1 \t\t\tOwner) externa\n      PUSH 20\t\t\tOwner) externa\n      ADD \t\t\tOwner) externa\n      DUP1 \t\t\tOwner) externa\n      DUP4 \t\t\tOwner) externa\n      GT \t\t\tOwner) externa\n      PUSH [tag] 200\t\t\tOwner) externa\n      JUMPI \t\t\tOwner) externa\n      DUP3 \t\t\tOwner) externa\n      SWAP1 \t\t\tOwner) externa\n      SUB \t\t\tOwner) externa\n      PUSH 1F\t\t\tOwner) externa\n      AND \t\t\tOwner) externa\n      DUP3 \t\t\tOwner) externa\n      ADD \t\t\tOwner) externa\n      SWAP2 \t\t\tOwner) externa\n    tag 198\t\t\tOwner) externa\n      JUMPDEST \t\t\tOwner) externa\n      POP \t\t\tOwner) externa\n      POP \t\t\tOwner) externa\n      POP \t\t\tOwner) externa\n      POP \t\t\tOwner) externa\n      POP \t\t\tOwner) externa\n      SWAP1 \t\t\tOwner) externa\n      POP \t\t\tOwner) externa\n      SWAP1 \t\t\transfer ownership to\\r\\n    fu...\n      JUMP \t\t\transfer ownership to\\r\\n    fu...\n    tag 93\t\t\t amount) public override {\\r\\n...\n      JUMPDEST \t\t\t amount) public override {\\r\\n...\n      PUSH 0\t\t\t\\n   \n      DUP1 \t\t\tkensBurned(ac\n      PUSH [tag] 202\t\t\tnt, amount);\n      PUSH [tag] 129\t\t\tnt, amount\n      JUMP \t\t\tnt, amount);\n    tag 202\t\t\tnt, amount);\n      JUMPDEST \t\t\tnt, amount);\n      SWAP1 \t\t\tkensBurned(account, amount);\n      POP \t\t\tkensBurned(account, amount);\n      PUSH [tag] 203\t\t\t\\n    /// @notice Rescue any\n      DUP2 \t\t\tnotic\n      DUP6 \t\t\tRe\n      DUP6 \t\t\tue an\n      PUSH [tag] 138\t\t\t\\n    /// \n      JUMP \t\t\t\\n    /// @notice Rescue any\n    tag 203\t\t\t\\n    /// @notice Rescue any\n      JUMPDEST \t\t\t\\n    /// @notice Rescue any\n      PUSH 1\t\t\tt he\n      SWAP2 \t\t\tens sent he\n      POP \t\t\tens sent he\n      POP \t\t\tens sent he\n      SWAP3 \t\t\t amount) public override {\\r\\n...\n      SWAP2 \t\t\t amount) public override {\\r\\n...\n      POP \t\t\t amount) public override {\\r\\n...\n      POP \t\t\t amount) public override {\\r\\n...\n      JUMP \t\t\t amount) public override {\\r\\n...\n    tag 97\t\t\tnction initiateOwnershipTransf...\n      JUMPDEST \t\t\tnction initiateOwnershipTransf...\n      PUSH [tag] 205\t\t\t        ERC20\n      PUSH [tag] 145\t\t\t        ERC\n      JUMP \t\t\t        ERC20\n    tag 205\t\t\t        ERC20\n      JUMPDEST \t\t\t        ERC20\n      PUSH 0\t\t\t,\n      PUSH FFFFFFFFFFFFFFFFFFFFFFFFFFFFFFFFFFFFFFFF\t\t\twOwner != address(0), \n      AND \t\t\twOwner != address(0), \n      DUP2 \t\t\twOwner !\n      PUSH FFFFFFFFFFFFFFFFFFFFFFFFFFFFFFFFFFFFFFFF\t\t\twOwner != address(0), \n      AND \t\t\twOwner != address(0), \n      SUB \t\t\twOwner != address(0), \n      PUSH [tag] 207\t\t\tquire(newOwner != address(0), ...\n      JUMPI \t\t\tquire(newOwner != address(0), ...\n      PUSH 40\t\t\tquire(newOwner != address(0), ...\n      MLOAD \t\t\tquire(newOwner != address(0), ...\n      PUSH 8C379A000000000000000000000000000000000000000000000000000000000\t\t\tquire(newOwner != address(0), ...\n      DUP2 \t\t\tquire(newOwner != address(0), ...\n      MSTORE \t\t\tquire(newOwner != address(0), ...\n      PUSH 4\t\t\tquire(newOwner != address(0), ...\n      ADD \t\t\tquire(newOwner != address(0), ...\n      PUSH [tag] 208\t\t\tquire(newOwner != address(0), ...\n      SWAP1 \t\t\tquire(newOwner != address(0), ...\n      PUSH [tag] 209\t\t\tquire(newOwner != address(0), ...\n      JUMP \t\t\tquire(newOwner != address(0), ...\n    tag 208\t\t\tquire(newOwner != address(0), ...\n      JUMPDEST \t\t\tquire(newOwner != address(0), ...\n      PUSH 40\t\t\tquire(newOwner != address(0), ...\n      MLOAD \t\t\tquire(newOwner != address(0), ...\n      DUP1 \t\t\tquire(newOwner != address(0), ...\n      SWAP2 \t\t\tquire(newOwner != address(0), ...\n      SUB \t\t\tquire(newOwner != address(0), ...\n      SWAP1 \t\t\tquire(newOwner != address(0), ...\n      REVERT \t\t\tquire(newOwner != address(0), ...\n    tag 207\t\t\tquire(newOwner != address(0), ...\n      JUMPDEST \t\t\tquire(newOwner != address(0), ...\n      DUP1 \t\t\twOwner;\\r\n      PUSH A\t\t\tendingOwner =\n      PUSH 0\t\t\tendingOwner =\n      PUSH 100\t\t\tendingOwner = newOwner;\\r\n      EXP \t\t\tendingOwner = newOwner;\\r\n      DUP2 \t\t\tendingOwner = newOwner;\\r\n      SLOAD \t\t\tendingOwner = newOwner;\\r\n      DUP2 \t\t\tendingOwner = newOwner;\\r\n      PUSH FFFFFFFFFFFFFFFFFFFFFFFFFFFFFFFFFFFFFFFF\t\t\tendingOwner = newOwner;\\r\n      MUL \t\t\tendingOwner = newOwner;\\r\n      NOT \t\t\tendingOwner = newOwner;\\r\n      AND \t\t\tendingOwner = newOwner;\\r\n      SWAP1 \t\t\tendingOwner = newOwner;\\r\n      DUP4 \t\t\tendingOwner = newOwner;\\r\n      PUSH FFFFFFFFFFFFFFFFFFFFFFFFFFFFFFFFFFFFFFFF\t\t\tendingOwner = newOwner;\\r\n      AND \t\t\tendingOwner = newOwner;\\r\n      MUL \t\t\tendingOwner = newOwner;\\r\n      OR \t\t\tendingOwner = newOwner;\\r\n      SWAP1 \t\t\tendingOwner = newOwner;\\r\n      SSTORE \t\t\tendingOwner = newOwner;\\r\n      POP \t\t\tendingOwner = newOwner;\\r\n      DUP1 \t\t\twOwner);\n      PUSH FFFFFFFFFFFFFFFFFFFFFFFFFFFFFFFFFFFFFFFF\t\t\tnershipTransferStarted(owner()...\n      AND \t\t\tnershipTransferStarted(owner()...\n      PUSH [tag] 210\t\t\tner(), \n      PUSH [tag] 85\t\t\tner()\n      JUMP \t\t\tner(), \n    tag 210\t\t\tner(), \n      JUMPDEST \t\t\tner(), \n      PUSH FFFFFFFFFFFFFFFFFFFFFFFFFFFFFFFFFFFFFFFF\t\t\tnershipTransferStarted(owner()...\n      AND \t\t\tnershipTransferStarted(owner()...\n      PUSH 38D16B8CAC22D99FC7C124B9CD0DE2D3FA1FAEF420BFE791D8C362D765E22700\t\t\tnershipTransferStarted(owner()...\n      PUSH 40\t\t\tnershipTransferStarted(owner()...\n      MLOAD \t\t\tnershipTransferStarted(owner()...\n      PUSH 40\t\t\tnershipTransferStarted(owner()...\n      MLOAD \t\t\tnershipTransferStarted(owner()...\n      DUP1 \t\t\tnershipTransferStarted(owner()...\n      SWAP2 \t\t\tnershipTransferStarted(owner()...\n      SUB \t\t\tnershipTransferStarted(owner()...\n      SWAP1 \t\t\tnershipTransferStarted(owner()...\n      LOG3 \t\t\tnershipTransferStarted(owner()...\n      POP \t\t\tnction initiateOwnershipTransf...\n      JUMP \t\t\tnction initiateOwnershipTransf...\n    tag 101\t\t\tss pending to become owner\\r\\n...\n      JUMPDEST \t\t\tss pending to become owner\\r\\n...\n      DUP4 \t\t\t this is\n      TIMESTAMP \t\t\tannot accept un\n      GT \t\t\tannot accept until this is\n      ISZERO \t\t\tr` cannot accept until this is...\n      PUSH [tag] 212\t\t\tr` cannot accept until this is...\n      JUMPI \t\t\tr` cannot accept until this is...\n      DUP4 \t\t\to transf\n      PUSH 40\t\t\tm newOwner The address to tran...\n      MLOAD \t\t\tm newOwner The address to tran...\n      PUSH 6279130200000000000000000000000000000000000000000000000000000000\t\t\tm newOwner The address to tran...\n      DUP2 \t\t\tm newOwner The address to tran...\n      MSTORE \t\t\tm newOwner The address to tran...\n      PUSH 4\t\t\tm newOwner The address to tran...\n      ADD \t\t\tm newOwner The address to tran...\n      PUSH [tag] 213\t\t\tm newOwner The address to tran...\n      SWAP2 \t\t\tm newOwner The address to tran...\n      SWAP1 \t\t\tm newOwner The address to tran...\n      PUSH [tag] 43\t\t\tm newOwner The address to tran...\n      JUMP \t\t\tm newOwner The address to tran...\n    tag 213\t\t\tm newOwner The address to tran...\n      JUMPDEST \t\t\tm newOwner The address to tran...\n      PUSH 40\t\t\tm newOwner The address to tran...\n      MLOAD \t\t\tm newOwner The address to tran...\n      DUP1 \t\t\tm newOwner The address to tran...\n      SWAP2 \t\t\tm newOwner The address to tran...\n      SUB \t\t\tm newOwner The address to tran...\n      SWAP1 \t\t\tm newOwner The address to tran...\n      REVERT \t\t\tm newOwner The address to tran...\n    tag 212\t\t\tr` cannot accept until this is...\n      JUMPDEST \t\t\tr` cannot accept until this is...\n      PUSH 0\t\t\tunction initiateOw\n      PUSH 6E71EDAE12B1B97F4D1F60370FEF10105FA2FAAE0126114A169C64845D6126C9\t\t\t/ @dev Emitted when tokens are...\n      DUP9 \t\t\tl onl\n      DUP9 \t\t\twner {\\r\n      DUP9 \t\t\t     \n      PUSH [tag] 214\t\t\trequire(newOwner\n      DUP13 \t\t\twOwne\n      PUSH [tag] 215\t\t\trequire(n\n      JUMP \t\t\trequire(newOwner\n    tag 214\t\t\trequire(newOwner\n      JUMPDEST \t\t\trequire(newOwner\n      DUP10 \t\t\t= addres\n      PUSH 40\t\t\ter(address newOwner) external ...\n      MLOAD \t\t\ter(address newOwner) external ...\n      PUSH 20\t\t\ter(address newOwner) external ...\n      ADD \t\t\ter(address newOwner) external ...\n      PUSH [tag] 216\t\t\ter(address newOwner) external ...\n      SWAP7 \t\t\ter(address newOwner) external ...\n      SWAP6 \t\t\ter(address newOwner) external ...\n      SWAP5 \t\t\ter(address newOwner) external ...\n      SWAP4 \t\t\ter(address newOwner) external ...\n      SWAP3 \t\t\ter(address newOwner) external ...\n      SWAP2 \t\t\ter(address newOwner) external ...\n      SWAP1 \t\t\ter(address newOwner) external ...\n      PUSH [tag] 217\t\t\ter(address newOwner) external ...\n      JUMP \t\t\ter(address newOwner) external ...\n    tag 216\t\t\ter(address newOwner) external ...\n      JUMPDEST \t\t\ter(address newOwner) external ...\n      PUSH 40\t\t\ter(address newOwner) external ...\n      MLOAD \t\t\ter(address newOwner) external ...\n      PUSH 20\t\t\ter(address newOwner) external ...\n      DUP2 \t\t\ter(address newOwner) external ...\n      DUP4 \t\t\ter(address newOwner) external ...\n      SUB \t\t\ter(address newOwner) external ...\n      SUB \t\t\ter(address newOwner) external ...\n      DUP2 \t\t\ter(address newOwner) external ...\n      MSTORE \t\t\ter(address newOwner) external ...\n      SWAP1 \t\t\ter(address newOwner) external ...\n      PUSH 40\t\t\ter(address newOwner) external ...\n      MSTORE \t\t\ter(address newOwner) external ...\n      DUP1 \t\t\tshipTransfer(address newOwner)...\n      MLOAD \t\t\tshipTransfer(address newOwner)...\n      SWAP1 \t\t\tshipTransfer(address newOwner)...\n      PUSH 20\t\t\tshipTransfer(address newOwner)...\n      ADD \t\t\tshipTransfer(address newOwner)...\n      KECCAK256 \t\t\tshipTransfer(address newOwner)...\n      SWAP1 \t\t\tunction initiateOwnershipTrans...\n      POP \t\t\tunction initiateOwnershipTrans...\n      PUSH 0\t\t\tdR5: new own\n      PUSH [tag] 218\t\t\tis zero address\");\\r\\n        \n      DUP3 \t\t\t;\\r\\n       \n      PUSH [tag] 219\t\t\tis zero address\"\n      JUMP \t\t\tis zero address\");\\r\\n        \n    tag 218\t\t\tis zero address\");\\r\\n        \n      JUMPDEST \t\t\tis zero address\");\\r\\n        \n      SWAP1 \t\t\tdR5: new owner is zero address...\n      POP \t\t\tdR5: new owner is zero address...\n      PUSH 0\t\t\ter = newOwner;\n      PUSH [tag] 220\t\t\t       emit OwnershipTransfe\n      DUP3 \t\t\tners\n      DUP8 \t\t\tp\n      DUP8 \t\t\ta\n      DUP8 \t\t\tf\n      PUSH [tag] 221\t\t\t       emit O\n      JUMP \t\t\t       emit OwnershipTransfe\n    tag 220\t\t\t       emit OwnershipTransfe\n      JUMPDEST \t\t\t       emit OwnershipTransfe\n      SWAP1 \t\t\ter = newOwner;\\r\\n        emit...\n      POP \t\t\ter = newOwner;\\r\\n        emit...\n      DUP10 \t\t\ter);\\r\n      PUSH FFFFFFFFFFFFFFFFFFFFFFFFFFFFFFFFFFFFFFFF\t\t\t(), newOwner);\\r\n      AND \t\t\t(), newOwner);\\r\n      DUP2 \t\t\t(), ne\n      PUSH FFFFFFFFFFFFFFFFFFFFFFFFFFFFFFFFFFFFFFFF\t\t\t(), newOwner);\\r\n      AND \t\t\t(), newOwner);\\r\n      EQ \t\t\t(), newOwner);\\r\n      PUSH [tag] 222\t\t\twner(), newOwner);\\r\\n    }\\r\\...\n      JUMPI \t\t\twner(), newOwner);\\r\\n    }\\r\\...\n      DUP1 \t\t\transfe\n      DUP11 \t\t\t(must\n      PUSH 40\t\t\tce Accept ownership transfer (...\n      MLOAD \t\t\tce Accept ownership transfer (...\n      PUSH 4B800E4600000000000000000000000000000000000000000000000000000000\t\t\tce Accept ownership transfer (...\n      DUP2 \t\t\tce Accept ownership transfer (...\n      MSTORE \t\t\tce Accept ownership transfer (...\n      PUSH 4\t\t\tce Accept ownership transfer (...\n      ADD \t\t\tce Accept ownership transfer (...\n      PUSH [tag] 223\t\t\tce Accept ownership transfer (...\n      SWAP3 \t\t\tce Accept ownership transfer (...\n      SWAP2 \t\t\tce Accept ownership transfer (...\n      SWAP1 \t\t\tce Accept ownership transfer (...\n      PUSH [tag] 224\t\t\tce Accept ownership transfer (...\n      JUMP \t\t\tce Accept ownership transfer (...\n    tag 223\t\t\tce Accept ownership transfer (...\n      JUMPDEST \t\t\tce Accept ownership transfer (...\n      PUSH 40\t\t\tce Accept ownership transfer (...\n      MLOAD \t\t\tce Accept ownership transfer (...\n      DUP1 \t\t\tce Accept ownership transfer (...\n      SWAP2 \t\t\tce Accept ownership transfer (...\n      SUB \t\t\tce Accept ownership transfer (...\n      SWAP1 \t\t\tce Accept ownership transfer (...\n      REVERT \t\t\tce Accept ownership transfer (...\n    tag 222\t\t\twner(), newOwner);\\r\\n    }\\r\\...\n      JUMPDEST \t\t\twner(), newOwner);\\r\\n    }\\r\\...\n      PUSH [tag] 225\t\t\towner)\\r\\n    function acceptO...\n      DUP11 \t\t\t   fu\n      DUP11 \t\t\ttion ac\n      DUP11 \t\t\tptOwn\n      PUSH [tag] 131\t\t\towner)\\r\\n\n      JUMP \t\t\towner)\\r\\n    function acceptO...\n    tag 225\t\t\towner)\\r\\n    function acceptO...\n      JUMPDEST \t\t\towner)\\r\\n    function acceptO...\n      POP \t\t\t (`newOwner` cannot accept unt...\n      POP \t\t\t (`newOwner` cannot accept unt...\n      POP \t\t\t (`newOwner` cannot accept unt...\n      POP \t\t\tss pending to become owner\\r\\n...\n      POP \t\t\tss pending to become owner\\r\\n...\n      POP \t\t\tss pending to become owner\\r\\n...\n      POP \t\t\tss pending to become owner\\r\\n...\n      POP \t\t\tss pending to become owner\\r\\n...\n      POP \t\t\tss pending to become owner\\r\\n...\n      POP \t\t\tss pending to become owner\\r\\n...\n      JUMP \t\t\tss pending to become owner\\r\\n...\n    tag 105\t\t\tokens from\\r\\n    /// @param t...\n      JUMPDEST \t\t\tokens from\\r\\n    /// @param t...\n      PUSH 0\t\t\tm amoun\n      PUSH 1\t\t\t\\r\\n    funct\n      PUSH 0\t\t\t\\r\\n    function eme\n      DUP5 \t\t\ton em\n      PUSH FFFFFFFFFFFFFFFFFFFFFFFFFFFFFFFFFFFFFFFF\t\t\t\\r\\n    function eme\n      AND \t\t\t\\r\\n    function eme\n      PUSH FFFFFFFFFFFFFFFFFFFFFFFFFFFFFFFFFFFFFFFF\t\t\t\\r\\n    function eme\n      AND \t\t\t\\r\\n    function eme\n      DUP2 \t\t\t\\r\\n    function eme\n      MSTORE \t\t\t\\r\\n    function eme\n      PUSH 20\t\t\t\\r\\n    function eme\n      ADD \t\t\t\\r\\n    function eme\n      SWAP1 \t\t\t\\r\\n    function eme\n      DUP2 \t\t\t\\r\\n    function eme\n      MSTORE \t\t\t\\r\\n    function eme\n      PUSH 20\t\t\t\\r\\n    function eme\n      ADD \t\t\t\\r\\n    function eme\n      PUSH 0\t\t\t\\r\\n    function eme\n      KECCAK256 \t\t\t\\r\\n    function eme\n      PUSH 0\t\t\t\\r\\n    function emergencyRec\n      DUP4 \t\t\tgencyRe\n      PUSH FFFFFFFFFFFFFFFFFFFFFFFFFFFFFFFFFFFFFFFF\t\t\t\\r\\n    function emergencyRec\n      AND \t\t\t\\r\\n    function emergencyRec\n      PUSH FFFFFFFFFFFFFFFFFFFFFFFFFFFFFFFFFFFFFFFF\t\t\t\\r\\n    function emergencyRec\n      AND \t\t\t\\r\\n    function emergencyRec\n      DUP2 \t\t\t\\r\\n    function emergencyRec\n      MSTORE \t\t\t\\r\\n    function emergencyRec\n      PUSH 20\t\t\t\\r\\n    function emergencyRec\n      ADD \t\t\t\\r\\n    function emergencyRec\n      SWAP1 \t\t\t\\r\\n    function emergencyRec\n      DUP2 \t\t\t\\r\\n    function emergencyRec\n      MSTORE \t\t\t\\r\\n    function emergencyRec\n      PUSH 20\t\t\t\\r\\n    function emergencyRec\n      ADD \t\t\t\\r\\n    function emergencyRec\n      PUSH 0\t\t\t\\r\\n    function emergencyRec\n      KECCAK256 \t\t\t\\r\\n    function emergencyRec\n      SLOAD \t\t\t\\r\\n    function emergencyRec\n      SWAP1 \t\t\trecover\\r\\n    function emerge...\n      POP \t\t\trecover\\r\\n    function emerge...\n      SWAP3 \t\t\tokens from\\r\\n    /// @param t...\n      SWAP2 \t\t\tokens from\\r\\n    /// @param t...\n      POP \t\t\tokens from\\r\\n    /// @param t...\n      POP \t\t\tokens from\\r\\n    /// @param t...\n      JUMP \t\t\tokens from\\r\\n    /// @param t...\n    tag 108\t\t\tnction pendingOwner() public v...\n      JUMPDEST \t\t\tnction pendingOwner() public v...\n      PUSH 0\t\t\tdress) \n      PUSH A\t\t\tendingOwner;\\r\n      PUSH 0\t\t\tendingOwner;\\r\n      SWAP1 \t\t\tendingOwner;\\r\n      SLOAD \t\t\tendingOwner;\\r\n      SWAP1 \t\t\tendingOwner;\\r\n      PUSH 100\t\t\tendingOwner;\\r\n      EXP \t\t\tendingOwner;\\r\n      SWAP1 \t\t\tendingOwner;\\r\n      DIV \t\t\tendingOwner;\\r\n      PUSH FFFFFFFFFFFFFFFFFFFFFFFFFFFFFFFFFFFFFFFF\t\t\tendingOwner;\\r\n      AND \t\t\tendingOwner;\\r\n      SWAP1 \t\t\tturn _pendingOwner;\\r\n      POP \t\t\tturn _pendingOwner;\\r\n      SWAP1 \t\t\tnction pendingOwner() public v...\n      JUMP \t\t\tnction pendingOwner() public v...\n    tag 113\t\t\ttion emergencyRecoverERC20(\\r\\...\n      JUMPDEST \t\t\ttion emergencyRecoverERC20(\\r\\...\n      PUSH [tag] 229\t\t\t        ERC20\n      PUSH [tag] 145\t\t\t        ERC\n      JUMP \t\t\t        ERC20\n    tag 229\t\t\t        ERC20\n      JUMPDEST \t\t\t        ERC20\n      DUP3 \t\t\tn.tra\n      PUSH FFFFFFFFFFFFFFFFFFFFFFFFFFFFFFFFFFFFFFFF\t\t\tn.transfer(to,\n      AND \t\t\tn.transfer(to,\n      PUSH A9059CBB\t\t\tn.transfer(to,\n      DUP4 \t\t\tam\n      DUP4 \t\t\tnt);\\r\\n\n      PUSH 40\t\t\tn.transfer(to, amount);\\r\\n \n      MLOAD \t\t\tn.transfer(to, amount);\\r\\n \n      DUP4 \t\t\tn.transfer(to, amount);\\r\\n \n      PUSH FFFFFFFF\t\t\tn.transfer(to, amount);\\r\\n \n      AND \t\t\tn.transfer(to, amount);\\r\\n \n      PUSH E0\t\t\tn.transfer(to, amount);\\r\\n \n      SHL \t\t\tn.transfer(to, amount);\\r\\n \n      DUP2 \t\t\tn.transfer(to, amount);\\r\\n \n      MSTORE \t\t\tn.transfer(to, amount);\\r\\n \n      PUSH 4\t\t\tn.transfer(to, amount);\\r\\n \n      ADD \t\t\tn.transfer(to, amount);\\r\\n \n      PUSH [tag] 231\t\t\tn.transfer(to, amount);\\r\\n \n      SWAP3 \t\t\tn.transfer(to, amount);\\r\\n \n      SWAP2 \t\t\tn.transfer(to, amount);\\r\\n \n      SWAP1 \t\t\tn.transfer(to, amount);\\r\\n \n      PUSH [tag] 232\t\t\tn.transfer(to, amount);\\r\\n \n      JUMP \t\t\tn.transfer(to, amount);\\r\\n \n    tag 231\t\t\tn.transfer(to, amount);\\r\\n \n      JUMPDEST \t\t\tn.transfer(to, amount);\\r\\n \n      PUSH 20\t\t\tn.transfer(to, amount);\\r\\n \n      PUSH 40\t\t\tn.transfer(to, amount);\\r\\n \n      MLOAD \t\t\tn.transfer(to, amount);\\r\\n \n      DUP1 \t\t\tn.transfer(to, amount);\\r\\n \n      DUP4 \t\t\tn.transfer(to, amount);\\r\\n \n      SUB \t\t\tn.transfer(to, amount);\\r\\n \n      DUP2 \t\t\tn.transfer(to, amount);\\r\\n \n      PUSH 0\t\t\tn.transfer(to, amount);\\r\\n \n      DUP8 \t\t\tn.transfer(to, amount);\\r\\n \n      GAS \t\t\tn.transfer(to, amount);\\r\\n \n      CALL \t\t\tn.transfer(to, amount);\\r\\n \n      ISZERO \t\t\tn.transfer(to, amount);\\r\\n \n      DUP1 \t\t\tn.transfer(to, amount);\\r\\n \n      ISZERO \t\t\tn.transfer(to, amount);\\r\\n \n      PUSH [tag] 234\t\t\tn.transfer(to, amount);\\r\\n \n      JUMPI \t\t\tn.transfer(to, amount);\\r\\n \n      RETURNDATASIZE \t\t\tn.transfer(to, amount);\\r\\n \n      PUSH 0\t\t\tn.transfer(to, amount);\\r\\n \n      DUP1 \t\t\tn.transfer(to, amount);\\r\\n \n      RETURNDATACOPY \t\t\tn.transfer(to, amount);\\r\\n \n      RETURNDATASIZE \t\t\tn.transfer(to, amount);\\r\\n \n      PUSH 0\t\t\tn.transfer(to, amount);\\r\\n \n      REVERT \t\t\tn.transfer(to, amount);\\r\\n \n    tag 234\t\t\tn.transfer(to, amount);\\r\\n \n      JUMPDEST \t\t\tn.transfer(to, amount);\\r\\n \n      POP \t\t\tn.transfer(to, amount);\\r\\n \n      POP \t\t\tn.transfer(to, amount);\\r\\n \n      POP \t\t\tn.transfer(to, amount);\\r\\n \n      POP \t\t\tn.transfer(to, amount);\\r\\n \n      PUSH 40\t\t\tn.transfer(to, amount);\\r\\n \n      MLOAD \t\t\tn.transfer(to, amount);\\r\\n \n      RETURNDATASIZE \t\t\tn.transfer(to, amount);\\r\\n \n      PUSH 1F\t\t\tn.transfer(to, amount);\\r\\n \n      NOT \t\t\tn.transfer(to, amount);\\r\\n \n      PUSH 1F\t\t\tn.transfer(to, amount);\\r\\n \n      DUP3 \t\t\tn.transfer(to, amount);\\r\\n \n      ADD \t\t\tn.transfer(to, amount);\\r\\n \n      AND \t\t\tn.transfer(to, amount);\\r\\n \n      DUP3 \t\t\tn.transfer(to, amount);\\r\\n \n      ADD \t\t\tn.transfer(to, amount);\\r\\n \n      DUP1 \t\t\tn.transfer(to, amount);\\r\\n \n      PUSH 40\t\t\tn.transfer(to, amount);\\r\\n \n      MSTORE \t\t\tn.transfer(to, amount);\\r\\n \n      POP \t\t\tn.transfer(to, amount);\\r\\n \n      DUP2 \t\t\tn.transfer(to, amount);\\r\\n \n      ADD \t\t\tn.transfer(to, amount);\\r\\n \n      SWAP1 \t\t\tn.transfer(to, amount);\\r\\n \n      PUSH [tag] 235\t\t\tn.transfer(to, amount);\\r\\n \n      SWAP2 \t\t\tn.transfer(to, amount);\\r\\n \n      SWAP1 \t\t\tn.transfer(to, amount);\\r\\n \n      PUSH [tag] 236\t\t\tn.transfer(to, amount);\\r\\n \n      JUMP \t\t\tn.transfer(to, amount);\\r\\n \n    tag 235\t\t\tn.transfer(to, amount);\\r\\n \n      JUMPDEST \t\t\tn.transfer(to, amount);\\r\\n \n      POP \t\t\tn.transfer(to, amount);\\r\\n \n      DUP2 \t\t\tam\n      PUSH FFFFFFFFFFFFFFFFFFFFFFFFFFFFFFFFFFFFFFFF\t\t\tnsRecovered(address(token), to...\n      AND \t\t\tnsRecovered(address(token), to...\n      DUP4 \t\t\tn), t\n      PUSH FFFFFFFFFFFFFFFFFFFFFFFFFFFFFFFFFFFFFFFF\t\t\tnsRecovered(address(token), to...\n      AND \t\t\tnsRecovered(address(token), to...\n      PUSH 401F439D865A766757EC78675925BD67198D5E78805AA41691B34B5D6A6CBBE6\t\t\tnsRecovered(address(token), to...\n      DUP4 \t\t\tnt);\\r\\n\n      PUSH 40\t\t\tnsRecovered(address(token), to...\n      MLOAD \t\t\tnsRecovered(address(token), to...\n      PUSH [tag] 237\t\t\tnsRecovered(address(token), to...\n      SWAP2 \t\t\tnsRecovered(address(token), to...\n      SWAP1 \t\t\tnsRecovered(address(token), to...\n      PUSH [tag] 43\t\t\tnsRecovered(address(token), to...\n      JUMP \t\t\tnsRecovered(address(token), to...\n    tag 237\t\t\tnsRecovered(address(token), to...\n      JUMPDEST \t\t\tnsRecovered(address(token), to...\n      PUSH 40\t\t\tnsRecovered(address(token), to...\n      MLOAD \t\t\tnsRecovered(address(token), to...\n      DUP1 \t\t\tnsRecovered(address(token), to...\n      SWAP2 \t\t\tnsRecovered(address(token), to...\n      SUB \t\t\tnsRecovered(address(token), to...\n      SWAP1 \t\t\tnsRecovered(address(token), to...\n      LOG3 \t\t\tnsRecovered(address(token), to...\n      POP \t\t\ttion emergencyRecoverERC20(\\r\\...\n      POP \t\t\ttion emergencyRecoverERC20(\\r\\...\n      POP \t\t\ttion emergencyRecoverERC20(\\r\\...\n      JUMP \t\t\ttion emergencyRecoverERC20(\\r\\...\n    tag 115\t\t\tnt256 public constant CAP = 66...\n      JUMPDEST \t\t\tnt256 public constant CAP = 66...\n      PUSH 36DF8DEC4229FB48100000\t\t\t_337_700 * 10 ** 18;\\r\n      DUP2 \t\t\tnt256 public constant CAP = 66...\n      JUMP \t\t\tnt256 public constant CAP = 66...\n    tag 119\t\t\ttransferOwnership(sender);\\r\\n...\n      JUMPDEST \t\t\ttransferOwnership(sender);\\r\\n...\n      PUSH [tag] 239\t\t\t        ERC20\n      PUSH [tag] 145\t\t\t        ERC\n      JUMP \t\t\t        ERC20\n    tag 239\t\t\t        ERC20\n      JUMPDEST \t\t\t        ERC20\n      PUSH 0\t\t\t/\n      PUSH FFFFFFFFFFFFFFFFFFFFFFFFFFFFFFFFFFFFFFFF\t\t\tner can call\\r\\n    /// \n      AND \t\t\tner can call\\r\\n    /// \n      DUP2 \t\t\tner can \n      PUSH FFFFFFFFFFFFFFFFFFFFFFFFFFFFFFFFFFFFFFFF\t\t\tner can call\\r\\n    /// \n      AND \t\t\tner can call\\r\\n    /// \n      SUB \t\t\tner can call\\r\\n    /// \n      PUSH [tag] 241\t\t\te owner can call\\r\\n    /// @p...\n      JUMPI \t\t\te owner can call\\r\\n    /// @p...\n      PUSH 0\t\t\t \n      PUSH 40\t\t\tf the minted tokens\\r\\n    ///...\n      MLOAD \t\t\tf the minted tokens\\r\\n    ///...\n      PUSH 1E4FBDF700000000000000000000000000000000000000000000000000000000\t\t\tf the minted tokens\\r\\n    ///...\n      DUP2 \t\t\tf the minted tokens\\r\\n    ///...\n      MSTORE \t\t\tf the minted tokens\\r\\n    ///...\n      PUSH 4\t\t\tf the minted tokens\\r\\n    ///...\n      ADD \t\t\tf the minted tokens\\r\\n    ///...\n      PUSH [tag] 242\t\t\tf the minted tokens\\r\\n    ///...\n      SWAP2 \t\t\tf the minted tokens\\r\\n    ///...\n      SWAP1 \t\t\tf the minted tokens\\r\\n    ///...\n      PUSH [tag] 87\t\t\tf the minted tokens\\r\\n    ///...\n      JUMP \t\t\tf the minted tokens\\r\\n    ///...\n    tag 242\t\t\tf the minted tokens\\r\\n    ///...\n      JUMPDEST \t\t\tf the minted tokens\\r\\n    ///...\n      PUSH 40\t\t\tf the minted tokens\\r\\n    ///...\n      MLOAD \t\t\tf the minted tokens\\r\\n    ///...\n      DUP1 \t\t\tf the minted tokens\\r\\n    ///...\n      SWAP2 \t\t\tf the minted tokens\\r\\n    ///...\n      SUB \t\t\tf the minted tokens\\r\\n    ///...\n      SWAP1 \t\t\tf the minted tokens\\r\\n    ///...\n      REVERT \t\t\tf the minted tokens\\r\\n    ///...\n    tag 241\t\t\te owner can call\\r\\n    /// @p...\n      JUMPDEST \t\t\te owner can call\\r\\n    /// @p...\n      PUSH [tag] 243\t\t\tto mint (in wei)\\r\\n    functi\n      DUP2 \t\t\t   funct\n      PUSH [tag] 171\t\t\tto mint (in wei)\\r\\n\n      JUMP \t\t\tto mint (in wei)\\r\\n    functi\n    tag 243\t\t\tto mint (in wei)\\r\\n    functi\n      JUMPDEST \t\t\tto mint (in wei)\\r\\n    functi\n      POP \t\t\ttransferOwnership(sender);\\r\\n...\n      JUMP \t\t\ttransferOwnership(sender);\\r\\n...\n    tag 129\t\t\tcyGuard\\r\\n{\\r\\n    /// @notic...\n      JUMPDEST \t\t\tcyGuard\\r\\n{\\r\\n    /// @notic...\n      PUSH 0\t\t\t337,700\n      CALLER \t\t\t\\n    uint2\n      SWAP1 \t\t\timals)\\r\\n    uint2\n      POP \t\t\timals)\\r\\n    uint2\n      SWAP1 \t\t\tcyGuard\\r\\n{\\r\\n    /// @notic...\n      JUMP \t\t\tcyGuard\\r\\n{\\r\\n    /// @notic...\n    tag 131\t\t\t\n      JUMPDEST \t\t\t\n      PUSH [tag] 246\t\t\t\n      DUP4 \t\t\t\n      DUP4 \t\t\t\n      DUP4 \t\t\t\n      PUSH 1\t\t\t\n      PUSH [tag] 247\t\t\t\n      JUMP \t\t\t\n    tag 246\t\t\t\n      JUMPDEST \t\t\t\n      POP \t\t\t\n      POP \t\t\t\n      POP \t\t\t\n      JUMP \t\t\t\n    tag 136\t\t\t\n      JUMPDEST \t\t\t\n      PUSH 0\t\t\t\n      PUSH [tag] 249\t\t\t\n      DUP5 \t\t\t\n      DUP5 \t\t\t\n      PUSH [tag] 105\t\t\t\n      JUMP \t\t\t\n    tag 249\t\t\t\n      JUMPDEST \t\t\t\n      SWAP1 \t\t\t\n      POP \t\t\t\n      PUSH FFFFFFFFFFFFFFFFFFFFFFFFFFFFFFFFFFFFFFFFFFFFFFFFFFFFFFFFFFFFFFFF\t\t\t\n      DUP2 \t\t\t\n      LT \t\t\t\n      ISZERO \t\t\t\n      PUSH [tag] 250\t\t\t\n      JUMPI \t\t\t\n      DUP2 \t\t\t\n      DUP2 \t\t\t\n      LT \t\t\t\n      ISZERO \t\t\t\n      PUSH [tag] 251\t\t\t\n      JUMPI \t\t\t\n      DUP3 \t\t\t\n      DUP2 \t\t\t\n      DUP4 \t\t\t\n      PUSH 40\t\t\t\n      MLOAD \t\t\t\n      PUSH FB8F41B200000000000000000000000000000000000000000000000000000000\t\t\t\n      DUP2 \t\t\t\n      MSTORE \t\t\t\n      PUSH 4\t\t\t\n      ADD \t\t\t\n      PUSH [tag] 252\t\t\t\n      SWAP4 \t\t\t\n      SWAP3 \t\t\t\n      SWAP2 \t\t\t\n      SWAP1 \t\t\t\n      PUSH [tag] 253\t\t\t\n      JUMP \t\t\t\n    tag 252\t\t\t\n      JUMPDEST \t\t\t\n      PUSH 40\t\t\t\n      MLOAD \t\t\t\n      DUP1 \t\t\t\n      SWAP2 \t\t\t\n      SUB \t\t\t\n      SWAP1 \t\t\t\n      REVERT \t\t\t\n    tag 251\t\t\t\n      JUMPDEST \t\t\t\n      PUSH [tag] 254\t\t\t\n      DUP5 \t\t\t\n      DUP5 \t\t\t\n      DUP5 \t\t\t\n      DUP5 \t\t\t\n      SUB \t\t\t\n      PUSH 0\t\t\t\n      PUSH [tag] 247\t\t\t\n      JUMP \t\t\t\n    tag 254\t\t\t\n      JUMPDEST \t\t\t\n    tag 250\t\t\t\n      JUMPDEST \t\t\t\n      POP \t\t\t\n      POP \t\t\t\n      POP \t\t\t\n      POP \t\t\t\n      JUMP \t\t\t\n    tag 138\t\t\t\n      JUMPDEST \t\t\t\n      PUSH 0\t\t\t\n      PUSH FFFFFFFFFFFFFFFFFFFFFFFFFFFFFFFFFFFFFFFF\t\t\t\n      AND \t\t\t\n      DUP4 \t\t\t\n      PUSH FFFFFFFFFFFFFFFFFFFFFFFFFFFFFFFFFFFFFFFF\t\t\t\n      AND \t\t\t\n      SUB \t\t\t\n      PUSH [tag] 256\t\t\t\n      JUMPI \t\t\t\n      PUSH 0\t\t\t\n      PUSH 40\t\t\t\n      MLOAD \t\t\t\n      PUSH 96C6FD1E00000000000000000000000000000000000000000000000000000000\t\t\t\n      DUP2 \t\t\t\n      MSTORE \t\t\t\n      PUSH 4\t\t\t\n      ADD \t\t\t\n      PUSH [tag] 257\t\t\t\n      SWAP2 \t\t\t\n      SWAP1 \t\t\t\n      PUSH [tag] 87\t\t\t\n      JUMP \t\t\t\n    tag 257\t\t\t\n      JUMPDEST \t\t\t\n      PUSH 40\t\t\t\n      MLOAD \t\t\t\n      DUP1 \t\t\t\n      SWAP2 \t\t\t\n      SUB \t\t\t\n      SWAP1 \t\t\t\n      REVERT \t\t\t\n    tag 256\t\t\t\n      JUMPDEST \t\t\t\n      PUSH 0\t\t\t\n      PUSH FFFFFFFFFFFFFFFFFFFFFFFFFFFFFFFFFFFFFFFF\t\t\t\n      AND \t\t\t\n      DUP3 \t\t\t\n      PUSH FFFFFFFFFFFFFFFFFFFFFFFFFFFFFFFFFFFFFFFF\t\t\t\n      AND \t\t\t\n      SUB \t\t\t\n      PUSH [tag] 258\t\t\t\n      JUMPI \t\t\t\n      PUSH 0\t\t\t\n      PUSH 40\t\t\t\n      MLOAD \t\t\t\n      PUSH EC442F0500000000000000000000000000000000000000000000000000000000\t\t\t\n      DUP2 \t\t\t\n      MSTORE \t\t\t\n      PUSH 4\t\t\t\n      ADD \t\t\t\n      PUSH [tag] 259\t\t\t\n      SWAP2 \t\t\t\n      SWAP1 \t\t\t\n      PUSH [tag] 87\t\t\t\n      JUMP \t\t\t\n    tag 259\t\t\t\n      JUMPDEST \t\t\t\n      PUSH 40\t\t\t\n      MLOAD \t\t\t\n      DUP1 \t\t\t\n      SWAP2 \t\t\t\n      SUB \t\t\t\n      SWAP1 \t\t\t\n      REVERT \t\t\t\n    tag 258\t\t\t\n      JUMPDEST \t\t\t\n      PUSH [tag] 260\t\t\t\n      DUP4 \t\t\t\n      DUP4 \t\t\t\n      DUP4 \t\t\t\n      PUSH [tag] 261\t\t\t\n      JUMP \t\t\t\n    tag 260\t\t\t\n      JUMPDEST \t\t\t\n      POP \t\t\t\n      POP \t\t\t\n      POP \t\t\t\n      JUMP \t\t\t\n    tag 142\t\t\t\n      JUMPDEST \t\t\t\n      PUSH 0\t\t\t\n      PUSHIMMUTABLE 2296\t\t\t\n      PUSH FFFFFFFFFFFFFFFFFFFFFFFFFFFFFFFFFFFFFFFF\t\t\t\n      AND \t\t\t\n      ADDRESS \t\t\t\n      PUSH FFFFFFFFFFFFFFFFFFFFFFFFFFFFFFFFFFFFFFFF\t\t\t\n      AND \t\t\t\n      EQ \t\t\t\n      DUP1 \t\t\t\n      ISZERO \t\t\t\n      PUSH [tag] 263\t\t\t\n      JUMPI \t\t\t\n      POP \t\t\t\n      PUSHIMMUTABLE 2294\t\t\t\n      CHAINID \t\t\t\n      EQ \t\t\t\n    tag 263\t\t\t\n      JUMPDEST \t\t\t\n      ISZERO \t\t\t\n      PUSH [tag] 264\t\t\t\n      JUMPI \t\t\t\n      PUSHIMMUTABLE 2292\t\t\t\n      SWAP1 \t\t\t\n      POP \t\t\t\n      PUSH [tag] 262\t\t\t\n      JUMP \t\t\t\n    tag 264\t\t\t\n      JUMPDEST \t\t\t\n      PUSH [tag] 266\t\t\t\n      PUSH [tag] 267\t\t\t\n      JUMP \t\t\t\n    tag 266\t\t\t\n      JUMPDEST \t\t\t\n      SWAP1 \t\t\t\n      POP \t\t\t\n    tag 262\t\t\t\n      JUMPDEST \t\t\t\n      SWAP1 \t\t\t\n      JUMP \t\t\t\n    tag 145\t\t\twner;\\r\\n    }\\r\\n\\r\\n    /// ...\n      JUMPDEST \t\t\twner;\\r\\n    }\\r\\n\\r\\n    /// ...\n      PUSH [tag] 269\t\t\tccount (`new\n      PUSH [tag] 129\t\t\tccount (`n\n      JUMP \t\t\tccount (`new\n    tag 269\t\t\tccount (`new\n      JUMPDEST \t\t\tccount (`new\n      PUSH FFFFFFFFFFFFFFFFFFFFFFFFFFFFFFFFFFFFFFFF\t\t\t to a new account (`new\n      AND \t\t\t to a new account (`new\n      PUSH [tag] 270\t\t\t to a n\n      PUSH [tag] 85\t\t\t to a\n      JUMP \t\t\t to a n\n    tag 270\t\t\t to a n\n      JUMPDEST \t\t\t to a n\n      PUSH FFFFFFFFFFFFFFFFFFFFFFFFFFFFFFFFFFFFFFFF\t\t\t to a new account (`new\n      AND \t\t\t to a new account (`new\n      EQ \t\t\t to a new account (`new\n      PUSH [tag] 271\t\t\tsfer to a new account (`newOwn...\n      JUMPI \t\t\tsfer to a new account (`newOwn...\n      PUSH [tag] 272\t\t\t/ @param new\n      PUSH [tag] 129\t\t\t/ @param n\n      JUMP \t\t\t/ @param new\n    tag 272\t\t\t/ @param new\n      JUMPDEST \t\t\t/ @param new\n      PUSH 40\t\t\ttil this is called)\\r\\n    ///...\n      MLOAD \t\t\ttil this is called)\\r\\n    ///...\n      PUSH 118CDAA700000000000000000000000000000000000000000000000000000000\t\t\ttil this is called)\\r\\n    ///...\n      DUP2 \t\t\ttil this is called)\\r\\n    ///...\n      MSTORE \t\t\ttil this is called)\\r\\n    ///...\n      PUSH 4\t\t\ttil this is called)\\r\\n    ///...\n      ADD \t\t\ttil this is called)\\r\\n    ///...\n      PUSH [tag] 273\t\t\ttil this is called)\\r\\n    ///...\n      SWAP2 \t\t\ttil this is called)\\r\\n    ///...\n      SWAP1 \t\t\ttil this is called)\\r\\n    ///...\n      PUSH [tag] 87\t\t\ttil this is called)\\r\\n    ///...\n      JUMP \t\t\ttil this is called)\\r\\n    ///...\n    tag 273\t\t\ttil this is called)\\r\\n    ///...\n      JUMPDEST \t\t\ttil this is called)\\r\\n    ///...\n      PUSH 40\t\t\ttil this is called)\\r\\n    ///...\n      MLOAD \t\t\ttil this is called)\\r\\n    ///...\n      DUP1 \t\t\ttil this is called)\\r\\n    ///...\n      SWAP2 \t\t\ttil this is called)\\r\\n    ///...\n      SUB \t\t\ttil this is called)\\r\\n    ///...\n      SWAP1 \t\t\ttil this is called)\\r\\n    ///...\n      REVERT \t\t\ttil this is called)\\r\\n    ///...\n    tag 271\t\t\tsfer to a new account (`newOwn...\n      JUMPDEST \t\t\tsfer to a new account (`newOwn...\n      JUMP \t\t\twner;\\r\\n    }\\r\\n\\r\\n    /// ...\n    tag 148\t\t\tn acceptOwnership() external {...\n      JUMPDEST \t\t\tn acceptOwnership() external {...\n      PUSH 2\t\t\t(\n      PUSH 9\t\t\tis not \n      SLOAD \t\t\tis not \n      SUB \t\t\tis not the pending \n      PUSH [tag] 275\t\t\t caller is not the pending own...\n      JUMPI \t\t\t caller is not the pending own...\n      PUSH 40\t\t\t caller is not the pending own...\n      MLOAD \t\t\t caller is not the pending own...\n      PUSH 8C379A000000000000000000000000000000000000000000000000000000000\t\t\t caller is not the pending own...\n      DUP2 \t\t\t caller is not the pending own...\n      MSTORE \t\t\t caller is not the pending own...\n      PUSH 4\t\t\t caller is not the pending own...\n      ADD \t\t\t caller is not the pending own...\n      PUSH [tag] 276\t\t\t caller is not the pending own...\n      SWAP1 \t\t\t caller is not the pending own...\n      PUSH [tag] 277\t\t\t caller is not the pending own...\n      JUMP \t\t\t caller is not the pending own...\n    tag 276\t\t\t caller is not the pending own...\n      JUMPDEST \t\t\t caller is not the pending own...\n      PUSH 40\t\t\t caller is not the pending own...\n      MLOAD \t\t\t caller is not the pending own...\n      DUP1 \t\t\t caller is not the pending own...\n      SWAP2 \t\t\t caller is not the pending own...\n      SUB \t\t\t caller is not the pending own...\n      SWAP1 \t\t\t caller is not the pending own...\n      REVERT \t\t\t caller is not the pending own...\n    tag 275\t\t\t caller is not the pending own...\n      JUMPDEST \t\t\t caller is not the pending own...\n      PUSH 2\t\t\t(\n      PUSH 9\t\t\tnt up t\n      DUP2 \t\t\tnt up to the cap; \n      SWAP1 \t\t\tnt up to the cap; \n      SSTORE \t\t\tnt up to the cap; \n      POP \t\t\tnt up to the cap; \n      JUMP \t\t\tn acceptOwnership() external {...\n    tag 157\t\t\t\n      JUMPDEST \t\t\t\n      PUSH 0\t\t\t\n      PUSH FFFFFFFFFFFFFFFFFFFFFFFFFFFFFFFFFFFFFFFF\t\t\t\n      AND \t\t\t\n      DUP3 \t\t\t\n      PUSH FFFFFFFFFFFFFFFFFFFFFFFFFFFFFFFFFFFFFFFF\t\t\t\n      AND \t\t\t\n      SUB \t\t\t\n      PUSH [tag] 279\t\t\t\n      JUMPI \t\t\t\n      PUSH 0\t\t\t\n      PUSH 40\t\t\t\n      MLOAD \t\t\t\n      PUSH EC442F0500000000000000000000000000000000000000000000000000000000\t\t\t\n      DUP2 \t\t\t\n      MSTORE \t\t\t\n      PUSH 4\t\t\t\n      ADD \t\t\t\n      PUSH [tag] 280\t\t\t\n      SWAP2 \t\t\t\n      SWAP1 \t\t\t\n      PUSH [tag] 87\t\t\t\n      JUMP \t\t\t\n    tag 280\t\t\t\n      JUMPDEST \t\t\t\n      PUSH 40\t\t\t\n      MLOAD \t\t\t\n      DUP1 \t\t\t\n      SWAP2 \t\t\t\n      SUB \t\t\t\n      SWAP1 \t\t\t\n      REVERT \t\t\t\n    tag 279\t\t\t\n      JUMPDEST \t\t\t\n      PUSH [tag] 281\t\t\t\n      PUSH 0\t\t\t\n      DUP4 \t\t\t\n      DUP4 \t\t\t\n      PUSH [tag] 261\t\t\t\n      JUMP \t\t\t\n    tag 281\t\t\t\n      JUMPDEST \t\t\t\n      POP \t\t\t\n      POP \t\t\t\n      JUMP \t\t\t\n    tag 160\t\t\tr can call\\r\\n    /// @param t...\n      JUMPDEST \t\t\tr can call\\r\\n    /// @param t...\n      PUSH 1\t\t\tu\n      PUSH 9\t\t\tReentra\n      DUP2 \t\t\tReentrant {\\r\\n        r\n      SWAP1 \t\t\tReentrant {\\r\\n        r\n      SSTORE \t\t\tReentrant {\\r\\n        r\n      POP \t\t\tReentrant {\\r\\n        r\n      JUMP \t\t\tr can call\\r\\n    /// @param t...\n    tag 163\t\t\tC20Permit,\\r\\n    Ownable,\\r\\n...\n      JUMPDEST \t\t\tC20Permit,\\r\\n    Ownable,\\r\\n...\n      PUSH [tag] 284\t\t\t/// @notice Maximum total \n      PUSH [tag] 285\t\t\totice Maximu\n      PUSH [tag] 129\t\t\totice Maxi\n      JUMP \t\t\totice Maximu\n    tag 285\t\t\totice Maximu\n      JUMPDEST \t\t\totice Maximu\n      DUP3 \t\t\ttotal\n      PUSH [tag] 286\t\t\t/// @\n      JUMP \t\t\t/// @notice Maximum total \n    tag 284\t\t\t/// @notice Maximum total \n      JUMPDEST \t\t\t/// @notice Maximum total \n      POP \t\t\tC20Permit,\\r\\n    Ownable,\\r\\n...\n      JUMP \t\t\tC20Permit,\\r\\n    Ownable,\\r\\n...\n    tag 171\t\t\tto, amount);\\r\\n        emit T...\n      JUMPDEST \t\t\tto, amount);\\r\\n        emit T...\n      PUSH 0\t\t\totice Burn your \n      PUSH 8\t\t\t token\n      PUSH 0\t\t\t token\n      SWAP1 \t\t\t token\n      SLOAD \t\t\t token\n      SWAP1 \t\t\t token\n      PUSH 100\t\t\t token\n      EXP \t\t\t token\n      SWAP1 \t\t\t token\n      DIV \t\t\t token\n      PUSH FFFFFFFFFFFFFFFFFFFFFFFFFFFFFFFFFFFFFFFF\t\t\t token\n      AND \t\t\t token\n      SWAP1 \t\t\totice Burn your own token\n      POP \t\t\totice Burn your own token\n      DUP2 \t\t\tvent\\r\\n  \n      PUSH 8\t\t\t custo\n      PUSH 0\t\t\t custo\n      PUSH 100\t\t\t custom event\\r\\n  \n      EXP \t\t\t custom event\\r\\n  \n      DUP2 \t\t\t custom event\\r\\n  \n      SLOAD \t\t\t custom event\\r\\n  \n      DUP2 \t\t\t custom event\\r\\n  \n      PUSH FFFFFFFFFFFFFFFFFFFFFFFFFFFFFFFFFFFFFFFF\t\t\t custom event\\r\\n  \n      MUL \t\t\t custom event\\r\\n  \n      NOT \t\t\t custom event\\r\\n  \n      AND \t\t\t custom event\\r\\n  \n      SWAP1 \t\t\t custom event\\r\\n  \n      DUP4 \t\t\t custom event\\r\\n  \n      PUSH FFFFFFFFFFFFFFFFFFFFFFFFFFFFFFFFFFFFFFFF\t\t\t custom event\\r\\n  \n      AND \t\t\t custom event\\r\\n  \n      MUL \t\t\t custom event\\r\\n  \n      OR \t\t\t custom event\\r\\n  \n      SWAP1 \t\t\t custom event\\r\\n  \n      SSTORE \t\t\t custom event\\r\\n  \n      POP \t\t\t custom event\\r\\n  \n      DUP2 \t\t\te {\\r\\n   \n      PUSH FFFFFFFFFFFFFFFFFFFFFFFFFFFFFFFFFFFFFFFF\t\t\t(uint256 amount) public overri...\n      AND \t\t\t(uint256 amount) public overri...\n      DUP2 \t\t\tic overr\n      PUSH FFFFFFFFFFFFFFFFFFFFFFFFFFFFFFFFFFFFFFFF\t\t\t(uint256 amount) public overri...\n      AND \t\t\t(uint256 amount) public overri...\n      PUSH 8BE0079C531659141344CD1FD0A4F28419497F9722A3DAAFE3B4186F6B6457E0\t\t\t(uint256 amount) public overri...\n      PUSH 40\t\t\t(uint256 amount) public overri...\n      MLOAD \t\t\t(uint256 amount) public overri...\n      PUSH 40\t\t\t(uint256 amount) public overri...\n      MLOAD \t\t\t(uint256 amount) public overri...\n      DUP1 \t\t\t(uint256 amount) public overri...\n      SWAP2 \t\t\t(uint256 amount) public overri...\n      SUB \t\t\t(uint256 amount) public overri...\n      SWAP1 \t\t\t(uint256 amount) public overri...\n      LOG3 \t\t\t(uint256 amount) public overri...\n      POP \t\t\t    /// @notice Burn your own ...\n      POP \t\t\tto, amount);\\r\\n        emit T...\n      JUMP \t\t\tto, amount);\\r\\n        emit T...\n    tag 180\t\t\t /// @dev Emitted when tokens ...\n      JUMPDEST \t\t\t /// @dev Emitted when tokens ...\n      PUSH [tag] 289\t\t\tnsRecovered(\\r\\n        addres...\n      DUP3 \t\t\t      a\n      PUSH [tag] 290\t\t\tress indexed\n      PUSH [tag] 129\t\t\tress index\n      JUMP \t\t\tress indexed\n    tag 290\t\t\tress indexed\n      JUMPDEST \t\t\tress indexed\n      DUP4 \t\t\token,\n      PUSH [tag] 136\t\t\tnsRecovered(\\r\\n \n      JUMP \t\t\tnsRecovered(\\r\\n        addres...\n    tag 289\t\t\tnsRecovered(\\r\\n        addres...\n      JUMPDEST \t\t\tnsRecovered(\\r\\n        addres...\n      PUSH [tag] 291\t\t\tddress indexed to,\\r\\n \n      DUP3 \t\t\t indexe\n      DUP3 \t\t\tto,\\r\\n\n      PUSH [tag] 286\t\t\tddres\n      JUMP \t\t\tddress indexed to,\\r\\n \n    tag 291\t\t\tddress indexed to,\\r\\n \n      JUMPDEST \t\t\tddress indexed to,\\r\\n \n      POP \t\t\t /// @dev Emitted when tokens ...\n      POP \t\t\t /// @dev Emitted when tokens ...\n      JUMP \t\t\t /// @dev Emitted when tokens ...\n    tag 184\t\t\td EIP‑2612 permit\\r\\ncontract ...\n      JUMPDEST \t\t\td EIP‑2612 permit\\r\\ncontract ...\n      PUSH 0\t\t\tC20Burn\n      PUSH 7\t\t\tmit,\\r\\n \n      PUSH 0\t\t\tmit,\\r\\n    Owna\n      DUP4 \t\t\t  Own\n      PUSH FFFFFFFFFFFFFFFFFFFFFFFFFFFFFFFFFFFFFFFF\t\t\tmit,\\r\\n    Owna\n      AND \t\t\tmit,\\r\\n    Owna\n      PUSH FFFFFFFFFFFFFFFFFFFFFFFFFFFFFFFFFFFFFFFF\t\t\tmit,\\r\\n    Owna\n      AND \t\t\tmit,\\r\\n    Owna\n      DUP2 \t\t\tmit,\\r\\n    Owna\n      MSTORE \t\t\tmit,\\r\\n    Owna\n      PUSH 20\t\t\tmit,\\r\\n    Owna\n      ADD \t\t\tmit,\\r\\n    Owna\n      SWAP1 \t\t\tmit,\\r\\n    Owna\n      DUP2 \t\t\tmit,\\r\\n    Owna\n      MSTORE \t\t\tmit,\\r\\n    Owna\n      PUSH 20\t\t\tmit,\\r\\n    Owna\n      ADD \t\t\tmit,\\r\\n    Owna\n      PUSH 0\t\t\tmit,\\r\\n    Owna\n      KECCAK256 \t\t\tmit,\\r\\n    Owna\n      SLOAD \t\t\tmit,\\r\\n    Owna\n      SWAP1 \t\t\tRC20Permit,\\r\\n    Owna\n      POP \t\t\tRC20Permit,\\r\\n    Owna\n      SWAP2 \t\t\td EIP‑2612 permit\\r\\ncontract ...\n      SWAP1 \t\t\td EIP‑2612 permit\\r\\ncontract ...\n      POP \t\t\td EIP‑2612 permit\\r\\ncontract ...\n      JUMP \t\t\td EIP‑2612 permit\\r\\ncontract ...\n    tag 187\t\t\t\n      JUMPDEST \t\t\t\n      PUSH 60\t\t\t\n      PUSH [tag] 294\t\t\t\n      PUSH 5\t\t\t\n      PUSHIMMUTABLE 2303\t\t\t\n      PUSH [tag] 295\t\t\t\n      SWAP1 \t\t\t\n      SWAP2 \t\t\t\n      SWAP1 \t\t\t\n      PUSH FFFFFFFF\t\t\t\n      AND \t\t\t\n      JUMP \t\t\t\n    tag 294\t\t\t\n      JUMPDEST \t\t\t\n      SWAP1 \t\t\t\n      POP \t\t\t\n      SWAP1 \t\t\t\n      JUMP \t\t\t\n    tag 189\t\t\t\n      JUMPDEST \t\t\t\n      PUSH 60\t\t\t\n      PUSH [tag] 297\t\t\t\n      PUSH 6\t\t\t\n      PUSHIMMUTABLE 2306\t\t\t\n      PUSH [tag] 295\t\t\t\n      SWAP1 \t\t\t\n      SWAP2 \t\t\t\n      SWAP1 \t\t\t\n      PUSH FFFFFFFF\t\t\t\n      AND \t\t\t\n      JUMP \t\t\t\n    tag 297\t\t\t\n      JUMPDEST \t\t\t\n      SWAP1 \t\t\t\n      POP \t\t\t\n      SWAP1 \t\t\t\n      JUMP \t\t\t\n    tag 215\t\t\ttant CAP = 66_337_700 * 10 ** ...\n      JUMPDEST \t\t\ttant CAP = 66_337_700 * 10 ** ...\n      PUSH 0\t\t\ten new \n      PUSH 7\t\t\tress in\n      PUSH 0\t\t\tress indexed t\n      DUP4 \t\t\texed \n      PUSH FFFFFFFFFFFFFFFFFFFFFFFFFFFFFFFFFFFFFFFF\t\t\tress indexed t\n      AND \t\t\tress indexed t\n      PUSH FFFFFFFFFFFFFFFFFFFFFFFFFFFFFFFFFFFFFFFF\t\t\tress indexed t\n      AND \t\t\tress indexed t\n      DUP2 \t\t\tress indexed t\n      MSTORE \t\t\tress indexed t\n      PUSH 20\t\t\tress indexed t\n      ADD \t\t\tress indexed t\n      SWAP1 \t\t\tress indexed t\n      DUP2 \t\t\tress indexed t\n      MSTORE \t\t\tress indexed t\n      PUSH 20\t\t\tress indexed t\n      ADD \t\t\tress indexed t\n      PUSH 0\t\t\tress indexed t\n      KECCAK256 \t\t\tress indexed t\n      PUSH 0\t\t\tress indexed t\n      DUP2 \t\t\tress indexed tok\n      SLOAD \t\t\tress indexed tok\n      DUP1 \t\t\tress indexed tok\n      SWAP3 \t\t\tress indexed tok\n      SWAP2 \t\t\tress indexed tok\n      SWAP1 \t\t\tress indexed tok\n      PUSH 1\t\t\tress indexed tok\n      ADD \t\t\tress indexed tok\n      SWAP2 \t\t\tress indexed tok\n      SWAP1 \t\t\tress indexed tok\n      POP \t\t\tress indexed tok\n      SSTORE \t\t\tress indexed tok\n      SWAP1 \t\t\t    address indexed tok\n      POP \t\t\t    address indexed tok\n      SWAP2 \t\t\ttant CAP = 66_337_700 * 10 ** ...\n      SWAP1 \t\t\ttant CAP = 66_337_700 * 10 ** ...\n      POP \t\t\ttant CAP = 66_337_700 * 10 ** ...\n      JUMP \t\t\ttant CAP = 66_337_700 * 10 ** ...\n    tag 219\t\t\t\n      JUMPDEST \t\t\t\n      PUSH 0\t\t\t\n      PUSH [tag] 300\t\t\t\n      PUSH [tag] 301\t\t\t\n      PUSH [tag] 142\t\t\t\n      JUMP \t\t\t\n    tag 301\t\t\t\n      JUMPDEST \t\t\t\n      DUP4 \t\t\t\n      PUSH [tag] 302\t\t\t\n      JUMP \t\t\t\n    tag 300\t\t\t\n      JUMPDEST \t\t\t\n      SWAP1 \t\t\t\n      POP \t\t\t\n      SWAP2 \t\t\t\n      SWAP1 \t\t\t\n      POP \t\t\t\n      JUMP \t\t\t\n    tag 221\t\t\t\n      JUMPDEST \t\t\t\n      PUSH 0\t\t\t\n      DUP1 \t\t\t\n      PUSH 0\t\t\t\n      DUP1 \t\t\t\n      PUSH [tag] 304\t\t\t\n      DUP9 \t\t\t\n      DUP9 \t\t\t\n      DUP9 \t\t\t\n      DUP9 \t\t\t\n      PUSH [tag] 305\t\t\t\n      JUMP \t\t\t\n    tag 304\t\t\t\n      JUMPDEST \t\t\t\n      SWAP3 \t\t\t\n      POP \t\t\t\n      SWAP3 \t\t\t\n      POP \t\t\t\n      SWAP3 \t\t\t\n      POP \t\t\t\n      PUSH [tag] 306\t\t\t\n      DUP3 \t\t\t\n      DUP3 \t\t\t\n      PUSH [tag] 307\t\t\t\n      JUMP \t\t\t\n    tag 306\t\t\t\n      JUMPDEST \t\t\t\n      DUP3 \t\t\t\n      SWAP4 \t\t\t\n      POP \t\t\t\n      POP \t\t\t\n      POP \t\t\t\n      POP \t\t\t\n      SWAP5 \t\t\t\n      SWAP4 \t\t\t\n      POP \t\t\t\n      POP \t\t\t\n      POP \t\t\t\n      POP \t\t\t\n      JUMP \t\t\t\n    tag 247\t\t\t\n      JUMPDEST \t\t\t\n      PUSH 0\t\t\t\n      PUSH FFFFFFFFFFFFFFFFFFFFFFFFFFFFFFFFFFFFFFFF\t\t\t\n      AND \t\t\t\n      DUP5 \t\t\t\n      PUSH FFFFFFFFFFFFFFFFFFFFFFFFFFFFFFFFFFFFFFFF\t\t\t\n      AND \t\t\t\n      SUB \t\t\t\n      PUSH [tag] 309\t\t\t\n      JUMPI \t\t\t\n      PUSH 0\t\t\t\n      PUSH 40\t\t\t\n      MLOAD \t\t\t\n      PUSH E602DF0500000000000000000000000000000000000000000000000000000000\t\t\t\n      DUP2 \t\t\t\n      MSTORE \t\t\t\n      PUSH 4\t\t\t\n      ADD \t\t\t\n      PUSH [tag] 310\t\t\t\n      SWAP2 \t\t\t\n      SWAP1 \t\t\t\n      PUSH [tag] 87\t\t\t\n      JUMP \t\t\t\n    tag 310\t\t\t\n      JUMPDEST \t\t\t\n      PUSH 40\t\t\t\n      MLOAD \t\t\t\n      DUP1 \t\t\t\n      SWAP2 \t\t\t\n      SUB \t\t\t\n      SWAP1 \t\t\t\n      REVERT \t\t\t\n    tag 309\t\t\t\n      JUMPDEST \t\t\t\n      PUSH 0\t\t\t\n      PUSH FFFFFFFFFFFFFFFFFFFFFFFFFFFFFFFFFFFFFFFF\t\t\t\n      AND \t\t\t\n      DUP4 \t\t\t\n      PUSH FFFFFFFFFFFFFFFFFFFFFFFFFFFFFFFFFFFFFFFF\t\t\t\n      AND \t\t\t\n      SUB \t\t\t\n      PUSH [tag] 311\t\t\t\n      JUMPI \t\t\t\n      PUSH 0\t\t\t\n      PUSH 40\t\t\t\n      MLOAD \t\t\t\n      PUSH 94280D6200000000000000000000000000000000000000000000000000000000\t\t\t\n      DUP2 \t\t\t\n      MSTORE \t\t\t\n      PUSH 4\t\t\t\n      ADD \t\t\t\n      PUSH [tag] 312\t\t\t\n      SWAP2 \t\t\t\n      SWAP1 \t\t\t\n      PUSH [tag] 87\t\t\t\n      JUMP \t\t\t\n    tag 312\t\t\t\n      JUMPDEST \t\t\t\n      PUSH 40\t\t\t\n      MLOAD \t\t\t\n      DUP1 \t\t\t\n      SWAP2 \t\t\t\n      SUB \t\t\t\n      SWAP1 \t\t\t\n      REVERT \t\t\t\n    tag 311\t\t\t\n      JUMPDEST \t\t\t\n      DUP2 \t\t\t\n      PUSH 1\t\t\t\n      PUSH 0\t\t\t\n      DUP7 \t\t\t\n      PUSH FFFFFFFFFFFFFFFFFFFFFFFFFFFFFFFFFFFFFFFF\t\t\t\n      AND \t\t\t\n      PUSH FFFFFFFFFFFFFFFFFFFFFFFFFFFFFFFFFFFFFFFF\t\t\t\n      AND \t\t\t\n      DUP2 \t\t\t\n      MSTORE \t\t\t\n      PUSH 20\t\t\t\n      ADD \t\t\t\n      SWAP1 \t\t\t\n      DUP2 \t\t\t\n      MSTORE \t\t\t\n      PUSH 20\t\t\t\n      ADD \t\t\t\n      PUSH 0\t\t\t\n      KECCAK256 \t\t\t\n      PUSH 0\t\t\t\n      DUP6 \t\t\t\n      PUSH FFFFFFFFFFFFFFFFFFFFFFFFFFFFFFFFFFFFFFFF\t\t\t\n      AND \t\t\t\n      PUSH FFFFFFFFFFFFFFFFFFFFFFFFFFFFFFFFFFFFFFFF\t\t\t\n      AND \t\t\t\n      DUP2 \t\t\t\n      MSTORE \t\t\t\n      PUSH 20\t\t\t\n      ADD \t\t\t\n      SWAP1 \t\t\t\n      DUP2 \t\t\t\n      MSTORE \t\t\t\n      PUSH 20\t\t\t\n      ADD \t\t\t\n      PUSH 0\t\t\t\n      KECCAK256 \t\t\t\n      DUP2 \t\t\t\n      SWAP1 \t\t\t\n      SSTORE \t\t\t\n      POP \t\t\t\n      DUP1 \t\t\t\n      ISZERO \t\t\t\n      PUSH [tag] 313\t\t\t\n      JUMPI \t\t\t\n      DUP3 \t\t\t\n      PUSH FFFFFFFFFFFFFFFFFFFFFFFFFFFFFFFFFFFFFFFF\t\t\t\n      AND \t\t\t\n      DUP5 \t\t\t\n      PUSH FFFFFFFFFFFFFFFFFFFFFFFFFFFFFFFFFFFFFFFF\t\t\t\n      AND \t\t\t\n      PUSH 8C5BE1E5EBEC7D5BD14F71427D1E84F3DD0314C0F7B2291E5B200AC8C7C3B925\t\t\t\n      DUP5 \t\t\t\n      PUSH 40\t\t\t\n      MLOAD \t\t\t\n      PUSH [tag] 314\t\t\t\n      SWAP2 \t\t\t\n      SWAP1 \t\t\t\n      PUSH [tag] 43\t\t\t\n      JUMP \t\t\t\n    tag 314\t\t\t\n      JUMPDEST \t\t\t\n      PUSH 40\t\t\t\n      MLOAD \t\t\t\n      DUP1 \t\t\t\n      SWAP2 \t\t\t\n      SUB \t\t\t\n      SWAP1 \t\t\t\n      LOG3 \t\t\t\n    tag 313\t\t\t\n      JUMPDEST \t\t\t\n      POP \t\t\t\n      POP \t\t\t\n      POP \t\t\t\n      POP \t\t\t\n      JUMP \t\t\t\n    tag 261\t\t\t\n      JUMPDEST \t\t\t\n      PUSH 0\t\t\t\n      PUSH FFFFFFFFFFFFFFFFFFFFFFFFFFFFFFFFFFFFFFFF\t\t\t\n      AND \t\t\t\n      DUP4 \t\t\t\n      PUSH FFFFFFFFFFFFFFFFFFFFFFFFFFFFFFFFFFFFFFFF\t\t\t\n      AND \t\t\t\n      SUB \t\t\t\n      PUSH [tag] 316\t\t\t\n      JUMPI \t\t\t\n      DUP1 \t\t\t\n      PUSH 2\t\t\t\n      PUSH 0\t\t\t\n      DUP3 \t\t\t\n      DUP3 \t\t\t\n      SLOAD \t\t\t\n      PUSH [tag] 317\t\t\t\n      SWAP2 \t\t\t\n      SWAP1 \t\t\t\n      PUSH [tag] 152\t\t\t\n      JUMP \t\t\t\n    tag 317\t\t\t\n      JUMPDEST \t\t\t\n      SWAP3 \t\t\t\n      POP \t\t\t\n      POP \t\t\t\n      DUP2 \t\t\t\n      SWAP1 \t\t\t\n      SSTORE \t\t\t\n      POP \t\t\t\n      PUSH [tag] 318\t\t\t\n      JUMP \t\t\t\n    tag 316\t\t\t\n      JUMPDEST \t\t\t\n      PUSH 0\t\t\t\n      DUP1 \t\t\t\n      PUSH 0\t\t\t\n      DUP6 \t\t\t\n      PUSH FFFFFFFFFFFFFFFFFFFFFFFFFFFFFFFFFFFFFFFF\t\t\t\n      AND \t\t\t\n      PUSH FFFFFFFFFFFFFFFFFFFFFFFFFFFFFFFFFFFFFFFF\t\t\t\n      AND \t\t\t\n      DUP2 \t\t\t\n      MSTORE \t\t\t\n      PUSH 20\t\t\t\n      ADD \t\t\t\n      SWAP1 \t\t\t\n      DUP2 \t\t\t\n      MSTORE \t\t\t\n      PUSH 20\t\t\t\n      ADD \t\t\t\n      PUSH 0\t\t\t\n      KECCAK256 \t\t\t\n      SLOAD \t\t\t\n      SWAP1 \t\t\t\n      POP \t\t\t\n      DUP2 \t\t\t\n      DUP2 \t\t\t\n      LT \t\t\t\n      ISZERO \t\t\t\n      PUSH [tag] 319\t\t\t\n      JUMPI \t\t\t\n      DUP4 \t\t\t\n      DUP2 \t\t\t\n      DUP4 \t\t\t\n      PUSH 40\t\t\t\n      MLOAD \t\t\t\n      PUSH E450D38C00000000000000000000000000000000000000000000000000000000\t\t\t\n      DUP2 \t\t\t\n      MSTORE \t\t\t\n      PUSH 4\t\t\t\n      ADD \t\t\t\n      PUSH [tag] 320\t\t\t\n      SWAP4 \t\t\t\n      SWAP3 \t\t\t\n      SWAP2 \t\t\t\n      SWAP1 \t\t\t\n      PUSH [tag] 253\t\t\t\n      JUMP \t\t\t\n    tag 320\t\t\t\n      JUMPDEST \t\t\t\n      PUSH 40\t\t\t\n      MLOAD \t\t\t\n      DUP1 \t\t\t\n      SWAP2 \t\t\t\n      SUB \t\t\t\n      SWAP1 \t\t\t\n      REVERT \t\t\t\n    tag 319\t\t\t\n      JUMPDEST \t\t\t\n      DUP2 \t\t\t\n      DUP2 \t\t\t\n      SUB \t\t\t\n      PUSH 0\t\t\t\n      DUP1 \t\t\t\n      DUP7 \t\t\t\n      PUSH FFFFFFFFFFFFFFFFFFFFFFFFFFFFFFFFFFFFFFFF\t\t\t\n      AND \t\t\t\n      PUSH FFFFFFFFFFFFFFFFFFFFFFFFFFFFFFFFFFFFFFFF\t\t\t\n      AND \t\t\t\n      DUP2 \t\t\t\n      MSTORE \t\t\t\n      PUSH 20\t\t\t\n      ADD \t\t\t\n      SWAP1 \t\t\t\n      DUP2 \t\t\t\n      MSTORE \t\t\t\n      PUSH 20\t\t\t\n      ADD \t\t\t\n      PUSH 0\t\t\t\n      KECCAK256 \t\t\t\n      DUP2 \t\t\t\n      SWAP1 \t\t\t\n      SSTORE \t\t\t\n      POP \t\t\t\n      POP \t\t\t\n    tag 318\t\t\t\n      JUMPDEST \t\t\t\n      PUSH 0\t\t\t\n      PUSH FFFFFFFFFFFFFFFFFFFFFFFFFFFFFFFFFFFFFFFF\t\t\t\n      AND \t\t\t\n      DUP3 \t\t\t\n      PUSH FFFFFFFFFFFFFFFFFFFFFFFFFFFFFFFFFFFFFFFF\t\t\t\n      AND \t\t\t\n      SUB \t\t\t\n      PUSH [tag] 321\t\t\t\n      JUMPI \t\t\t\n      DUP1 \t\t\t\n      PUSH 2\t\t\t\n      PUSH 0\t\t\t\n      DUP3 \t\t\t\n      DUP3 \t\t\t\n      SLOAD \t\t\t\n      SUB \t\t\t\n      SWAP3 \t\t\t\n      POP \t\t\t\n      POP \t\t\t\n      DUP2 \t\t\t\n      SWAP1 \t\t\t\n      SSTORE \t\t\t\n      POP \t\t\t\n      PUSH [tag] 322\t\t\t\n      JUMP \t\t\t\n    tag 321\t\t\t\n      JUMPDEST \t\t\t\n      DUP1 \t\t\t\n      PUSH 0\t\t\t\n      DUP1 \t\t\t\n      DUP5 \t\t\t\n      PUSH FFFFFFFFFFFFFFFFFFFFFFFFFFFFFFFFFFFFFFFF\t\t\t\n      AND \t\t\t\n      PUSH FFFFFFFFFFFFFFFFFFFFFFFFFFFFFFFFFFFFFFFF\t\t\t\n      AND \t\t\t\n      DUP2 \t\t\t\n      MSTORE \t\t\t\n      PUSH 20\t\t\t\n      ADD \t\t\t\n      SWAP1 \t\t\t\n      DUP2 \t\t\t\n      MSTORE \t\t\t\n      PUSH 20\t\t\t\n      ADD \t\t\t\n      PUSH 0\t\t\t\n      KECCAK256 \t\t\t\n      PUSH 0\t\t\t\n      DUP3 \t\t\t\n      DUP3 \t\t\t\n      SLOAD \t\t\t\n      ADD \t\t\t\n      SWAP3 \t\t\t\n      POP \t\t\t\n      POP \t\t\t\n      DUP2 \t\t\t\n      SWAP1 \t\t\t\n      SSTORE \t\t\t\n      POP \t\t\t\n    tag 322\t\t\t\n      JUMPDEST \t\t\t\n      DUP2 \t\t\t\n      PUSH FFFFFFFFFFFFFFFFFFFFFFFFFFFFFFFFFFFFFFFF\t\t\t\n      AND \t\t\t\n      DUP4 \t\t\t\n      PUSH FFFFFFFFFFFFFFFFFFFFFFFFFFFFFFFFFFFFFFFF\t\t\t\n      AND \t\t\t\n      PUSH DDF252AD1BE2C89B69C2B068FC378DAA952BA7F163C4A11628F55A4DF523B3EF\t\t\t\n      DUP4 \t\t\t\n      PUSH 40\t\t\t\n      MLOAD \t\t\t\n      PUSH [tag] 323\t\t\t\n      SWAP2 \t\t\t\n      SWAP1 \t\t\t\n      PUSH [tag] 43\t\t\t\n      JUMP \t\t\t\n    tag 323\t\t\t\n      JUMPDEST \t\t\t\n      PUSH 40\t\t\t\n      MLOAD \t\t\t\n      DUP1 \t\t\t\n      SWAP2 \t\t\t\n      SUB \t\t\t\n      SWAP1 \t\t\t\n      LOG3 \t\t\t\n      POP \t\t\t\n      POP \t\t\t\n      POP \t\t\t\n      JUMP \t\t\t\n    tag 267\t\t\t\n      JUMPDEST \t\t\t\n      PUSH 0\t\t\t\n      PUSH 8B73C3C69BB8FE3D512ECC4CF759CC79239F7B179B0FFACAA9A75D522B39400F\t\t\tnewOwner != address(0), \"Wrapp...\n      PUSHIMMUTABLE 2298\t\t\t\n      PUSHIMMUTABLE 2300\t\t\t\n      CHAINID \t\t\t\n      ADDRESS \t\t\t\n      PUSH 40\t\t\t\n      MLOAD \t\t\t\n      PUSH 20\t\t\t\n      ADD \t\t\t\n      PUSH [tag] 325\t\t\t\n      SWAP6 \t\t\t\n      SWAP5 \t\t\t\n      SWAP4 \t\t\t\n      SWAP3 \t\t\t\n      SWAP2 \t\t\t\n      SWAP1 \t\t\t\n      PUSH [tag] 326\t\t\t\n      JUMP \t\t\t\n    tag 325\t\t\t\n      JUMPDEST \t\t\t\n      PUSH 40\t\t\t\n      MLOAD \t\t\t\n      PUSH 20\t\t\t\n      DUP2 \t\t\t\n      DUP4 \t\t\t\n      SUB \t\t\t\n      SUB \t\t\t\n      DUP2 \t\t\t\n      MSTORE \t\t\t\n      SWAP1 \t\t\t\n      PUSH 40\t\t\t\n      MSTORE \t\t\t\n      DUP1 \t\t\t\n      MLOAD \t\t\t\n      SWAP1 \t\t\t\n      PUSH 20\t\t\t\n      ADD \t\t\t\n      KECCAK256 \t\t\t\n      SWAP1 \t\t\t\n      POP \t\t\t\n      SWAP1 \t\t\t\n      JUMP \t\t\t\n    tag 286\t\t\t\n      JUMPDEST \t\t\t\n      PUSH 0\t\t\t\n      PUSH FFFFFFFFFFFFFFFFFFFFFFFFFFFFFFFFFFFFFFFF\t\t\t\n      AND \t\t\t\n      DUP3 \t\t\t\n      PUSH FFFFFFFFFFFFFFFFFFFFFFFFFFFFFFFFFFFFFFFF\t\t\t\n      AND \t\t\t\n      SUB \t\t\t\n      PUSH [tag] 328\t\t\t\n      JUMPI \t\t\t\n      PUSH 0\t\t\t\n      PUSH 40\t\t\t\n      MLOAD \t\t\t\n      PUSH 96C6FD1E00000000000000000000000000000000000000000000000000000000\t\t\t\n      DUP2 \t\t\t\n      MSTORE \t\t\t\n      PUSH 4\t\t\t\n      ADD \t\t\t\n      PUSH [tag] 329\t\t\t\n      SWAP2 \t\t\t\n      SWAP1 \t\t\t\n      PUSH [tag] 87\t\t\t\n      JUMP \t\t\t\n    tag 329\t\t\t\n      JUMPDEST \t\t\t\n      PUSH 40\t\t\t\n      MLOAD \t\t\t\n      DUP1 \t\t\t\n      SWAP2 \t\t\t\n      SUB \t\t\t\n      SWAP1 \t\t\t\n      REVERT \t\t\t\n    tag 328\t\t\t\n      JUMPDEST \t\t\t\n      PUSH [tag] 330\t\t\t\n      DUP3 \t\t\t\n      PUSH 0\t\t\t\n      DUP4 \t\t\t\n      PUSH [tag] 261\t\t\t\n      JUMP \t\t\t\n    tag 330\t\t\t\n      JUMPDEST \t\t\t\n      POP \t\t\t\n      POP \t\t\t\n      JUMP \t\t\t\n    tag 295\t\t\t      emit TokensBurned(accoun...\n      JUMPDEST \t\t\t      emit TokensBurned(accoun...\n      PUSH 60\t\t\tnt here by mi\n      PUSH FF\t\t\t// @dev The address pending ow...\n      PUSH 0\t\t\tct to pull tokens\n      SHL \t\t\tct to pull tokens\n      DUP4 \t\t\tC20 c\n      EQ \t\t\tparam token  The ERC20 contrac...\n      PUSH [tag] 332\t\t\t// @param token  The ERC20 con...\n      JUMPI \t\t\t// @param token  The ERC20 con...\n      PUSH [tag] 333\t\t\to     Recipient\n      DUP4 \t\t\tipien\n      PUSH [tag] 334\t\t\to     Re\n      JUMP \t\t\to     Recipient\n    tag 333\t\t\to     Recipient\n      JUMPDEST \t\t\to     Recipient\n      SWAP1 \t\t\tparam to     Recipient\n      POP \t\t\tparam to     Recipient\n      PUSH [tag] 331\t\t\tparam to     Recipient\n      JUMP \t\t\tparam to     Recipient\n    tag 332\t\t\t// @param token  The ERC20 con...\n      JUMPDEST \t\t\t// @param token  The ERC20 con...\n      DUP2 \t\t\t amou\n      DUP1 \t\t\t @param amou\n      SLOAD \t\t\t @param amou\n      PUSH [tag] 336\t\t\t @param amou\n      SWAP1 \t\t\t @param amou\n      PUSH [tag] 122\t\t\t @param amou\n      JUMP \t\t\t @param amou\n    tag 336\t\t\t @param amou\n      JUMPDEST \t\t\t @param amou\n      DUP1 \t\t\t @param amou\n      PUSH 1F\t\t\t @param amou\n      ADD \t\t\t @param amou\n      PUSH 20\t\t\t @param amou\n      DUP1 \t\t\t @param amou\n      SWAP2 \t\t\t @param amou\n      DIV \t\t\t @param amou\n      MUL \t\t\t @param amou\n      PUSH 20\t\t\t @param amou\n      ADD \t\t\t @param amou\n      PUSH 40\t\t\t @param amou\n      MLOAD \t\t\t @param amou\n      SWAP1 \t\t\t @param amou\n      DUP2 \t\t\t @param amou\n      ADD \t\t\t @param amou\n      PUSH 40\t\t\t @param amou\n      MSTORE \t\t\t @param amou\n      DUP1 \t\t\t @param amou\n      SWAP3 \t\t\t @param amou\n      SWAP2 \t\t\t @param amou\n      SWAP1 \t\t\t @param amou\n      DUP2 \t\t\t @param amou\n      DUP2 \t\t\t @param amou\n      MSTORE \t\t\t @param amou\n      PUSH 20\t\t\t @param amou\n      ADD \t\t\t @param amou\n      DUP3 \t\t\t @param amou\n      DUP1 \t\t\t @param amou\n      SLOAD \t\t\t @param amou\n      PUSH [tag] 337\t\t\t @param amou\n      SWAP1 \t\t\t @param amou\n      PUSH [tag] 122\t\t\t @param amou\n      JUMP \t\t\t @param amou\n    tag 337\t\t\t @param amou\n      JUMPDEST \t\t\t @param amou\n      DUP1 \t\t\t @param amou\n      ISZERO \t\t\t @param amou\n      PUSH [tag] 338\t\t\t @param amou\n      JUMPI \t\t\t @param amou\n      DUP1 \t\t\t @param amou\n      PUSH 1F\t\t\t @param amou\n      LT \t\t\t @param amou\n      PUSH [tag] 339\t\t\t @param amou\n      JUMPI \t\t\t @param amou\n      PUSH 100\t\t\t @param amou\n      DUP1 \t\t\t @param amou\n      DUP4 \t\t\t @param amou\n      SLOAD \t\t\t @param amou\n      DIV \t\t\t @param amou\n      MUL \t\t\t @param amou\n      DUP4 \t\t\t @param amou\n      MSTORE \t\t\t @param amou\n      SWAP2 \t\t\t @param amou\n      PUSH 20\t\t\t @param amou\n      ADD \t\t\t @param amou\n      SWAP2 \t\t\t @param amou\n      PUSH [tag] 338\t\t\t @param amou\n      JUMP \t\t\t @param amou\n    tag 339\t\t\t @param amou\n      JUMPDEST \t\t\t @param amou\n      DUP3 \t\t\t @param amou\n      ADD \t\t\t @param amou\n      SWAP2 \t\t\t @param amou\n      SWAP1 \t\t\t @param amou\n      PUSH 0\t\t\t @param amou\n      MSTORE \t\t\t @param amou\n      PUSH 20\t\t\t @param amou\n      PUSH 0\t\t\t @param amou\n      KECCAK256 \t\t\t @param amou\n      SWAP1 \t\t\t @param amou\n    tag 340\t\t\t @param amou\n      JUMPDEST \t\t\t @param amou\n      DUP2 \t\t\t @param amou\n      SLOAD \t\t\t @param amou\n      DUP2 \t\t\t @param amou\n      MSTORE \t\t\t @param amou\n      SWAP1 \t\t\t @param amou\n      PUSH 1\t\t\t @param amou\n      ADD \t\t\t @param amou\n      SWAP1 \t\t\t @param amou\n      PUSH 20\t\t\t @param amou\n      ADD \t\t\t @param amou\n      DUP1 \t\t\t @param amou\n      DUP4 \t\t\t @param amou\n      GT \t\t\t @param amou\n      PUSH [tag] 340\t\t\t @param amou\n      JUMPI \t\t\t @param amou\n      DUP3 \t\t\t @param amou\n      SWAP1 \t\t\t @param amou\n      SUB \t\t\t @param amou\n      PUSH 1F\t\t\t @param amou\n      AND \t\t\t @param amou\n      DUP3 \t\t\t @param amou\n      ADD \t\t\t @param amou\n      SWAP2 \t\t\t @param amou\n    tag 338\t\t\t @param amou\n      JUMPDEST \t\t\t @param amou\n      POP \t\t\t @param amou\n      POP \t\t\t @param amou\n      POP \t\t\t @param amou\n      POP \t\t\t @param amou\n      POP \t\t\t @param amou\n      SWAP1 \t\t\t @param amou\n      POP \t\t\t @param amou\n    tag 331\t\t\t      emit TokensBurned(accoun...\n      JUMPDEST \t\t\t      emit TokensBurned(accoun...\n      SWAP3 \t\t\t      emit TokensBurned(accoun...\n      SWAP2 \t\t\t      emit TokensBurned(accoun...\n      POP \t\t\t      emit TokensBurned(accoun...\n      POP \t\t\t      emit TokensBurned(accoun...\n      JUMP \t\t\t      emit TokensBurned(accoun...\n    tag 302\t\t\t\\r\\n}\\r\\n\n      JUMPDEST \t\t\t\\r\\n}\\r\\n\n      PUSH 0\t\t\t\n      PUSH 40\t\t\t\n      MLOAD \t\t\t\n      PUSH 1901000000000000000000000000000000000000000000000000000000000000\t\t\t\n      DUP2 \t\t\t\n      MSTORE \t\t\t\n      DUP4 \t\t\t\n      PUSH 2\t\t\t\n      DUP3 \t\t\t\n      ADD \t\t\t\n      MSTORE \t\t\t\n      DUP3 \t\t\t\n      PUSH 22\t\t\t\n      DUP3 \t\t\t\n      ADD \t\t\t\n      MSTORE \t\t\t\n      PUSH 42\t\t\t\n      DUP2 \t\t\t\n      KECCAK256 \t\t\t\n      SWAP2 \t\t\t\n      POP \t\t\t\n      POP \t\t\t\n      SWAP3 \t\t\t\\r\\n}\\r\\n\n      SWAP2 \t\t\t\\r\\n}\\r\\n\n      POP \t\t\t\\r\\n}\\r\\n\n      POP \t\t\t\\r\\n}\\r\\n\n      JUMP \t\t\t\\r\\n}\\r\\n\n    tag 305\t\t\t\n      JUMPDEST \t\t\t\n      PUSH 0\t\t\t\n      DUP1 \t\t\t\n      PUSH 0\t\t\t\n      PUSH 7FFFFFFFFFFFFFFFFFFFFFFFFFFFFFFF5D576E7357A4501DDFE92F46681B20A0\t\t\t\n      DUP5 \t\t\t\n      PUSH 0\t\t\t\n      SHR \t\t\t\n      GT \t\t\t\n      ISZERO \t\t\t\n      PUSH [tag] 343\t\t\t\n      JUMPI \t\t\t\n      PUSH 0\t\t\t\n      PUSH 3\t\t\t\n      DUP6 \t\t\t\n      SWAP3 \t\t\t\n      POP \t\t\t\n      SWAP3 \t\t\t\n      POP \t\t\t\n      SWAP3 \t\t\t\n      POP \t\t\t\n      PUSH [tag] 342\t\t\t\n      JUMP \t\t\t\n    tag 343\t\t\t\n      JUMPDEST \t\t\t\n      PUSH 0\t\t\t\n      PUSH 1\t\t\t\n      DUP9 \t\t\t\n      DUP9 \t\t\t\n      DUP9 \t\t\t\n      DUP9 \t\t\t\n      PUSH 40\t\t\t\n      MLOAD \t\t\t\n      PUSH 0\t\t\t\n      DUP2 \t\t\t\n      MSTORE \t\t\t\n      PUSH 20\t\t\t\n      ADD \t\t\t\n      PUSH 40\t\t\t\n      MSTORE \t\t\t\n      PUSH 40\t\t\t\n      MLOAD \t\t\t\n      PUSH [tag] 344\t\t\t\n      SWAP5 \t\t\t\n      SWAP4 \t\t\t\n      SWAP3 \t\t\t\n      SWAP2 \t\t\t\n      SWAP1 \t\t\t\n      PUSH [tag] 345\t\t\t\n      JUMP \t\t\t\n    tag 344\t\t\t\n      JUMPDEST \t\t\t\n      PUSH 20\t\t\t\n      PUSH 40\t\t\t\n      MLOAD \t\t\t\n      PUSH 20\t\t\t\n      DUP2 \t\t\t\n      SUB \t\t\t\n      SWAP1 \t\t\t\n      DUP1 \t\t\t\n      DUP5 \t\t\t\n      SUB \t\t\t\n      SWAP1 \t\t\t\n      DUP6 \t\t\t\n      GAS \t\t\t\n      STATICCALL \t\t\t\n      ISZERO \t\t\t\n      DUP1 \t\t\t\n      ISZERO \t\t\t\n      PUSH [tag] 347\t\t\t\n      JUMPI \t\t\t\n      RETURNDATASIZE \t\t\t\n      PUSH 0\t\t\t\n      DUP1 \t\t\t\n      RETURNDATACOPY \t\t\t\n      RETURNDATASIZE \t\t\t\n      PUSH 0\t\t\t\n      REVERT \t\t\t\n    tag 347\t\t\t\n      JUMPDEST \t\t\t\n      POP \t\t\t\n      POP \t\t\t\n      POP \t\t\t\n      PUSH 20\t\t\t\n      PUSH 40\t\t\t\n      MLOAD \t\t\t\n      SUB \t\t\t\n      MLOAD \t\t\t\n      SWAP1 \t\t\t\n      POP \t\t\t\n      PUSH 0\t\t\t\n      PUSH FFFFFFFFFFFFFFFFFFFFFFFFFFFFFFFFFFFFFFFF\t\t\t\n      AND \t\t\t\n      DUP2 \t\t\t\n      PUSH FFFFFFFFFFFFFFFFFFFFFFFFFFFFFFFFFFFFFFFF\t\t\t\n      AND \t\t\t\n      SUB \t\t\t\n      PUSH [tag] 348\t\t\t\n      JUMPI \t\t\t\n      PUSH 0\t\t\t\n      PUSH 1\t\t\t\n      PUSH 0\t\t\t\n      DUP1 \t\t\t\n      SHL \t\t\t\n      SWAP4 \t\t\t\n      POP \t\t\t\n      SWAP4 \t\t\t\n      POP \t\t\t\n      SWAP4 \t\t\t\n      POP \t\t\t\n      POP \t\t\t\n      PUSH [tag] 342\t\t\t\n      JUMP \t\t\t\n    tag 348\t\t\t\n      JUMPDEST \t\t\t\n      DUP1 \t\t\t\n      PUSH 0\t\t\t\n      DUP1 \t\t\t\n      PUSH 0\t\t\t\n      SHL \t\t\t\n      SWAP4 \t\t\t\n      POP \t\t\t\n      SWAP4 \t\t\t\n      POP \t\t\t\n      SWAP4 \t\t\t\n      POP \t\t\t\n      POP \t\t\t\n    tag 342\t\t\t\n      JUMPDEST \t\t\t\n      SWAP5 \t\t\t\n      POP \t\t\t\n      SWAP5 \t\t\t\n      POP \t\t\t\n      SWAP5 \t\t\t\n      SWAP2 \t\t\t\n      POP \t\t\t\n      POP \t\t\t\n      JUMP \t\t\t\n    tag 307\t\t\t\n      JUMPDEST \t\t\t\n      PUSH 0\t\t\t\n      PUSH 3\t\t\t\n      DUP2 \t\t\t\n      GT \t\t\t\n      ISZERO \t\t\t\n      PUSH [tag] 350\t\t\t\n      JUMPI \t\t\t\n      PUSH [tag] 351\t\t\t\n      PUSH [tag] 352\t\t\t\n      JUMP \t\t\t\n    tag 351\t\t\t\n      JUMPDEST \t\t\t\n    tag 350\t\t\t\n      JUMPDEST \t\t\t\n      DUP3 \t\t\t\n      PUSH 3\t\t\t\n      DUP2 \t\t\t\n      GT \t\t\t\n      ISZERO \t\t\t\n      PUSH [tag] 353\t\t\t\n      JUMPI \t\t\t\n      PUSH [tag] 354\t\t\t\n      PUSH [tag] 352\t\t\t\n      JUMP \t\t\t\n    tag 354\t\t\t\n      JUMPDEST \t\t\t\n    tag 353\t\t\t\n      JUMPDEST \t\t\t\n      SUB \t\t\t\n      ISZERO \t\t\t\n      PUSH [tag] 349\t\t\t\n      JUMPI \t\t\t\n      PUSH 1\t\t\t\n      PUSH 3\t\t\t\n      DUP2 \t\t\t\n      GT \t\t\t\n      ISZERO \t\t\t\n      PUSH [tag] 357\t\t\t\n      JUMPI \t\t\t\n      PUSH [tag] 358\t\t\t\n      PUSH [tag] 352\t\t\t\n      JUMP \t\t\t\n    tag 358\t\t\t\n      JUMPDEST \t\t\t\n    tag 357\t\t\t\n      JUMPDEST \t\t\t\n      DUP3 \t\t\t\n      PUSH 3\t\t\t\n      DUP2 \t\t\t\n      GT \t\t\t\n      ISZERO \t\t\t\n      PUSH [tag] 359\t\t\t\n      JUMPI \t\t\t\n      PUSH [tag] 360\t\t\t\n      PUSH [tag] 352\t\t\t\n      JUMP \t\t\t\n    tag 360\t\t\t\n      JUMPDEST \t\t\t\n    tag 359\t\t\t\n      JUMPDEST \t\t\t\n      SUB \t\t\t\n      PUSH [tag] 361\t\t\t\n      JUMPI \t\t\t\n      PUSH 40\t\t\t\n      MLOAD \t\t\t\n      PUSH F645EEDF00000000000000000000000000000000000000000000000000000000\t\t\t\n      DUP2 \t\t\t\n      MSTORE \t\t\t\n      PUSH 4\t\t\t\n      ADD \t\t\t\n      PUSH 40\t\t\t\n      MLOAD \t\t\t\n      DUP1 \t\t\t\n      SWAP2 \t\t\t\n      SUB \t\t\t\n      SWAP1 \t\t\t\n      REVERT \t\t\t\n    tag 361\t\t\t\n      JUMPDEST \t\t\t\n      PUSH 2\t\t\t\n      PUSH 3\t\t\t\n      DUP2 \t\t\t\n      GT \t\t\t\n      ISZERO \t\t\t\n      PUSH [tag] 363\t\t\t\n      JUMPI \t\t\t\n      PUSH [tag] 364\t\t\t\n      PUSH [tag] 352\t\t\t\n      JUMP \t\t\t\n    tag 364\t\t\t\n      JUMPDEST \t\t\t\n    tag 363\t\t\t\n      JUMPDEST \t\t\t\n      DUP3 \t\t\t\n      PUSH 3\t\t\t\n      DUP2 \t\t\t\n      GT \t\t\t\n      ISZERO \t\t\t\n      PUSH [tag] 365\t\t\t\n      JUMPI \t\t\t\n      PUSH [tag] 366\t\t\t\n      PUSH [tag] 352\t\t\t\n      JUMP \t\t\t\n    tag 366\t\t\t\n      JUMPDEST \t\t\t\n    tag 365\t\t\t\n      JUMPDEST \t\t\t\n      SUB \t\t\t\n      PUSH [tag] 367\t\t\t\n      JUMPI \t\t\t\n      DUP1 \t\t\t\n      PUSH 0\t\t\t\n      SHR \t\t\t\n      PUSH 40\t\t\t\n      MLOAD \t\t\t\n      PUSH FCE698F700000000000000000000000000000000000000000000000000000000\t\t\t\n      DUP2 \t\t\t\n      MSTORE \t\t\t\n      PUSH 4\t\t\t\n      ADD \t\t\t\n      PUSH [tag] 368\t\t\t\n      SWAP2 \t\t\t\n      SWAP1 \t\t\t\n      PUSH [tag] 43\t\t\t\n      JUMP \t\t\t\n    tag 368\t\t\t\n      JUMPDEST \t\t\t\n      PUSH 40\t\t\t\n      MLOAD \t\t\t\n      DUP1 \t\t\t\n      SWAP2 \t\t\t\n      SUB \t\t\t\n      SWAP1 \t\t\t\n      REVERT \t\t\t\n    tag 367\t\t\t\n      JUMPDEST \t\t\t\n      PUSH 3\t\t\t\n      DUP1 \t\t\t\n      DUP2 \t\t\t\n      GT \t\t\t\n      ISZERO \t\t\t\n      PUSH [tag] 370\t\t\t\n      JUMPI \t\t\t\n      PUSH [tag] 371\t\t\t\n      PUSH [tag] 352\t\t\t\n      JUMP \t\t\t\n    tag 371\t\t\t\n      JUMPDEST \t\t\t\n    tag 370\t\t\t\n      JUMPDEST \t\t\t\n      DUP3 \t\t\t\n      PUSH 3\t\t\t\n      DUP2 \t\t\t\n      GT \t\t\t\n      ISZERO \t\t\t\n      PUSH [tag] 372\t\t\t\n      JUMPI \t\t\t\n      PUSH [tag] 373\t\t\t\n      PUSH [tag] 352\t\t\t\n      JUMP \t\t\t\n    tag 373\t\t\t\n      JUMPDEST \t\t\t\n    tag 372\t\t\t\n      JUMPDEST \t\t\t\n      SUB \t\t\t\n      PUSH [tag] 374\t\t\t\n      JUMPI \t\t\t\n      DUP1 \t\t\t\n      PUSH 40\t\t\t\n      MLOAD \t\t\t\n      PUSH D78BCE0C00000000000000000000000000000000000000000000000000000000\t\t\t\n      DUP2 \t\t\t\n      MSTORE \t\t\t\n      PUSH 4\t\t\t\n      ADD \t\t\t\n      PUSH [tag] 375\t\t\t\n      SWAP2 \t\t\t\n      SWAP1 \t\t\t\n      PUSH [tag] 56\t\t\t\n      JUMP \t\t\t\n    tag 375\t\t\t\n      JUMPDEST \t\t\t\n      PUSH 40\t\t\t\n      MLOAD \t\t\t\n      DUP1 \t\t\t\n      SWAP2 \t\t\t\n      SUB \t\t\t\n      SWAP1 \t\t\t\n      REVERT \t\t\t\n    tag 374\t\t\t\n      JUMPDEST \t\t\t\n    tag 349\t\t\t\n      JUMPDEST \t\t\t\n      POP \t\t\t\n      POP \t\t\t\n      JUMP \t\t\t\n    tag 334\t\t\t(newOwner != address(0), \"Wrap...\n      JUMPDEST \t\t\t(newOwner != address(0), \"Wrap...\n      PUSH 60\t\t\tess\");\\r\\n     \n      PUSH 0\t\t\twner = newO\n      PUSH [tag] 377\t\t\tr;\\r\\n        emit\n      DUP4 \t\t\t emi\n      PUSH [tag] 378\t\t\tr;\\r\\n      \n      JUMP \t\t\tr;\\r\\n        emit\n    tag 377\t\t\tr;\\r\\n        emit\n      JUMPDEST \t\t\tr;\\r\\n        emit\n      SWAP1 \t\t\twner = newOwner;\\r\\n        em...\n      POP \t\t\twner = newOwner;\\r\\n        em...\n      PUSH 0\t\t\t transfer (must b\n      PUSH 20\t\t\tnd\n      PUSH FFFFFFFFFFFFFFFF\t\t\talled by pendi\n      DUP2 \t\t\talled by pendi\n      GT \t\t\talled by pendi\n      ISZERO \t\t\talled by pendi\n      PUSH [tag] 379\t\t\talled by pendi\n      JUMPI \t\t\talled by pendi\n      PUSH [tag] 380\t\t\talled by pendi\n      PUSH [tag] 192\t\t\talled by pendi\n      JUMP \t\t\talled by pendi\n    tag 380\t\t\talled by pendi\n      JUMPDEST \t\t\talled by pendi\n    tag 379\t\t\talled by pendi\n      JUMPDEST \t\t\talled by pendi\n      PUSH 40\t\t\talled by pendi\n      MLOAD \t\t\talled by pendi\n      SWAP1 \t\t\talled by pendi\n      DUP1 \t\t\talled by pendi\n      DUP3 \t\t\talled by pendi\n      MSTORE \t\t\talled by pendi\n      DUP1 \t\t\talled by pendi\n      PUSH 1F\t\t\talled by pendi\n      ADD \t\t\talled by pendi\n      PUSH 1F\t\t\talled by pendi\n      NOT \t\t\talled by pendi\n      AND \t\t\talled by pendi\n      PUSH 20\t\t\talled by pendi\n      ADD \t\t\talled by pendi\n      DUP3 \t\t\talled by pendi\n      ADD \t\t\talled by pendi\n      PUSH 40\t\t\talled by pendi\n      MSTORE \t\t\talled by pendi\n      DUP1 \t\t\talled by pendi\n      ISZERO \t\t\talled by pendi\n      PUSH [tag] 381\t\t\talled by pendi\n      JUMPI \t\t\talled by pendi\n      DUP2 \t\t\talled by pendi\n      PUSH 20\t\t\talled by pendi\n      ADD \t\t\talled by pendi\n      PUSH 1\t\t\talled by pendi\n      DUP3 \t\t\talled by pendi\n      MUL \t\t\talled by pendi\n      DUP1 \t\t\talled by pendi\n      CALLDATASIZE \t\t\talled by pendi\n      DUP4 \t\t\talled by pendi\n      CALLDATACOPY \t\t\talled by pendi\n      DUP1 \t\t\talled by pendi\n      DUP3 \t\t\talled by pendi\n      ADD \t\t\talled by pendi\n      SWAP2 \t\t\talled by pendi\n      POP \t\t\talled by pendi\n      POP \t\t\talled by pendi\n      SWAP1 \t\t\talled by pendi\n      POP \t\t\talled by pendi\n    tag 381\t\t\talled by pendi\n      JUMPDEST \t\t\talled by pendi\n      POP \t\t\talled by pendi\n      SWAP1 \t\t\t transfer (must be called by p...\n      POP \t\t\t transfer (must be called by p...\n      DUP2 \t\t\t ad\n      DUP2 \t\t\t   \n      MSTORE \t\t\tl {\\r\\n        add\n      DUP4 \t\t\t req\n      PUSH 20\t\t\t    \n      DUP3 \t\t\t();\n      ADD \t\t\tnder();\\r\\n     \n      MSTORE \t\t\t _msgSender();\\r\\n        requ\n      DUP1 \t\t\tr, \n      SWAP3 \t\t\tingOwner, \n      POP \t\t\tingOwner, \n      POP \t\t\tingOwner, \n      POP \t\t\tingOwner, \n      SWAP2 \t\t\t(newOwner != address(0), \"Wrap...\n      SWAP1 \t\t\t(newOwner != address(0), \"Wrap...\n      POP \t\t\t(newOwner != address(0), \"Wrap...\n      JUMP \t\t\t(newOwner != address(0), \"Wrap...\n    tag 378\t\t\t(0);\\r\\n        _transferOwner...\n      JUMPDEST \t\t\t(0);\\r\\n        _transferOwner...\n      PUSH 0\t\t\tnotice \n      DUP1 \t\t\the cap; only t\n      PUSH FF\t\t\tReci\n      DUP4 \t\t\tram \n      PUSH 0\t\t\towner can call\\r\\n    /// @par...\n      SHR \t\t\towner can call\\r\\n    /// @par...\n      AND \t\t\towner can call\\r\\n    /// @par...\n      SWAP1 \t\t\the cap; only the owner can cal...\n      POP \t\t\the cap; only the owner can cal...\n      PUSH 1F\t\t\ten\n      DUP2 \t\t\tinted \n      GT \t\t\tinted token\n      ISZERO \t\t\the minted tokens\\r\\n    /// @p...\n      PUSH [tag] 383\t\t\the minted tokens\\r\\n    /// @p...\n      JUMPI \t\t\the minted tokens\\r\\n    /// @p...\n      PUSH 40\t\t\tt  Amount to mint (i\n      MLOAD \t\t\tt  Amount to mint (i\n      PUSH B3512B0C00000000000000000000000000000000000000000000000000000000\t\t\tt  Amount to mint (i\n      DUP2 \t\t\tt  Amount to mint (i\n      MSTORE \t\t\tt  Amount to mint (i\n      PUSH 4\t\t\tt  Amount to mint (i\n      ADD \t\t\tt  Amount to mint (i\n      PUSH 40\t\t\tt  Amount to mint (i\n      MLOAD \t\t\tt  Amount to mint (i\n      DUP1 \t\t\tt  Amount to mint (i\n      SWAP2 \t\t\tt  Amount to mint (i\n      SUB \t\t\tt  Amount to mint (i\n      SWAP1 \t\t\tt  Amount to mint (i\n      REVERT \t\t\tt  Amount to mint (i\n    tag 383\t\t\the minted tokens\\r\\n    /// @p...\n      JUMPDEST \t\t\the minted tokens\\r\\n    /// @p...\n      DUP1 \t\t\tddress\n      SWAP2 \t\t\t mint(address\n      POP \t\t\t mint(address\n      POP \t\t\t mint(address\n      SWAP2 \t\t\t(0);\\r\\n        _transferOwner...\n      SWAP1 \t\t\t(0);\\r\\n        _transferOwner...\n      POP \t\t\t(0);\\r\\n        _transferOwner...\n      JUMP \t\t\t(0);\\r\\n        _transferOwner...\n    tag 384\t\t\t-License-Identifier: MIT\\r\\npr...\n      JUMPDEST \t\t\t-License-Identifier: MIT\\r\\npr...\n      PUSH 0\t\t\t.9;\\r\\n\\r\n      DUP2 \t\t\tacts/\n      MLOAD \t\t\t/contracts/t\n      SWAP1 \t\t\tenzeppelin/contracts/t\n      POP \t\t\tenzeppelin/contracts/t\n      SWAP2 \t\t\t-License-Identifier: MIT\\r\\npr...\n      SWAP1 \t\t\t-License-Identifier: MIT\\r\\npr...\n      POP \t\t\t-License-Identifier: MIT\\r\\npr...\n      JUMP \t\t\t-License-Identifier: MIT\\r\\npr...\n    tag 385\t\t\tRC20.sol\";\\r\\nimport \"@openzep...\n      JUMPDEST \t\t\tRC20.sol\";\\r\\nimport \"@openzep...\n      PUSH 0\t\t\tppelin/cont\n      DUP3 \t\t\tsions/\n      DUP3 \t\t\text\n      MSTORE \t\t\t/ERC20/extensions/E\n      PUSH 20\t\t\tzepp\n      DUP3 \t\t\t@op\n      ADD \t\t\trt \"@openzeppe\n      SWAP1 \t\t\tble.sol\";\\r\\nimport \"@openzepp...\n      POP \t\t\tble.sol\";\\r\\nimport \"@openzepp...\n      SWAP3 \t\t\tRC20.sol\";\\r\\nimport \"@openzep...\n      SWAP2 \t\t\tRC20.sol\";\\r\\nimport \"@openzep...\n      POP \t\t\tRC20.sol\";\\r\\nimport \"@openzep...\n      POP \t\t\tRC20.sol\";\\r\\nimport \"@openzep...\n      JUMP \t\t\tRC20.sol\";\\r\\nimport \"@openzep...\n    tag 386\t\t\ts/token/ERC20/extensions/ERC20...\n      JUMPDEST \t\t\ts/token/ERC20/extensions/ERC20...\n      DUP3 \t\t\te.sol\"\n      DUP2 \t\t\twna\n      DUP4 \t\t\tess\n      MCOPY \t\t\tts/access/Ownable.sol\";\n      PUSH 0\t\t\ts\n      DUP4 \t\t\tontrac\n      DUP4 \t\t\tlin\n      ADD \t\t\teppelin/contract\n      MSTORE \t\t\t\"@openzeppelin/contracts/se\n      POP \t\t\ts/token/ERC20/extensions/ERC20...\n      POP \t\t\ts/token/ERC20/extensions/ERC20...\n      POP \t\t\ts/token/ERC20/extensions/ERC20...\n      JUMP \t\t\ts/token/ERC20/extensions/ERC20...\n    tag 387\t\t\tancyGuard.sol\";\\r\\n\\r\\n/// @ti...\n      JUMPDEST \t\t\tancyGuard.sol\";\\r\\n\\r\\n/// @ti...\n      PUSH 0\t\t\t\\n/// @\n      PUSH 1F\t\t\t c\n      NOT \t\t\tixed ca\n      PUSH 1F\t\t\th \n      DUP4 \t\t\toin w\n      ADD \t\t\tR5 coin with a\n      AND \t\t\tfor R5 coin with a fixed cap\n      SWAP1 \t\t\t0 wrapper for R5 coin with a f...\n      POP \t\t\t0 wrapper for R5 coin with a f...\n      SWAP2 \t\t\tancyGuard.sol\";\\r\\n\\r\\n/// @ti...\n      SWAP1 \t\t\tancyGuard.sol\";\\r\\n\\r\\n/// @ti...\n      POP \t\t\tancyGuard.sol\";\\r\\n\\r\\n/// @ti...\n      JUMP \t\t\tancyGuard.sol\";\\r\\n\\r\\n/// @ti...\n    tag 388\t\t\tEIP‑2612 permit\\r\\ncontract Wr...\n      JUMPDEST \t\t\tEIP‑2612 permit\\r\\ncontract Wr...\n      PUSH 0\t\t\t\\r\\n \n      PUSH [tag] 441\t\t\tcyGuard\\r\\n{\\r\\n    /// @notic...\n      DUP3 \t\t\tum to\n      PUSH [tag] 384\t\t\tcyGuard\\r\\n{\\r\\n    /// @notic...\n      JUMP \t\t\tcyGuard\\r\\n{\\r\\n    /// @notic...\n    tag 441\t\t\tcyGuard\\r\\n{\\r\\n    /// @notic...\n      JUMPDEST \t\t\tcyGuard\\r\\n{\\r\\n    /// @notic...\n      PUSH [tag] 442\t\t\t7,700 WR5 (18 decimals)\\r\\n   ...\n      DUP2 \t\t\t7_700 \n      DUP6 \t\t\t66_\n      PUSH [tag] 385\t\t\t7,700 WR5 (18 decimals)\\r\\n   ...\n      JUMP \t\t\t7,700 WR5 (18 decimals)\\r\\n   ...\n    tag 442\t\t\t7,700 WR5 (18 decimals)\\r\\n   ...\n      JUMPDEST \t\t\t7,700 WR5 (18 decimals)\\r\\n   ...\n      SWAP4 \t\t\t: 66,337,700 WR5 (18 decimals)...\n      POP \t\t\t: 66,337,700 WR5 (18 decimals)...\n      PUSH [tag] 443\t\t\t;\\r\\n\\r\\n    /// @dev Emitted ...\n      DUP2 \t\t\tevent \n      DUP6 \t\t\t\\n  \n      PUSH 20\t\t\tmint\n      DUP7 \t\t\tns ar\n      ADD \t\t\ttokens are minte\n      PUSH [tag] 386\t\t\t;\\r\\n\\r\\n    /// @dev Emitted ...\n      JUMP \t\t\t;\\r\\n\\r\\n    /// @dev Emitted ...\n    tag 443\t\t\t;\\r\\n\\r\\n    /// @dev Emitted ...\n      JUMPDEST \t\t\t;\\r\\n\\r\\n    /// @dev Emitted ...\n      PUSH [tag] 444\t\t\ted to, uint256 amount);\\r\\n\\r\\...\n      DUP2 \t\t\t;\\r\\n\\r\\n \n      PUSH [tag] 387\t\t\ted to, uint256 amount);\\r\\n\\r\\...\n      JUMP \t\t\ted to, uint256 amount);\\r\\n\\r\\...\n    tag 444\t\t\ted to, uint256 amount);\\r\\n\\r\\...\n      JUMPDEST \t\t\ted to, uint256 amount);\\r\\n\\r\\...\n      DUP5 \t\t\tind\n      ADD \t\t\tess indexed to, uint256 amount...\n      SWAP2 \t\t\ted(address indexed to, uint256...\n      POP \t\t\ted(address indexed to, uint256...\n      POP \t\t\t  Ownable,\\r\\n    ReentrancyGu...\n      SWAP3 \t\t\tEIP‑2612 permit\\r\\ncontract Wr...\n      SWAP2 \t\t\tEIP‑2612 permit\\r\\ncontract Wr...\n      POP \t\t\tEIP‑2612 permit\\r\\ncontract Wr...\n      POP \t\t\tEIP‑2612 permit\\r\\ncontract Wr...\n      JUMP \t\t\tEIP‑2612 permit\\r\\ncontract Wr...\n    tag 33\t\t\titted when tokens are burned\\r...\n      JUMPDEST \t\t\titted when tokens are burned\\r...\n      PUSH 0\t\t\ted w\n      PUSH 20\t\t\tnt\n      DUP3 \t\t\tfrom the \n      ADD \t\t\tued from the contr\n      SWAP1 \t\t\tare rescued from the contr\n      POP \t\t\tare rescued from the contr\n      DUP2 \t\t\tss indexe\n      DUP2 \t\t\t add\n      SUB \t\t\t     address indexed\n      PUSH 0\t\t\t\\n\n      DUP4 \t\t\tRecovered\n      ADD \t\t\tkensRecovered(\\r\\n \n      MSTORE \t\t\tvent TokensRecovered(\\r\\n     ...\n      PUSH [tag] 446\t\t\tddress indexed to,\\r\\n        ...\n      DUP2 \t\t\td wh\n      DUP5 \t\t\tev Emi\n      PUSH [tag] 388\t\t\tddress indexed to,\\r\\n        ...\n      JUMP \t\t\tddress indexed to,\\r\\n        ...\n    tag 446\t\t\tddress indexed to,\\r\\n        ...\n      JUMPDEST \t\t\tddress indexed to,\\r\\n        ...\n      SWAP1 \t\t\t       address indexed to,\\r\\n...\n      POP \t\t\t       address indexed to,\\r\\n...\n      SWAP3 \t\t\titted when tokens are burned\\r...\n      SWAP2 \t\t\titted when tokens are burned\\r...\n      POP \t\t\titted when tokens are burned\\r...\n      POP \t\t\titted when tokens are burned\\r...\n      JUMP \t\t\titted when tokens are burned\\r...\n    tag 390\t\t\td previousOwner,\\r\\n        ad...\n      JUMPDEST \t\t\td previousOwner,\\r\\n        ad...\n      PUSH 0\t\t\ts\n      DUP1 \t\t\tr\n      REVERT \t\t\trship transf\n    tag 392\t\t\t     Ownable(msg.sender)\\r\\n  ...\n      JUMPDEST \t\t\t     Ownable(msg.sender)\\r\\n  ...\n      PUSH 0\t\t\t    // \n      PUSH FFFFFFFFFFFFFFFFFFFFFFFFFFFFFFFFFFFFFFFF\t\t\t  }\\r\\n\\r\\n    /// @notice Vie...\n      DUP3 \t\t\tyer\\r\\n\n      AND \t\t\teployer\\r\\n    }\\r\\n\\r\\n    //...\n      SWAP1 \t\t\talized to deployer\\r\\n    }\\r\\...\n      POP \t\t\talized to deployer\\r\\n    }\\r\\...\n      SWAP2 \t\t\t     Ownable(msg.sender)\\r\\n  ...\n      SWAP1 \t\t\t     Ownable(msg.sender)\\r\\n  ...\n      POP \t\t\t     Ownable(msg.sender)\\r\\n  ...\n      JUMP \t\t\t     Ownable(msg.sender)\\r\\n  ...\n    tag 393\t\t\tme owner\\r\\n    function pendi...\n      JUMPDEST \t\t\tme owner\\r\\n    function pendi...\n      PUSH 0\t\t\t public\n      PUSH [tag] 452\t\t\t) {\\r\\n        return _pen\n      DUP3 \t\t\tn _pe\n      PUSH [tag] 392\t\t\t) {\\r\\n        return _pen\n      JUMP \t\t\t) {\\r\\n        return _pen\n    tag 452\t\t\t) {\\r\\n        return _pen\n      JUMPDEST \t\t\t) {\\r\\n        return _pen\n      SWAP1 \t\t\tns (address) {\\r\\n        retu...\n      POP \t\t\tns (address) {\\r\\n        retu...\n      SWAP2 \t\t\tme owner\\r\\n    function pendi...\n      SWAP1 \t\t\tme owner\\r\\n    function pendi...\n      POP \t\t\tme owner\\r\\n    function pendi...\n      JUMP \t\t\tme owner\\r\\n    function pendi...\n    tag 394\t\t\t    }\\r\\n\\r\\n    /// @notice I...\n      JUMPDEST \t\t\t    }\\r\\n\\r\\n    /// @notice I...\n      PUSH [tag] 454\t\t\tewOwner` cannot accept u\n      DUP2 \t\t\tcept \n      PUSH [tag] 393\t\t\tewOwner` cannot accept u\n      JUMP \t\t\tewOwner` cannot accept u\n    tag 454\t\t\tewOwner` cannot accept u\n      JUMPDEST \t\t\tewOwner` cannot accept u\n      DUP2 \t\t\tunt (\n      EQ \t\t\tccount (`newOwner` cannot acce...\n      PUSH [tag] 455\t\t\tto a new account (`newOwner` c...\n      JUMPI \t\t\tto a new account (`newOwner` c...\n      PUSH 0\t\t\tl\n      DUP1 \t\t\t \n      REVERT \t\t\tthis is call\n    tag 455\t\t\tto a new account (`newOwner` c...\n      JUMPDEST \t\t\tto a new account (`newOwner` c...\n      POP \t\t\t    }\\r\\n\\r\\n    /// @notice I...\n      JUMP \t\t\t    }\\r\\n\\r\\n    /// @notice I...\n    tag 395\t\t\tparam newOwner The address to ...\n      JUMPDEST \t\t\tparam newOwner The address to ...\n      PUSH 0\t\t\tip to\n      DUP2 \t\t\transfe\n      CALLDATALOAD \t\t\tateOwnershipTransfer\n      SWAP1 \t\t\tion initiateOwnershipTransfer\n      POP \t\t\tion initiateOwnershipTransfer\n      PUSH [tag] 457\t\t\tnewOwner) external onlyOwner {...\n      DUP2 \t\t\tr {\\r\\n\n      PUSH [tag] 394\t\t\tnewOwner) external onlyOwner {...\n      JUMP \t\t\tnewOwner) external onlyOwner {...\n    tag 457\t\t\tnewOwner) external onlyOwner {...\n      JUMPDEST \t\t\tnewOwner) external onlyOwner {...\n      SWAP3 \t\t\tparam newOwner The address to ...\n      SWAP2 \t\t\tparam newOwner The address to ...\n      POP \t\t\tparam newOwner The address to ...\n      POP \t\t\tparam newOwner The address to ...\n      JUMP \t\t\tparam newOwner The address to ...\n    tag 396\t\t\tre(newOwner != address(0), \"Wr...\n      JUMPDEST \t\t\tre(newOwner != address(0), \"Wr...\n      PUSH 0\t\t\t: new o\n      DUP2 \t\t\t;\\r\\n  \n      SWAP1 \t\t\to address\");\\r\\n  \n      POP \t\t\to address\");\\r\\n  \n      SWAP2 \t\t\tre(newOwner != address(0), \"Wr...\n      SWAP1 \t\t\tre(newOwner != address(0), \"Wr...\n      POP \t\t\tre(newOwner != address(0), \"Wr...\n      JUMP \t\t\tre(newOwner != address(0), \"Wr...\n    tag 397\t\t\tngOwner = newOwner;\\r\\n       ...\n      JUMPDEST \t\t\tngOwner = newOwner;\\r\\n       ...\n      PUSH [tag] 460\t\t\tner);\\r\\n    }\\r\\n\\r\\n    /// \n      DUP2 \t\t\t  ///\n      PUSH [tag] 396\t\t\tner);\\r\\n    }\\r\\n\\r\\n    /// \n      JUMP \t\t\tner);\\r\\n    }\\r\\n\\r\\n    /// \n    tag 460\t\t\tner);\\r\\n    }\\r\\n\\r\\n    /// \n      JUMPDEST \t\t\tner);\\r\\n    }\\r\\n\\r\\n    /// \n      DUP2 \t\t\t, new\n      EQ \t\t\tr(), newOwner);\\r\\n    }\\r\\n\\r...\n      PUSH [tag] 461\t\t\tarted(owner(), newOwner);\\r\\n ...\n      JUMPI \t\t\tarted(owner(), newOwner);\\r\\n ...\n      PUSH 0\t\t\to\n      DUP1 \t\t\tp\n      REVERT \t\t\tce Accept ow\n    tag 461\t\t\tarted(owner(), newOwner);\\r\\n ...\n      JUMPDEST \t\t\tarted(owner(), newOwner);\\r\\n ...\n      POP \t\t\tngOwner = newOwner;\\r\\n       ...\n      JUMP \t\t\tngOwner = newOwner;\\r\\n       ...\n    tag 398\t\t\ter (must be called by pending ...\n      JUMPDEST \t\t\ter (must be called by pending ...\n      PUSH 0\t\t\ttion \n      DUP2 \t\t\t     a\n      CALLDATALOAD \t\t\tternal {\\r\\n        ad\n      SWAP1 \t\t\tship() external {\\r\\n        a...\n      POP \t\t\tship() external {\\r\\n        a...\n      PUSH [tag] 463\t\t\tder = _msgSender();\\r\\n       ...\n      DUP2 \t\t\t  req\n      PUSH [tag] 397\t\t\tder = _msgSender();\\r\\n       ...\n      JUMP \t\t\tder = _msgSender();\\r\\n       ...\n    tag 463\t\t\tder = _msgSender();\\r\\n       ...\n      JUMPDEST \t\t\tder = _msgSender();\\r\\n       ...\n      SWAP3 \t\t\ter (must be called by pending ...\n      SWAP2 \t\t\ter (must be called by pending ...\n      POP \t\t\ter (must be called by pending ...\n      POP \t\t\ter (must be called by pending ...\n      JUMP \t\t\ter (must be called by pending ...\n    tag 36\t\t\t= _pendingOwner, \"WrappedR5: c...\n      JUMPDEST \t\t\t= _pendingOwner, \"WrappedR5: c...\n      PUSH 0\t\t\t     _\n      DUP1 \t\t\tndingO\n      PUSH 40\t\t\thi\n      DUP4 \t\t\tansferOwn\n      DUP6 \t\t\t      _\n      SUB \t\t\t\\r\\n        _transferOwne\n      SLT \t\t\t(0);\\r\\n        _transferOwner...\n      ISZERO \t\t\tess(0);\\r\\n        _transferOw...\n      PUSH [tag] 465\t\t\tess(0);\\r\\n        _transferOw...\n      JUMPI \t\t\tess(0);\\r\\n        _transferOw...\n      PUSH [tag] 466\t\t\tnder);\\r\\n    }\\r\\n\\r\\n    ///...\n      PUSH [tag] 390\t\t\tnder);\\r\\n    }\\r\\n\\r\\n    ///...\n      JUMP \t\t\tnder);\\r\\n    }\\r\\n\\r\\n    ///...\n    tag 466\t\t\tnder);\\r\\n    }\\r\\n\\r\\n    ///...\n      JUMPDEST \t\t\tnder);\\r\\n    }\\r\\n\\r\\n    ///...\n    tag 465\t\t\tess(0);\\r\\n        _transferOw...\n      JUMPDEST \t\t\tess(0);\\r\\n        _transferOw...\n      PUSH 0\t\t\td\n      PUSH [tag] 467\t\t\tamount  Amount to mint (in wei...\n      DUP6 \t\t\t mint(a\n      DUP3 \t\t\t funct\n      DUP7 \t\t\tn wei)\\r\\n \n      ADD \t\t\tt (in wei)\\r\\n    functi\n      PUSH [tag] 395\t\t\tamount  Amount to mint (in wei...\n      JUMP \t\t\tamount  Amount to mint (in wei...\n    tag 467\t\t\tamount  Amount to mint (in wei...\n      JUMPDEST \t\t\tamount  Amount to mint (in wei...\n      SWAP3 \t\t\t// @param amount  Amount to mi...\n      POP \t\t\t// @param amount  Amount to mi...\n      POP \t\t\tm to   Recipient of the minted...\n      PUSH 20\t\t\tee\n      PUSH [tag] 468\t\t\te(totalSupply() + amount <= CA...\n      DUP6 \t\t\tcap exc\n      DUP3 \t\t\tappedR\n      DUP7 \t\t\t<= CAP, \"\n      ADD \t\t\tunt <= CAP, \"WrappedR5\n      PUSH [tag] 398\t\t\te(totalSupply() + amount <= CA...\n      JUMP \t\t\te(totalSupply() + amount <= CA...\n    tag 468\t\t\te(totalSupply() + amount <= CA...\n      JUMPDEST \t\t\te(totalSupply() + amount <= CA...\n      SWAP2 \t\t\t    require(totalSupply() + am...\n      POP \t\t\t    require(totalSupply() + am...\n      POP \t\t\tount) external onlyOwner nonRe...\n      SWAP3 \t\t\t= _pendingOwner, \"WrappedR5: c...\n      POP \t\t\t= _pendingOwner, \"WrappedR5: c...\n      SWAP3 \t\t\t= _pendingOwner, \"WrappedR5: c...\n      SWAP1 \t\t\t= _pendingOwner, \"WrappedR5: c...\n      POP \t\t\t= _pendingOwner, \"WrappedR5: c...\n      JUMP \t\t\t= _pendingOwner, \"WrappedR5: c...\n    tag 399\t\t\tto, amount);\\r\\n        emit T...\n      JUMPDEST \t\t\tto, amount);\\r\\n        emit T...\n      PUSH 0\t\t\tinted(t\n      DUP2 \t\t\te Bur\n      ISZERO \t\t\t @notice Burn\n      ISZERO \t\t\t    /// @notice Burn \n      SWAP1 \t\t\t\\r\\n    }\\r\\n\\r\\n    /// @noti...\n      POP \t\t\t\\r\\n    }\\r\\n\\r\\n    /// @noti...\n      SWAP2 \t\t\tto, amount);\\r\\n        emit T...\n      SWAP1 \t\t\tto, amount);\\r\\n        emit T...\n      POP \t\t\tto, amount);\\r\\n        emit T...\n      JUMP \t\t\tto, amount);\\r\\n        emit T...\n    tag 400\t\t\tens; emits a custom event\\r\\n ...\n      JUMPDEST \t\t\tens; emits a custom event\\r\\n ...\n      PUSH [tag] 471\t\t\t       super.burn(amo\n      DUP2 \t\t\trn(am\n      PUSH [tag] 399\t\t\t       super.burn(amo\n      JUMP \t\t\t       super.burn(amo\n    tag 471\t\t\t       super.burn(amo\n      JUMPDEST \t\t\t       super.burn(amo\n      DUP3 \t\t\t {\\r\n      MSTORE \t\t\tverride {\\r\\n        super.bur...\n      POP \t\t\tens; emits a custom event\\r\\n ...\n      POP \t\t\tens; emits a custom event\\r\\n ...\n      JUMP \t\t\tens; emits a custom event\\r\\n ...\n    tag 39\t\t\t  emit TokensBurned(_msgSender...\n      JUMPDEST \t\t\t  emit TokensBurned(_msgSender...\n      PUSH 0\t\t\telse\n      PUSH 20\t\t\t\\r\\n\n      DUP3 \t\t\tustom eve\n      ADD \t\t\t a custom event\\r\\n \n      SWAP1 \t\t\te; emits a custom event\\r\\n \n      POP \t\t\te; emits a custom event\\r\\n \n      PUSH [tag] 473\t\t\tn burnFrom(address account, ui...\n      PUSH 0\t\t\t\\n\n      DUP4 \t\t\toverride \n      ADD \t\t\tlic override {\\r\\n \n      DUP5 \t\t\tount) \n      PUSH [tag] 400\t\t\tn burnFrom(address account, ui...\n      JUMP \t\t\tn burnFrom(address account, ui...\n    tag 473\t\t\tn burnFrom(address account, ui...\n      JUMPDEST \t\t\tn burnFrom(address account, ui...\n      SWAP3 \t\t\t  emit TokensBurned(_msgSender...\n      SWAP2 \t\t\t  emit TokensBurned(_msgSender...\n      POP \t\t\t  emit TokensBurned(_msgSender...\n      POP \t\t\t  emit TokensBurned(_msgSender...\n      JUMP \t\t\t  emit TokensBurned(_msgSender...\n    tag 401\t\t\turnFrom(account, amount);\\r\\n ...\n      JUMPDEST \t\t\turnFrom(account, amount);\\r\\n ...\n      PUSH [tag] 475\t\t\t/ @notice Rescue any ERC\n      DUP2 \t\t\tny ER\n      PUSH [tag] 396\t\t\t/ @notice Rescue any ERC\n      JUMP \t\t\t/ @notice Rescue any ERC\n    tag 475\t\t\t/ @notice Rescue any ERC\n      JUMPDEST \t\t\t/ @notice Rescue any ERC\n      DUP3 \t\t\t   \n      MSTORE \t\t\t }\\r\\n\\r\\n    /// @notice Resc...\n      POP \t\t\turnFrom(account, amount);\\r\\n ...\n      POP \t\t\turnFrom(account, amount);\\r\\n ...\n      JUMP \t\t\turnFrom(account, amount);\\r\\n ...\n    tag 43\t\t\tt here by mistake\\r\\n    /// @...\n      JUMPDEST \t\t\tt here by mistake\\r\\n    /// @...\n      PUSH 0\t\t\tam t\n      PUSH 20\t\t\ten\n      DUP3 \t\t\trescued t\n      ADD \t\t\tthe rescued tokens\n      SWAP1 \t\t\tient of the rescued tokens\n      POP \t\t\tient of the rescued tokens\n      PUSH [tag] 477\t\t\t@param amount Amount to recove...\n      PUSH 0\t\t\t\\r\n      DUP4 \t\t\tcoverERC2\n      ADD \t\t\tcyRecoverERC20(\\r\\n\n      DUP5 \t\t\tn emer\n      PUSH [tag] 401\t\t\t@param amount Amount to recove...\n      JUMP \t\t\t@param amount Amount to recove...\n    tag 477\t\t\t@param amount Amount to recove...\n      JUMPDEST \t\t\t@param amount Amount to recove...\n      SWAP3 \t\t\tt here by mistake\\r\\n    /// @...\n      SWAP2 \t\t\tt here by mistake\\r\\n    /// @...\n      POP \t\t\tt here by mistake\\r\\n    /// @...\n      POP \t\t\tt here by mistake\\r\\n    /// @...\n      JUMP \t\t\tt here by mistake\\r\\n    /// @...\n    tag 46\t\t\t token,\\r\\n        address to,...\n      JUMPDEST \t\t\t token,\\r\\n        address to,...\n      PUSH 0\t\t\tr {\\r\\n \n      DUP1 \t\t\t     t\n      PUSH 0\t\t\ten.tra\n      PUSH 60\t\t\tve\n      DUP5 \t\t\tt TokensR\n      DUP7 \t\t\t      e\n      SUB \t\t\t\\r\\n        emit TokensRe\n      SLT \t\t\tnt);\\r\\n        emit TokensRec...\n      ISZERO \t\t\tmount);\\r\\n        emit Tokens...\n      PUSH [tag] 479\t\t\tmount);\\r\\n        emit Tokens...\n      JUMPI \t\t\tmount);\\r\\n        emit Tokens...\n      PUSH [tag] 480\t\t\taddress(token), to, amount);\\r...\n      PUSH [tag] 390\t\t\taddress(token), to, amount);\\r...\n      JUMP \t\t\taddress(token), to, amount);\\r...\n    tag 480\t\t\taddress(token), to, amount);\\r...\n      JUMPDEST \t\t\taddress(token), to, amount);\\r...\n    tag 479\t\t\tmount);\\r\\n        emit Tokens...\n      JUMPDEST \t\t\tmount);\\r\\n        emit Tokens...\n      PUSH 0\t\t\t\n      PUSH [tag] 481\t\t\t\n      DUP7 \t\t\t\n      DUP3 \t\t\t\n      DUP8 \t\t\t\n      ADD \t\t\t\n      PUSH [tag] 395\t\t\t\n      JUMP \t\t\t\n    tag 481\t\t\t\n      JUMPDEST \t\t\t\n      SWAP4 \t\t\t\n      POP \t\t\t\n      POP \t\t\t\n      PUSH 20\t\t\t\n      PUSH [tag] 482\t\t\t\n      DUP7 \t\t\t\n      DUP3 \t\t\t\n      DUP8 \t\t\t\n      ADD \t\t\t\n      PUSH [tag] 395\t\t\t\n      JUMP \t\t\t\n    tag 482\t\t\t\n      JUMPDEST \t\t\t\n      SWAP3 \t\t\t\n      POP \t\t\t\n      POP \t\t\t\n      PUSH 40\t\t\t\n      PUSH [tag] 483\t\t\t\n      DUP7 \t\t\t\n      DUP3 \t\t\t\n      DUP8 \t\t\t\n      ADD \t\t\t\n      PUSH [tag] 398\t\t\t\n      JUMP \t\t\t\n    tag 483\t\t\t\n      JUMPDEST \t\t\t\n      SWAP2 \t\t\t\n      POP \t\t\t\n      POP \t\t\t\n      SWAP3 \t\t\t token,\\r\\n        address to,...\n      POP \t\t\t token,\\r\\n        address to,...\n      SWAP3 \t\t\t token,\\r\\n        address to,...\n      POP \t\t\t token,\\r\\n        address to,...\n      SWAP3 \t\t\t token,\\r\\n        address to,...\n      JUMP \t\t\t token,\\r\\n        address to,...\n    tag 402\t\t\t\n      JUMPDEST \t\t\t\n      PUSH 0\t\t\t\n      PUSH FF\t\t\t\n      DUP3 \t\t\t\n      AND \t\t\t\n      SWAP1 \t\t\t\n      POP \t\t\t\n      SWAP2 \t\t\t\n      SWAP1 \t\t\t\n      POP \t\t\t\n      JUMP \t\t\t\n    tag 403\t\t\t\n      JUMPDEST \t\t\t\n      PUSH [tag] 486\t\t\t\n      DUP2 \t\t\t\n      PUSH [tag] 402\t\t\t\n      JUMP \t\t\t\n    tag 486\t\t\t\n      JUMPDEST \t\t\t\n      DUP3 \t\t\t\n      MSTORE \t\t\t\n      POP \t\t\t\n      POP \t\t\t\n      JUMP \t\t\t\n    tag 52\t\t\t\n      JUMPDEST \t\t\t\n      PUSH 0\t\t\t\n      PUSH 20\t\t\t\n      DUP3 \t\t\t\n      ADD \t\t\t\n      SWAP1 \t\t\t\n      POP \t\t\t\n      PUSH [tag] 488\t\t\t\n      PUSH 0\t\t\t\n      DUP4 \t\t\t\n      ADD \t\t\t\n      DUP5 \t\t\t\n      PUSH [tag] 403\t\t\t\n      JUMP \t\t\t\n    tag 488\t\t\t\n      JUMPDEST \t\t\t\n      SWAP3 \t\t\t\n      SWAP2 \t\t\t\n      POP \t\t\t\n      POP \t\t\t\n      JUMP \t\t\t\n    tag 404\t\t\t\n      JUMPDEST \t\t\t\n      PUSH 0\t\t\t\n      DUP2 \t\t\t\n      SWAP1 \t\t\t\n      POP \t\t\t\n      SWAP2 \t\t\t\n      SWAP1 \t\t\t\n      POP \t\t\t\n      JUMP \t\t\t\n    tag 405\t\t\t\n      JUMPDEST \t\t\t\n      PUSH [tag] 491\t\t\t\n      DUP2 \t\t\t\n      PUSH [tag] 404\t\t\t\n      JUMP \t\t\t\n    tag 491\t\t\t\n      JUMPDEST \t\t\t\n      DUP3 \t\t\t\n      MSTORE \t\t\t\n      POP \t\t\t\n      POP \t\t\t\n      JUMP \t\t\t\n    tag 56\t\t\t\n      JUMPDEST \t\t\t\n      PUSH 0\t\t\t\n      PUSH 20\t\t\t\n      DUP3 \t\t\t\n      ADD \t\t\t\n      SWAP1 \t\t\t\n      POP \t\t\t\n      PUSH [tag] 493\t\t\t\n      PUSH 0\t\t\t\n      DUP4 \t\t\t\n      ADD \t\t\t\n      DUP5 \t\t\t\n      PUSH [tag] 405\t\t\t\n      JUMP \t\t\t\n    tag 493\t\t\t\n      JUMPDEST \t\t\t\n      SWAP3 \t\t\t\n      SWAP2 \t\t\t\n      POP \t\t\t\n      POP \t\t\t\n      JUMP \t\t\t\n    tag 62\t\t\t\n      JUMPDEST \t\t\t\n      PUSH 0\t\t\t\n      PUSH 20\t\t\t\n      DUP3 \t\t\t\n      DUP5 \t\t\t\n      SUB \t\t\t\n      SLT \t\t\t\n      ISZERO \t\t\t\n      PUSH [tag] 495\t\t\t\n      JUMPI \t\t\t\n      PUSH [tag] 496\t\t\t\n      PUSH [tag] 390\t\t\t\n      JUMP \t\t\t\n    tag 496\t\t\t\n      JUMPDEST \t\t\t\n    tag 495\t\t\t\n      JUMPDEST \t\t\t\n      PUSH 0\t\t\t\n      PUSH [tag] 497\t\t\t\n      DUP5 \t\t\t\n      DUP3 \t\t\t\n      DUP6 \t\t\t\n      ADD \t\t\t\n      PUSH [tag] 398\t\t\t\n      JUMP \t\t\t\n    tag 497\t\t\t\n      JUMPDEST \t\t\t\n      SWAP2 \t\t\t\n      POP \t\t\t\n      POP \t\t\t\n      SWAP3 \t\t\t\n      SWAP2 \t\t\t\n      POP \t\t\t\n      POP \t\t\t\n      JUMP \t\t\t\n    tag 66\t\t\t\n      JUMPDEST \t\t\t\n      PUSH 0\t\t\t\n      PUSH 20\t\t\t\n      DUP3 \t\t\t\n      DUP5 \t\t\t\n      SUB \t\t\t\n      SLT \t\t\t\n      ISZERO \t\t\t\n      PUSH [tag] 499\t\t\t\n      JUMPI \t\t\t\n      PUSH [tag] 500\t\t\t\n      PUSH [tag] 390\t\t\t\n      JUMP \t\t\t\n    tag 500\t\t\t\n      JUMPDEST \t\t\t\n    tag 499\t\t\t\n      JUMPDEST \t\t\t\n      PUSH 0\t\t\t\n      PUSH [tag] 501\t\t\t\n      DUP5 \t\t\t\n      DUP3 \t\t\t\n      DUP6 \t\t\t\n      ADD \t\t\t\n      PUSH [tag] 395\t\t\t\n      JUMP \t\t\t\n    tag 501\t\t\t\n      JUMPDEST \t\t\t\n      SWAP2 \t\t\t\n      POP \t\t\t\n      POP \t\t\t\n      SWAP3 \t\t\t\n      SWAP2 \t\t\t\n      POP \t\t\t\n      POP \t\t\t\n      JUMP \t\t\t\n    tag 406\t\t\t\n      JUMPDEST \t\t\t\n      PUSH 0\t\t\t\n      PUSH FF00000000000000000000000000000000000000000000000000000000000000\t\t\t\n      DUP3 \t\t\t\n      AND \t\t\t\n      SWAP1 \t\t\t\n      POP \t\t\t\n      SWAP2 \t\t\t\n      SWAP1 \t\t\t\n      POP \t\t\t\n      JUMP \t\t\t\n    tag 407\t\t\t\n      JUMPDEST \t\t\t\n      PUSH [tag] 504\t\t\t\n      DUP2 \t\t\t\n      PUSH [tag] 406\t\t\t\n      JUMP \t\t\t\n    tag 504\t\t\t\n      JUMPDEST \t\t\t\n      DUP3 \t\t\t\n      MSTORE \t\t\t\n      POP \t\t\t\n      POP \t\t\t\n      JUMP \t\t\t\n    tag 408\t\t\t\n      JUMPDEST \t\t\t\n      PUSH [tag] 506\t\t\t\n      DUP2 \t\t\t\n      PUSH [tag] 393\t\t\t\n      JUMP \t\t\t\n    tag 506\t\t\t\n      JUMPDEST \t\t\t\n      DUP3 \t\t\t\n      MSTORE \t\t\t\n      POP \t\t\t\n      POP \t\t\t\n      JUMP \t\t\t\n    tag 409\t\t\t\n      JUMPDEST \t\t\t\n      PUSH 0\t\t\t\n      DUP2 \t\t\t\n      MLOAD \t\t\t\n      SWAP1 \t\t\t\n      POP \t\t\t\n      SWAP2 \t\t\t\n      SWAP1 \t\t\t\n      POP \t\t\t\n      JUMP \t\t\t\n    tag 410\t\t\t\n      JUMPDEST \t\t\t\n      PUSH 0\t\t\t\n      DUP3 \t\t\t\n      DUP3 \t\t\t\n      MSTORE \t\t\t\n      PUSH 20\t\t\t\n      DUP3 \t\t\t\n      ADD \t\t\t\n      SWAP1 \t\t\t\n      POP \t\t\t\n      SWAP3 \t\t\t\n      SWAP2 \t\t\t\n      POP \t\t\t\n      POP \t\t\t\n      JUMP \t\t\t\n    tag 411\t\t\t\n      JUMPDEST \t\t\t\n      PUSH 0\t\t\t\n      DUP2 \t\t\t\n      SWAP1 \t\t\t\n      POP \t\t\t\n      PUSH 20\t\t\t\n      DUP3 \t\t\t\n      ADD \t\t\t\n      SWAP1 \t\t\t\n      POP \t\t\t\n      SWAP2 \t\t\t\n      SWAP1 \t\t\t\n      POP \t\t\t\n      JUMP \t\t\t\n    tag 412\t\t\t\n      JUMPDEST \t\t\t\n      PUSH [tag] 511\t\t\t\n      DUP2 \t\t\t\n      PUSH [tag] 396\t\t\t\n      JUMP \t\t\t\n    tag 511\t\t\t\n      JUMPDEST \t\t\t\n      DUP3 \t\t\t\n      MSTORE \t\t\t\n      POP \t\t\t\n      POP \t\t\t\n      JUMP \t\t\t\n    tag 413\t\t\t\n      JUMPDEST \t\t\t\n      PUSH 0\t\t\t\n      PUSH [tag] 513\t\t\t\n      DUP4 \t\t\t\n      DUP4 \t\t\t\n      PUSH [tag] 412\t\t\t\n      JUMP \t\t\t\n    tag 513\t\t\t\n      JUMPDEST \t\t\t\n      PUSH 20\t\t\t\n      DUP4 \t\t\t\n      ADD \t\t\t\n      SWAP1 \t\t\t\n      POP \t\t\t\n      SWAP3 \t\t\t\n      SWAP2 \t\t\t\n      POP \t\t\t\n      POP \t\t\t\n      JUMP \t\t\t\n    tag 414\t\t\t\n      JUMPDEST \t\t\t\n      PUSH 0\t\t\t\n      PUSH 20\t\t\t\n      DUP3 \t\t\t\n      ADD \t\t\t\n      SWAP1 \t\t\t\n      POP \t\t\t\n      SWAP2 \t\t\t\n      SWAP1 \t\t\t\n      POP \t\t\t\n      JUMP \t\t\t\n    tag 415\t\t\t\n      JUMPDEST \t\t\t\n      PUSH 0\t\t\t\n      PUSH [tag] 516\t\t\t\n      DUP3 \t\t\t\n      PUSH [tag] 409\t\t\t\n      JUMP \t\t\t\n    tag 516\t\t\t\n      JUMPDEST \t\t\t\n      PUSH [tag] 517\t\t\t\n      DUP2 \t\t\t\n      DUP6 \t\t\t\n      PUSH [tag] 410\t\t\t\n      JUMP \t\t\t\n    tag 517\t\t\t\n      JUMPDEST \t\t\t\n      SWAP4 \t\t\t\n      POP \t\t\t\n      PUSH [tag] 518\t\t\t\n      DUP4 \t\t\t\n      PUSH [tag] 411\t\t\t\n      JUMP \t\t\t\n    tag 518\t\t\t\n      JUMPDEST \t\t\t\n      DUP1 \t\t\t\n      PUSH 0\t\t\t\n    tag 519\t\t\t\n      JUMPDEST \t\t\t\n      DUP4 \t\t\t\n      DUP2 \t\t\t\n      LT \t\t\t\n      ISZERO \t\t\t\n      PUSH [tag] 521\t\t\t\n      JUMPI \t\t\t\n      DUP2 \t\t\t\n      MLOAD \t\t\t\n      PUSH [tag] 522\t\t\t\n      DUP9 \t\t\t\n      DUP3 \t\t\t\n      PUSH [tag] 413\t\t\t\n      JUMP \t\t\t\n    tag 522\t\t\t\n      JUMPDEST \t\t\t\n      SWAP8 \t\t\t\n      POP \t\t\t\n      PUSH [tag] 523\t\t\t\n      DUP4 \t\t\t\n      PUSH [tag] 414\t\t\t\n      JUMP \t\t\t\n    tag 523\t\t\t\n      JUMPDEST \t\t\t\n      SWAP3 \t\t\t\n      POP \t\t\t\n      POP \t\t\t\n      PUSH 1\t\t\t\n      DUP2 \t\t\t\n      ADD \t\t\t\n      SWAP1 \t\t\t\n      POP \t\t\t\n      PUSH [tag] 519\t\t\t\n      JUMP \t\t\t\n    tag 521\t\t\t\n      JUMPDEST \t\t\t\n      POP \t\t\t\n      DUP6 \t\t\t\n      SWAP4 \t\t\t\n      POP \t\t\t\n      POP \t\t\t\n      POP \t\t\t\n      POP \t\t\t\n      SWAP3 \t\t\t\n      SWAP2 \t\t\t\n      POP \t\t\t\n      POP \t\t\t\n      JUMP \t\t\t\n    tag 83\t\t\t\n      JUMPDEST \t\t\t\n      PUSH 0\t\t\t\n      PUSH E0\t\t\t\n      DUP3 \t\t\t\n      ADD \t\t\t\n      SWAP1 \t\t\t\n      POP \t\t\t\n      PUSH [tag] 525\t\t\t\n      PUSH 0\t\t\t\n      DUP4 \t\t\t\n      ADD \t\t\t\n      DUP11 \t\t\t\n      PUSH [tag] 407\t\t\t\n      JUMP \t\t\t\n    tag 525\t\t\t\n      JUMPDEST \t\t\t\n      DUP2 \t\t\t\n      DUP2 \t\t\t\n      SUB \t\t\t\n      PUSH 20\t\t\t\n      DUP4 \t\t\t\n      ADD \t\t\t\n      MSTORE \t\t\t\n      PUSH [tag] 526\t\t\t\n      DUP2 \t\t\t\n      DUP10 \t\t\t\n      PUSH [tag] 388\t\t\t\n      JUMP \t\t\t\n    tag 526\t\t\t\n      JUMPDEST \t\t\t\n      SWAP1 \t\t\t\n      POP \t\t\t\n      DUP2 \t\t\t\n      DUP2 \t\t\t\n      SUB \t\t\t\n      PUSH 40\t\t\t\n      DUP4 \t\t\t\n      ADD \t\t\t\n      MSTORE \t\t\t\n      PUSH [tag] 527\t\t\t\n      DUP2 \t\t\t\n      DUP9 \t\t\t\n      PUSH [tag] 388\t\t\t\n      JUMP \t\t\t\n    tag 527\t\t\t\n      JUMPDEST \t\t\t\n      SWAP1 \t\t\t\n      POP \t\t\t\n      PUSH [tag] 528\t\t\t\n      PUSH 60\t\t\t\n      DUP4 \t\t\t\n      ADD \t\t\t\n      DUP8 \t\t\t\n      PUSH [tag] 401\t\t\t\n      JUMP \t\t\t\n    tag 528\t\t\t\n      JUMPDEST \t\t\t\n      PUSH [tag] 529\t\t\t\n      PUSH 80\t\t\t\n      DUP4 \t\t\t\n      ADD \t\t\t\n      DUP7 \t\t\t\n      PUSH [tag] 408\t\t\t\n      JUMP \t\t\t\n    tag 529\t\t\t\n      JUMPDEST \t\t\t\n      PUSH [tag] 530\t\t\t\n      PUSH A0\t\t\t\n      DUP4 \t\t\t\n      ADD \t\t\t\n      DUP6 \t\t\t\n      PUSH [tag] 405\t\t\t\n      JUMP \t\t\t\n    tag 530\t\t\t\n      JUMPDEST \t\t\t\n      DUP2 \t\t\t\n      DUP2 \t\t\t\n      SUB \t\t\t\n      PUSH C0\t\t\t\n      DUP4 \t\t\t\n      ADD \t\t\t\n      MSTORE \t\t\t\n      PUSH [tag] 531\t\t\t\n      DUP2 \t\t\t\n      DUP5 \t\t\t\n      PUSH [tag] 415\t\t\t\n      JUMP \t\t\t\n    tag 531\t\t\t\n      JUMPDEST \t\t\t\n      SWAP1 \t\t\t\n      POP \t\t\t\n      SWAP9 \t\t\t\n      SWAP8 \t\t\t\n      POP \t\t\t\n      POP \t\t\t\n      POP \t\t\t\n      POP \t\t\t\n      POP \t\t\t\n      POP \t\t\t\n      POP \t\t\t\n      POP \t\t\t\n      JUMP \t\t\t\n    tag 87\t\t\t\n      JUMPDEST \t\t\t\n      PUSH 0\t\t\t\n      PUSH 20\t\t\t\n      DUP3 \t\t\t\n      ADD \t\t\t\n      SWAP1 \t\t\t\n      POP \t\t\t\n      PUSH [tag] 533\t\t\t\n      PUSH 0\t\t\t\n      DUP4 \t\t\t\n      ADD \t\t\t\n      DUP5 \t\t\t\n      PUSH [tag] 408\t\t\t\n      JUMP \t\t\t\n    tag 533\t\t\t\n      JUMPDEST \t\t\t\n      SWAP3 \t\t\t\n      SWAP2 \t\t\t\n      POP \t\t\t\n      POP \t\t\t\n      JUMP \t\t\t\n    tag 416\t\t\t\n      JUMPDEST \t\t\t\n      PUSH [tag] 535\t\t\t\n      DUP2 \t\t\t\n      PUSH [tag] 402\t\t\t\n      JUMP \t\t\t\n    tag 535\t\t\t\n      JUMPDEST \t\t\t\n      DUP2 \t\t\t\n      EQ \t\t\t\n      PUSH [tag] 536\t\t\t\n      JUMPI \t\t\t\n      PUSH 0\t\t\t\n      DUP1 \t\t\t\n      REVERT \t\t\t\n    tag 536\t\t\t\n      JUMPDEST \t\t\t\n      POP \t\t\t\n      JUMP \t\t\t\n    tag 417\t\t\t\n      JUMPDEST \t\t\t\n      PUSH 0\t\t\t\n      DUP2 \t\t\t\n      CALLDATALOAD \t\t\t\n      SWAP1 \t\t\t\n      POP \t\t\t\n      PUSH [tag] 538\t\t\t\n      DUP2 \t\t\t\n      PUSH [tag] 416\t\t\t\n      JUMP \t\t\t\n    tag 538\t\t\t\n      JUMPDEST \t\t\t\n      SWAP3 \t\t\t\n      SWAP2 \t\t\t\n      POP \t\t\t\n      POP \t\t\t\n      JUMP \t\t\t\n    tag 418\t\t\t\n      JUMPDEST \t\t\t\n      PUSH [tag] 540\t\t\t\n      DUP2 \t\t\t\n      PUSH [tag] 404\t\t\t\n      JUMP \t\t\t\n    tag 540\t\t\t\n      JUMPDEST \t\t\t\n      DUP2 \t\t\t\n      EQ \t\t\t\n      PUSH [tag] 541\t\t\t\n      JUMPI \t\t\t\n      PUSH 0\t\t\t\n      DUP1 \t\t\t\n      REVERT \t\t\t\n    tag 541\t\t\t\n      JUMPDEST \t\t\t\n      POP \t\t\t\n      JUMP \t\t\t\n    tag 419\t\t\t\n      JUMPDEST \t\t\t\n      PUSH 0\t\t\t\n      DUP2 \t\t\t\n      CALLDATALOAD \t\t\t\n      SWAP1 \t\t\t\n      POP \t\t\t\n      PUSH [tag] 543\t\t\t\n      DUP2 \t\t\t\n      PUSH [tag] 418\t\t\t\n      JUMP \t\t\t\n    tag 543\t\t\t\n      JUMPDEST \t\t\t\n      SWAP3 \t\t\t\n      SWAP2 \t\t\t\n      POP \t\t\t\n      POP \t\t\t\n      JUMP \t\t\t\n    tag 100\t\t\t\n      JUMPDEST \t\t\t\n      PUSH 0\t\t\t\n      DUP1 \t\t\t\n      PUSH 0\t\t\t\n      DUP1 \t\t\t\n      PUSH 0\t\t\t\n      DUP1 \t\t\t\n      PUSH 0\t\t\t\n      PUSH E0\t\t\t\n      DUP9 \t\t\t\n      DUP11 \t\t\t\n      SUB \t\t\t\n      SLT \t\t\t\n      ISZERO \t\t\t\n      PUSH [tag] 545\t\t\t\n      JUMPI \t\t\t\n      PUSH [tag] 546\t\t\t\n      PUSH [tag] 390\t\t\t\n      JUMP \t\t\t\n    tag 546\t\t\t\n      JUMPDEST \t\t\t\n    tag 545\t\t\t\n      JUMPDEST \t\t\t\n      PUSH 0\t\t\t\n      PUSH [tag] 547\t\t\t\n      DUP11 \t\t\t\n      DUP3 \t\t\t\n      DUP12 \t\t\t\n      ADD \t\t\t\n      PUSH [tag] 395\t\t\t\n      JUMP \t\t\t\n    tag 547\t\t\t\n      JUMPDEST \t\t\t\n      SWAP8 \t\t\t\n      POP \t\t\t\n      POP \t\t\t\n      PUSH 20\t\t\t\n      PUSH [tag] 548\t\t\t\n      DUP11 \t\t\t\n      DUP3 \t\t\t\n      DUP12 \t\t\t\n      ADD \t\t\t\n      PUSH [tag] 395\t\t\t\n      JUMP \t\t\t\n    tag 548\t\t\t\n      JUMPDEST \t\t\t\n      SWAP7 \t\t\t\n      POP \t\t\t\n      POP \t\t\t\n      PUSH 40\t\t\t\n      PUSH [tag] 549\t\t\t\n      DUP11 \t\t\t\n      DUP3 \t\t\t\n      DUP12 \t\t\t\n      ADD \t\t\t\n      PUSH [tag] 398\t\t\t\n      JUMP \t\t\t\n    tag 549\t\t\t\n      JUMPDEST \t\t\t\n      SWAP6 \t\t\t\n      POP \t\t\t\n      POP \t\t\t\n      PUSH 60\t\t\t\n      PUSH [tag] 550\t\t\t\n      DUP11 \t\t\t\n      DUP3 \t\t\t\n      DUP12 \t\t\t\n      ADD \t\t\t\n      PUSH [tag] 398\t\t\t\n      JUMP \t\t\t\n    tag 550\t\t\t\n      JUMPDEST \t\t\t\n      SWAP5 \t\t\t\n      POP \t\t\t\n      POP \t\t\t\n      PUSH 80\t\t\t\n      PUSH [tag] 551\t\t\t\n      DUP11 \t\t\t\n      DUP3 \t\t\t\n      DUP12 \t\t\t\n      ADD \t\t\t\n      PUSH [tag] 417\t\t\t\n      JUMP \t\t\t\n    tag 551\t\t\t\n      JUMPDEST \t\t\t\n      SWAP4 \t\t\t\n      POP \t\t\t\n      POP \t\t\t\n      PUSH A0\t\t\t\n      PUSH [tag] 552\t\t\t\n      DUP11 \t\t\t\n      DUP3 \t\t\t\n      DUP12 \t\t\t\n      ADD \t\t\t\n      PUSH [tag] 419\t\t\t\n      JUMP \t\t\t\n    tag 552\t\t\t\n      JUMPDEST \t\t\t\n      SWAP3 \t\t\t\n      POP \t\t\t\n      POP \t\t\t\n      PUSH C0\t\t\t\n      PUSH [tag] 553\t\t\t\n      DUP11 \t\t\t\n      DUP3 \t\t\t\n      DUP12 \t\t\t\n      ADD \t\t\t\n      PUSH [tag] 419\t\t\t\n      JUMP \t\t\t\n    tag 553\t\t\t\n      JUMPDEST \t\t\t\n      SWAP2 \t\t\t\n      POP \t\t\t\n      POP \t\t\t\n      SWAP3 \t\t\t\n      SWAP6 \t\t\t\n      SWAP9 \t\t\t\n      SWAP2 \t\t\t\n      SWAP5 \t\t\t\n      SWAP8 \t\t\t\n      POP \t\t\t\n      SWAP3 \t\t\t\n      SWAP6 \t\t\t\n      POP \t\t\t\n      JUMP \t\t\t\n    tag 104\t\t\t\n      JUMPDEST \t\t\t\n      PUSH 0\t\t\t\n      DUP1 \t\t\t\n      PUSH 40\t\t\t\n      DUP4 \t\t\t\n      DUP6 \t\t\t\n      SUB \t\t\t\n      SLT \t\t\t\n      ISZERO \t\t\t\n      PUSH [tag] 555\t\t\t\n      JUMPI \t\t\t\n      PUSH [tag] 556\t\t\t\n      PUSH [tag] 390\t\t\t\n      JUMP \t\t\t\n    tag 556\t\t\t\n      JUMPDEST \t\t\t\n    tag 555\t\t\t\n      JUMPDEST \t\t\t\n      PUSH 0\t\t\t\n      PUSH [tag] 557\t\t\t\n      DUP6 \t\t\t\n      DUP3 \t\t\t\n      DUP7 \t\t\t\n      ADD \t\t\t\n      PUSH [tag] 395\t\t\t\n      JUMP \t\t\t\n    tag 557\t\t\t\n      JUMPDEST \t\t\t\n      SWAP3 \t\t\t\n      POP \t\t\t\n      POP \t\t\t\n      PUSH 20\t\t\t\n      PUSH [tag] 558\t\t\t\n      DUP6 \t\t\t\n      DUP3 \t\t\t\n      DUP7 \t\t\t\n      ADD \t\t\t\n      PUSH [tag] 395\t\t\t\n      JUMP \t\t\t\n    tag 558\t\t\t\n      JUMPDEST \t\t\t\n      SWAP2 \t\t\t\n      POP \t\t\t\n      POP \t\t\t\n      SWAP3 \t\t\t\n      POP \t\t\t\n      SWAP3 \t\t\t\n      SWAP1 \t\t\t\n      POP \t\t\t\n      JUMP \t\t\t\n    tag 420\t\t\t\n      JUMPDEST \t\t\t\n      PUSH 0\t\t\t\n      PUSH [tag] 560\t\t\t\n      DUP3 \t\t\t\n      PUSH [tag] 393\t\t\t\n      JUMP \t\t\t\n    tag 560\t\t\t\n      JUMPDEST \t\t\t\n      SWAP1 \t\t\t\n      POP \t\t\t\n      SWAP2 \t\t\t\n      SWAP1 \t\t\t\n      POP \t\t\t\n      JUMP \t\t\t\n    tag 421\t\t\t\n      JUMPDEST \t\t\t\n      PUSH [tag] 562\t\t\t\n      DUP2 \t\t\t\n      PUSH [tag] 420\t\t\t\n      JUMP \t\t\t\n    tag 562\t\t\t\n      JUMPDEST \t\t\t\n      DUP2 \t\t\t\n      EQ \t\t\t\n      PUSH [tag] 563\t\t\t\n      JUMPI \t\t\t\n      PUSH 0\t\t\t\n      DUP1 \t\t\t\n      REVERT \t\t\t\n    tag 563\t\t\t\n      JUMPDEST \t\t\t\n      POP \t\t\t\n      JUMP \t\t\t\n    tag 422\t\t\t\n      JUMPDEST \t\t\t\n      PUSH 0\t\t\t\n      DUP2 \t\t\t\n      CALLDATALOAD \t\t\t\n      SWAP1 \t\t\t\n      POP \t\t\t\n      PUSH [tag] 565\t\t\t\n      DUP2 \t\t\t\n      PUSH [tag] 421\t\t\t\n      JUMP \t\t\t\n    tag 565\t\t\t\n      JUMPDEST \t\t\t\n      SWAP3 \t\t\t\n      SWAP2 \t\t\t\n      POP \t\t\t\n      POP \t\t\t\n      JUMP \t\t\t\n    tag 112\t\t\t\n      JUMPDEST \t\t\t\n      PUSH 0\t\t\t\n      DUP1 \t\t\t\n      PUSH 0\t\t\t\n      PUSH 60\t\t\t\n      DUP5 \t\t\t\n      DUP7 \t\t\t\n      SUB \t\t\t\n      SLT \t\t\t\n      ISZERO \t\t\t\n      PUSH [tag] 567\t\t\t\n      JUMPI \t\t\t\n      PUSH [tag] 568\t\t\t\n      PUSH [tag] 390\t\t\t\n      JUMP \t\t\t\n    tag 568\t\t\t\n      JUMPDEST \t\t\t\n    tag 567\t\t\t\n      JUMPDEST \t\t\t\n      PUSH 0\t\t\t\n      PUSH [tag] 569\t\t\t\n      DUP7 \t\t\t\n      DUP3 \t\t\t\n      DUP8 \t\t\t\n      ADD \t\t\t\n      PUSH [tag] 422\t\t\t\n      JUMP \t\t\t\n    tag 569\t\t\t\n      JUMPDEST \t\t\t\n      SWAP4 \t\t\t\n      POP \t\t\t\n      POP \t\t\t\n      PUSH 20\t\t\t\n      PUSH [tag] 570\t\t\t\n      DUP7 \t\t\t\n      DUP3 \t\t\t\n      DUP8 \t\t\t\n      ADD \t\t\t\n      PUSH [tag] 395\t\t\t\n      JUMP \t\t\t\n    tag 570\t\t\t\n      JUMPDEST \t\t\t\n      SWAP3 \t\t\t\n      POP \t\t\t\n      POP \t\t\t\n      PUSH 40\t\t\t\n      PUSH [tag] 571\t\t\t\n      DUP7 \t\t\t\n      DUP3 \t\t\t\n      DUP8 \t\t\t\n      ADD \t\t\t\n      PUSH [tag] 398\t\t\t\n      JUMP \t\t\t\n    tag 571\t\t\t\n      JUMPDEST \t\t\t\n      SWAP2 \t\t\t\n      POP \t\t\t\n      POP \t\t\t\n      SWAP3 \t\t\t\n      POP \t\t\t\n      SWAP3 \t\t\t\n      POP \t\t\t\n      SWAP3 \t\t\t\n      JUMP \t\t\t\n    tag 423\t\t\t\n      JUMPDEST \t\t\t\n      PUSH 4E487B7100000000000000000000000000000000000000000000000000000000\t\t\t\n      PUSH 0\t\t\t\n      MSTORE \t\t\t\n      PUSH 22\t\t\t\n      PUSH 4\t\t\t\n      MSTORE \t\t\t\n      PUSH 24\t\t\t\n      PUSH 0\t\t\t\n      REVERT \t\t\t\n    tag 122\t\t\t\n      JUMPDEST \t\t\t\n      PUSH 0\t\t\t\n      PUSH 2\t\t\t\n      DUP3 \t\t\t\n      DIV \t\t\t\n      SWAP1 \t\t\t\n      POP \t\t\t\n      PUSH 1\t\t\t\n      DUP3 \t\t\t\n      AND \t\t\t\n      DUP1 \t\t\t\n      PUSH [tag] 574\t\t\t\n      JUMPI \t\t\t\n      PUSH 7F\t\t\t\n      DUP3 \t\t\t\n      AND \t\t\t\n      SWAP2 \t\t\t\n      POP \t\t\t\n    tag 574\t\t\t\n      JUMPDEST \t\t\t\n      PUSH 20\t\t\t\n      DUP3 \t\t\t\n      LT \t\t\t\n      DUP2 \t\t\t\n      SUB \t\t\t\n      PUSH [tag] 575\t\t\t\n      JUMPI \t\t\t\n      PUSH [tag] 576\t\t\t\n      PUSH [tag] 423\t\t\t\n      JUMP \t\t\t\n    tag 576\t\t\t\n      JUMPDEST \t\t\t\n    tag 575\t\t\t\n      JUMPDEST \t\t\t\n      POP \t\t\t\n      SWAP2 \t\t\t\n      SWAP1 \t\t\t\n      POP \t\t\t\n      JUMP \t\t\t\n    tag 424\t\t\t\n      JUMPDEST \t\t\t\n      PUSH 4E487B7100000000000000000000000000000000000000000000000000000000\t\t\t\n      PUSH 0\t\t\t\n      MSTORE \t\t\t\n      PUSH 11\t\t\t\n      PUSH 4\t\t\t\n      MSTORE \t\t\t\n      PUSH 24\t\t\t\n      PUSH 0\t\t\t\n      REVERT \t\t\t\n    tag 152\t\t\t\n      JUMPDEST \t\t\t\n      PUSH 0\t\t\t\n      PUSH [tag] 579\t\t\t\n      DUP3 \t\t\t\n      PUSH [tag] 396\t\t\t\n      JUMP \t\t\t\n    tag 579\t\t\t\n      JUMPDEST \t\t\t\n      SWAP2 \t\t\t\n      POP \t\t\t\n      PUSH [tag] 580\t\t\t\n      DUP4 \t\t\t\n      PUSH [tag] 396\t\t\t\n      JUMP \t\t\t\n    tag 580\t\t\t\n      JUMPDEST \t\t\t\n      SWAP3 \t\t\t\n      POP \t\t\t\n      DUP3 \t\t\t\n      DUP3 \t\t\t\n      ADD \t\t\t\n      SWAP1 \t\t\t\n      POP \t\t\t\n      DUP1 \t\t\t\n      DUP3 \t\t\t\n      GT \t\t\t\n      ISZERO \t\t\t\n      PUSH [tag] 581\t\t\t\n      JUMPI \t\t\t\n      PUSH [tag] 582\t\t\t\n      PUSH [tag] 424\t\t\t\n      JUMP \t\t\t\n    tag 582\t\t\t\n      JUMPDEST \t\t\t\n    tag 581\t\t\t\n      JUMPDEST \t\t\t\n      SWAP3 \t\t\t\n      SWAP2 \t\t\t\n      POP \t\t\t\n      POP \t\t\t\n      JUMP \t\t\t\n    tag 425\t\t\t\n      JUMPDEST \t\t\t\n      PUSH 5772617070656452353A20636170206578636565646564000000000000000000\t\t\t\n      PUSH 0\t\t\t\n      DUP3 \t\t\t\n      ADD \t\t\t\n      MSTORE \t\t\t\n      POP \t\t\t\n      JUMP \t\t\t\n    tag 426\t\t\t\n      JUMPDEST \t\t\t\n      PUSH 0\t\t\t\n      PUSH [tag] 585\t\t\t\n      PUSH 17\t\t\t\n      DUP4 \t\t\t\n      PUSH [tag] 385\t\t\t\n      JUMP \t\t\t\n    tag 585\t\t\t\n      JUMPDEST \t\t\t\n      SWAP2 \t\t\t\n      POP \t\t\t\n      PUSH [tag] 586\t\t\t\n      DUP3 \t\t\t\n      PUSH [tag] 425\t\t\t\n      JUMP \t\t\t\n    tag 586\t\t\t\n      JUMPDEST \t\t\t\n      PUSH 20\t\t\t\n      DUP3 \t\t\t\n      ADD \t\t\t\n      SWAP1 \t\t\t\n      POP \t\t\t\n      SWAP2 \t\t\t\n      SWAP1 \t\t\t\n      POP \t\t\t\n      JUMP \t\t\t\n    tag 155\t\t\t\n      JUMPDEST \t\t\t\n      PUSH 0\t\t\t\n      PUSH 20\t\t\t\n      DUP3 \t\t\t\n      ADD \t\t\t\n      SWAP1 \t\t\t\n      POP \t\t\t\n      DUP2 \t\t\t\n      DUP2 \t\t\t\n      SUB \t\t\t\n      PUSH 0\t\t\t\n      DUP4 \t\t\t\n      ADD \t\t\t\n      MSTORE \t\t\t\n      PUSH [tag] 588\t\t\t\n      DUP2 \t\t\t\n      PUSH [tag] 426\t\t\t\n      JUMP \t\t\t\n    tag 588\t\t\t\n      JUMPDEST \t\t\t\n      SWAP1 \t\t\t\n      POP \t\t\t\n      SWAP2 \t\t\t\n      SWAP1 \t\t\t\n      POP \t\t\t\n      JUMP \t\t\t\n    tag 427\t\t\t\n      JUMPDEST \t\t\t\n      PUSH 5772617070656452353A2063616C6C6572206973206E6F74207468652070656E\t\t\t\n      PUSH 0\t\t\t\n      DUP3 \t\t\t\n      ADD \t\t\t\n      MSTORE \t\t\t\n      PUSH 64696E67206F776E657200000000000000000000000000000000000000000000\t\t\t\n      PUSH 20\t\t\t\n      DUP3 \t\t\t\n      ADD \t\t\t\n      MSTORE \t\t\t\n      POP \t\t\t\n      JUMP \t\t\t\n    tag 428\t\t\t\n      JUMPDEST \t\t\t\n      PUSH 0\t\t\t\n      PUSH [tag] 591\t\t\t\n      PUSH 2A\t\t\t\n      DUP4 \t\t\t\n      PUSH [tag] 385\t\t\t\n      JUMP \t\t\t\n    tag 591\t\t\t\n      JUMPDEST \t\t\t\n      SWAP2 \t\t\t\n      POP \t\t\t\n      PUSH [tag] 592\t\t\t\n      DUP3 \t\t\t\n      PUSH [tag] 427\t\t\t\n      JUMP \t\t\t\n    tag 592\t\t\t\n      JUMPDEST \t\t\t\n      PUSH 40\t\t\t\n      DUP3 \t\t\t\n      ADD \t\t\t\n      SWAP1 \t\t\t\n      POP \t\t\t\n      SWAP2 \t\t\t\n      SWAP1 \t\t\t\n      POP \t\t\t\n      JUMP \t\t\t\n    tag 176\t\t\t\n      JUMPDEST \t\t\t\n      PUSH 0\t\t\t\n      PUSH 20\t\t\t\n      DUP3 \t\t\t\n      ADD \t\t\t\n      SWAP1 \t\t\t\n      POP \t\t\t\n      DUP2 \t\t\t\n      DUP2 \t\t\t\n      SUB \t\t\t\n      PUSH 0\t\t\t\n      DUP4 \t\t\t\n      ADD \t\t\t\n      MSTORE \t\t\t\n      PUSH [tag] 594\t\t\t\n      DUP2 \t\t\t\n      PUSH [tag] 428\t\t\t\n      JUMP \t\t\t\n    tag 594\t\t\t\n      JUMPDEST \t\t\t\n      SWAP1 \t\t\t\n      POP \t\t\t\n      SWAP2 \t\t\t\n      SWAP1 \t\t\t\n      POP \t\t\t\n      JUMP \t\t\t\n    tag 192\t\t\t\n      JUMPDEST \t\t\t\n      PUSH 4E487B7100000000000000000000000000000000000000000000000000000000\t\t\t\n      PUSH 0\t\t\t\n      MSTORE \t\t\t\n      PUSH 41\t\t\t\n      PUSH 4\t\t\t\n      MSTORE \t\t\t\n      PUSH 24\t\t\t\n      PUSH 0\t\t\t\n      REVERT \t\t\t\n    tag 429\t\t\t\n      JUMPDEST \t\t\t\n      PUSH 5772617070656452353A206E6577206F776E6572206973207A65726F20616464\t\t\t\n      PUSH 0\t\t\t\n      DUP3 \t\t\t\n      ADD \t\t\t\n      MSTORE \t\t\t\n      PUSH 7265737300000000000000000000000000000000000000000000000000000000\t\t\t\n      PUSH 20\t\t\t\n      DUP3 \t\t\t\n      ADD \t\t\t\n      MSTORE \t\t\t\n      POP \t\t\t\n      JUMP \t\t\t\n    tag 430\t\t\t\n      JUMPDEST \t\t\t\n      PUSH 0\t\t\t\n      PUSH [tag] 598\t\t\t\n      PUSH 24\t\t\t\n      DUP4 \t\t\t\n      PUSH [tag] 385\t\t\t\n      JUMP \t\t\t\n    tag 598\t\t\t\n      JUMPDEST \t\t\t\n      SWAP2 \t\t\t\n      POP \t\t\t\n      PUSH [tag] 599\t\t\t\n      DUP3 \t\t\t\n      PUSH [tag] 429\t\t\t\n      JUMP \t\t\t\n    tag 599\t\t\t\n      JUMPDEST \t\t\t\n      PUSH 40\t\t\t\n      DUP3 \t\t\t\n      ADD \t\t\t\n      SWAP1 \t\t\t\n      POP \t\t\t\n      SWAP2 \t\t\t\n      SWAP1 \t\t\t\n      POP \t\t\t\n      JUMP \t\t\t\n    tag 209\t\t\t\n      JUMPDEST \t\t\t\n      PUSH 0\t\t\t\n      PUSH 20\t\t\t\n      DUP3 \t\t\t\n      ADD \t\t\t\n      SWAP1 \t\t\t\n      POP \t\t\t\n      DUP2 \t\t\t\n      DUP2 \t\t\t\n      SUB \t\t\t\n      PUSH 0\t\t\t\n      DUP4 \t\t\t\n      ADD \t\t\t\n      MSTORE \t\t\t\n      PUSH [tag] 601\t\t\t\n      DUP2 \t\t\t\n      PUSH [tag] 430\t\t\t\n      JUMP \t\t\t\n    tag 601\t\t\t\n      JUMPDEST \t\t\t\n      SWAP1 \t\t\t\n      POP \t\t\t\n      SWAP2 \t\t\t\n      SWAP1 \t\t\t\n      POP \t\t\t\n      JUMP \t\t\t\n    tag 217\t\t\t\n      JUMPDEST \t\t\t\n      PUSH 0\t\t\t\n      PUSH C0\t\t\t\n      DUP3 \t\t\t\n      ADD \t\t\t\n      SWAP1 \t\t\t\n      POP \t\t\t\n      PUSH [tag] 603\t\t\t\n      PUSH 0\t\t\t\n      DUP4 \t\t\t\n      ADD \t\t\t\n      DUP10 \t\t\t\n      PUSH [tag] 405\t\t\t\n      JUMP \t\t\t\n    tag 603\t\t\t\n      JUMPDEST \t\t\t\n      PUSH [tag] 604\t\t\t\n      PUSH 20\t\t\t\n      DUP4 \t\t\t\n      ADD \t\t\t\n      DUP9 \t\t\t\n      PUSH [tag] 408\t\t\t\n      JUMP \t\t\t\n    tag 604\t\t\t\n      JUMPDEST \t\t\t\n      PUSH [tag] 605\t\t\t\n      PUSH 40\t\t\t\n      DUP4 \t\t\t\n      ADD \t\t\t\n      DUP8 \t\t\t\n      PUSH [tag] 408\t\t\t\n      JUMP \t\t\t\n    tag 605\t\t\t\n      JUMPDEST \t\t\t\n      PUSH [tag] 606\t\t\t\n      PUSH 60\t\t\t\n      DUP4 \t\t\t\n      ADD \t\t\t\n      DUP7 \t\t\t\n      PUSH [tag] 401\t\t\t\n      JUMP \t\t\t\n    tag 606\t\t\t\n      JUMPDEST \t\t\t\n      PUSH [tag] 607\t\t\t\n      PUSH 80\t\t\t\n      DUP4 \t\t\t\n      ADD \t\t\t\n      DUP6 \t\t\t\n      PUSH [tag] 401\t\t\t\n      JUMP \t\t\t\n    tag 607\t\t\t\n      JUMPDEST \t\t\t\n      PUSH [tag] 608\t\t\t\n      PUSH A0\t\t\t\n      DUP4 \t\t\t\n      ADD \t\t\t\n      DUP5 \t\t\t\n      PUSH [tag] 401\t\t\t\n      JUMP \t\t\t\n    tag 608\t\t\t\n      JUMPDEST \t\t\t\n      SWAP8 \t\t\t\n      SWAP7 \t\t\t\n      POP \t\t\t\n      POP \t\t\t\n      POP \t\t\t\n      POP \t\t\t\n      POP \t\t\t\n      POP \t\t\t\n      POP \t\t\t\n      JUMP \t\t\t\n    tag 224\t\t\t\n      JUMPDEST \t\t\t\n      PUSH 0\t\t\t\n      PUSH 40\t\t\t\n      DUP3 \t\t\t\n      ADD \t\t\t\n      SWAP1 \t\t\t\n      POP \t\t\t\n      PUSH [tag] 610\t\t\t\n      PUSH 0\t\t\t\n      DUP4 \t\t\t\n      ADD \t\t\t\n      DUP6 \t\t\t\n      PUSH [tag] 408\t\t\t\n      JUMP \t\t\t\n    tag 610\t\t\t\n      JUMPDEST \t\t\t\n      PUSH [tag] 611\t\t\t\n      PUSH 20\t\t\t\n      DUP4 \t\t\t\n      ADD \t\t\t\n      DUP5 \t\t\t\n      PUSH [tag] 408\t\t\t\n      JUMP \t\t\t\n    tag 611\t\t\t\n      JUMPDEST \t\t\t\n      SWAP4 \t\t\t\n      SWAP3 \t\t\t\n      POP \t\t\t\n      POP \t\t\t\n      POP \t\t\t\n      JUMP \t\t\t\n    tag 232\t\t\t\n      JUMPDEST \t\t\t\n      PUSH 0\t\t\t\n      PUSH 40\t\t\t\n      DUP3 \t\t\t\n      ADD \t\t\t\n      SWAP1 \t\t\t\n      POP \t\t\t\n      PUSH [tag] 613\t\t\t\n      PUSH 0\t\t\t\n      DUP4 \t\t\t\n      ADD \t\t\t\n      DUP6 \t\t\t\n      PUSH [tag] 408\t\t\t\n      JUMP \t\t\t\n    tag 613\t\t\t\n      JUMPDEST \t\t\t\n      PUSH [tag] 614\t\t\t\n      PUSH 20\t\t\t\n      DUP4 \t\t\t\n      ADD \t\t\t\n      DUP5 \t\t\t\n      PUSH [tag] 401\t\t\t\n      JUMP \t\t\t\n    tag 614\t\t\t\n      JUMPDEST \t\t\t\n      SWAP4 \t\t\t\n      SWAP3 \t\t\t\n      POP \t\t\t\n      POP \t\t\t\n      POP \t\t\t\n      JUMP \t\t\t\n    tag 431\t\t\t\n      JUMPDEST \t\t\t\n      PUSH [tag] 616\t\t\t\n      DUP2 \t\t\t\n      PUSH [tag] 399\t\t\t\n      JUMP \t\t\t\n    tag 616\t\t\t\n      JUMPDEST \t\t\t\n      DUP2 \t\t\t\n      EQ \t\t\t\n      PUSH [tag] 617\t\t\t\n      JUMPI \t\t\t\n      PUSH 0\t\t\t\n      DUP1 \t\t\t\n      REVERT \t\t\t\n    tag 617\t\t\t\n      JUMPDEST \t\t\t\n      POP \t\t\t\n      JUMP \t\t\t\n    tag 432\t\t\t\n      JUMPDEST \t\t\t\n      PUSH 0\t\t\t\n      DUP2 \t\t\t\n      MLOAD \t\t\t\n      SWAP1 \t\t\t\n      POP \t\t\t\n      PUSH [tag] 619\t\t\t\n      DUP2 \t\t\t\n      PUSH [tag] 431\t\t\t\n      JUMP \t\t\t\n    tag 619\t\t\t\n      JUMPDEST \t\t\t\n      SWAP3 \t\t\t\n      SWAP2 \t\t\t\n      POP \t\t\t\n      POP \t\t\t\n      JUMP \t\t\t\n    tag 236\t\t\t\n      JUMPDEST \t\t\t\n      PUSH 0\t\t\t\n      PUSH 20\t\t\t\n      DUP3 \t\t\t\n      DUP5 \t\t\t\n      SUB \t\t\t\n      SLT \t\t\t\n      ISZERO \t\t\t\n      PUSH [tag] 621\t\t\t\n      JUMPI \t\t\t\n      PUSH [tag] 622\t\t\t\n      PUSH [tag] 390\t\t\t\n      JUMP \t\t\t\n    tag 622\t\t\t\n      JUMPDEST \t\t\t\n    tag 621\t\t\t\n      JUMPDEST \t\t\t\n      PUSH 0\t\t\t\n      PUSH [tag] 623\t\t\t\n      DUP5 \t\t\t\n      DUP3 \t\t\t\n      DUP6 \t\t\t\n      ADD \t\t\t\n      PUSH [tag] 432\t\t\t\n      JUMP \t\t\t\n    tag 623\t\t\t\n      JUMPDEST \t\t\t\n      SWAP2 \t\t\t\n      POP \t\t\t\n      POP \t\t\t\n      SWAP3 \t\t\t\n      SWAP2 \t\t\t\n      POP \t\t\t\n      POP \t\t\t\n      JUMP \t\t\t\n    tag 253\t\t\t\n      JUMPDEST \t\t\t\n      PUSH 0\t\t\t\n      PUSH 60\t\t\t\n      DUP3 \t\t\t\n      ADD \t\t\t\n      SWAP1 \t\t\t\n      POP \t\t\t\n      PUSH [tag] 625\t\t\t\n      PUSH 0\t\t\t\n      DUP4 \t\t\t\n      ADD \t\t\t\n      DUP7 \t\t\t\n      PUSH [tag] 408\t\t\t\n      JUMP \t\t\t\n    tag 625\t\t\t\n      JUMPDEST \t\t\t\n      PUSH [tag] 626\t\t\t\n      PUSH 20\t\t\t\n      DUP4 \t\t\t\n      ADD \t\t\t\n      DUP6 \t\t\t\n      PUSH [tag] 401\t\t\t\n      JUMP \t\t\t\n    tag 626\t\t\t\n      JUMPDEST \t\t\t\n      PUSH [tag] 627\t\t\t\n      PUSH 40\t\t\t\n      DUP4 \t\t\t\n      ADD \t\t\t\n      DUP5 \t\t\t\n      PUSH [tag] 401\t\t\t\n      JUMP \t\t\t\n    tag 627\t\t\t\n      JUMPDEST \t\t\t\n      SWAP5 \t\t\t\n      SWAP4 \t\t\t\n      POP \t\t\t\n      POP \t\t\t\n      POP \t\t\t\n      POP \t\t\t\n      JUMP \t\t\t\n    tag 433\t\t\t\n      JUMPDEST \t\t\t\n      PUSH 5265656E7472616E637947756172643A207265656E7472616E742063616C6C00\t\t\t\n      PUSH 0\t\t\t\n      DUP3 \t\t\t\n      ADD \t\t\t\n      MSTORE \t\t\t\n      POP \t\t\t\n      JUMP \t\t\t\n    tag 434\t\t\t\n      JUMPDEST \t\t\t\n      PUSH 0\t\t\t\n      PUSH [tag] 630\t\t\t\n      PUSH 1F\t\t\t\n      DUP4 \t\t\t\n      PUSH [tag] 385\t\t\t\n      JUMP \t\t\t\n    tag 630\t\t\t\n      JUMPDEST \t\t\t\n      SWAP2 \t\t\t\n      POP \t\t\t\n      PUSH [tag] 631\t\t\t\n      DUP3 \t\t\t\n      PUSH [tag] 433\t\t\t\n      JUMP \t\t\t\n    tag 631\t\t\t\n      JUMPDEST \t\t\t\n      PUSH 20\t\t\t\n      DUP3 \t\t\t\n      ADD \t\t\t\n      SWAP1 \t\t\t\n      POP \t\t\t\n      SWAP2 \t\t\t\n      SWAP1 \t\t\t\n      POP \t\t\t\n      JUMP \t\t\t\n    tag 277\t\t\t\n      JUMPDEST \t\t\t\n      PUSH 0\t\t\t\n      PUSH 20\t\t\t\n      DUP3 \t\t\t\n      ADD \t\t\t\n      SWAP1 \t\t\t\n      POP \t\t\t\n      DUP2 \t\t\t\n      DUP2 \t\t\t\n      SUB \t\t\t\n      PUSH 0\t\t\t\n      DUP4 \t\t\t\n      ADD \t\t\t\n      MSTORE \t\t\t\n      PUSH [tag] 633\t\t\t\n      DUP2 \t\t\t\n      PUSH [tag] 434\t\t\t\n      JUMP \t\t\t\n    tag 633\t\t\t\n      JUMPDEST \t\t\t\n      SWAP1 \t\t\t\n      POP \t\t\t\n      SWAP2 \t\t\t\n      SWAP1 \t\t\t\n      POP \t\t\t\n      JUMP \t\t\t\n    tag 326\t\t\t\n      JUMPDEST \t\t\t\n      PUSH 0\t\t\t\n      PUSH A0\t\t\t\n      DUP3 \t\t\t\n      ADD \t\t\t\n      SWAP1 \t\t\t\n      POP \t\t\t\n      PUSH [tag] 635\t\t\t\n      PUSH 0\t\t\t\n      DUP4 \t\t\t\n      ADD \t\t\t\n      DUP9 \t\t\t\n      PUSH [tag] 405\t\t\t\n      JUMP \t\t\t\n    tag 635\t\t\t\n      JUMPDEST \t\t\t\n      PUSH [tag] 636\t\t\t\n      PUSH 20\t\t\t\n      DUP4 \t\t\t\n      ADD \t\t\t\n      DUP8 \t\t\t\n      PUSH [tag] 405\t\t\t\n      JUMP \t\t\t\n    tag 636\t\t\t\n      JUMPDEST \t\t\t\n      PUSH [tag] 637\t\t\t\n      PUSH 40\t\t\t\n      DUP4 \t\t\t\n      ADD \t\t\t\n      DUP7 \t\t\t\n      PUSH [tag] 405\t\t\t\n      JUMP \t\t\t\n    tag 637\t\t\t\n      JUMPDEST \t\t\t\n      PUSH [tag] 638\t\t\t\n      PUSH 60\t\t\t\n      DUP4 \t\t\t\n      ADD \t\t\t\n      DUP6 \t\t\t\n      PUSH [tag] 401\t\t\t\n      JUMP \t\t\t\n    tag 638\t\t\t\n      JUMPDEST \t\t\t\n      PUSH [tag] 639\t\t\t\n      PUSH 80\t\t\t\n      DUP4 \t\t\t\n      ADD \t\t\t\n      DUP5 \t\t\t\n      PUSH [tag] 408\t\t\t\n      JUMP \t\t\t\n    tag 639\t\t\t\n      JUMPDEST \t\t\t\n      SWAP7 \t\t\t\n      SWAP6 \t\t\t\n      POP \t\t\t\n      POP \t\t\t\n      POP \t\t\t\n      POP \t\t\t\n      POP \t\t\t\n      POP \t\t\t\n      JUMP \t\t\t\n    tag 345\t\t\t\n      JUMPDEST \t\t\t\n      PUSH 0\t\t\t\n      PUSH 80\t\t\t\n      DUP3 \t\t\t\n      ADD \t\t\t\n      SWAP1 \t\t\t\n      POP \t\t\t\n      PUSH [tag] 641\t\t\t\n      PUSH 0\t\t\t\n      DUP4 \t\t\t\n      ADD \t\t\t\n      DUP8 \t\t\t\n      PUSH [tag] 405\t\t\t\n      JUMP \t\t\t\n    tag 641\t\t\t\n      JUMPDEST \t\t\t\n      PUSH [tag] 642\t\t\t\n      PUSH 20\t\t\t\n      DUP4 \t\t\t\n      ADD \t\t\t\n      DUP7 \t\t\t\n      PUSH [tag] 403\t\t\t\n      JUMP \t\t\t\n    tag 642\t\t\t\n      JUMPDEST \t\t\t\n      PUSH [tag] 643\t\t\t\n      PUSH 40\t\t\t\n      DUP4 \t\t\t\n      ADD \t\t\t\n      DUP6 \t\t\t\n      PUSH [tag] 405\t\t\t\n      JUMP \t\t\t\n    tag 643\t\t\t\n      JUMPDEST \t\t\t\n      PUSH [tag] 644\t\t\t\n      PUSH 60\t\t\t\n      DUP4 \t\t\t\n      ADD \t\t\t\n      DUP5 \t\t\t\n      PUSH [tag] 405\t\t\t\n      JUMP \t\t\t\n    tag 644\t\t\t\n      JUMPDEST \t\t\t\n      SWAP6 \t\t\t\n      SWAP5 \t\t\t\n      POP \t\t\t\n      POP \t\t\t\n      POP \t\t\t\n      POP \t\t\t\n      POP \t\t\t\n      JUMP \t\t\t\n    tag 352\t\t\t\n      JUMPDEST \t\t\t\n      PUSH 4E487B7100000000000000000000000000000000000000000000000000000000\t\t\t\n      PUSH 0\t\t\t\n      MSTORE \t\t\t\n      PUSH 21\t\t\t\n      PUSH 4\t\t\t\n      MSTORE \t\t\t\n      PUSH 24\t\t\t\n      PUSH 0\t\t\t\n      REVERT \t\t\t\n    .data\n"
}